:020000040800F2
:10000000000001203D6D00083D1200083F1200086D
:1000100041120008431200084512000800000000C9
:10002000000000000000000000000000471200086F
:1000300049120008000000004B1200084D12000891
:100040008D6D00088D6D00088D6D00088D6D0008A8
:100050008D6D00088D6D00088D6D00088D6D000898
:100060008D6D00088D6D00088D6D00088D6D000888
:100070008D6D00088D6D00088D6D00088D6D000878
:100080008D6D00088D6D00088D6D00088D6D000868
:100090008D6D00088D6D00088D6D000899120008A7
:1000A0008D6D00088D6D00088D6D00088D6D000848
:1000B0008D6D000800000000000000008D6D00083C
:1000C0008D6D00088D6D00088D6D00088D6D000828
:1000D0005D120008691200087512000881120008FC
:1000E0008D6D00088D6D000800000000000000000C
:1000F0000000000000000000000000000000000000
:10010000000000008D6D0008000000008D12000846
:1001100000000000000000008D6D00088D6D0008DB
:100120008D6D00088D6D00088D6D00088D6D0008C7
:100130008D6D0008000000000000000000000000BD
:100140008D6D00088D6D00088D6D000800000000A9
:100150008D6D00088D6D00088D6D00088D6D000897
:100160008D6D00088D6D00088D6D00080000000089
:100170008D6D00088D6D000800000000000000007B
:100180008D6D00088D6D00088D6D00080000000069
:1001900010B5054C237833B9044B13B10448AFF3C1
:1001A00000800123237010BD98050020000000008E
:1001B0005487000808B5034B1BB103490348AFF34C
:1001C000008008BD000000009C0500205487000846
:1001D00010F8012B11F8013B012A28BF9A42F7D0F1
:1001E000D01A7047034613F8012B002AFBD1181AC6
:1001F000013870470000000000000000000000000F
:1002000001F0FF01102A2BDB10F0070F08D010F8C7
:10021000013B013A8B422DD010F0070F42B3F6D1CB
:10022000F0B441EA012141EA014122F007047FF0E4
:1002300000070023F0E80256083C85EA010586EA3B
:10024000010685FA47F5A3FA87F586FA47F6A5FA77
:1002500087F68EB9EED1F0BC01F0FF0102F0070283
:1002600032B110F8013B013A83EA010313B1F8D12E
:100270000020704701387047002D06BF354603380F
:10028000073815F0010F07D1013015F4807F02BF48
:10029000013015F4C03F0130F0BC0138704700BF99
:1002A00081F0004102E000BF83F0004330B54FEA27
:1002B00041044FEA430594EA050F08BF90EA020F94
:1002C0001FBF54EA000C55EA020C7FEA645C7FEA27
:1002D000655C00F0E2804FEA5454D4EB5555B8BF4A
:1002E0006D420CDD2C4480EA020281EA030382EABB
:1002F000000083EA010180EA020281EA0303362D4D
:1003000088BF30BD11F0004F4FEA01314FF4801C1F
:100310004CEA113102D0404261EB410113F0004F31
:100320004FEA03334CEA133302D0524263EB4303E8
:1003300094EA050F00F0A780A4F10104D5F1200E86
:100340000DDB02FA0EFC22FA05F2801841F10001E1
:1003500003FA0EF2801843FA05F359410EE0A5F1B5
:1003600020050EF1200E012A03FA0EFC28BF4CF0E6
:10037000020C43FA05F3C01851EBE37101F000459C
:1003800007D54FF0000EDCF1000C7EEB00006EEBA9
:100390000101B1F5801F1BD3B1F5001F0CD3490833
:1003A0005FEA30004FEA3C0C04F101044FEA44528A
:1003B00012F5800F80F09A80BCF1004F08BF5FEA11
:1003C000500C50F1000041EB045141EA050130BDF1
:1003D0005FEA4C0C404141EB0101013C28BFB1F503
:1003E000801FE9D291F0000F04BF01460020B1FA4E
:1003F00081F308BF2033A3F10B03B3F120020CDA21
:100400000C3208DD02F1140CC2F10C0201FA0CF0FE
:1004100021FA02F10CE002F11402D8BFC2F1200C63
:1004200001FA02F120FA0CFCDCBF41EA0C01904019
:10043000E41AA2BF01EB0451294330BD6FEA040462
:100440001F3C1CDA0C340EDC04F11404C4F120024D
:1004500020FA04F001FA02F340EA030021FA04F35F
:1004600045EA030130BDC4F10C04C4F1200220FAB6
:1004700002F001FA04F340EA0300294630BD21FAF4
:1004800004F0294630BD94F0000F83F4801306BFBA
:1004900081F480110134013D4EE77FEA645C18BFAE
:1004A0007FEA655C29D094EA050F08BF90EA020F45
:1004B00005D054EA000C04BF1946104630BD91EA3D
:1004C000030F1EBF0021002030BD5FEA545C05D140
:1004D0004000494128BF41F0004130BD14F580047F
:1004E0003CBF01F5801130BD01F0004545F0FE41F3
:1004F00041F470014FF0000030BD7FEA645C1ABF28
:10050000194610467FEA655C1CBF0B46024650EA5E
:10051000013406BF52EA033591EA030F41F400218A
:1005200030BD00BF90F0000F04BF0021704730B510
:100530004FF4806404F132044FF000054FF00001E5
:1005400050E700BF90F0000F04BF0021704730B5A6
:100550004FF4806404F1320410F0004548BF40427B
:100560004FF000013EE700BF42004FEAE2014FEAD0
:1005700031014FEA02701FBF12F07F4393F07F4FAB
:1005800081F06051704732F07F4208BF704793F0AE
:100590007F4F04BF41F40021704730B54FF46074C1
:1005A00001F0004521F000411CE700BF50EA0102C4
:1005B00008BF704730B54FF000050AE050EA01026D
:1005C00008BF704730B511F0004502D5404261EBDD
:1005D00041014FF4806404F132045FEA915C3FF41E
:1005E000D8AE4FF003025FEADC0C18BF03325FEABB
:1005F000DC0C18BF033202EBDC02C2F1200300FA6C
:1006000003FC20FA02F001FA03FE40EA0E0021FA90
:1006100002F11444BDE600BF70B54FF0FF0C4CF47E
:10062000E06C1CEA11541DBF1CEA135594EA0C0F30
:1006300095EA0C0F00F0DEF82C4481EA030621EA6B
:100640004C5123EA4C5350EA013518BF52EA0335A6
:1006500041F4801143F4801338D0A0FB02CE4FF058
:100660000005E1FB02E506F00042E0FB03E54FF088
:100670000006E1FB03569CF0000F18BF4EF0010E80
:10068000A4F1FF04B6F5007F64F5407404D25FEA7C
:100690004E0E6D4146EB060642EAC62141EA55512F
:1006A0004FEAC52040EA5E504FEACE2EB4F1FD0C71
:1006B00088BFBCF5E06F1ED8BEF1004F08BF5FEAEF
:1006C000500E50F1000041EB045170BD06F00046A1
:1006D00046EA010140EA020081EA0301B4EB5C044E
:1006E000C2BFD4EB0C0541EA045170BD41F4801146
:1006F0004FF0000E013C00F3AB8014F1360FDEBF6B
:10070000002001F0004170BDC4F10004203C35DA46
:100710000C341BDC04F11404C4F1200500FA05F3C9
:1007200020FA04F001FA05F240EA020001F000426A
:1007300021F0004110EBD37021FA04F642EB0601E0
:100740005EEA430E08BF20EAD37070BDC4F10C040A
:10075000C4F1200500FA04F320FA05F001FA04F2CE
:1007600040EA020001F0004110EBD37041F10001BA
:100770005EEA430E08BF20EAD37070BDC4F12005C5
:1007800000FA05F24EEA020E20FA04F301FA05F22D
:1007900043EA020321FA04F001F0004121FA04F2D5
:1007A00020EA020000EBD3705EEA430E08BF20EAA5
:1007B000D37070BD94F0000F0FD101F000464000DF
:1007C00041EB010111F4801F08BF013CF7D041EA61
:1007D000060195F0000F18BF704703F00046520065
:1007E00043EB030313F4801F08BF013DF7D043EA36
:1007F0000603704794EA0C0F0CEA135518BF95EAEC
:100800000C0F0CD050EA410618BF52EA4306D1D172
:1008100081EA030101F000414FF0000070BD50EA91
:10082000410606BF1046194652EA430619D094EA1B
:100830000C0F02D150EA013613D195EA0C0F05D105
:1008400052EA03361CBF104619460AD181EA030159
:1008500001F0004141F0FE4141F470014FF0000011
:1008600070BD41F0FE4141F4780170BD70B54FF0AC
:10087000FF0C4CF4E06C1CEA11541DBF1CEA13552C
:1008800094EA0C0F95EA0C0F00F0A7F8A4EB05040E
:1008900081EA030E52EA03354FEA013100F0888005
:1008A0004FEA03334FF0805545EA131343EA1263CE
:1008B0004FEA022245EA111545EA10654FEA002683
:1008C0000EF000419D4208BF964244F1FD0404F53C
:1008D000407402D25B084FEA3202B61A65EB030598
:1008E0005B084FEA32024FF480104FF4002CB6EB55
:1008F000020E75EB030E22BFB61A754640EA0C00D5
:100900005B084FEA3202B6EB020E75EB030E22BF14
:10091000B61A754640EA5C005B084FEA3202B6EB55
:10092000020E75EB030E22BFB61A754640EA9C0014
:100930005B084FEA3202B6EB020E75EB030E22BFE4
:10094000B61A754640EADC0055EA060E18D04FEAA2
:10095000051545EA16754FEA06164FEAC30343EA42
:1009600052734FEAC2025FEA1C1CC0D111F4801F0F
:100970000BD141EA00014FF000004FF0004CB6E708
:1009800011F4801F04BF01430020B4F1FD0C88BFA7
:10099000BCF5E06F3FF6AFAEB5EB030C04BFB6EBB2
:1009A000020C5FEA500C50F1000041EB045170BDA5
:1009B0000EF0004E4EEA113114EB5C04C2BFD4EBD2
:1009C0000C0541EA045170BD41F480114FF0000E56
:1009D000013C90E645EA060E8DE60CEA135594EAD2
:1009E0000C0F08BF95EA0C0F3FF43BAF94EA0C0FD5
:1009F0000AD150EA01347FF434AF95EA0C0F7FF44A
:100A000025AF104619462CE795EA0C0F06D152EA9D
:100A100003353FF4FDAE1046194622E750EA410681
:100A200018BF52EA43067FF4C5AE50EA41047FF492
:100A30000DAF52EA43057FF4EBAE12E74FF0FF3CF7
:100A400006E000BF4FF0010C02E000BF4FF0010CC8
:100A50004DF804CD4FEA410C7FEA6C5C4FEA430C41
:100A600018BF7FEA6C5C1BD001B050EA410C0CBF90
:100A700052EA430C91EA030F02BF90EA020F0020F2
:100A8000704710F1000F91EA030F58BF994208BF59
:100A900090422CBFD8176FEAE37040F00100704716
:100AA0004FEA410C7FEA6C5C02D150EA013C07D16D
:100AB0004FEA430C7FEA6C5CD6D152EA033CD3D0B8
:100AC0005DF8040B704700BF8446104662468C46B2
:100AD0001946634600E000BF01B5FFF7B7FF0028E5
:100AE00048BF10F1000F01BD4DF808EDFFF7F4FF0E
:100AF0000CBF012000205DF808FB00BF4DF808ED99
:100B0000FFF7EAFF34BF012000205DF808FB00BFBB
:100B10004DF808EDFFF7E0FF94BF012000205DF8DD
:100B200008FB00BF4DF808EDFFF7CEFF94BF012092
:100B300000205DF808FB00BF4DF808EDFFF7C4FF8B
:100B400034BF012000205DF808FB00BF4FEA410CD4
:100B50007FEA6C5C02D150EA013C0AD14FEA430CB7
:100B60007FEA6C5C02D152EA033C02D14FF00000F4
:100B700070474FF0010070474A0011D212F5001281
:100B800011D20DD56FF47873B3EB62520ED44FEAE5
:100B9000C12343F0004343EA505323FA02F0704765
:100BA0004FF00000704750EA013002D14FF0FF30A3
:100BB00070474FF0000070474FEA4102B2F1E04346
:100BC00024BFB3F5001CDCF1FE5C0DD901F0004C34
:100BD0004FEAC0024CEA5070B2F1004F40EB830084
:100BE00008BF20F00100704711F0804F21D113F1B0
:100BF0003872BCBF01F00040704741F480114FEAE9
:100C00005252C2F11802C2F1200C10FA0CF320FA71
:100C100002F018BF40F001004FEAC1234FEAD3238E
:100C200003FA0CFC40EA0C0023FA02F34FEA4303F8
:100C3000CCE77FEA625307D150EA01331EBF4FF081
:100C4000FE4040F44000704701F0004040F0FE409C
:100C500040F40000704700BF53B94AB9002908BFEB
:100C600000281CBF4FF0FF314FF0FF3000F074B987
:100C7000ADF1080C6DE904CE00F006F8DDF804E0F3
:100C8000DDE9022304B070472DE9F047089D0446D2
:100C90008E46002B4DD18A42944669D9B2FA82F22F
:100CA00052B101FA02F3C2F1200120FA01F10CFA6B
:100CB00002FC41EA030E94404FEA1C48210CBEFBA3
:100CC000F8F61FFA8CF708FB16E341EA034306FB2C
:100CD00007F199420AD91CEB030306F1FF3080F0BB
:100CE0001F81994240F21C81023E63445B1AA4B208
:100CF000B3FBF8F008FB103344EA034400FB07F7AA
:100D0000A7420AD91CEB040400F1FF3380F00A81EA
:100D1000A74240F207816444023840EA0640E41BDF
:100D200000261DB1D4400023C5E900433146BDE88B
:100D3000F0878B4209D9002D00F0EF800026C5E92D
:100D4000000130463146BDE8F087B3FA83F6002E45
:100D50004AD18B4202D3824200F2F980841A61EBBD
:100D6000030301209E46002DE0D0C5E9004EDDE7DB
:100D700002B9FFDEB2FA82F2002A40F09280A1EBC3
:100D80000C014FEA1C471FFA8CFE0126200CB1FB18
:100D9000F7F307FB131140EA01410EFB03F0884211
:100DA00008D91CEB010103F1FF3802D2884200F29E
:100DB000CB804346091AA4B2B1FBF7F007FB101130
:100DC00044EA01440EFB00FEA64508D91CEB0404CE
:100DD00000F1FF3102D2A64500F2BB800846A4EB29
:100DE0000E0440EA03409CE7C6F12007B34022FA14
:100DF00007FC4CEA030C20FA07F401FA06F31C4343
:100E0000F9404FEA1C4900FA06F3B1FBF9F8200C4F
:100E10001FFA8CFE09FB181140EA014108FB0EF095
:100E2000884202FA06F20BD91CEB010108F1FF3AE5
:100E300080F08880884240F28580A8F102086144F1
:100E4000091AA4B2B1FBF9F009FB101144EA0141FF
:100E500000FB0EFE8E4508D91CEB010100F1FF34AA
:100E60006CD28E456AD90238614440EA0840A0FB42
:100E70000294A1EB0E01A142C846A64656D353D018
:100E80005DB1B3EB080261EB0E0101FA07F722FA3C
:100E900006F3F1401F43C5E9007100263146BDE865
:100EA000F087C2F12003D8400CFA02FC21FA03F3C8
:100EB000914001434FEA1C471FFA8CFEB3FBF7F049
:100EC00007FB10360B0C43EA064300FB0EF69E426E
:100ED00004FA02F408D91CEB030300F1FF382FD207
:100EE0009E422DD9023863449B1B89B2B3FBF7F6AF
:100EF00007FB163341EA034106FB0EF38B4208D988
:100F00001CEB010106F1FF3816D28B4214D9023EC8
:100F10006144C91A46EA004638E72E46284605E7E6
:100F20000646E3E61846F8E64B45A9D2B9EB0208B7
:100F300064EB0C0E0138A3E74646EAE7204694E747
:100F40004046D1E7D0467BE7023B614432E730467A
:100F500009E76444023842E7704700BF38B5194DCD
:100F600000242C7004F078FB04F052FB164805F0C6
:100F700053F904F0F9FF1548642105F0A9F9144963
:100F8000C822012005F0A2FE4FF4FA7000F0B6FE70
:100F90001049C822204605F099FE4FF4FA7000F07F
:100FA000ADFE0D4A0D494FF4FA73204605F094FB4F
:100FB000642000F0A3FE2A7809490A48BDE83840B9
:100FC00003F0D4BAED060020738700088787000875
:100FD0008C8700089C870008AC870008AF87000852
:100FE000B2870008B8050020F8B513491348144E1D
:100FF000144C154F03F0BAFA56F804590F482A0E4C
:10100000214603F0B3FA0D48C5F30742214603F029
:10101000ADFA0A48C5F30722214603F0A7FA0748AC
:10102000EAB2214603F0A2FABE42E5D1BDE8F8409B
:101030000649024803F09ABAC7870008B80500209D
:101040009475FF1FCC8700088C75FF1F238F000845
:1010500030B597B04422002105A8142505F0DAFE2A
:101060002A460021684605F0D5FE4FF4007001F0D5
:101070005DFD08B172B6FEE701224FF48033CDE981
:101080000523CDE9112502230324072205A8CDE974
:101090000F34CDE91323159300F0CCFE08B172B6DE
:1010A000FEE7CDE902000F23049004216846CDE954
:1010B000003401F063F908B172B6FEE717B030BD35
:1010C0007FB500F0E7FD04F05DFDFFF7C1FF04F020
:1010D0003DF94948494C04F0DFFF494804F0DCFF82
:1010E00004F0C6F904F016FB04F03CFB04F0B6FB78
:1010F00004F0D8FB04F0FAFB03F09EF904F00EFEB6
:10110000404805F0BFF8404B1860404805F042FBEE
:10111000637D0593237D0493E37C0393A37C029377
:10112000637C0193237C00932046D4E9022305F0DD
:101130008DFD64214FF4FA72204605F0C4FD637DF5
:101140000593237D0493E37C0393A37C0293637C48
:101150000193237C009304F58C70D4E9482305F0B7
:1011600075FD4FF4FA72642104F58C7005F0ABFD47
:10117000214804F0BDFF224804F0BAFFFFF734FF16
:1011800004F06AFA04F044FA214805F045F804F046
:10119000EBFE2048642105F09BF81F49C82201207E
:1011A00005F094FD4FF4FA7000F0A8FD1B49C82229
:1011B000002005F08BFD4FF4FA7000F09FFD184AF7
:1011C00018494FF4FA73002005F086FA164B1749B8
:1011D0001A78174803F0CAF91649154803F0C6F9FA
:1011E0004FF4FA7000F08AFD002005F00BFA64203D
:1011F00000F084FDFBE700BF540000200003002046
:101200005C000020D187000894000020DD870008E2
:1012100073870008878700088C8700089C87000870
:10122000AC870008AF870008ED060020B2870008F1
:10123000B8050020EA87000872B6FEE7FEE7FEE781
:10124000FEE7FEE7FEE770477047704708B504F019
:10125000A5FCBDE8084000F02DBD0000014802F0EB
:101260002FB900BF74070020014802F065BA00BF23
:101270003C080020014802F05FBA00BFC00800200F
:10128000014802F059BA00BF44090020014802F0A9
:1012900017B900BFD807002010B5104C63695A0673
:1012A0000CD540214FF0904001F0DAFB012802D12B
:1012B0000B4805F057FC4023636110BD63699B0533
:1012C000FBD508484FF4007101F0CAFB012802D198
:1012D000054805F047FC4FF40073EDE700040140BA
:1012E0000003002000040048180400200B4B1A6E75
:1012F00042F001021A661A6E82B002F001020092F8
:10130000009A9A6D42F080529A659B6D03F080536B
:101310000193019B052002B001F03EBC0010024089
:1013200030B5CC0D04F004041430C1F3045123583B
:1013300007258D4023EA050302FA01F10B432350F0
:1013400030BD8068C0F380007047000037B50023CF
:1013500001930446002800F0BF80456D25B904F0D4
:10136000C7F8A56584F85050206883689B0041BF8A
:10137000836823F0204323F03F0383608368DD000C
:1013800040F18A808368D90000F19D80636D43F04D
:1013900010036365A36D43F00103A3650121FFF70B
:1013A000D0FF636D03F010030343636D40F0918041
:1013B00023F4817343F00203206863658368DA07CE
:1013C0000AD4464B9B68DB0706D4454A6568936898
:1013D00023F47C132B439360E568636B94F820201F
:1013E0002B43A5682B43657E012A43EA453343EA34
:1013F000024302BF626A02F1FF3243EA4243A26A39
:1014000022B1E56A02F470722A431343C568354A73
:101410002A401343C360FFF794FF23689A6802F0E1
:101420000802024320D1D86894F83020257E52006B
:1014300020F4804042EA853220F002000243DA6064
:1014400094F83820012A40D1D4E90F25186920F4F6
:10145000FF6020F004002A430243606C0243A06C4A
:10146000024342F001021A612269012A05BF186B8A
:10147000E2691A6B02F1FF3206BF20F00F0002434F
:1014800022F00F021A63636D23F0030343F001039C
:101490006365084603B030BD8368134A23F01043E8
:1014A00023F03F0343F080538360104B1B68B3FB72
:1014B000F2F301335B000193019B002B3FF462AF19
:1014C000019B013BF7E7002169E71A6922F001025D
:1014D000C9E743F0100363650121DAE70000045017
:1014E0000003045007C0F0FF400D03000800002077
:1014F000F8B54569082D04460E460AD00368DB6836
:10150000DD0705D5436D43F0200343650120F8BD99
:10151000042500F0DBFB074623681A682A421DD029
:10152000626D42F400726265DA6812F4406F0FD1A6
:10153000627E6AB91A6811070AD5626D22F4807258
:101540006265626DD2045EBF626D42F00102626547
:10155000082DD86817D11D600020D8E7701CDCD09A
:1015600000F0B4FBC01BB04201D8002ED4D12368D8
:101570001B682B40D0D1626D84F8503042F00402D9
:1015800062650320C3E710F48040E5D10C221A60A5
:10159000BDE70368186C7047F7B50023019390F816
:1015A0005030012B05460C4600F09581012380F850
:1015B00050300068FFF7C5FE002840F086814B6878
:1015C000052B09D8023B032B00F28C80DFE803F0E7
:1015D000028385870C236360626828682368910909
:1015E00000F1300701F00C0102F01F02CE594FF05C
:1015F0001F0CC3F3846393400CFA02F226EA020242
:101600001343CB51FFF79DFE2E68B36803F0080328
:1016100003431DD13046A2682168FFF781FE266989
:1016200029682368C868042E01F160025CD0C0F309
:10163000C1014800616952F826708140A74803F053
:10164000F84338400343194341F0004142F8261063
:1016500028688368D90733D4E7682368A04AD0F89C
:10166000B01007F0180CC3F3120622FA0CF21A405D
:1016700021EA06010A43C0F8B0209A4A97421FD1D6
:10168000002E40F086809A0E013202F01F070121E1
:101690009206092F02F0F84201FA07F100F2AB803E
:1016A0000A43002E40F091809B0E013303F01F038C
:1016B00003EB43031B0542EA0301A268FFF730FE78
:1016C0002168894B194240F0B1800020002385F841
:1016D000503003B0F0BD12237DE718237BE74FF4B1
:1016E000807378E7062376E7086E086EC3F3120668
:1016F000C0F38460002E38D1C3F38463984202BFE4
:101700000B6E23F000430B664B6E2368486EC3F3E9
:101710001206C0F384606EBBC3F38463984202BFB9
:101720004B6E23F000434B66936823689168C3F3C4
:101730001200C1F3846110BBC3F38463994202BFFA
:10174000936823F000439360D3682368D168C3F3A0
:101750001200C1F38461B8B9C3F38463994202BF34
:10176000D36823F00043D36072E793FAA3F3B3FA8C
:1017700083F3C3E793FAA3F3B3FA83F3CEE793FAC1
:10178000A3F3B3FA83F3D9E793FAA3F3B3FA83F39A
:10179000E4E793FAA3F232B1B2FA82F2013202F034
:1017A0001F02092A16D893FAA3F2B2FA82F2013282
:1017B000920602F0F84293FAA3F1B1FA81F10131F5
:1017C00001F01F070121B9406AE793FAA3F3B3FAC6
:1017D00083F36AE793FAA3F2B2FA82F20132920635
:1017E00002F0F84293FAA3F1B1FA81F1013101F06C
:1017F0001F070121B9400A435EB99E0E013606F06B
:101800001F0606EB46011E39090541F00071114320
:1018100053E793FAA3F1B1FA81F1013101F01F030B
:101820006FF01D06032111FB0361EDE72F4B304ADA
:101830009868914200F0E0741ED102023FF545AF76
:1018400029682C4A91427FF440AF9A6822F0E072F6
:10185000224342F400029A60274B284A1B68B3FBDC
:10186000F2F20C2302FB03330193019B002B3FF4A4
:101870002CAF019B013BF7E7214A914211D110F0B7
:1018800080707FF422AF2968A2F1F74291427FF481
:101890001CAF9A6822F0E072224342F080729A6094
:1018A00014E7184A91427FF410AF10F480007FF4DF
:1018B0000CAF29680F4A91427FF407AF9A6822F073
:1018C000E072224342F48002E9E76A6D42F02002AE
:1018D0006A651846FAE60220FBE600BF00F0FF0347
:1018E000FFFF070000007F40000008800003045055
:1018F000000052C70000045008000020400D030003
:10190000000084CB01000080406D704770B5044634
:101910000068FFF716FD23689A6802F00802024388
:1019200001D1002070BDDA6890012BD5208B40F2E8
:101930000112904226D1284A1968490616D540223C
:101940001A6001211846FFF7FCFC58B12268936821
:101950009E0707D4936823F0004323F03F0343F02E
:101960001003936001290FD1042522E0013AE3D14D
:10197000636D43F010036365A36D43F00103A3653A
:101980000120CFE70229DDD12268936818070AD524
:1019900093689B0707D4936823F0004323F03F0329
:1019A00043F020039360022914D0032914BF0425B7
:1019B0000C2500F08BF9064623689B682B42B0D0BB
:1019C00000F084F9801B0528F6D923689B682B4218
:1019D000F2D0CDE70825ECE7010040A373B5002362
:1019E000026801939368DD07044602D5002002B027
:1019F00070BD9168204B194209D0636D43F010030C
:101A00006365A36D43F00103A3650120EFE79368CD
:101A100023F0004323F03F0343F001039360174B8F
:101A20009B68180219D400F051F9154E054622683A
:101A30001368DB07DAD49368D9075FBF9368334034
:101A400043F00103936000F041F9401B0228EED9F6
:101A500023681B68DA07EAD4CFE70A4B0A4A1B68F7
:101A6000B3FBF2F20C2302FB03330193019B002B27
:101A7000D9D0019B013BF8E73F00008000030450F0
:101A8000C0FFFF7F08000020400D030038B504466A
:101A90000068FFF756FC0546002836D194F8503010
:101AA000012B32D0012384F850302046FFF796FFF7
:101AB00040BB636D23F4706323F0010343F4807330
:101AC0006365636DDA0448BFA36D226852BFA065E9
:101AD00023F00603A3651C231360002384F8503011
:101AE000D3689B0141BF636D23F4405343F480539B
:101AF0006365936823F0004323F03F0343F004033E
:101B0000936038BD84F85050FBE70220F9E7026883
:101B100038B5936891680446C80701D4002038BDE1
:101B20009907FBD4936803F00D03012B19D1936837
:101B300023F0004323F03F0343F0020393600323A9
:101B4000136000F0C3F8054623689B68DB07E5D502
:101B500000F0BCF8401B0228F6D923689B68DA071E
:101B6000F2D5636D43F010036365A36D43F0010389
:101B7000A3650120D3E710B590F85030012B04463F
:101B800016D0012380F850300321FFF7BFFE58B96B
:101B90002046FFF7BCFF38B9636D23F4885323F068
:101BA000010343F001036365002384F8503010BD46
:101BB0000220FCE773B50023019390F85030012B0D
:101BC00004460D463ED0012380F85030FFF79FFFBA
:101BD000002833D1626D266822F4885222F0020276
:101BE00042F002026265B36823F0404323F03F03F2
:101BF00005F080452B4343F00043B360B368002BEE
:101C000012DA019B01330193019BB3F5912FF5D3B8
:101C1000636D23F0120343F010036365002384F81F
:101C20005030012002B070BD636D23F0030343F018
:101C300001036365002384F85030F3E7636D43F0DC
:101C40001003F6E70220EDE738B50F4B054618788C
:101C500008B9012038BD0D4A4FF47A73B3FBF0F395
:101C60001068B0FBF3F000F0E9FF04460028F0D163
:101C70000F2DEED8024629464FF0FF3000F09EFFB0
:101C8000034B20461D60E5E700000020080000200F
:101C90000400002010B5032000F07EFF0320FFF7B2
:101CA000D3FF044618B9FFF721FB204610BD0124DD
:101CB000FBE70000034A044B11681B780B441360D8
:101CC000704700BFB405002000000020014B1868D9
:101CD000704700BFB40500200A2358434FF0E023AB
:101CE000002258619A6101221A611A6902F00112F8
:101CF000012AFAD000221A619A61704710B5014694
:101D000000248C4200D110BD4FF47A70FFF7E4FF3D
:101D10000134F6E737B51E4DAB6DDA00044618D531
:101D200000F0FCFEB0F5007F23D1802C29D9A02C37
:101D30008CBF02200120174A136823F007030343D6
:101D40001360136803F00703181A18BF012003B0CB
:101D500030BDAB6D43F08053AB65AB6D03F080538A
:101D60000193019B00F0DAFEAB6D23F08053AB656D
:101D7000D8E7802C07D808D0A4F170035842584106
:101D8000D9E70020D7E70320D5E70220D3E700BF3B
:101D90000010024000200240224B9A68D96812F0DD
:101DA0000C0205D00C2A15D101F00301012918D12C
:101DB00019681D48090755BFD3F894101968C1F375
:101DC0000321C1F3031150F821004AB30C2A09D0B2
:101DD00000207047042A22D0082A144818BF002087
:101DE00070470020DA6802F00302022A15D00F497A
:101DF000032A08BF0846D968DA68C2F306224243BC
:101E0000D868C0F34160C1F30211013001314000D4
:101E1000B2FBF1F2B2FBF0F070470548EBE7044883
:101E2000704700BF001002407088000800127A005E
:101E30000024F4002DE9F743054608B9012047E0E6
:101E4000944C0368A668E768DB0606F00C0607F00A
:101E5000030775D51EB10C2E54D1012F52D1236822
:101E6000980702D5AB69002BE8D02368286A1907C8
:101E700056BFD4F8943023681B0903F0F00398424E
:101E800029D9FFF747FF0028D8D1236843F008037A
:101E9000236023682A6A23F0F003134323606368F6
:101EA000EA6923F47F4343EA02236360FFF774FF88
:101EB000A368794AC3F30313D35C03F01F03D8402C
:101EC000764B1860764B1868FFF7BEFE002837D0B7
:101ED00003B0BDE8F083236843F008032360236860
:101EE00023F0F003034323606368EA6923F47F432C
:101EF00043EA02236360002ED8D1FFF70BFF0028CE
:101F0000D4D09BE7AB69002B3AD0236843F00103A0
:101F10002360FFF7DBFE804623689A0728D52368F5
:101F200043F00803236023682A6A23F0F003134375
:101F300023606368EA6923F47F4343EA0223636012
:101F40002B68D8072DD42B6899076BD42B681807FA
:101F500000F1A8802B68590700F1CE802B68990604
:101F600000F13781AB6A002B40F05D810020AFE7C4
:101F7000FFF7ACFEA0EB08000228CDD90320A7E7AD
:101F8000236823F001032360FFF7A0FE8046236847
:101F90009B07D5D5FFF79AFEA0EB08000228F6D9DB
:101FA000ECE7082E03D00C2E08D1032F06D12368AE
:101FB0009A03C8D56B68002BC5D13FE76B68B3F5B2
:101FC000803F10D1236843F480332360FFF77EFE07
:101FD000804623689B03B6D4FFF778FEA0EB080089
:101FE0006428F6D9CAE7B3F5A02F04D1236843F4D7
:101FF00080232360E6E7226822F480322260226890
:1020000022F480222260002BE0D1FFF75FFE8046A1
:102010002368980397D5FFF759FEA0EB08006428C2
:10202000F6D9ABE7042E03D00C2E10D1022F0ED11F
:102030002368590503D5EB68002B3FF4FFAE6368B6
:102040002A6923F0F85343EA026363607EE7EB6892
:102050007BB1236843F480732360FFF737FE0746A4
:1020600023685A05EBD4FFF731FEC01B0228F7D9CD
:1020700084E7236823F480732360FFF727FE074675
:1020800023685B057FF562AFFFF720FEC01B0228C7
:10209000F6D973E7001002405688000808000020B7
:1020A000040000206B699BB1D4F8943043F0010325
:1020B000C4F89430FFF70AFE0746D4F894309A0724
:1020C0003FF548AFFFF702FEC01B0228F5D955E7E0
:1020D000D4F8943023F00103C4F89430FFF7F6FDF0
:1020E0000746D4F894309B077FF534AFFFF7EEFD39
:1020F000C01B0228F5D941E7A36DD80029D4A36DF0
:1021000043F08053A365A36D03F080530193019BBB
:102110004FF00108964F3B68D9051DD5AB68012BE0
:102120002BD1D4F8903043F00103C4F89030FFF77E
:10213000CDFD41F288390746D4F890309B0742D54F
:10214000B8F1000F3FF40AAFA36D23F08053A365ED
:1021500004E74FF00008DDE73B6843F480733B6021
:10216000FFF7B4FD81463B68DA05D7D4FFF7AEFD33
:10217000A0EB09000228F6D900E7052B06D1D4F818
:10218000903043F00403C4F89030CAE7D4F89020AC
:1021900022F00102C4F89020D4F8902022F004022A
:1021A000C4F89020002BC2D1FFF790FD41F288398E
:1021B0000746D4F890309807C2D5FFF787FDC01BBB
:1021C0004845F6D9DAE6FFF781FDC01B4845B3D98B
:1021D000D4E66B6A9BB1D4F8983043F00103C4F89D
:1021E0009830FFF773FD0746D4F898309A073FF50B
:1021F000B9AEFFF76BFDC01B0228F5D9BEE6D4F8D7
:10220000983023F00103C4F89830FFF75FFD0746CC
:10221000D4F898309B077FF5A5AEFFF757FDC01B9C
:102220000228F5D9AAE6022B40F08880E368EA6A22
:1022300003F00301914222D1296B03F070020139AE
:10224000B2EB011F1BD1696B03F4FE42B2EB012F0D
:1022500015D1A96B03F07842B2EBC16F0FD1EA6BD5
:10226000520803F4C001013AB1EB425F07D12A6C76
:10227000520803F0C063013AB3EB426F45D00C2E15
:102280003FF4DCAD23685E013FF5D8AD236823F051
:1022900080732360FFF71AFD0646236898012ED449
:1022A000E268344B1340EA6A13436A6B43EA022341
:1022B000AA6B43EAC2632A6B013A43EA0213EA6B50
:1022C0005208013A43EA42532A6C5208013A43EA5F
:1022D0004263E360236843F080732360E36843F064
:1022E0008073E360FFF7F2FC0546236899013FF530
:1022F0003DAEFFF7EBFC401B0228F6D93EE6FFF7A8
:10230000E5FC801B0228C8D938E623689A013FF50E
:102310002DAE236843F080732360E36843F080733D
:10232000E360FFF7D3FC054623689B013FF51EAE33
:10233000FFF7CCFC401B0228F6D91FE60C2E3FF419
:102340007DAD236823F080732360FFF7BFFC054653
:10235000236813F0007304D1E168074A0A40E26081
:1023600004E6FFF7B3FC401B0228F1D906E600BFE4
:10237000007000408C809D01FCFFEEFE2DE9F041D5
:102380000D46044610B90120BDE8F0814A4A1368A1
:1023900003F007038B422BD32068860733D4C10791
:1023A0003ED421688A0767D4434A136803F00703C1
:1023B000AB426ED811F0040F404D76D10B0706D515
:1023C000AB68226923F4605343EAC203AB60FFF7B2
:1023D000E3FCAB683A4AC3F30313BDE8F041D35CB6
:1023E00003F01F03D840374B18600020FFF72CBCC8
:1023F000136823F007030B431360136803F007030C
:102400008B42C0D1C8E72D4AA668916801F0F0015F
:102410008E4281BF936823F0F00333439360BEE79D
:102420006268264E032A33681AD113F0007FAAD0BF
:10243000B36823F003031343B360FFF747FC41F293
:1024400088380746B368626803F00C03B3EB820F69
:10245000A7D0FFF73BFCC01B4045F3D9032093E70F
:10246000022A02D113F4003FE1E712B913F0020F80
:10247000DDE713F4806FDAE7104AA668906800F091
:10248000F00086423FBF936823F0F003334393602C
:102490008AE7136823F007032B431360136803F0E4
:1024A0000703AB427FF46FAF84E7AB68E26823F4C5
:1024B000E0631343AB6081E700200240001002405C
:1024C0005688000808000020054B064A9B68C3F3A5
:1024D0000223D35C044A106803F01F03D8407047FE
:1024E000001002406688000808000020054B064ADC
:1024F0009B68C3F3C223D35C044A106803F01F0334
:10250000D84070470010024066880008080000208C
:10251000F8B5434C0368E268054690070E4639D08B
:10252000E26802F003029A4277D1002A75D0E3688C
:102530006A68C3F30213013393426ED1236823F018
:1025400080632360FFF7C2FB074623681A0140D46B
:10255000AB681802002E43D0012E4CD12A692169A4
:102560005208531E21F4C00222F4FE42024342EA02
:1025700043522261236843F080632360FFF7A6FB88
:10258000064623681B0142D52369AA6913432361C8
:10259000002024E0022B11D0032B13D0012B3CD1BF
:1025A000226812F0020F38D0E0686A6820F07300E9
:1025B000013A184340EA0210E060BFE7226812F4D3
:1025C000806FF0E722689103EED4226812F4802F26
:1025D000E9E7FFF77BFBC01B0228B6D90320F8BD53
:1025E0002269EB6840EAC36322F0784020F4FE40A1
:1025F00003432361BEE76B6922695B08591E22F021
:10260000C06323F4FE43034343EA4163F1E7FFF76A
:102610005DFB801B0228B4D9E0E70120DFE700BFA3
:10262000001002402DE9F743056815F400650446E3
:1026300009D0416CB1F5000F35D0B1F5400F37D05E
:10264000002940D001252368980351D5A04EB36DD1
:10265000D9003FD4B36D43F08053B365B36D03F03D
:1026600080530193019B0127DFF86882D8F800307E
:1026700043F48073C8F80030FFF728FB8146D8F890
:102680000030DA0528D575BBD6F8903013F44073C6
:1026900040F0DD80D6F89030A26D23F440731343F0
:1026A000C6F890301FE08A4AD36843F48033D36081
:1026B000874A616CD2F8883023F440030B43C2F898
:1026C00088300025BFE70430FFF722FF05460028C9
:1026D000B9D1EDE70027C7E7FFF7F8FAA0EB09004B
:1026E0000228CCD903251FB1B36D23F08053B36505
:1026F0002368D90708D57649206AD1F8882022F0C6
:1027000003020243C1F888209A0708D57049606A1D
:10271000D1F8882022F00C020243C1F888205F071C
:1027200008D56B49A06AD1F8882022F03002024314
:10273000C1F888209E0608D56549E06AD1F888204E
:1027400022F440620243C1F88820980508D5604908
:10275000E06BD1F8882022F440220243C1F888209F
:10276000590508D55A49206CD1F8882022F4401226
:102770000243C1F888205A0608D55549206BD1F884
:10278000882022F440520243C1F888201F0608D551
:102790004F49606BD1F8882022F440420243C1F8CF
:1027A0008820DE0508D54A49A06BD1F8882022F49C
:1027B00040320243C1F8882018030FD5444AA16C67
:1027C000D2F8883023F040630B43B1F1006FC2F8B8
:1027D000883066D1D36843F48013D36023685903EB
:1027E0000FD53B4AE16CD2F8883023F040630B43AD
:1027F000B1F1006FC2F888305ED1D36843F4801322
:10280000D36023685A0412D53149226DD1F888303B
:1028100023F040531343B2F1805FC1F8883006D1F2
:102820000221201DFFF774FE002818BF054623680B
:102830001B0408D5264A616DD2F8883023F0804306
:102840000B43C2F88830284603B0BDE8F083A26D80
:1028500093423FF41FAFD6F89020D6F8903043F45F
:102860008033C6F89030D6F8903023F48033C6F821
:10287000903022F44071D307C6F890107FF50AAF6C
:10288000FFF724FA41F288398046D6F8903098074D
:102890003FF500AFFFF71AFAA0EB08004845F4D95E
:1028A00020E7B1F1806F99D10121201DFFF730FEA3
:1028B000002818BF054691E7B1F1806FA1D1012131
:1028C000201DFFF725FE002818BF054699E700BF29
:1028D00000100240007000402DE9F74FDFF87C91B6
:1028E0005C4C00230A6832FA03F502D103B0BDE85C
:1028F000F08F012505FA03FE1EEA020200F0A08017
:102900004E68032706F003054FEA430807FA08FC60
:102910006F1E012F6FEA0C0C34D8876807EA0C0A87
:10292000CF6807FA08F747EA0A078760476827EA87
:102930000E0EC6F300179F4047EA0E074760C768B0
:1029400007EA0C0E8F6807FA08F747EA0E07022D10
:10295000C76019D14FEAD30A00EB8A0A03F0070BCC
:10296000DAF820704FEA8B0B4FF00F0E0EFA0BFEC9
:1029700027EA0E0E0F6907FA0BF747EA0E07CAF8A7
:10298000207001E0032DDAD1076805FA08F507EA9F
:102990000C072F4316F4403F076051D0D9F8605020
:1029A00045F00105C9F86050D9F8605023F00307DD
:1029B00007F1804705F0010507F58037019503F021
:1029C000030E019DBD684FEA8E0E4FF00F0C0CFAFE
:1029D0000EFCB0F1904F25EA0C0C33D01E4DA842EE
:1029E00032D005F58065A84230D005F58065A84253
:1029F0002ED005F58065A8420CBF0425072505FAF1
:102A00000EF545EA0C05BD60A568D74316F4801F96
:102A10000CBF3D401543A560E56816F4001F0CBFD0
:102A20003D401543E560656816F4003F0CBF3D402E
:102A3000154365602568F60354BF3D401543256086
:102A400001334FE70025DAE70125D8E70225D6E76D
:102A50000325D4E7000401400004004800100240B0
:102A60000369194214BF0120002070470AB1816137
:102A7000704781627047436901EA030221EA03015A
:102A800041EA02418161704790F82530022B06D05F
:102A90000423C363002380F82430012070470368B7
:102AA0001A6822F00E021A601A6822F001021A60F7
:102AB000D0E91013012203F01C0302FA03F34B6068
:102AC000002380F8252080F824301846704710B580
:102AD00090F82520022A03D00422C263012010BDF1
:102AE0000268836B116821F00E011160116821F0FA
:102AF00001011160D0E91042012102F01C0201FA2B
:102B000002F26260002480F8251080F8244013B19E
:102B100098472046E3E71846E1E70000024B1868B3
:102B200000F4C060704700BF00700040174A13688F
:102B3000B0F5007F03F4C0631DD1B3F5007F01D170
:102B400000207047136823F4C06343F400731360DC
:102B50000F4B1B6832214B430E49B3FBF1F301339A
:102B60005169490500D523B953695B05E8D50320B0
:102B70007047013BF4E7B3F5806F1FBF136823F480
:102B8000C06343F480631360DAE700BF0070004065
:102B90000800002040420F000749CA6822F4E062A2
:102BA0000302120403F4E063120C134343F0BF6307
:102BB00043F40033CB60704700ED00E0164B30B5B6
:102BC000DC68C4F30224C4F10705231D042D28BFCB
:102BD0000425062B4FF0FF338CBF033C002403FA7F
:102BE00005F521EA0501A34022EA0302A1400028DD
:102BF00041EA0203ACBF00F16040084A4FEA031308
:102C0000B8BF00F00F00DBB2AABF00F5614013545B
:102C100080F8003330BD00BF00ED00E014ED00E0AF
:102C2000002808DB0123420900F01F0003FA00F02E
:102C3000014B43F82200704700E100E00138B0F199
:102C4000807F0BD24FF0E023054A5861F02182F8D3
:102C500023100020072298611A61704701207047F5
:102C600000ED00E02DE9F7439846002317468DF864
:102C7000033005460E46FFF729F8B844A8EB0004D8
:102C8000FFF724F8294BD5F800901B682322534303
:102C90001B0D804663432A6801939368334001D13A
:102CA000184638E0B6F5C06F01BF99F80C30DBB2BA
:102CB0008DF803309DF803307B1CEED0FFF706F84B
:102CC000A0EB0800A04229D32B685A6822F0E0024A
:102CD0005A606A68B2F5827F0AD1AA68B2F5004FDD
:102CE00002D0B2F5806F03D11A6822F040021A6058
:102CF000AA6AB2F5005F07D11A6822F400521A607E
:102D00001A6842F400521A60012385F85D300023EE
:102D100085F85C30032003B0BDE8F083019B002BF5
:102D2000019B08BF0024013BB5E700BF080000205D
:102D3000F7B50E4617460546FEF7C8FF37443C1A5E
:102D4000FEF7C4FF224B1B68C3F3CB330746634334
:102D50002A680193936813F0800301D118462DE08F
:102D6000731CF7D0FEF7B2FFC01BA04228D32B681C
:102D70005A6822F0E0025A606A68B2F5827F0AD18E
:102D8000AA68B2F5004F02D0B2F5806F03D11A687D
:102D900022F040021A60AA6AB2F5005F07D11A68F1
:102DA00022F400521A601A6842F400521A60012399
:102DB00085F85D30002385F85C30032003B0F0BD5A
:102DC000019B002B019B08BF0024013BC0E700BF13
:102DD0000800002013464268B2F5827F73B50446AE
:102DE0000E460BD18268B2F5004F02D0B2F5806F6B
:102DF00004D12068026822F0400202601A4631467F
:102E000020460193FFF794FF019B054628B1236EEE
:102E100043F020032366032512E06268B2F5827F47
:102E20000ED1A268B2F5004F02D0B2F5806F07D183
:102E300032464FF4C0612046FFF714FF0028E6D168
:102E4000284602B070BD37B5134601920D460A46BA
:102E50004FF4C0510446FFF705FF019B28B1236ED4
:102E600043F020032366032010E01A46294620463B
:102E70000193FFF75DFF019B0028F0D12A464FF434
:102E8000C0612046FFF7EEFE0028E8D103B030BD58
:102E900070B5044600285FD0436A002B58D14268C1
:102EA000B2F5827F00D0C3610023A36294F85D3045
:102EB00003F0FF0223B984F85C20204602F078FC7E
:102EC0002568E168022384F85D302B68B1F5E06F76
:102ED00023F040032B604FF000033FD84FF48050A5
:102EE00000D0A3626368A668A26906F4044603F4EE
:102EF00082733343266906F002063343666906F09F
:102F00000106334302F400763343E66906F03806DF
:102F10003343266A06F080063343A66A06F4005659
:102F200033432B60666B636A06F0080603F01003F8
:102F3000334301F47061120C194302F004020A4396
:102F40001043686001230020206684F85D3070BD66
:102F50000023C0E90433A7E70120F8E71846B1F5DC
:102F6000706FBDE72DE9F7431F4690F85C30012BE9
:102F700004460D46904600F0BC80012380F85C308A
:102F8000FEF7A4FE94F85D30012B8146D8B240F0E4
:102F9000AE80002D63D0B8F1000F60D0032384F819
:102FA0005D3000232366C4E91333A4F83E80236414
:102FB000A4F84430A4F84630A3682668A563B3F5A6
:102FC000004FA4F83C8007D1336823F040033360FE
:102FD000336843F4804333603368E2685B065EBF66
:102FE000336843F040033360B2F5E06F636842D961
:102FF00013B1B8F1010F07D135F8023BF360A563B7
:10300000E38F013B9BB2E387E38F9BB2A3B94A46B0
:1030100039462046FFF717FF002865D1A36833B96A
:1030200001932368DA6801929B680193019B206EEB
:10303000003818BF012012E0226893689D0705D56B
:10304000A36B33F8021BD160A363D9E7FEF73EFE02
:10305000A0EB0900B8420BD3781CD5D00320012384
:1030600084F85D30002384F85C3003B0BDE8F08361
:10307000002FC9D1F2E713B1B8F1010F13D1E38FDB
:103080009BB2012B06D935F8023BF360A563E38FB1
:10309000023B06E02B783373A36B0133A363E38F0A
:1030A000013B9BB2E387E38F9BB2002BAFD022683A
:1030B000936899070CD5E18FA36B89B2012904D9D4
:1030C00033F8021BD160A363E1E71B781373E3E7D6
:1030D000FEF7FCFDA0EB0900B84202D37B1CE2D056
:1030E000BCE7002FDFD1B9E72023236696E7022053
:1030F000B5E70220B9E72DE9F8431F4690F85C30A8
:10310000DDF82080012B04460D46164600F01D8197
:10311000012380F85C30FEF7D9FD94F85D206368E8
:10312000012A8146D1B20AD0B3F5827F40F00B81EB
:10313000A268002A40F00781042940F00481002D94
:1031400047D0002E45D0002F43D094F85D20E16891
:103150002664042A1CBF052284F85D202668A4F892
:10316000447000222266B1F5E06FA4F84670E7874C
:10317000C4E91322A5637268A78701D8012F2AD05A
:1031800022F480527260326850065EBF326842F0AC
:1031900040023260B1F5E06F58D90BB1012F07D171
:1031A00035F8023BF360E38FA563013B9BB2E387F5
:1031B0000125E38F9BB28BB9B4F846309BB26BB953
:1031C0004A4641462046FFF73EFE002836D02023DF
:1031D0002366012032E042F48052D3E721688B68F5
:1031E0009A070DD5E38F9BB253B14DB1A36B33F862
:1031F000022BCA60A363E38F013B9BB2E3870025E8
:103200008A6812F001020FD0B4F846309BB25BB16D
:10321000236CC96823F8021B2364B4F84630013BD1
:103220009BB2A4F846301546FEF750FDA0EB09000E
:103230004045BED3B8F1FF3FBBD00320012384F843
:103240005D30002384F85C30BDE8F8830BB1012FBA
:103250000BD1E38F9BB2012B09D935F8023BF36008
:10326000E38FA563023B9BB2E387012549E02B78FE
:103270003373A36B0133A363E38F013BF3E722684E
:1032800093689B0711D5E38F9BB273B16DB1E18F4A
:10329000A36B89B201293ED933F8021BD160A36325
:1032A000E38F023B9BB2E38700252268936813F00B
:1032B00001031DD0B4F8461089B2C9B1B4F8460074
:1032C000216C80B201282ED9D06821F8020B21642C
:1032D000B4F84610023989B2A4F84610B4F8461082
:1032E00089B2012903D8516841F4805151601D46CB
:1032F000FEF7ECFCA0EB0900404520D3B8F1FF3FFE
:103300009BD1E38F9BB2002BB9D1B4F846309BB26E
:10331000002BB4D154E71B781373A36B0133A36361
:10332000E38F013BBEE7127B0A70226C01322264FC
:10333000B4F84620013A92B2A4F84620D7E7B8F193
:10334000000FDED179E7022078E702207CE72DE943
:10335000F7431E464368B3F5827F04468946174605
:103360000CD1836853B9042380F85D30134600966E
:103370000A46FFF7C0FE03B0BDE8F08394F85C3066
:10338000012B00F09A80012384F85C30FEF79EFC4C
:1033900094F85D30012B8046D8B240F08C80B9F1B2
:1033A000000F6FD0002F6DD00025042384F85D300E
:1033B000C4E913552566A563A4F84670A587E5877B
:1033C0002568E2686B68C4F84090B2F5E06F8CBF86
:1033D00023F4805343F48053A4F844706B60A368D3
:1033E000B3F5004F07D12B6823F040032B602B6807
:1033F00023F480432B602B685F065EBF2B6843F08D
:1034000040032B60B2F5E06F23D9B4F846309BB28D
:1034100023B323689A68D2073ED5DA68236C23F871
:10342000022B2364B4F84630013B9BB2A4F846302B
:10343000EBE723689A68D0071BD5226C1B7B1370BF
:10344000236C01332364B4F84630013B9BB2A4F8EB
:103450004630B4F846309BB2002BEAD142463146A2
:103460002046FFF7B7FC18BB206E003818BF0120BC
:1034700008E0FEF72BFCA0EB0800B04209D3711C5A
:10348000E7D00320012384F85D30002384F85C300A
:1034900071E7002EDDD1F4E7FEF718FCA0EB080081
:1034A000B04202D3731CB0D0EBE7002EADD1E8E7F9
:1034B00020232366D8E70220E4E702205BE7704779
:1034C000F0B503685D689A68560685B004464FEA11
:1034D0009211C2F3801708D4D60706D56E0604D51C
:1034E000C36C05B0BDE8F0401847960704D5280620
:1034F00002D5236D2046F4E741EA5211C2F30020C1
:1035000001F00101560951EA000257D0AA0655D52B
:103510007FB194F85D20032A4FF0000148D0226E5D
:1035200042F0040222660091DA6800929A680092E2
:10353000009AF1070CD5226E42F0010222660022A9
:1035400002929A6802921A6822F040021A60029A65
:1035500040B1226E42F008022266002203929A686D
:103560000392039A226E4AB35A6822F0E0025A602C
:10357000012284F85D20AA0722D05A68A06D22F0AB
:1035800003025A6040B1104B8363FFF7A0FA18B1F1
:10359000236E43F040032366606D78B10A4B83636A
:1035A000FFF795FA50B1236E43F04003236605E020
:1035B0000191DA6801929B680193019B05B0F0BD0F
:1035C0002046FFF77CFFF9E7CD35000808B5806A93
:1035D0000023A0F84630C387FFF771FF08BD90F8BD
:1035E0005D007047026852E8003F23F4907342E8A0
:1035F000003102680029F5D102F1080353E8003FC9
:1036000023F0010302F1080C4CE800310029F3D14A
:10361000036E012B07D152E8003F23F0100342E86C
:1036200000310029F7D12023C367002303664366D6
:103630007047026852E8003F23F0800342E80031FF
:1036400002680029F5D152E8003F43F0400342E808
:1036500000310029F7D17047826F212A034611D12A
:10366000B0F8522092B20AB9FFF7E3BFC26C01680A
:1036700012F8010B0885DA64B3F85220013A92B2CD
:10368000A3F852207047826F212A034613D1B0F865
:10369000522092B20AB9FFF7CCBFDA6C006832F858
:1036A000021BC1F308010185DA64B3F85220013A24
:1036B00092B2A3F852207047836F202B2CD149B3CC
:1036C00042B390F87430012B26D00023A0F852208A
:1036D000C0F88030212383678368C164B3F5805FBD
:1036E000A0F8502014D101690C4B0D4A002908BFE5
:1036F00013468366002380F87430016851E8002F78
:1037000042F0800241E80023002BF6D118467047B2
:10371000024BEEE70120704702207047593600083F
:103720008736000808B5806A0023A0F85A30A0F850
:10373000523002F009FA08BD0368DA69196870B5F9
:1037400040F60F0632429D6804460BD1960640F1C2
:1037500088808E0640F18580436E002B7BD0BDE8CB
:1037600070401847954E05F001000E40064378D092
:10377000D50709D5CE0507D501251D62D4F880509F
:1037800045F00105C4F88050950708D538B10225E9
:103790001D62D4F8805045F00405C4F880505607E7
:1037A00008D538B104251D62D4F8805045F00205D3
:1037B000C4F8805015070BD501F02005284307D029
:1037C00008201862D4F8800040F00800C4F8800097
:1037D00016050AD54D0108D54FF400601862D4F8DB
:1037E000803043F02003C4F88030D4F88030002BC0
:1037F00031D0900605D58A0603D5636E0BB12046FD
:1038000098472368D4F880509B6805F0280503F09A
:1038100040031D4320461FD0FFF7E4FE2268936853
:103820005B0615D502F1080353E8003F23F040037F
:1038300002F1080040E800310029F3D1206F38B1CF
:103840005F4B8363FFF743F928B1206F836B86E7F3
:10385000204602F079F970BD02F076F9C4F8805084
:10386000F9E7206E01287ED1D6067CD5C8067AD528
:1038700010221A629A68510646D5226F11684A686A
:1038800092B2002AE7D0B4F858009042E3D9A4F8E5
:103890005A200A6892062DD453E8002F22F4807231
:1038A00043E800210029F7D103F1080252E8002F74
:1038B00022F0010203F1080040E800210029F3D1C1
:1038C00003F1080252E8002F22F0400203F1080041
:1038D00040E800210029F3D12022E267216653E865
:1038E000002F22F0100243E800210029F7D1206FB9
:1038F000FFF7CAF8B4F85A30B4F85810C91A89B2A8
:10390000204602F0EBF8A6E7B4F85A108AB2B4F8F1
:103910005A1089B200299ED0B4F85810891A89B279
:10392000002998D053E8002F22F4907243E8002039
:103930000028F7D103F1080252E8002F22F001021B
:1039400003F1080545E800200028F3D12022E267B2
:103950006066206653E8002F22F0100243E8002042
:103960000028F7D1CCE7D60209D5680207D54FF475
:10397000801220461A62BDE8704000F0C9BB1606EE
:1039800007D50D0605D5A36E002B3FF464AF204686
:10399000E5E650067FF55FAF4A067FF55CAF53E87A
:1039A000002F22F0400243E800210029F7D1202314
:1039B000A367A166204602F08FF84CE720010004BF
:1039C0002537000808B5C36F0268222B44D1938CB9
:1039D000B0F85C10426D0B401370436D01334365CA
:1039E000B0F85A30013B9BB2A0F85A30B0F85A30C8
:1039F0009BB26BBB026852E8003F23F4907342E82D
:103A0000003103680029F5D103F1080252E8002FC4
:103A100022F0010203F1080C4CE800210029F3D147
:103A20002022C267026E4166012A12D1016653E864
:103A3000002F22F0100243E800210029F7D1DA69B3
:103A4000B0F85810D20644BF10221A6202F046F8AD
:103A500008BD02F027F8FBE7138B9BB243F0080385
:103A60001383F5E7C26F222A08B5036841D1998C08
:103A7000B0F85C201140426D22F8021B4265B0F89C
:103A80005A20013A92B2A0F85A20B0F85A2092B2C5
:103A90005ABB53E8002F22F4907243E8002100291A
:103AA000F7D103F1080252E8002F22F0010203F1DE
:103AB000080C4CE800210029F3D12022C267026ED5
:103AC0004166012A12D1016653E8002F22F010024C
:103AD00043E800210029F7D1DA69B0F85810D2067E
:103AE00044BF10221A6201F0F9FF08BD01F0DAFFAD
:103AF000FBE71A8B92B242F008021A83F5E7000046
:103B000070B5044603682169A2681D68C0690A434C
:103B100061690A437949024329400A431A605A6895
:103B2000E16822F440520A435A60754AA1699342FF
:103B30001CBF226A11439A6822F430620A439A60D9
:103B4000704A934217D1704BD3F8883003F00303C7
:103B5000013B022B00F2B0806C4AD35CB0F5004F01
:103B600040F08B80082B22D8DFE803F069A985217B
:103B7000822121216D00664A934206D1624B654A3B
:103B8000D3F8883003F00C03E7E7634A934218D177
:103B90005D4BD3F8883003F03003202B00F0878092
:103BA00007D8002B00F09480102B00F08B800120B0
:103BB00024E0302BFBD1B0F5004F44D04FF400404F
:103BC0008DE04F4A9342F2D14F4BD3F8883003F443
:103BD0004063B3F5006F15D006D85BB1B3F5806FC5
:103BE000E5D1FEF7D9F807E0B3F5406FDFD14FF428
:103BF000004008E0FEF768FC28B900200023C4E973
:103C0000193370BD4548626802EB42038342CED847
:103C1000B0EB023FCBD8510800258C464FF480769C
:103C20002946E0FB06C12B466046FDF715F83C4BE4
:103C3000A0F540729A42BAD82368D860DDE7FEF753
:103C400043FC0028D9D06268530803EB40004FF6CC
:103C5000EF73B0FBF2F0A0F110029A42A7D820F067
:103C60000F0322689BB2C0F342001843D060C4E740
:103C7000FEF792F8E5E72948E5E7082B97D801A277
:103C800052F823F0D73C0008A93C0008B53C0008D6
:103C9000AF3B0008CB3C0008AF3B0008AF3B00083F
:103CA000AF3B0008BD3B0008FEF720FC15E0B0F577
:103CB000004FE0D0194812E0B0F5004FF4D1FEF704
:103CC00015FCBEE7B0F5004FD2D0FEF765F804E072
:103CD000B0F5004FB3D0FEF7F7FB00288DD0626837
:103CE00000EB5203B3FBF2F34FF6EF72A3F11001B6
:103CF00091423FF65CAF2268D3607EE7F369FFEF45
:103D00000080004000380140001002404688000852
:103D10000044004049880008004800400024F400A6
:103D2000FFFC0F00436ADA0710B506D50168846A04
:103D30004A6822F4003222434A609C0706D5016893
:103D4000C46A4A6822F4803222434A60590706D581
:103D50000168046B4A6822F4802222434A601A07F1
:103D600006D50168446B4A6822F4004222434A6047
:103D7000DC0606D50168846B8A6822F480522243EF
:103D80008A60990606D50168C46B8A6822F40052DD
:103D900022438A605A060FD50168046C4A6822F4EF
:103DA00080122243B4F5801F4A6005D14A68446CF2
:103DB00022F4C00222434A601B0606D50268816CC9
:103DC000536823F400230B43536010BD2DE9F041E9
:103DD000DDF8188004460E4615461F462268D36952
:103DE00036EA03030CBF01230023AB4201D00020BD
:103DF00025E0B8F1FF3FF2D0FDF768FFC01B40455A
:103E0000206802D8B8F1000F1BD150E8003F23F41E
:103E1000D07340E80032002AF7D100F1080353E8DC
:103E2000003F23F0010300F1080141E80032002ABD
:103E3000F3D12023A367E36784F874200320BDE84F
:103E4000F08103685A07C9D5C3691B05C6D54FF46D
:103E50000063036250E8003F23F4D07340E800326F
:103E6000002AF7D100F1080353E8003F23F00103D3
:103E700000F1080141E80032002AF3D12023A367B2
:103E8000E367C4F88030D7E72DE9FF419846836F98
:103E9000202B04460E4617464ED100294AD0002A50
:103EA00048D090F87430012B46D0012380F874304C
:103EB00000252123C0F880508367FDF707FFA26823
:103EC000A4F85070B2F5805F0346A4F8527003D195
:103ED00022690AB935461646002284F87420B4F8DF
:103EE0005220CDF8008092B23AB940212046FFF727
:103EF0006DFF50B92023A36708E0002280212046EF
:103F00000393FFF763FF039B18B1032004B0BDE8E0
:103F1000F08121685EB935F8022BC2F308020A85E8
:103F2000B4F85220013A92B2A4F85220D7E716F81A
:103F3000012BF4E70120E9E70220E7E730B504466A
:103F4000002585B0C0F88050FDF7C0FE22681268D9
:103F50001107034615D422681268520709D56FF07D
:103F60007E4200924FF4800100222046FFF72EFF90
:103F7000A0B920230020A36784F87400E3672066BB
:103F80000DE06FF07E42009203902A464FF400113C
:103F90002046FFF71BFF039B0028DCD0032005B061
:103FA00030BD10B5044640B3836F1BB980F8743040
:103FB00001F0C0FC22682423A367136823F00103E7
:103FC00013602046FFF79CFD012816D0636A13B1E9
:103FD0002046FFF7A7FE23685A6822F490425A60F1
:103FE0009A6822F02A029A601A6842F0010220467A
:103FF0001A60BDE81040FFF7A1BF012010BD00000E
:10400000836810B5B3F5805FA0F85820A0F85A2057
:104010004FF000024165426632D1036973BB40F242
:10402000FF13A0F85C300023C0F880302223C36760
:10403000026802F1080353E8003F43F0010308322D
:1040400042E8003102680029F2D183680169B3F5C2
:10405000805F26D1184B194C002918BF23464366B0
:10406000002380F87430F1B152E8003F43F49073BC
:1040700042E800310029F7D1002010BDFF23D0E72E
:1040800023B90369002BF9D07F23CAE7B3F1805F1E
:1040900004D10369002BF7D03F23C2E7A0F85C20CE
:1040A000C1E7064BDBE752E8003F43F0200342E85C
:1040B00000310029F7D1DFE7653A0008C53900086B
:1040C000C36F202B30B41FD1D9B1D2B190F8743066
:1040D000012B19D0012380F8743000230468036693
:1040E0000A4B9C420AD063681B0207D554E8003F84
:1040F00043F0806344E80035002DF7D130BCFFF772
:104100007FBF012030BC70470220FBE700800040E9
:10411000704770B5C66F202E044620D109B9012022
:1041200070BD002AFBD090F87430012B17D001230A
:1041300080F874300366FFF763FF0028F0D1236E28
:10414000012BECD1236810221A62226852E8003F4A
:1041500043F0100342E800310029F7D1E0E70220E4
:10416000DEE70000034AD2F8883043F47003C2F857
:104170008830704700ED00E002780346272A08BF28
:10418000013318785C2814D158786E280CD005D8E3
:1041900030280BD0622808BF08207047722807D04B
:1041A000742808BF092070470A2070470020704714
:1041B0000D2070472DE9F0411D4606460B7832B1BF
:1041C000242B01D14A787AB94FF0FF3054E0272BE5
:1041D00008D14B78002B00F098800846FFF7CCFF01
:1041E000286048E02D2B49D0A3F13002092A74D869
:1041F000012300200A18085C30284BD1507800F0C9
:10420000DF00582848D042280CBF0127022712F8A7
:10421000010B002836D17A1ED2B2022A9FBF49482C
:1042200010F802C04848825C84BF00224FF00A0C9C
:104230000024B3F1FF3F18BF013A114420464FF06C
:104240000A0E11F8012F4ABB042F44D1002C42D092
:1042500007EE900A07EE104AF8EE677AB8EE477A52
:10426000C7EE876A07EE903AF8EEE77A66EEA77A2D
:1042700017EE903A2B600020BDE8F0814FF0FF333D
:104280000120B7E710782E28C1D150780028BED081
:104290000427C0E70027BAE70327B8E72E2A18D07B
:1042A000A2F13006F6B2092E00FB0CF005D9A2F1FE
:1042B0006106052E05D8573AD6B230440EFB04F4F9
:1042C000BFE7A2F14106052E01D8373AF4E70026F0
:1042D000F3E70124B5E74343CCE7242B0FD14B7818
:1042E0009BB10131B26D0023304600F0F5FC014670
:1042F00000283FF475AF304600F05CFD70E7002BFE
:104300003FF462AF222B00D1013100260B46374625
:104310000AE05C2810D1581E03F10108FFF72CFFBA
:104320004346207001330136187811FA86F40028CC
:10433000EFD1207029609FE722280CBF27702070E2
:10434000F0E700BFA0880008A38800082DE9F0432B
:104350000C468DB0174680462022002104A81E4638
:1043600002F058FDA57807F1FF3905F00F05BD42B1
:10437000B8BF4D4600274F4507DB072D4ED8DFE875
:1043800005F011161A1F252C354004AB56F8041FF2
:1043900003EB870300224046FFF70CFF00283DD1C6
:1043A0000137E8E7A36898470DB0BDE8F083A3683C
:1043B00004989847F8E7DDE90401A3689847F3E714
:1043C000DDE90512A36804989847EDE7DDE90623C7
:1043D000DDE90401A468A047E6E7089B0093DDE956
:1043E0000401DDE90623A468A047DDE7099B0193EA
:1043F000089B0093DDE90401DDE90623A468A047DA
:10440000D2E70A9B0293099B0193089B0093DDE985
:104410000401DDE90623A468A047C5E74FF0FF309B
:10442000C2E7000008B50A460146024801F0DCFE7A
:10443000002008BD640000200348044B0449836643
:10444000C82200F0B7BD00BFB80500202544000811
:104450002406002070B50246002398B205460C5C85
:10446000161801330CB9347070BD5455F5E707B513
:1044700003468DF807100DF107000121984703B09E
:104480005DF804FBC38910B5044633B1806E082182
:10449000FFF7EDFFE389013BE38110BDC38982890A
:1044A0009A4206D90269591CC181D15C806EFFF71E
:1044B000DEBF7047074A052352F8040B18B190F885
:1044C0006010890704D4013B9BB2002BF4D118463D
:1044D000704700BFF806002038B5836E0A4653B116
:1044E00000204D1E81B201302C5C002CFAD1104608
:1044F000984780B238BD1846FCE7000008B5FFF7C2
:10450000D9FF20B1BDE808400149FFF7E5BF08BD6C
:10451000A688000890F86030DB0710B5044619D56E
:104520000D49FFF7D9FF236820465968FFF7D4FFEC
:104530000A492046FFF7D0FFA168094B2046002911
:1045400008BF1946FFF7C8FF06492046BDE81040DE
:10455000FFF7C2BF0449F9E7238F0008CA870008A4
:10456000AF880008B1880008B48800080EB410B500
:104570000446CDB080B150AB4FF496714F9A009382
:1045800001A802F095FDB0F5967FA8BF4FF4967094
:1045900081B2A36E01A898474DB0BDE8104003B0AA
:1045A00070470A784AB14B7803F00F03082B04D008
:1045B000036863B11B781A4209D090F86030DB07BA
:1045C00008D4487880F0100040F3001070474FF096
:1045D000FF3070470020704700230B72082318B982
:1045E000C3F1080040B2704700F00F02013B092AF6
:1045F000DBB28CBF57323032CA540009EFE70000FB
:104600000A4908B54FF030330B604B600B724378AA
:10461000406803F00F03012B06D9072B04D9082BA0
:1046200002D0FFF7D9FF084608BD00BFEE06002004
:10463000002380EAE07230B5CB72A2EBE0720B236C
:104640000A244AB9002811DA013BDBB22D22CA54F0
:10465000C3F10B0040B230BD013BB2FBF4F5DBB25D
:1046600004FB15223032CA542A46EAE7F0D1013B56
:10467000DBB23022EBE7000030B5174A85B00446C4
:104680000D461068516801AB03C390681860134968
:104690002046FFF721FF01A92846FFF7C9FFC0F117
:1046A0000B0001442046FFF717FF0D492046FFF796
:1046B00013FF4FF0303301A92846CDE90133CDF87F
:1046C0000B30FFF789FF2046FFF706FF054920461C
:1046D000FFF702FF05B030BDD9880008CB8800087D
:1046E000D4880008238F000870B5044608460E469B
:1046F000FFF786FF01462046FFF7EEFEC0F11600E9
:1047000005B2002DD8BF0425013DA06E2021FFF782
:10471000AEFEABB22DB2002BF6D1737803F00F03CF
:10472000012B36D822492046FFF7D6FE21492046E4
:10473000FFF7D2FE07253378A06E2B4113F0010F4F
:1047400014BF78212D21FFF792FE013DF3D21949C4
:104750002046FFF7C1FEA56EF068A5B1002342F226
:104760000146C25C0D2A99B203F10103F9D826FA79
:1047700002F2D207F5D5242918D92421A847A36E1F
:104780000D480321984720460C49BDE87040FFF7CB
:10479000A3BE072B01D80A49C5E7082B01D1094957
:1047A000C1E7092B0CBF08490849BCE7A847EAE75D
:1047B000E5880008FE88000801890008238F0008AA
:1047C000EA880008EF880008F4880008F9880008E3
:1047D00070B50E49866D0446FFF77EFE0025B4F8DD
:1047E0005C3029B2994200DB70BD06EB01114B78B9
:1047F00003F00F03012B06D82046FFF7D2FE10B9B5
:104800002046FFF771FF0135E9E700BF0589000881
:1048100008B5FFF74FFE18B1BDE80840FFF7D8BF55
:1048200008BD000070B50E49866D0446FFF754FEC2
:104830000025B4F85C3029B2994200DB70BD06EB6C
:1048400001114B780E3303F00F03052B06D82046D9
:10485000FFF7A7FE10B92046FFF746FF0135E8E74E
:104860001789000808B5FFF725FE18B1BDE8084014
:10487000FFF7D8BF08BD000070B50E49866D04462D
:10488000FFF72AFE0025B4F85C3029B2994200DB1C
:1048900070BD06EB01114B7803F00F03082B06D116
:1048A0002046FFF77EFE10B92046FFF71DFF0135B9
:1048B000E9E700BF2589000808B5FFF7FBFD18B13F
:1048C000BDE80840FFF7D8BF08BD000070B50E492D
:1048D000866D0446FFF700FE0025B4F85C3029B26F
:1048E000994200DB70BD06EB01114B7803F00F031A
:1048F000092B06D12046FFF754FE10B92046FFF7DA
:10490000F3FE0135E9E700BF3489000808B5FFF779
:10491000D1FD18B1BDE80840FFF7D8BF08BD0000C1
:1049200070B5064E05460C4604B970BD31462846A2
:10493000013CFFF7D1FDE4B2F6E700BF4289000871
:1049400038B58489C3890546E41A24B2002C05DCF5
:10495000297B2846BDE83840FFF7E2BFA86E20213A
:10496000FFF785FD013CF0E738B5B0F85230B0F8FC
:104970005050B0F95410AB4238BF2B464A1E5B4230
:104980009942D8BF1A460446A0F85420FFF7D8FF32
:10499000B4F954200AB9E26038BDB4F85230206945
:1049A00005331344052293FBF2F202EB82029B1AB9
:1049B00004EB8303D96BFFF74DFDA0810028EBD0FA
:1049C000E08121692046BDE83840FFF785BD000041
:1049D0002DE9F04F838985B004463BB9FFF7F8FE17
:1049E000204605B0BDE8F04FFFF794BD0269B0F86E
:1049F00034A0DFF808B10026D654876D3546B0469E
:104A0000B3B20293B4F85C300FFA86F9994529DB0A
:104A1000002D70D0012D02D12046FFF791FF07EB4A
:104A2000081738462669FFF7EBFD01463046FFF7C9
:104A300011FD012DA08108D039462046FFF754FE14
:104A40002046FFF767FDA4F80CA0A3892269002186
:104A5000D154A3892169E381204605B0BDE8F04F18
:104A6000FFF73ABD07EB091949462046FFF799FDC4
:104A700000283ED12369039048460193FFF7C0FD0B
:104A8000039B019A1FFA83FE12F80E2032B110F830
:104A90000E1019B18A4203F10103F2D0A3897345C4
:104AA00027D115B3012D03D159462046FFF714FD38
:104AB00007EB081841462046FFF716FE4046FFF771
:104AC0009FFD80464846FFF79BFD00231FFA83FCAD
:104AD00018F80C1031B110F80C201AB1914203F102
:104AE0000103F3D0E24528BFE2460135DDF8088036
:104AF000ADB2013684E705B0BDE8F08F238F000822
:104B0000B0F8543001331BB2002B10B50446A0F8A6
:104B1000543003DD0023A0F8543010BDFFF710FF20
:104B2000B4F954200AB9E260F7E7B4F852302069CA
:104B300005331344052293FBF2F202EB82029B1A27
:104B400004EB8303D96BFFF785FCA0810028E4D038
:104B5000E08121692046BDE81040FFF7BDBC0000A0
:104B6000F8B5858E8389013DAB4204460A460BDBCE
:104B70002A49FFF7B1FC2046FFF7CCFC216920460B
:104B8000BDE8F840FFF7A8BCC08983420FD1206977
:104B90005D1CA581C154A38922690020D054E389FA
:104BA000A06E0133E381BDE8F840FFF760BC1ED979
:104BB0001B1A9FB200211BB2781A00B20028266986
:104BC000E58915DC6B1CE3817255A38922690133E9
:104BD0009BB20021A381D154E689013EA58936B25A
:104BE000AE420DDBE389ED1A2DB2002D0FDCF8BDCE
:104BF000581A28443518013115F8015C3554DBE7A3
:104C00002369A06E995DFFF732FC0136E6E7A06EDE
:104C10000821FFF72CFC013DE6E700BF46890008AC
:104C200038B54D1CC3896A4204466A410BB9012953
:104C30003DD0A089834216D1481C38D0012912D119
:104C4000013BE38122699BB20020A381D05420461E
:104C5000BDE83840FFF764BE206913440132C55CEB
:104C6000034403F8015CA089E38912B2C51AAA4281
:104C7000F2DB01380131A08105D0013BA06EE38158
:104C80000821FFF7F4FBA38922690021D154B4F96C
:104C90000E50A389A06E9D420ADB2021FFF7E7FB9F
:104CA000A589E3890135ED1A2DB2002D07DC38BD49
:104CB0002369595D0135FFF7DAFB2DB2E9E7A06EF4
:104CC0000821FFF7D4FB013DEEE70121FFF7A8BF64
:104CD0004FF0FF31FFF7A4BF2DE9F843856D9846EB
:104CE000531BB0F85C50A5EB1315ADB206460F464A
:104CF000144602EB0515AC4202D14FF0000919E051
:104D0000637803F00F03092BA14601D11034F2E7B9
:104D100021463046FFF745FC0028F7D12046FFF733
:104D20006FFC0146B8F1000F07D13846FBF750FA87
:104D30000028EBD14846BDE8F8834246384602F0E9
:104D400061F9F5E770B506460D46FFF7B3FB04467B
:104D500040B3012E03D1BDE87040FFF739BD21DD1E
:104D60006968826D0023FFF7B7FF0546C0B10E49A1
:104D70002046FFF7B1FB2846FFF742FC01462046DC
:104D8000FFF7AAFB09492046FFF7A6FBE968204682
:104D9000FFF7A2FB05492046BDE87040FFF79CBB2A
:104DA0000349F8E770BD00BF67890008238F00083A
:104DB000788900084B7803F00F03023B052B15D8C8
:104DC000DFE803F003060A0D0D0F8B6818687047C3
:104DD0008B68B3F9000070478B6818787047886853
:104DE00070478A6853680BB11068184700207047F5
:104DF0007FB5234A04460E461068516801AB03C3D1
:104E00009068186031462046FFF7D4FF7168054668
:104E10002046FFF761FB1B492046FFF75DFB7378D7
:104E200003F00F03052B12D117492046FFF754FB5F
:104E300029462046FFF750FB13492046FFF74CFB5D
:104E400012492046FFF748FB284604B070BD01A96F
:104E50002846FFF7EDFBC0F10B0001442046FFF7A9
:104E60003BFB0B492046FFF737FB4FF0303301A9DE
:104E70002846CDE90133CDF80B30FFF7ADFBDCE779
:104E8000D98800088C89000890890008238F0008C1
:104E9000D488000838B50C46114663785A06054692
:104EA00003D51649FFF718FB0BE003F00F03023B95
:104EB000052B06D8DFE803F0030B0E111517A368C6
:104EC000196021462846BDE83840FFF791BFA36826
:104ED0001980F6E7A3681970F3E7A068FFF7BAFA3C
:104EE000EFE70749DEE7A2689368002BE9D0106876
:104EF00008B19847E5E708469847E2E79289000835
:104F0000AC89000870B505460E46FFF7D3FA044693
:104F100050B12946826D0023FFF7DEFE014628B915
:104F20000B492046FFF7D8FA002070BD43780E33B6
:104F300003F00F03052B05D929462046FFF7CCFACD
:104F40000449EEE732462046BDE87040FFF7A2BFB5
:104F5000C0890008D089000810B50446016088683F
:104F6000F0B10378E3B1E38E012B1BD9A169FBF704
:104F70002FF9B0FA80F0400994F860300B4960F3E3
:104F8000000384F860302046FFF7A6FA94F86030FA
:104F9000DB0709D520460649BDE81040FFF79CBA5B
:104FA0000120E9E70020E7E710BD00BFA688000860
:104FB000E0890008002310B50446C360036090F840
:104FC0006000216140F0010084F860002365062044
:104FD000A4F85430B2FBF0F204F13C03A286114471
:104FE00004F1500043F8041B83421144FAD1114AE2
:104FF000114BA2659B1A114A1B09A4F85C3011469B
:10500000002352F8040B80B941F82340094A0C49A7
:1050100000232046FFF760FE01462046FFF79CFF75
:105020002046BDE81040FFF775BA0133052BE8D1E3
:10503000ECE700BFC890000898920008F80600202E
:10504000388B000890F8603043F002032DE9F041FE
:1050500080F860304B7813F00F0504460E4632D1CD
:10506000A84617E0ABB204EB830301355A69117807
:10507000222901BF82F800805A6901325A615F69B2
:105080003846FBF7AFF880B201383B5C222B08BFF3
:1050900007F80080E08EABB29842E3D8B36804F121
:1050A0001401984773789B06054603D401462046B1
:1050B000FFF7E2FA94F860306FF3410384F8603050
:1050C0002846BDE8F081012D05D1C28E00F1140300
:1050D000FFF73CF9E6E70E3303F00F03052B03D887
:1050E000FFF786FE0025E5E7082DFBD1FFF734FF2B
:1050F000F8E790F860206FF3820280F86020FFF7F5
:105100002FBD00008289F8B50446002A00F09A807D
:10511000016900238B5490F8605015F0010600F0EF
:105120008180A0F85430B0F85030B0F852504BB1F4
:10513000002D46D06B1E04EB83032169D86BFBF76F
:1051400047F8D8B104EB85052169E86BFFF782F9D0
:1051500020B1B4F852300133A4F85230B4F85030D2
:1051600001339BB2052B88BF0523A4F85030B4F857
:105170005230042B84BF0023A4F852302022002197
:1051800004F1140001F046FE0023E38632469C46FB
:10519000A189994217D8E38E0025E560002B51D0F4
:1051A0002A492046FFF798F96169A26D2B462046EF
:1051B000FFF792FD014678B32046BDE8F840FFF7BF
:1051C00041BF0423B7E72069C75C27F020015CEAF0
:1051D000010100EB030519D0222F0CD1012A8CF01C
:1051E000010C16D1E28E072A9FBF511C04EB8202EC
:1051F000E186556101E0012AF4D02A785C2A03D1C6
:105200006A7832B101339BB2002202E0C1543246C7
:105210008C4601339BB2BBE720460D49BDE8F84000
:10522000FFF75AB9036800699968FAF7D1FF50B9D6
:1052300045F00105074984F860502046FFF74CF916
:105240000023E360F8BD0449F7E700BF238F00089F
:1052500078890008E08900083F8B000810B50446F3
:10526000FFF750FF2046BDE81040FFF753B900009C
:105270002DE9F74F04460D46002952D0836B13F4F5
:105280007F4F26D113F47F0727D103F07F43002BF4
:1052900016BF4FF07F4718261026A36D01934FF0DD
:1052A000FF08A6F10803B4F85CA008FA06FB4FF06B
:1052B000000908FA03F80FFA89F1514510DB85B3AC
:1052C000002329462046A36303B0BDE8F04FFFF753
:1052D00010BF6FF0FF070026DFE71A4F0826DCE754
:1052E000019B03EB01114B7803F00F03092B1FD136
:1052F0002046FFF756F9D8B9D1F804C0A36B0CEAE1
:1053000007029A4214D105FA06F30CEA0B0E9E45E9
:105310000ED142EA0E02A26336B98B685BB9002354
:10532000A36303B0BDE8F08F1CEA080FF5D0054673
:1053300009F10109BFE7044A00211180204698477E
:10534000EDE700BF0000FFFF0C0700202DE9F04152
:1053500014228AB00DEB0200002101F05BFD414BED
:10536000414EDA6C42F00402DA64DA6C02F00402B4
:105370000192019ADA6C42F08002DA64DA6C02F08F
:1053800080020292029ADA6C42F00102DA64DA6C6C
:1053900002F001020392039ADA6C42F00202DA642C
:1053A000DB6C03F002030493002210214FF09040C5
:1053B000049BFDF75BFB002230464621FDF756FBC0
:1053C00000244FF4005305A9284807940125CDE98E
:1053D0000534FDF781FA48F2100305A94FF090401B
:1053E000CDE90535CDE90744FDF776FA41F24203F0
:1053F00005A93046CDE90535CDE90744FDF76CFA3E
:10540000462305A93046CDE905354FF48818022713
:10541000CDE90744FDF760FA402305A94FF090401D
:10542000CDE905380797FDF757FA22462946172098
:10543000FDF7C4FB1720FDF7F3FB4FF4007305A93C
:105440003046CDE905380797FDF746FA224629464A
:105450001720FDF7B3FB1720FDF7E2FB0AB0BDE80C
:10546000F08100BF0010024000040048000800481E
:105470007FB518220021684601F0CCFC19481A4972
:1054800000230422426103830122C0E90013C0E922
:105490000233C0E90A330361C26180F8203080F82A
:1054A0003030436380F83830FBF750FF08B1FBF72A
:1054B000C3FE0E4A0B480623CDE9002300237F22BA
:1054C000CDE9023269460422CDE90423FCF764F8F1
:1054D00008B1FBF7B1FE7F210248FCF76BFB07B078
:1054E0005DF804FB10070020000004502000F014B9
:1054F00010B59EB004461422002102A801F08AFCD7
:105500005C22002107A801F085FC22681E4B9A420C
:1055100038D14FF4804307934FF080531B930324FB
:105520000123CDE908434FF0080C0723CDE90AC356
:105530000223CDE90C3307A84FF080730E93FDF7DB
:1055400071F808B1FBF778FE104BDA6C42F40052A8
:10555000DA64DA6C02F400520092009ADA6C42F0DB
:105560000102DA64DB6C03F001030193019B212249
:105570000B23CDE9022302A900234FF090400493AE
:10558000FDF7AAF91EB010BD000004500010024043
:10559000F0B5052887B00F461AD00A281BD006227E
:1055A00000237F21CDE901230422CDE90312154810
:1055B00005936946FBF7F0FF08B1FBF73DFE0024B9
:1055C000104D2646BC4208D1B6FBF4F007B0F0BD42
:1055D0000D4B0093E3E70D4BFBE72846FCF756FA2B
:1055E0000A212846FBF784FF2846FCF78DF983053E
:1055F00003D52846FBF7CDFF06442846FCF7BBFA47
:105600000134DFE7100700202000F0140004002A16
:1056100008B532210A20FFF7BBFFC828024608D987
:1056200007490848FEF7A2FF074A137801331370B1
:1056300008BD06490348FEF799FF054AF5E700BF94
:10564000358C0008B8050020ED0600204A8C0008C3
:10565000EC0600200000000008B532210520FFF70D
:1056600097FF07EE900AFBEECA7A17EE900AFAF758
:105670007BFF26A3D3E90023FAF7CEFF02460B46B1
:10568000FAF714FEFBF798FA07EE100AF0EE087A24
:10569000B4EEE77AF1EE10FA1DDDDFED157A15486C
:1056A00067EE277A6422FCEEE77A17EE903AFCEE7A
:1056B000C77AB3FBF2F102FB113317EE902A0E49C1
:1056C000FEF754FF0D490B48FEF750FF0C4A1378C4
:1056D0000133137008BDFAF747FF02460B46054831
:1056E0000849FEF743FF084AF1E700BFAFF3008027
:1056F0000000C842B8050020638C0008768C0008C2
:10570000ED060020888C0008EC06002066666666C0
:1057100066660A401148124A08B54FF48273C0E920
:10572000002300234FF4E062C0E902324FF400711D
:105730001822C0E906120722C0E90433C0E9083381
:10574000C0E90B23836208234363FDF7A1FB18B173
:10575000BDE80840FBF770BD08BD00BF740700201E
:10576000003800401048114A08B54FF48273C0E970
:10577000002300234FF4E0624FF40071C0E90232CD
:105780000822C0E906120721C0E90433C0E9083342
:10579000C0E90B1383624263FDF77AFB18B1BDE8E1
:1057A0000840FBF749BD08BDD8070020003C004079
:1057B00010B514228AB0044600210DEB020001F05E
:1057C00029FB2368214A934221D1214B9A6D42F44F
:1057D00080429A659A6D02F480420192019ADA6CD5
:1057E00042F00202DA64DB6C03F002030293029BD4
:1057F0004FF460410223CDE90513032308930523E9
:105800001448099305A9FDF767F80AB010BD124ABC
:105810009342FAD10E4B9A6D42F400429A659A6D0A
:1058200002F400420392039ADA6C42F00202DA6454
:10583000DB6C03F002030493049B38220223CDE9BE
:105840000523032308930623DAE700BF003800404E
:105850000010024000040048003C00400E480F4A7F
:1058600008B54FF4E133C0E9002300230C22C0E95E
:105870000233C0E90523C0E9073303614362FEF741
:1058800090FB08B1FBF7D8FCBDE80840044902488A
:10589000C822FEF73EBC00BF3C0800200038014093
:1058A000C80900200E480F4A08B54FF41653C0E946
:1058B000002300230422C0E90233C0E90523C0E924
:1058C000073303614362FEF76CFB08B1FBF7B4FCDE
:1058D000BDE8084004490248C822FEF71ABC00BFD0
:1058E000C008002000440040900A00200E480F4AE3
:1058F00008B54FF4E133C0E9002300230C22C0E9CE
:105900000233C0E90523C0E9073303614362FEF7B0
:1059100048FB08B1FBF790FCBDE808400449024889
:105920000122FEF7CDBB00BF440900200048004023
:10593000580B002030B5A3B004461422002106A85D
:1059400001F068FA5C2200210BA801F063FA2368D9
:105950004F4A934234D101230BA80B93FCF762FE0C
:1059600008B1FBF769FC4B4B1A6E42F480421A6691
:105970001A6E02F480420092009ADA6C42F0010240
:10598000DA64DB6C03F001030193019B4FF4C06107
:105990000223CDE9061300240323CDE9084306A919
:1059A00007234FF090400A93FCF796FF25202246EC
:1059B0000121FDF703F92520FDF732F923B030BDB1
:1059C000354A934230D102230BA80B93FCF72AFEF1
:1059D00008B1FBF731FC2F4B9A6D42F400329A6507
:1059E0009A6D02F400320292029ADA6C42F00102DD
:1059F000DA64DB6C03F001030393039B02240823A6
:105A0000CDE9063400250323CDE9085306A9072371
:105A10004FF090400A93FCF75FFF26202A4621466C
:105A2000FDF7CCF82620C7E71C4A9342C6D10423D1
:105A30000BA80B93FCF7F6FD08B1FBF7FDFB154B2C
:105A400017489A6D42F480229A659A6D02F480227A
:105A50000492049ADA6C42F00202DA64DB6C03F01E
:105A6000020305934FF44062059B0223CDE9062310
:105A700003240023CDE9083406A907230A93FCF781
:105A80002BFF272001222146FDF798F8272093E7D6
:105A9000003801400010024000440040004800402F
:105AA000000400480268084B9A4210B50BD1074C1D
:105AB00007482178FFF7DCFB21460648BDE8104087
:105AC0000122FEF7FDBA10BD00480040580B00202F
:105AD000B8050020440900207047000007B503689E
