:020000040800F2
:1000000000000120696500089D1000089F1000088D
:10001000A1100008A3100008A510000800000000AF
:10002000000000000000000000000000A710000811
:10003000A910000800000000AB100008AD10000877
:10004000B9650008B9650008B9650008B965000818
:10005000B9650008B9650008B9650008B965000808
:10006000B9650008B9650008B9650008B9650008F8
:10007000B9650008B9650008B9650008B9650008E8
:10008000B9650008B9650008B9650008B9650008D8
:10009000B9650008B9650008B9650008B9650008C8
:1000A000B9650008B9650008B9650008B9650008B8
:1000B000B96500080000000000000000B9650008F4
:1000C000B9650008B9650008B9650008B965000898
:1000D000B5100008C5100008D5100008E51000088C
:1000E000B9650008B96500080000000000000000C4
:1000F0000000000000000000000000000000000000
:1001000000000000B965000800000000F5100008BC
:100110000000000000000000B9650008B965000893
:10012000B9650008B9650008B9650008B965000837
:10013000B965000800000000000000000000000099
:10014000B9650008B9650008B9650008000000003D
:10015000B9650008B9650008B9650008B965000807
:10016000B9650008B9650008B9650008000000001D
:10017000B9650008B9650008000000000000000033
:10018000B9650008B9650008B965000800000000FD
:1001900001F0FF01102A2BDB10F0070F08D010F838
:1001A000013B013A8B422DD010F0070F42B3F6D13C
:1001B000F0B441EA012141EA014122F007047FF055
:1001C00000070023F0E80256083C85EA010586EAAC
:1001D000010685FA47F5A3FA87F586FA47F6A5FAE8
:1001E00087F68EB9EED1F0BC01F0FF0102F00702F4
:1001F00032B110F8013B013A83EA010313B1F8D19F
:100200000020704701387047002D06BF354603387F
:10021000073815F0010F07D1013015F4807F02BFB8
:10022000013015F4C03F0130F0BC0138704700BF09
:10023000034613F8012B002AFBD1181A0138704726
:1002400010F8012B11F8013B012A28BF9A42F7D080
:10025000D01A704781F0004102E000BF83F00043F4
:1002600030B54FEA41044FEA430594EA050F08BF51
:1002700090EA020F1FBF54EA000C55EA020C7FEA15
:10028000645C7FEA655C00F0E2804FEA5454D4EB92
:100290005555B8BF6D420CDD2C4480EA020281EA5C
:1002A000030382EA000083EA010180EA020281EA94
:1002B0000303362D88BF30BD11F0004F4FEA0131E6
:1002C0004FF4801C4CEA113102D0404261EB4101F5
:1002D00013F0004F4FEA03334CEA133302D052427B
:1002E00063EB430394EA050F00F0A780A4F1010437
:1002F000D5F1200E0DDB02FA0EFC22FA05F2801871
:1003000041F1000103FA0EF2801843FA05F3594156
:100310000EE0A5F120050EF1200E012A03FA0EFCD5
:1003200028BF4CF0020C43FA05F3C01851EBE371FF
:1003300001F0004507D54FF0000EDCF1000C7EEB1C
:1003400000006EEB0101B1F5801F1BD3B1F5001F5A
:100350000CD349085FEA30004FEA3C0C04F1010479
:100360004FEA445212F5800F80F09A80BCF1004FA2
:1003700008BF5FEA500C50F1000041EB045141EA24
:10038000050130BD5FEA4C0C404141EB0101013CED
:1003900028BFB1F5801FE9D291F0000F04BF0146DC
:1003A0000020B1FA81F308BF2033A3F10B03B3F1AE
:1003B00020020CDA0C3208DD02F1140CC2F10C023E
:1003C00001FA0CF021FA02F10CE002F11402D8BF9C
:1003D000C2F1200C01FA02F120FA0CFCDCBF41EA68
:1003E0000C019040E41AA2BF01EB0451294330BD37
:1003F0006FEA04041F3C1CDA0C340EDC04F1140414
:10040000C4F1200220FA04F001FA02F340EA0300EA
:1004100021FA04F345EA030130BDC4F10C04C4F130
:10042000200220FA02F001FA04F340EA0300294610
:1004300030BD21FA04F0294630BD94F0000F83F45A
:10044000801306BF81F480110134013D4EE77FEA3D
:10045000645C18BF7FEA655C29D094EA050F08BF89
:1004600090EA020F05D054EA000C04BF194610466A
:1004700030BD91EA030F1EBF0021002030BD5FEAAE
:10048000545C05D14000494128BF41F0004130BDD6
:1004900014F580043CBF01F5801130BD01F000452A
:1004A00045F0FE4141F470014FF0000030BD7FEA9D
:1004B000645C1ABF194610467FEA655C1CBF0B4698
:1004C000024650EA013406BF52EA033591EA030FAF
:1004D00041F4002130BD00BF90F0000F04BF0021A7
:1004E000704730B54FF4806404F132044FF00005DA
:1004F0004FF0000150E700BF90F0000F04BF002153
:10050000704730B54FF4806404F1320410F00045B8
:1005100048BF40424FF000013EE700BF42004FEAB3
:10052000E2014FEA31014FEA02701FBF12F07F4330
:1005300093F07F4F81F06051704732F07F4208BFE7
:10054000704793F07F4F04BF41F40021704730B5EE
:100550004FF4607401F0004521F000411CE700BF3A
:1005600050EA010208BF704730B54FF000050AE0BD
:1005700050EA010208BF704730B511F0004502D5BE
:10058000404261EB41014FF4806404F132045FEAC0
:10059000915C3FF4D8AE4FF003025FEADC0C18BF69
:1005A00003325FEADC0C18BF033202EBDC02C2F15B
:1005B000200300FA03FC20FA02F001FA03FE40EAED
:1005C0000E0021FA02F11444BDE600BF70B54FF0F1
:1005D000FF0C4CF4E06C1CEA11541DBF1CEA1355CF
:1005E00094EA0C0F95EA0C0F00F0DEF82C4481EA37
:1005F000030621EA4C5123EA4C5350EA013518BF57
:1006000052EA033541F4801143F4801338D0A0FB43
:1006100002CE4FF00005E1FB02E506F00042E0FBF0
:1006200003E54FF00006E1FB03569CF0000F18BFF6
:100630004EF0010EA4F1FF04B6F5007F64F540749E
:1006400004D25FEA4E0E6D4146EB060642EAC62131
:1006500041EA55514FEAC52040EA5E504FEACE2E9E
:10066000B4F1FD0C88BFBCF5E06F1ED8BEF1004FA1
:1006700008BF5FEA500E50F1000041EB045170BD1D
:1006800006F0004646EA010140EA020081EA030161
:10069000B4EB5C04C2BFD4EB0C0541EA045170BD5D
:1006A00041F480114FF0000E013C00F3AB8014F1D7
:1006B000360FDEBF002001F0004170BDC4F1000420
:1006C000203C35DA0C341BDC04F11404C4F12005A1
:1006D00000FA05F320FA04F001FA05F240EA0200FC
:1006E00001F0004221F0004110EBD37021FA04F632
:1006F00042EB06015EEA430E08BF20EAD37070BDEC
:10070000C4F10C04C4F1200500FA04F320FA05F04A
:1007100001FA04F240EA020001F0004110EBD3704C
:1007200041F100015EEA430E08BF20EAD37070BDBC
:10073000C4F1200500FA05F24EEA020E20FA04F395
:1007400001FA05F243EA020321FA04F001F0004144
:1007500021FA04F220EA020000EBD3705EEA430EB5
:1007600008BF20EAD37070BD94F0000F0FD101F0E4
:100770000046400041EB010111F4801F08BF013C1D
:10078000F7D041EA060195F0000F18BF704703F05B
:100790000046520043EB030313F4801F08BF013DE2
:1007A000F7D043EA0603704794EA0C0F0CEA13559E
:1007B00018BF95EA0C0F0CD050EA410618BF52EA58
:1007C0004306D1D181EA030101F000414FF000005E
:1007D00070BD50EA410606BF1046194652EA43066C
:1007E00019D094EA0C0F02D150EA013613D195EAE0
:1007F0000C0F05D152EA03361CBF104619460AD128
:1008000081EA030101F0004141F0FE4141F4700131
:100810004FF0000070BD41F0FE4141F4780170BD21
:1008200070B54FF0FF0C4CF4E06C1CEA11541DBF86
:100830001CEA135594EA0C0F95EA0C0F00F0A7F888
:10084000A4EB050481EA030E52EA03354FEA0131B5
:1008500000F088804FEA03334FF0805545EA1313C8
:1008600043EA12634FEA022245EA111545EA106590
:100870004FEA00260EF000419D4208BF964244F127
:10088000FD0404F5407402D25B084FEA3202B61A46
:1008900065EB03055B084FEA32024FF480104FF41A
:1008A000002CB6EB020E75EB030E22BFB61A75468E
:1008B00040EA0C005B084FEA3202B6EB020E75EB21
:1008C000030E22BFB61A754640EA5C005B084FEA89
:1008D0003202B6EB020E75EB030E22BFB61A754656
:1008E00040EA9C005B084FEA3202B6EB020E75EB61
:1008F000030E22BFB61A754640EADC0055EA060E22
:1009000018D04FEA051545EA16754FEA06164FEA64
:10091000C30343EA52734FEAC2025FEA1C1CC0D110
:1009200011F4801F0BD141EA00014FF000004FF09D
:10093000004CB6E711F4801F04BF01430020B4F15E
:10094000FD0C88BFBCF5E06F3FF6AFAEB5EB030C16
:1009500004BFB6EB020C5FEA500C50F1000041EB13
:10096000045170BD0EF0004E4EEA113114EB5C04E0
:10097000C2BFD4EB0C0541EA045170BD41F48011B3
:100980004FF0000E013C90E645EA060E8DE60CEABB
:10099000135594EA0C0F08BF95EA0C0F3FF43BAFD8
:1009A00094EA0C0F0AD150EA01347FF434AF95EA8F
:1009B0000C0F7FF425AF104619462CE795EA0C0F73
:1009C00006D152EA03353FF4FDAE1046194622E740
:1009D00050EA410618BF52EA43067FF4C5AE50EA1A
:1009E00041047FF40DAF52EA43057FF4EBAE12E70A
:1009F0004FF0FF3C06E000BF4FF0010C02E000BFEB
:100A00004FF0010C4DF804CD4FEA410C7FEA6C5CCD
:100A10004FEA430C18BF7FEA6C5C1BD001B050EA70
:100A2000410C0CBF52EA430C91EA030F02BF90EA5B
:100A3000020F0020704710F1000F91EA030F58BF1A
:100A4000994208BF90422CBFD8176FEAE37040F07C
:100A5000010070474FEA410C7FEA6C5C02D150EA1A
:100A6000013C07D14FEA430C7FEA6C5CD6D152EAD5
:100A7000033CD3D05DF8040B704700BF844610469A
:100A800062468C461946634600E000BF01B5FFF799
:100A9000B7FF002848BF10F1000F01BD4DF808ED69
:100AA000FFF7F4FF0CBF012000205DF808FB00BF3A
:100AB0004DF808EDFFF7EAFF34BF012000205DF894
:100AC00008FB00BF4DF808EDFFF7E0FF94BF0120E1
:100AD00000205DF808FB00BF4DF808EDFFF7CEFFE2
:100AE00094BF012000205DF808FB00BF4DF808ED21
:100AF000FFF7C4FF34BF012000205DF808FB00BFF2
:100B00004FEA410C7FEA6C5C02D150EA013C0AD109
:100B10004FEA430C7FEA6C5C02D152EA033C02D1FB
:100B20004FF0000070474FF0010070474FEA41025C
:100B300012F5001215D211D56FF47873B3EB62522F
:100B400012D94FEAC12343F0004343EA505311F056
:100B5000004F23FA02F018BF404270474FF00000E8
:100B6000704750EA013005D111F0004008BF6FF026
:100B7000004070474FF00000704700BF4A0011D29C
:100B800012F5001211D20DD56FF47873B3EB6252E7
:100B90000ED44FEAC12343F0004343EA505323FAF3
:100BA00002F070474FF00000704750EA013002D168
:100BB0004FF0FF3070474FF0000070474FEA41029E
:100BC000B2F1E04324BFB3F5001CDCF1FE5C0DD9AB
:100BD00001F0004C4FEAC0024CEA5070B2F1004FF5
:100BE00040EB830008BF20F00100704711F0804FF8
:100BF00021D113F13872BCBF01F00040704741F4BD
:100C000080114FEA5252C2F11802C2F1200C10FAC0
:100C10000CF320FA02F018BF40F001004FEAC123A4
:100C20004FEAD32303FA0CFC40EA0C0023FA02F348
:100C30004FEA4303CCE77FEA625307D150EA01331E
:100C40001EBF4FF0FE4040F44000704701F00040EE
:100C500040F0FE4040F40000704700BF53B94AB96D
:100C6000002908BF00281CBF4FF0FF314FF0FF30B4
:100C700000F00CB8ADF1080C6DE904CE09F020FCD1
:100C8000DDF804E0DDE9022304B07047704700BFDF
:100C90000348044B834202D0034B03B1184770470B
:100CA0005803002058030020000000000548064BB0
:100CB0001B1AD90F01EBA301491002D0034B03B15A
:100CC0001847704758030020580300200000000018
:100CD00010B5064C237843B9FFF7DAFF044B13B184
:100CE0000448AFF300800123237010BD5803002097
:100CF0000000000088A7000808B5054B1BB1054996
:100D00000548AFF30080BDE80840FFF7CFBF00BF44
:100D1000000000005C03002088A700080EB430B576
:100D200082B00446059D2349FFF78AFA58B122494B
:100D30002046FFF785FA08B9204C05E020492148F4
:100D400004F05CF824E0204C20492846FFF778FAAC
:100D5000D8B11F492846FFF773FAF0B11D4928465C
:100D6000FFF76EFAE8B11C492846FFF769FAE0B9C7
:100D700006AA019207AB019308AB01939DF81C20D2
:100D80000699204605F02CFB02E0204605F014FBF6
:100D900002B0BDE8304003B07047204605F013FBB9
:100DA000F6E7204605F016FBF2E70C49054804F08B
:100DB00025F8EDE7A4A70008A8A700081800002060
:100DC000ACA700087805002010000020C0A700088C
:100DD000C4A70008C8A70008D0A70008D8A7000823
:100DE00010B50446FFF724FA82B22146014805F007
:100DF0000AFB10BD200000202DE9F04389B000233C
:100E0000ADF81C30244A1288ADF818208DF81A303D
:100E100007A805F059FA06A805F07CFA9DF81A50C3
:100E2000A5F10A00FFF768FB41EC110B9FED180BD1
:100E300008F0B2FA51EC100B0022184BFFF7C6FB7A
:100E4000FFF79CFE044607EE900AB8EE677A9DF81D
:100E50001C609DF81D709DF818809DF81990DFEDBD
:100E6000107A67EE277A17EE900AFFF757FBCDE965
:100E7000040103940295CDF80490CDF800803B4620
:100E800032460849084803F0B9FF09B0BDE8F083CD
:100E90000000000000000040A0A700080000204063
:100EA0000000803AECA70008780500200FB400B5D8
:100EB000CDB011494E98FFF7C3F920B14DB05DF8A0
:100EC00004EB04B070474FAB009350AB00934F9AC4
:100ED00001A90A4B186805F0F1FA83B233B94FF44F
:100EE0009672002101A806F0E5F8E7E71A4601A985
:100EF000034803F083FFF2E75CA80008000000202D
:100F0000780500202DE9F04184B005460E461746CD
:100F100010EE108A32210A2004F022FF04464046D7
:100F2000FFF7FCFACDE90201019700962B46224615
:100F30000349044803F062FF04B0BDE8F08100BF3C
:100F400064A800087805002008B500EE103AC9B280
:100F5000FFF7D8FF08BD000008B53221052004F0D6
:100F6000FFFE07EE900AF8EE677A9FED117A67EEC2
:100F7000877A17EE900AFFF7D1FA0BA3D3E9002383
:100F8000FFF724FB02460B46FFF76AF9FFF716FE50
:100F9000FFF7C4FA02460B460649074803F02EFF46
:100FA00008BD00BFAFF300806666666666660A40ED
:100FB00000008039ACA800087805002008B5FFF7CC
:100FC000CBFF08BD72B6FEE700B597B04422002102
:100FD00005A806F06FF80023009301930293039392
:100FE00004934FF4007001F0E1FE18BB012205925A
:100FF0004FF48033069302230F9303211091119233
:1010000014221292072213921493159305A800F04C
:101010001FFF88B90F23009303230193002302933A
:10102000039304930421684601F048FA30B917B0DD
:101030005DF804FBFFF7C6FFFFF7C4FFFFF7C2FF31
:1010400008B500F02DFEFFF7BFFF04F091FD104C36
:10105000204605F083F904F1080005F07FF904F05B
:10106000E7FD04F0C3FE04F0E7FE04F06DFF04F0BA
:1010700087FF04F0A9FF03F0F1FC05F01FF9054814
:1010800005F0FCF9044B1860642000F02BFEFBE730
:1010900010000020BCA8000800000020FEE7FEE7CA
:1010A000FEE7FEE7FEE770477047704708B500F0BF
:1010B00007FE08BD08B5024802F040FC08BD00BFAD
:1010C000CC06002008B5024802F012FD08BD00BFA2
:1010D0003808002008B5024802F00AFD08BD00BF2C
:1010E000B407002008B5024802F002FD08BD00BFA9
:1010F0003007002008B5024802F020FC08BD00BF00
:101100006806002000B583B00C4B1A6E42F0010255
:101110001A661A6E02F001020092009A9A6D42F06D
:1011200080529A659B6D03F080530193019B0520CB
:1011300001F0C6FE03B05DF804FB00BF00100240E2
:1011400010B430300B0A9B0003F00C03C45801F0BC
:101150001F014FF01F0C0CFA01FC24EA0C0CC2F327
:1011600084628A404CEA0202C2505DF8044B704728
:1011700010B414304B0E9B0003F00403C458C1F3A9
:1011800004514FF0070C0CFA01FC24EA0C0C8A40C5
:101190004CEA0202C2505DF8044B704730B583B090
:1011A00000230193002800F0DA800446436D13B356
:1011B00023689A6812F0005F05D09A6822F02042F6
:1011C00022F03F029A602268936813F0805F1FD17B
:1011D000936823F0104323F03F0343F08053936060
:1011E000604B1B689B09604AA2FB03239B090133E8
:1011F0005B00019309E004F061FD0023A36584F81E
:101200005030D5E7019B013B0193019B002BF9D1A5
:101210002268936813F0805F78D1636D43F0100308
:101220006365A36D43F00103A3650120936813F088
:10123000040300D00123616D11F0100F40F088808D
:10124000002B40F08580636D23F4817343F002032B
:101250006365936813F0010F0BD1444B9B6813F047
:10126000010F06D1636842498A6822F47C12134355
:101270008B60627E636B43EA4233E2681343A26889
:10128000134394F8202043EA0243012A40D0A26A83
:1012900022B102F47072E16A0A4313432168CD68F7
:1012A000344A2A401A43CA6021688B6813F0040349
:1012B00000D001238A6812F0080200D00122B3B9DD
:1012C000AAB9237E94F83020520042EA8332CB68D8
:1012D00023F4804323F002031343CB6094F83830A7
:1012E000012B1AD02268136923F0010313612369CB
:1012F000012B24D02268136B23F00F031363636D5B
:1013000023F0030343F00103636526E000208DE72B
:10131000626A013A43EA4243B9E721680B6923F460
:10132000FF6323F00403E26B256C2A43656C2A43B8
:10133000A56C2A43134343F001030B61D7E72168EF
:101340000B6B23F00F03E269013A13430B63D6E7FB
:10135000636D43F010036365012003B030BD0120CD
:10136000FBE700BF0C000020632D3E050000045089
:101370000003045007C0F0FFF8B504460E46456967
:10138000082D05D00368DB6813F0010F1ED104257A
:1013900000F0A2FC074623681A682A421CD1B6F165
:1013A000FF3FF8D000F098FCC31BB34201D8002ED9
:1013B000F1D123681B682B42EDD1636D43F0040328
:1013C0006365002384F85030032004E0436D43F04C
:1013D000200343650120F8BD626D42F4007262652E
:1013E000DA6812F4406F11D1627E7AB91A6812F08D
:1013F000080F0BD0626D22F480726265626D12F488
:10140000805F03D1626D42F001026265DA68082DE7
:1014100006D012F4804F07D10C221A600020DAE7C0
:1014200008221A600020D6E70020D4E70368186C71
:1014300070470000F0B583B00023019390F850305E
:10144000012B00F00A8204460D46012380F850303B
:1014500003689B6813F0040F09D0436D43F0200329
:1014600043650120002384F8503003B0F0BD4B6881
:10147000052B08D8023B032B56D8DFE803F0024BBC
:101480004E510C234B602A6869682068FFF758FEAC
:101490002068836813F0040300D00123826812F0EF
:1014A000080200D001220BB9002A40D022689368BC
:1014B00013F0010F17D12B68E868D2F8B010C3F30E
:1014C000120621EA060100F0180CAA4820FA0CF0D6
:1014D0000340C3F312030B43C2F8B030EA68A64BD3
:1014E0009A4200F0A9802B68A44A134200F0B1810F
:1014F000A34A926802F0E070A2498B4200F05B813F
:10150000A1498B4200F07E81A0498B4200F08E8180
:101510000020A7E712234B60B5E718234B60B2E722
:101520004FF480734B60AEE706234B60ABE7AA68CD
:101530002968FFF71DFE69692268D368C3F3C103F8
:101540005B009940286904280ED02E68603252F85A
:1015500020708F4B3B4006F0F84631430B4343F07D
:10156000004342F82030A1E7136E116EC1F384618D
:101570002B68C3F3120080BBC3F38463994234D059
:1015800021684B6E4A6EC2F384622B68C3F312006B
:1015900080BBC3F384639A4234D021688B6E8A6E19
:1015A000C2F384622B68C3F3120080BBC3F384636D
:1015B0009A4234D02168CB6ECA6EC2F384622B6823
:1015C000C3F3120080BBC3F384639A427FF46EAF0F
:1015D000CB6E23F00043CB6668E793FAA3F313B115
:1015E000B3FA83F3CAE72023C8E7136E23F000435E
:1015F0001366C5E793FAA3F313B1B3FA83F3CAE70B
:101600002023C8E74B6E23F000434B66C5E793FAEF
:10161000A3F313B1B3FA83F3CAE72023C8E78B6EB1
:1016200023F000438B66C5E793FAA3F313B1B3FA33
:1016300083F3CAE72023C8E720682B68C3F31206A8
:101640003EBB9A0E013202F01F02092A8CBF002213
:101650000122002A55D05EBB990E0131890601F0A6
:10166000F8418EBB4FEA936C0CF1010C0CF01F0C8F
:10167000012202FA0CF21143AEBB9B0E013303F0C0
:101680001F0303EB43031B051943AA68FFF770FD13
:1016900029E793FAA3F24AB1B2FA82F2013202F0D8
:1016A0001F02092A8CBF00220122D2E72022F5E77F
:1016B00093FAA3F131B1B1FA81F10131890601F058
:1016C000F841CEE72021F8E793FAA3F24AB1B2FA43
:1016D00082F2013202F01F024FF0010C0CFA02F20A
:1016E000C9E72022F5E793FAA3F343B1B3FA83F3F2
:1016F000013303F01F0303EB43031B05C4E720235F
:10170000F6E7E6B9990E0131890601F0F84116BBFA
:101710004FEA936C0CF1010C0CF01F0C012202FA41
:101720000CF21143B6BB9B0E013303F01F0303EB16
:1017300043031E3B1B0543F000731943A5E793FACF
:10174000A3F131B1B1FA81F10131890601F0F8411B
:10175000DDE72021F8E793FAA3F24AB1B2FA82F268
:10176000013202F01F024FF0010C0CFA02F2D8E72E
:101770002022F5E7FFFF070000007F4000000880FF
:1017800000030450000052C7000084CB0100008019
:1017900000F0FF0393FAA3F35BB1B3FA83F30133D1
:1017A00003F01F0303EB43031E3B1B0543F00073D1
:1017B000C3E72023F3E712F4000F7FF4A1AE226801
:1017C000274B9A4201D000204CE640F40003254903
:1017D0008A6822F0E07213438B60234B1B689B09DD
:1017E000224AA2FB03239B09013303EB43039B0023
:1017F000019302E0019B013B0193019B002BF9D176
:1018000000202FE612F0807F7FF47EAE2268144B1A
:101810009A4201D0002025E640F0807311498A6881
:1018200022F0E07213438B6000201BE612F4800F5D
:1018300011D122680A4B9A4201D0002012E640F4EE
:10184000800308498A6822F0E07213438B6000200D
:1018500008E6002006E6002004E6022005E600BFB8
:1018600000000450000304500C000020632D3E05CE
:10187000406D704770B5044603689A6812F0040220
:1018800000D00122986810F0080000D001200AB9A9
:1018900000286DD0DA6812F0007F04D0208B40F26F
:1018A000011290424ED0022912D023689A6812F099
:1018B000040F0BD09A6812F0020F07D19A6822F039
:1018C000004222F03F0242F010029A60012947D004
:1018D00023689A6812F0080F0BD09A6812F0020F72
:1018E00007D19A6822F0004222F03F0242F0200223
:1018F0009A60022936D0032936D10C2500F0ECF984
:10190000064623689B682B4230D000F0E5F9801B27
:101910000528F6D923689B682B42F2D0636D43F00B
:1019200010036365A36D43F00103A36501201EE06E
:10193000636D43F010036365A36D43F00103A3657A
:10194000012014E00022196811F0400F04D1094968
:101950008A42EDD80132F6E740221A600121A4E75D
:101960000425CBE70825C9E70425C7E7002070BD9B
:101970000020FCE7FFFF3FA330B583B000230193B5
:1019800003689A6812F0010F58D1044699682D4AED
:10199000114219D19A6822F0004222F03F0242F02F
:1019A00001029A60284B9B6813F4000F1CD0274B50
:1019B0001B689B09264AA2FB03239B09013303EB07
:1019C00043039B0001930CE0436D43F01003436518
:1019D000836D43F001038365012030E0019B013BEF
:1019E0000193019B002BF9D100F076F9054623689D
:1019F0001A6812F0010F1FD19A6812F0010F07D177
:101A00009A6822F0004222F03F0242F001029A60FE
:101A100000F062F9431B022BE9D923681B6813F01D
:101A2000010FE4D1636D43F010036365A36D43F0D0
:101A30000103A365012002E0002000E0002003B0C4
:101A400030BD00BF3F000080000304500C000020A8
:101A5000632D3E0503689B6813F0040F3CD110B55D
:101A6000044690F85030012B38D0012380F85030D4
:101A7000FFF782FF60BB636D23F4706323F0010303
:101A800043F480736365636D13F4805F1DD0A36DB1
:101A900023F00603A36523681C221A60002384F840
:101AA00050302268D36813F0007F05D0636D23F4B3
:101AB000405343F480536365936823F0004323F05D
:101AC0003F0343F00403936010BD0023A365E2E7E6
:101AD000002384F85030F7E7022070470220F3E734
:101AE00038B504460268936813F0020300D001235E
:101AF000916811F0010F39D0002B39D1936803F0B0
:101B00000D03012B09D0636D43F010036365A36DD2
:101B100043F00103A365012029E0936823F000430B
:101B200023F03F0343F002039360236803221A600B
:101B300000F0D2F8054623689B6813F0010F13D01C
:101B400000F0CAF8401B0228F5D923689B6813F0FF
:101B5000010FF0D0636D43F010036365A36D43F094
:101B60000103A365012002E0002000E0002038BD51
:101B70000020FCE790F85030012B1AD010B5044635
:101B8000012380F850300321FFF774FE18B10023C1
:101B900084F8503010BD2046FFF7A2FF0028F6D190
:101BA000636D23F4885323F0010343F0010363655D
:101BB000EDE70220704730B583B00023019390F821
:101BC0005030012B41D004460D46012380F850309F
:101BD000FFF786FF80BB636D23F4885323F0020375
:101BE00043F0020363652268936823F0404323F0C7
:101BF0003F0305F080452B4343F000439360236887
:101C00009B68002B06DB636D23F0030343F00103A5
:101C1000636515E0019B01330193019BB3F5912F9F
:101C2000EDD3636D23F0120343F0100363650023CB
:101C300084F85030012006E0636D43F010036365C3
:101C4000002384F8503003B030BD0220FBE70000D1
:101C5000104B1B780BB90120704710B504464FF4A8
:101C60007A70B0FBF3F30C4A1068B0FBF3F001F0AC
:101C70004DF968B90F2C01D901200AE00022214654
:101C80004FF0FF3001F02EF9044B1C60002000E003
:101C9000012010BD040000200C00002008000020DE
:101CA00010B5032001F00CF90320FFF7D1FF10B1AC
:101CB0000124204610BD0446FFF724FAF9E700008E
:101CC000034B1B78034A11680B441360704700BF35
:101CD0000400002074030020014B1868704700BF07
:101CE0007403002038B50446FFF7F6FF0546B4F14B
:101CF000FF3F02D0044B1B781C44FFF7EDFF401B55
:101D0000A042FAD338BD00BF0400002030B583B034
:101D10000446204B9B6D13F0805F0BD001F03EF822
:101D2000B0F5007F17D0802C1FD82DD0702C2DD06F
:101D300000211BE0174DAB6D43F08053AB65AB6DDD
:101D400003F080530193019B01F028F8AB6D23F061
:101D50008053AB65E4E7802C03D9A02C03D9022182
:101D600004E0002102E0012100E003210A4A136897
:101D700023F007030B431360136803F007038B4240
:101D800006D1002003B030BD0221EFE70121EDE7CD
:101D90000120F7E70010024000200240284A936823
:101DA000D26802F0030213F00C030AD00C2B06D009
:101DB000042B1FD0082B20D00020024610E0012A5F
:101DC000F6D11F4A126812F0080F0CD11C4AD2F843
:101DD0009420C2F303221B4951F8222043B1002072
:101DE0000C2B0DD07047164A1268C2F30312F2E7AB
:101DF0001046F5E714480022F2E714480022EFE706
:101E00000F4BDB6803F00303022B16D0032B00D12A
:101E10000E4A0B49CB68C3F302130133C868C0F301
:101E2000062002FB00F0B0FBF3F0CB68C3F3416384
:101E300001335B00B0FBF3F0D4E7034AE9E700BFEE
:101E4000001002406CA900080024F40000127A007F
:101E5000002800F01C83F0B583B00446964B9D68C3
:101E600005F00C05DE6806F00306036813F0100F9A
:101E70005AD0E5B10C2D18D0A369002B00F0BB801F
:101E80008D4A136843F001031360FFF725FF0746EF
:101E9000894B1B6813F0020F40F09A80FFF71CFF7C
:101EA000C01B0228F4D90320FCE2012EE4D1824BAE
:101EB0001B6813F0020F03D0A369002B00F0E98226
:101EC000206A7D4B1B6813F0080F5BD07A4B1B68B0
:101ED00003F0F00398425CD8774B1A6842F008028E
:101EE0001A601A6822F0F002216A0A431A605A68DE
:101EF00022F47F42E16942EA01225A60002D60D05B
:101F0000FFF74CFF6C4B9B68C3F303136B4AD35C26
:101F100003F01F03D8406A4B18606A4B1868FFF73C
:101F200097FE002840F0BE82236813F0010F00F0F6
:101F30008180082D75D00C2D71D06368B3F5803F7A
:101F400000F09780B3F5A02F00F099805A4B1A68E3
:101F500022F480321A601A6822F480221A606368C0
:101F6000002B00F09980FFF7B7FE0746524B1B6825
:101F700013F4003F5ED1FFF7AFFEC01B6428F5D914
:101F800003208FE24C4BD3F894301B0903F0F0038D
:101F9000A0E7FFF7BBFE002840F07D82464B1A68A1
:101FA00042F008021A601A6822F0F002216A0A431D
:101FB0001A605A6822F47F42E16942EA01225A60BB
:101FC0009EE7206AFFF7A2FE002899D0012069E26F
:101FD000394B1A6842F008021A601A6822F0F002BF
:101FE000216A0A431A605A6822F47F42E16942EA90
:101FF00001225A6098E7304A136823F00103136006
:10200000FFF76AFE07462C4B1B6813F0020F8BD0BC
:10201000FFF762FEC01B0228F5D9032042E2032E1F
:102020008BD1254B1B6813F4003F03D06368002B52
:1020300000F03382236813F0020F58D0042D45D0EE
:102040000C2D41D0E368002B77D01B4A136843F472
:1020500080731360FFF740FE0646174B1B6813F4AE
:10206000806F61D1FFF738FE801B0228F5D903206D
:1020700018E2114A136843F4803313606FE703F1E9
:102080008043A3F53C331A6842F480221A601A6830
:1020900042F480321A6062E7FFF71EFE0746064BE5
:1020A0001B6813F4003FC5D0FFF716FEC01B642861
:1020B000F5D90320F6E100BF00100240A4A90008F2
:1020C0000C00002008000020022EBBD1A44B1B688E
:1020D00013F4806F03D0E368002B00F0E081A04A86
:1020E000536823F0F853216943EA0163536023687E
:1020F00013F0080F4CD063699BB3994AD2F894301F
:1021000043F00103C2F89430FFF7E6FD0646944B16
:10211000D3F8943013F0020F3AD1FFF7DDFD801BA6
:102120000228F4D90320BDE18D4A536823F0F85307
:10213000216943EA01635360D9E7894A136823F4AC
:1021400080731360FFF7C8FD0646854B1B6813F4C8
:10215000806FCCD0FFF7C0FD801B0228F5D903208B
:10216000A0E17F4AD2F8943023F00103C2F8943002
:10217000FFF7B2FD06467A4BD3F8943013F0020F06
:1021800006D0FFF7A9FD801B0228F4D9032089E1BE
:10219000236813F0040F7AD0714B9B6D13F0805FAE
:1021A00036D16F4B9A6D42F080529A659B6D03F069
:1021B00080530193019B01266A4B1B6813F4807FB7
:1021C00028D0A368012B39D0052B3FD0644BD3F81E
:1021D000902022F00102C3F89020D3F8902022F042
:1021E0000402C3F89020A368002B3DD0FFF774FDD4
:1021F00007465B4BD3F8903013F0020F46D1FFF740
:102200006BFDC01B41F288339842F2D9032049E1AB
:102210000026D1E7534A136843F480731360FFF735
:102220005BFD07464F4B1B6813F4807FC9D1FFF756
:1022300053FDC01B0228F5D9032033E1484AD2F8E8
:10224000903043F00103C2F89030CCE7444BD3F810
:10225000902042F00402C3F89020D3F8902042F07E
:102260000102C3F89020BEE7FFF736FD07463C4B5E
:10227000D3F8903013F0020F08D0FFF72DFDC01BEC
:1022800041F288339842F2D903200BE1E6B9236882
:1022900013F0200F35D0636AE3B1314AD2F8983099
:1022A00043F00103C2F89830FFF716FD06462C4BA9
:1022B000D3F8983013F0020F23D1FFF70DFD801BE8
:1022C0000228F4D90320EDE0254A936D23F08053D2
:1022D0009365DCE7224AD2F8983023F00103C2F874
:1022E0009830FFF7F9FC06461D4BD3F8983013F0F1
:1022F000020F06D0FFF7F0FC801B0228F4D9032060
:10230000D0E0A36A002B00F0CC80022B17D00C2D5C
:1023100000F0CC80124A136823F080731360FFF73B
:10232000DBFC04460E4B1B6813F0007F00F0A88016
:10233000FFF7D2FC001B0228F4D90320B2E0084BBF
:10234000DB6803F00301E26A91420DD00C2D00F02E
:10235000AB80034B1B6813F0806F2FD00120A1E0EE
:10236000001002400070004003F07002216B013940
:10237000B2EB011FEAD103F4FE42616BB2EB012F15
:10238000E4D103F07842A16BB2EBC16FDED103F46C
:10239000C001E26B5208013AB1EB425FD6D103F0C3
:1023A000C063226C5208013AB3EB426FCED1404B6E
:1023B0001B6813F0007F49D0002073E03C4A13688B
:1023C00023F080731360FFF787FC0546384B1B68CA
:1023D00013F0007F06D0FFF77FFC401B0228F5D9E1
:1023E00003205FE0324AD36832491940E36A206B28
:1023F000013843EA0013606B43EA0023E06B4008B6
:10240000013843EA4053206C4008013843EA4063F6
:10241000A06B43EAC0631943D160136843F0807333
:102420001360D36843F08073D360FFF755FC044614
:102430001F4B1B6813F0007F06D1FFF74DFC001BFC
:102440000228F5D903202DE000202BE0184B1A6854
:1024500042F080721A60DA6842F08072DA60FFF748
:102460003BFC0446124B1B6813F0007F06D1FFF7BC
:1024700033FC031B022BF5D9032013E0002011E0ED
:102480000B4AD1680C4B0B40D36000200AE00120BE
:102490007047012006E0012004E0012002E0012055
:1024A00000E0002003B0F0BD0120FBE70120F9E7C8
:1024B000001002408C809D01FCFFEEFE002800F021
:1024C000AE8070B50D460446594B1B6803F00703F8
:1024D0008B420BD2564A136823F007030B43136059
:1024E000136803F007038B4240F09B80236813F0CE
:1024F000020F0CD0A2684F4B9B6803F0F0039A4286
:1025000005D94C498B6823F0F0031A438A6023688D
:1025100013F0010F39D06368032B09D0022B26D0AA
:1025200063BB444A126812F0020F06D1012075E025
:10253000404A126812F0007F75D03E498A6822F046
:10254000030213438B60FFF7C7FB0646394B9B68BA
:1025500003F00C036268B3EB820F16D0FFF7BCFBED
:10256000801B41F288339842F0D9032056E0314A6B
:10257000126812F4003FE0D101204FE02D4A1268AA
:1025800012F4806FD9D1012048E0236813F0020FC4
:102590000CD0A268274B9B6803F0F0039A4205D247
:1025A00024498B6823F0F0031A438A60204B1B6890
:1025B00003F00703AB420AD91D4A136823F007034F
:1025C0002B431360136803F00703AB422DD123683C
:1025D00013F0040F06D0174A936823F4E063E16810
:1025E0000B439360236813F0080F07D0114A9368D8
:1025F00023F46053216943EAC1039360FFF7CEFBE4
:102600000C4B9B68C3F303130B4AD35C03F01F030B
:10261000D8400A4B18600020FFF71AFB70BD01205C
:1026200070470120FAE70120F8E70120F6E700BF34
:102630000020024000100240A4A900080C00002065
:10264000014B1868704700BF0C00002008B5FFF769
:10265000F7FF054B9B68C3F30223044AD35C03F0E6
:102660001F03D84008BD00BF001002409CA900080D
:1026700008B5FFF7E5FF054B9B68C3F3C223044A87
:10268000D35C03F01F03D84008BD00BF0010024018
:102690009CA90008F8B504460D46584BDB6813F0BA
:1026A000030F17D0554BDB6803F003030268934216
:1026B00001D0012616E0002A00F09E804F4BDB6817
:1026C000C3F3021301334268934201D0012609E0AB
:1026D00000261BE00368022B57D0032B5CD0012B94
:1026E00002D001263046F8BD444A126812F0020FAB
:1026F0005ED04248C26822F073026168013943EA41
:1027000001131343C3600026002EEBD13B4A13682C
:1027100023F080631360FFF7DFFA0746374B1B682F
:1027200013F0006F05D0FFF7D7FAC31B022BF5D9C2
:102730000326002ED6D1002D3CD130490B6923F061
:10274000784323F4FE43A068E268D20642EA0022FE
:1027500013430B61294A136843F080631360FFF74A
:10276000BBFA0546254B1B6813F0006F05D1FFF738
:10277000B3FA401B0228F5D90326002EB2D11F4A16
:102780001369A1690B431361ACE71C4A126812F488
:10279000806FAED10126A5E7184A126812F4003FF7
:1027A000A7D1164A126812F4802FA2D1012699E708
:1027B0000126A9E7012D0FD01048026922F0C0625E
:1027C00022F4FE42A16863695B08013B5B0643EAB1
:1027D00001231A430261BDE70848026922F4C002DE
:1027E00022F4FE42A16823695B08013B5B0543EAD2
:1027F00001231A430261ADE7012673E7001002408E
:102800002DE9F04182B00446036813F4006F25D02F
:10281000436CB3F5000F06D0B3F5400F12D04BB1A7
:10282000012637461CE0B34AD36843F48033D360B3
:10283000002708E000210430FFF72CFF074610B105
:1028400006460DE00027AB4AD2F8883023F4400357
:10285000616C0B43C2F88830002601E00026374641
:10286000236813F4003F6BD0A24B9B6D13F0805F85
:102870004CD1A04B9A6D42F080529A659B6D03F04B
:1028800080530193019B4FF001089B4A136843F466
:1028900080731360FFF720FA0546974B1B6813F40B
:1028A000807F05D1FFF718FA401B0228F5D90327CE
:1028B000002F40D18F4BD3F8903013F4407315D0D4
:1028C000A26D9A4212D08B4AD2F8903023F4407312
:1028D000D2F8901041F48031C2F89010D2F89010E4
:1028E00021F48031C2F89010C2F8903013F0010F3B
:1028F0000FD1002F40F0E3807E4AD2F8903023F4CD
:102900004073A16D0B43C2F8903015E04FF0000802
:10291000BBE7FFF7E1F90546764BD3F8903013F0AB
:10292000020FE6D1FFF7D8F9401B41F288339842F5
:10293000F2D90327DDE73E46B8F1000F40F0C18031
:10294000236813F0010F08D06A4AD2F8883023F0C8
:102950000303216A0B43C2F88830236813F0020F87
:1029600008D0644AD2F8883023F00C03616A0B4324
:10297000C2F88830236813F0040F08D05D4AD2F8FB
:10298000883023F03003A16A0B43C2F888302368F3
:1029900013F0200F08D0574AD2F8883023F4406350
:1029A000E16A0B43C2F88830236813F4007F08D033
:1029B000504AD2F8883023F44023E16B0B43C2F82D
:1029C0008830236813F4806F08D04A4AD2F88830E0
:1029D00023F44013216C0B43C2F88830236813F0B2
:1029E000400F08D0434AD2F8883023F44053216B7B
:1029F0000B43C2F88830236813F0800F08D03D4A9B
:102A0000D2F8883023F44043616B0B43C2F888301E
:102A1000236813F4807F08D0364AD2F8883023F434
:102A20004033A16B0B43C2F88830236813F4002FA6
:102A30000FD0304AD2F8883023F04063A16C0B43AA
:102A4000C2F88830A36CB3F1006F40D0B3F1806F4F
:102A500042D0236813F4802F0FD0264AD2F8883052
:102A600023F04063E16C0B43C2F88830E36CB3F1B0
:102A7000006F39D0B3F1806F40D0236813F4804FDA
:102A80000CD01C4AD2F8883023F04053216D0B4300
:102A9000C2F88830236DB3F1805F37D0236813F418
:102AA000004F08D0134AD2F8883023F08043616D7C
:102AB0000B43C2F88830304602B0BDE8F0813E4694
:102AC0003AE70C4A936D23F08053936538E7D36857
:102AD00043F48013D360BCE70121201DFFF7DAFD2A
:102AE0000028B6D00646B4E7D36843F48013D36019
:102AF000C3E700BF00100240007000400121201D0C
:102B0000FFF7C8FD0028B8D00646B6E70221201D11
:102B1000FFF7C0FD0028C1D00646BFE7F0B583B07F
:102B2000002362E085685E000324B44025EA0405C2
:102B3000CC68B4402C438460456825EA0C054C6899
:102B4000C4F300149C402C4344605FE0DD0808356A
:102B500050F8254003F0070C4FEA8C0C4FF00F0E95
:102B60000EFA0CFE24EA0E0E0C6904FA0CF444EA88
:102B70000E0440F8254060E0042400E0002404FA3C
:102B80000EF42C430CF1020C524D45F82C40524CE3
:102B9000A568D44325EA02064F6817F4801F01D0C8
:102BA00042EA05064C4DAE60ED6804EA05064F6842
:102BB00017F4001F01D042EA0506474DEE606D682C
:102BC00004EA05064F6817F4003F01D042EA050603
:102BD000414D6E602D682C404E6816F4803F01D048
:102BE00042EA05043C4A146001330A6832FA03F4ED
:102BF0006ED04FF0010C0CFA03FC1CEA0202F3D079
:102C00004C6804F00304013C012C8BD94C6804F09F
:102C10000304032C0CD0C4685D004FF0030C0CFAC5
:102C200005FC24EA0C0C8C68AC4044EA0C04C4603B
:102C30004C6804F00304022C88D004684FEA430E69
:102C40004FF0030C0CFA0EFC24EA0C0C4C6804F058
:102C5000030404FA0EF444EA0C0404604C6814F40F
:102C6000403FC1D01D4C256E45F001052566246E00
:102C700004F001040194019C4FEA930C0CF102054D
:102C8000144C54F8255003F0030E4FEA8E0E0F2417
:102C900004FA0EF425EA0405B0F1904F3FF46EAF4C
:102CA0000F4CA0420ED004F58064A0420CD004F575
:102CB0008064A0420AD004F58064A0423FF45CAF77
:102CC00007245CE701245AE7022458E7032456E767
:102CD00003B0F0BD000001400004014000100240BC
:102CE000000400480AB181617047816270474369FE
:102CF00001EA030221EA030141EA024181617047CE
:102D000090F82530DBB2022B06D00423C3630023E6
:102D100080F82430012070470268136823F00E0306
:102D200013600268136823F001031360436C03F01F
:102D30001C03016C012202FA03F34B6080F825208A
:102D4000002380F824301846704708B590F82530E5
:102D5000DBB2022B03D00423C363012008BD026849
:102D6000136823F00E0313600268136823F0010355
:102D70001360436C03F01C03016C012202FA03F39D
:102D80004B6080F82520002380F82430836B13B13A
:102D900098470020E2E70020E0E70000024B1868B7
:102DA00000F4C060704700BF00700040B0F5007FC5
:102DB0000FD01F4B1B6803F4C063B3F5806F34D092
:102DC0001B4A136823F4C06343F48063136000203C
:102DD0007047174B1B6803F4C063B3F5007F20D026
:102DE000134A136823F4C06343F400731360114B58
:102DF0001B68322202FB03F30F4AA2FB03239B0C46
:102E0000013300E0013B0A4A526912F4806F01D09D
:102E1000002BF7D1064B5B6913F4806F03D10020C0
:102E2000704700207047032070470020704700BFA4
:102E3000007000400C00002083DE1B43002807DBED
:102E400000F01F02400901239340024A42F820305B
:102E5000704700BF00E100E0002808DB0901C9B2AB
:102E600000F1604000F5614080F80013704700F009
:102E70000F000901C9B2014B1954704714ED00E06D
:102E800000B500F00700C0F1070CBCF1040F28BF2B
:102E90004FF0040C031D062B0FD9C31E4FF0FF3E4D
:102EA0000EFA0CF021EA000199400EFA03FE22EA24
:102EB0000E0241EA02005DF804FB0023EEE7000089
:102EC000074AD36823F4E0631B041B0C000200F4E0
:102ED000E060034343F0BF6343F40033D3607047C3
:102EE00000ED00E010B50446054BD868C0F30220A1
:102EF000FFF7C6FF01462046FFF7AEFF10BD00BF3B
:102F000000ED00E008B5FFF799FF08BD0138B0F10A
:102F1000807F0BD24FF0E0235861054AF02182F800
:102F200023100020986107221A6170470120704722
:102F300000ED00E02DE9F04782B0054688461746CF
:102F40001E46FEF7C9FE0A9B1B1A03EB0609FEF795
:102F5000C3FE8246284B1B68C3F3CB3309FB03F344
:102F600001932B689C6838EA04040CBF01230023FA
:102F7000BB423DD0B6F1FF3FF3D0FEF7ADFEA0EB74
:102F80000A00484507D2019A02B14A46019B013B1B
:102F900001939146E5E72A68536823F0E003536004
:102FA0006B68B3F5827F0BD0AB6AB3F5005F14D0CA
:102FB000012385F85D30002385F85C30032018E09C
:102FC000AB68B3F5004F02D0B3F5806FECD12A683F
:102FD000136823F040031360E6E72A68136823F4BC
:102FE000005313602A68136843F400531360DFE74B
:102FF000002002B0BDE8F0870C0000202DE9F0476A
:1030000082B006460C4615461F4600238DF8033055
:10301000FEF762FE0A9B1B1A03EB0708FEF75CFE35
:103020008146D6F800A0304B1B6803EB8303C3EB4B
:10303000C3031B0D08FB03F3019302E0B7F1FF3F4D
:1030400012D133689B6803EA040CAC4547D0B4F551
:10305000C06FF3D1002DF1D19AF80C30DBB28DF8AE
:1030600003309DF80330E9E7FEF736FEA0EB0900D8
:10307000404507D2019A02B14246019B013B0193B0
:103080009046DEE73268536823F0E00353607368CC
:10309000B3F5827F0BD0B36AB3F5005F14D0012380
:1030A00086F85D30002386F85C30032018E0B368B2
:1030B000B3F5004F02D0B3F5806FECD132681368DE
:1030C00023F040031360E6E73268136823F40053EB
:1030D00013603268136843F400531360DFE7002085
:1030E00002B0BDE8F08700BF0C00002070B582B0D0
:1030F00004460D46164600920B4600224FF4C0517E
:10310000FFF77CFFB0B900962B46002280212046B5
:10311000FFF710FFA8B900962B4600224FF4C061BC
:103120002046FFF76BFF50B1236E43F02003236668
:10313000032004E0236E43F020032366032002B043
:1031400070BD236E43F0200323660320F7E770B5BC
:1031500082B004460D4616464368B3F5827F0DD013
:1031600000962B46002280212046FFF7E3FE90B90F
:103170006368B3F5827F14D002B070BD8368B3F585
:10318000004F02D0B3F5806FEAD12268136823F0B4
:1031900040031360E4E7236E43F02003236603201B
:1031A000EAE7A368B3F5004F02D0B3F5806FE3D12F
:1031B00000962B4600224FF4C0612046FFF71EFF09
:1031C0000028D9D0236E43F0200323660320D3E7E1
:1031D00000286AD010B50446436A33B94368B3F592
:1031E000827F05D00023C36102E0002303614361B5
:1031F0000023A36294F85D30002B4DD0022384F8A5
:103200005D302268136823F040031360E368B3F570
:10321000E06F47D90022B3F5706F04D0B3F5E06FCB
:1032200001D00023A362636803F48273A16801F4F0
:1032300004410B43216901F002010B43616901F074
:1032400001010B43A16901F400710B43E16901F035
:1032500038010B43216A01F080010B43A16A01F49C
:10326000005120680B430360638B03F00403616A21
:1032700001F010010B43616B01F008010B43E168A1
:1032800001F470610B4321681A434A6000202066F4
:10329000012384F85D3010BD84F85C30204602F0D4
:1032A000F1FDABE74FF48052B5E7012070472DE9FF
:1032B000F04383B01D4690F85C30012B00F0F6809F
:1032C000044688469146012380F85C30FEF704FDF1
:1032D000074694F85D60F6B2012E40F0D480B8F154
:1032E000000F00F0D180B9F1000F00F0CD80032372
:1032F00084F85D3000232366C4F83880A4F83C903D
:10330000A4F83E902364A4F84430A4F84630236522
:10331000E364A368B3F5004F1ED023681A6812F067
:10332000400F03D11A6842F040021A60E368B3F517
:10333000E06F42D9636813B1B9F1010F23D1A26BD9
:1033400023681288DA60A36B0233A363E38F9BB216
:10335000013B9BB2E38716E02268136823F0400329
:1033600013602268136843F480431360D5E7FEF7C7
:10337000B3FCC01BA84203D3B5F1FF3F40F08E80E1
:10338000002D00F08D80E38F9BB2002B66D0236868
:103390009A6812F0020FEAD0A26B1288DA60A36B6F
:1033A0000233A363B4F83EC01FFA8CFC0CF1FF3C5F
:1033B0001FFA8CFCA4F83EC0E5E7636813B1B9F1CD
:1033C000010F33D1E38F9BB2012B0CD9A26B236881
:1033D0001288DA60A36B0233A363E38F9BB2023BD4
:1033E0009BB2E38722E0A26B236812781A73A36B67
:1033F0000133A363E38F9BB2013B9BB2E38715E0EC
:10340000A36B1B781373A36B0133A363E38F9BB28E
:10341000013B9BB2E38709E0FEF75EFCC01BA842BC
:1034200002D3B5F1FF3F3DD1002D3DD0E38F9BB2DC
:10343000A3B12268936813F0020FEDD0E38F9BB223
:10344000012BDDD9A36B1B88D360A36B0233A3636D
:10345000E38F9BB2023B9BB2E387E7E73A462946FC
:103460002046FFF743FE08B120232366A36833B943
:1034700001932368DA6801929B680193019B236E94
:1034800013B9002600E00226012384F85D300023F2
:1034900084F85C30304603B0BDE8F0830326F3E7E0
:1034A0000326F1E70326EFE70326EDE70226F1E71F
:1034B0002DE9F8431F46089D90F85C30012B00F081
:1034C0006481044688469146012380F85C30FEF70B
:1034D00003FC064694F85D30DBB26268012B0AD02B
:1034E000B2F5827F40F03881A268002A40F03D8129
:1034F000042B40F03C81B8F1000F00F03A81B9F1A3
:10350000000F00F03881002F00F0378194F85D3013
:10351000DBB2042B02D0052384F85D300023236640
:10352000C4F84090A4F84670A4F84470C4F83880F9
:10353000E787A787E3642365E368B3F5E06F01D805
:10354000012F23D92268536823F4805353602368E2
:103550001A6812F0400F03D11A6842F040021A6054
:10356000E368B3F5E06F58D963680BB1012F0BD155
:10357000A26B23681288DA60A36B0233A363E38F24
:103580009BB2013B9BB2E387012731E0226853687D
:1035900043F480535360DAE7A26B1288DA60A36BBE
:1035A0000233A363E38F9BB2013B9BB2E387002707
:1035B00023689A6812F0010F11D0B4F8462092B235
:1035C0006AB1DA68236C1A80236C02332364B4F87E
:1035D00046309BB2013B9BB2A4F846300127FEF770
:1035E0007BFB831BAB4203D3B5F1FF3F40F0C780A9
:1035F000E38F9BB22BB9B4F846309BB2002B00F09E
:10360000A18023689A6812F0020FD1D0E28F92B2A3
:10361000002ACDD0002FCBD0BEE763680BB1012FBD
:103620000FD1E38F9BB2012B0DD9A26B23681288B7
:10363000DA60A36B0233A363E38F9BB2023B9BB2BE
:10364000E387012749E0A26B236812781A73A36B02
:103650000133A363E38F9BB2013B9BB2E387F0E7A7
:10366000E28F92B2012A0CD9A26B1288DA60A36BA6
:103670000233A363E38F9BB2023B9BB2E387002735
:103680003DE0A26B12781A73A36B0133A363E38F3F
:103690009BB2013B9BB2E387002730E0226853686E
:1036A00043F48053536001270DE0226C1B7B1370A1
:1036B000236C01332364B4F846309BB2013B9BB2C8
:1036C000A4F846300127FEF707FB801BA84202D36F
:1036D000B5F1FF3F55D1002D55D0E38F9BB223B9F3
:1036E000B4F846309BB2002B2CD023689A6812F0B5
:1036F000020F04D0E28F92B20AB1002FB0D123683A
:103700009A6812F0010FDED0B4F8462092B2002A77
:10371000D9D0B4F8462092B2012AC6D9DA68236C0F
:103720001A80236C02332364B4F846309BB2023B08
:103730009BB2A4F84630B4F846309BB2012BADD909
:103740000127C0E7324629462046FFF7CFFC20B1CB
:1037500020232366012000E00220012384F85D304D
:10376000002384F85C30BDE8F8830220F5E70220EE
:10377000F3E70120F1E70120EFE70120EDE7032067
:10378000EBE70320E9E70320E7E70220EBE72DE979
:10379000F04383B00446884691461D464068B0F524
:1037A000827F43D094F85C30012B00F0C38001236A
:1037B00084F85C30FEF790FA074694F85D60F6B244
:1037C000012E40F0A480B8F1000F00F0A180B9F103
:1037D000000F00F09D80042384F85D3000232366F1
:1037E000C4F84080A4F84490A4F84690A363A3874B
:1037F000E387E3642365E368B3F5E06F24D92268C7
:10380000536823F480535360A368B3F5004F21D06D
:1038100023681A6812F0400F03D11A6842F0400280
:103820001A60E368B3F5E06F29D94AE0A368002B7A
:10383000B8D1042384F85D30009513460A4620462B
:10384000FFF736FE064669E02268536843F480536A
:103850005360D9E72268136823F04003136022689D
:10386000136823F480431360D2E7FEF735FAC01BD8
:10387000A84202D3B5F1FF3F54D1002D54D0B4F883
:1038800046309BB2002B36D023689A6812F0010FA5
:10389000EBD0226C1B7B1370236C01332364B4F8D0
:1038A00046309BB2013B9BB2A4F84630E7E7FEF7F7
:1038B00013FAC01BA84202D3B5F1FF3F36D1002D49
:1038C00036D0B4F846309BB2ABB123689A6812F098
:1038D000010FECD0DA68236C1A80236C0233236466
:1038E000B4F846C01FFA8CFC0CF1FF3C1FFA8CFCAC
:1038F000A4F846C0E5E73A4629462046FFF727FCEC
:1039000008B120232366236E13B9002600E00226A7
:10391000012384F85D30002384F85C30304603B026
:10392000BDE8F0830326F3E70326F1E70326EFE77C
:103930000326EDE70226F1E77047000010B584B0DA
:10394000044602685168936803F04100012867D07B
:1039500013F0020F02D011F0800F68D113F4B07F82
:1039600068D011F0200F65D013F0400F0FD094F8FD
:103970005D00C0B203285FD0206E40F004002066D6
:1039800000200090D068009090680090009813F09C
:10399000200F0CD0206E40F0010020660020029025
:1039A00090680290106820F040001060029A13F4B2
:1039B000807F09D0236E43F008032366002303931E
:1039C00023689B680393039B236E002B32D02268ED
:1039D000536823F0E0035360012384F85D3011F055
:1039E000030F31D02268536823F003035360A36DA3
:1039F0004BB1174A9A63A06DFFF7A7F918B1236E70
:103A000043F040032366636DA3B1114A9A63606D6E
:103A1000FFF79BF970B1236E43F04003236609E082
:103A200011F0400F94D0E36C2046984702E0236DDC
:103A30002046984704B010BD00230193D36801933A
:103A400093680193019BF5E72046FFF775FFF1E7C7
:103A5000553A000808B5806A0023A0F84630C387AD
:103A6000FFF76AFF08BD026852E8003F23F4907335
:103A700042E800310029F6D1026802F1080353E858
:103A8000003F23F00103083242E800310029F3D15E
:103A9000036E012B05D02023C36700230366436612
:103AA0007047026852E8003F23F0100342E80031FB
:103AB0000029F6D1EFE7704708B5026852E8003FE9
:103AC00023F0400342E800310029F6D12023836728
:103AD00000238366FFF7EFFF08BD08B5806A002367
:103AE000A0F85A30A0F8523002F08AFB08BD00005E
:103AF00070B504460268D3691168906840F60F0CEF
:103B000013EA0C0F0AD113F0200F0DD011F0200F83
:103B10000AD0636E0BB3204698471EE010F00105F3
:103B20001CD1A94E314219D1256E012D00F0A4807F
:103B300013F4801F03D010F4800F40F0328113F093
:103B4000800F03D011F0800F40F0328113F0400F4E
:103B500003D011F0400F40F0328170BD13F0010F1F
:103B600009D011F4807F06D001201062D4F88020A3
:103B70000243C4F8802013F0020F09D045B1226837
:103B800002201062D4F8802042F00402C4F88020A1
:103B900013F0040F09D045B1226804201062D4F854
:103BA000802042F00202C4F8802013F0080F0BD0EE
:103BB00011F0200F00D13DB1226808201062D4F826
:103BC00080200243C4F8802013F4006F0CD011F061
:103BD000806F09D022684FF400601062D4F8802012
:103BE00042F02002C4F88020D4F88020002AB4D00B
:103BF00013F0200F06D011F0200F03D0636E0BB12D
:103C000020469847D4F8802023689B6813F0400F23
:103C100002D112F0280F28D02046FFF724FF236896
:103C20009B6813F0400F1CD0226802F1080353E890
:103C3000003F23F04003083242E800310029F3D16D
:103C4000236F53B1614A9A63206FFFF77EF8002813
:103C500083D0206F836B98477FE7204602F0D0FA2D
:103C60007BE7204602F0CCFA77E7204602F0C8FA5C
:103C70000023C4F8803070E713F0100F3FF458AF02
:103C800011F0100F3FF454AF1023136223689B68A8
:103C900013F0400F4ED0226F13685B689BB2002B6D
:103CA0003FF45BAFB4F8581099427FF656AFA4F8D2
:103CB0005A3013681B6813F0200F30D1226852E885
:103CC000003F23F4807342E800310029F6D12268D6
:103CD00002F1080353E8003F23F00103083242E8F1
:103CE00000310029F3D1226802F1080353E8003FB4
:103CF00023F04003083242E800310029F3D12023A9
:103D0000E36700232366226852E8003F23F0100394
:103D100042E800310029F6D1206FFEF7F1FFB4F838
:103D20005810B4F85A309BB2C91A89B2204602F032
:103D300049FA12E7B4F85810B4F85A309BB2C91ACD
:103D400089B2B4F85A309BB2002B3FF406AF002979
:103D50003FF403AF226852E8003F23F4907342E837
:103D600000300028F6D1226802F1080353E8003F32
:103D700023F00103083242E800300028F3D1202369
:103D8000E367002323666366226852E8003F23F05E
:103D9000100342E800300028F6D1204602F012FA63
:103DA000DBE64FF480131362204600F04DFCD4E6AE
:103DB000A36E002B3FF4D1AE20469847CDE62046B7
:103DC000FFF77AFEC9E600BF20010004DB3A0008D5
:103DD00008B5B0F85C30C26F222A06D00268138B97
:103DE0009BB243F00803138308BD0268918CDBB2D9
:103DF000426D0B401370436D01334365B0F85A3088
:103E00009BB2013B9BB2A0F85A30B0F85A309BB23B
:103E1000002BE9D1026852E8003F23F4907342E896
:103E200000310029F6D1026802F1080353E8003F8F
:103E300023F00103083242E800310029F3D12023A6
:103E4000C36700234366036E012B16D1002303666C
:103E5000026852E8003F23F0100342E800310029D5
:103E6000F6D10368DA6912F0100F01D010221A623D
:103E7000B0F8581002F0A6F9B6E702F089F9B3E7F6
:103E800008B5B0F85C30C26F222A06D00268138BE6
:103E90009BB243F00803138308BD0268918C426D06
:103EA0000B401380436D02334365B0F85A309BB228
:103EB000013B9BB2A0F85A30B0F85A309BB2002BAD
:103EC000EAD1026852E8003F23F4907342E80031DF
:103ED0000029F6D1026802F1080353E8003F23F0FD
:103EE0000103083242E800310029F3D12023C367DF
:103EF00000234366036E012B16D10023036602687C
:103F000052E8003F23F0100342E800310029F6D1C7
:103F10000368DA6912F0100F01D010221A62B0F8AB
:103F2000581002F04FF9B7E702F032F9B4E7000099
:103F300010B504460168836802691343426913435C
:103F4000C26913430868954A02401A430A6022680E
:103F5000536823F44053E1680B435360A16922681E
:103F60008F4B9A4201D0236A1943936823F430633C
:103F70000B43936023688B4A93421FD08A4A934233
:103F800030D08A4A934246D0854A934255D0102277
:103F900083498B427AD0E069B0F5004F00F0A680EB
:103FA000082A00F20F81DFE812F0CE00E500CC0015
:103FB0000D01E8000D010D010D01EB0002F5584265
:103FC000D2F8882002F00302032A09D8DFE802F0C1
:103FD00002044A060122DBE70422D9E70822D7E7D8
:103FE0001022D5E702F5E632D2F8882002F00C0262
:103FF0000C2A0ED8DFE802F0070D0D0D090D0D0D8E
:10400000380D0D0D0B000022C2E70422C0E7082284
:10401000BEE71022BCE702F5E432D2F8882002F0B5
:104020003002202A22D004D812B3102A22D104222E
:10403000AEE7302A20D10822AAE702F5C832D2F82A
:10404000882002F44062B2F5006F17D005D8BAB1EB
:10405000B2F5806F16D104229AE7B2F5406F13D102
:10406000082295E7022293E7022291E702228FE7D6
:1040700000228DE710228BE7102289E7022287E7D2
:10408000002285E7102283E7102281E7082A7AD8E8
:10409000DFE802F008792A792779797905004FF469
:1040A000004003E0FEF7D2FA00286ED0626802EB0F
:1040B000420383426BD8B0EB023F6AD8010E000284
:1040C0005308C0184FF0000341F10001FCF7C6FD92
:1040D000A0F54072364B9A425DD82368D860002024
:1040E00044E0FDF75BFEDFE73248DFE7082A63D8EC
:1040F000DFE802F007210562246262620B002D48AE
:1041000003E0FEF7A3FA002858D06268530803EBD7
:104110004003B3FBF2F3A3F110014FF6EF729142AB
:104120004ED89AB222F00F02C3F34203134322681F
:10413000D36000201AE0FEF79BFAE4E7FDF72EFEBD
:10414000E1E71C4803E0FEF781FA00283CD06368F1
:1041500000EB5300B0FBF3F0A0F110024FF6EF7349
:104160009A4233D8236880B2D86000200023636667
:10417000A36610BDFEF77CFAE7E7FDF70FFEE4E764
:104180004FF40040E3E70120F0E70020EEE70120D4
:10419000ECE70120EAE70120E8E700BFF369FFEF61
:1041A00000800040003801400044004000480040CA
:1041B000FFFC0F000024F4000120D7E70020D5E722
:1041C0000120D3E70120D1E70020CFE70120CDE790
:1041D000436A13F0010F06D00268536823F40033DA
:1041E000816A0B435360436A13F0020F06D00268E2
:1041F000536823F48033C16A0B435360436A13F05E
:10420000040F06D00268536823F48023016B0B432C
:104210005360436A13F0080F06D00268536823F412
:104220000043416B0B435360436A13F0100F06D0F9
:104230000268936823F48053816B0B439360436A55
:1042400013F0200F06D00268936823F40053C16B6B
:104250000B439360436A13F0400F0AD0026853681F
:1042600023F48013016C0B435360036CB3F5801F80
:104270000BD0436A13F0800F06D00268536823F412
:104280000023816C0B43536070470268536823F42A
:10429000C003416C0B435360EBE72DE9F84305463F
:1042A0000F4616469946DDF820802B68DC6937EA10
:1042B00004040CBF01240024B44253D1B8F1FF3FE1
:1042C000F3D0FDF709FDA0EB090040452DD8B8F16A
:1042D000000F2AD02B681A6812F0040FE5D0DA69B3
:1042E00012F4006FE1D04FF400621A622A6852E8BB
:1042F000003F23F4D07342E800310029F6D12A6848
:1043000002F1080353E8003F23F00103083242E8BA
:1043100000310029F3D12023AB67EB67C5F880306B
:10432000002385F8743003201DE02A6852E8003F1E
:1043300023F4D07342E800310029F6D12A6802F153
:10434000080353E8003F23F00103083242E800313C
:104350000029F3D12023AB67EB67002385F8743085
:10436000032000E00020BDE8F8832DE9F04182B091
:104370001E46836F202B56D104460D4690460029D9
:1043800055D0002A55D090F87430012B53D001231A
:1043900080F874300023C0F8803021238367FDF754
:1043A0009BFC0746A4F85080A4F85280A368B3F59C
:1043B000805F05D04FF00008002384F8743014E0CB
:1043C000236913B14FF00008F6E7A8460025F3E78C
:1043D00038F8023B2268C3F308031385B4F852206F
:1043E00092B2013A92B2A4F85220B4F852309BB281
:1043F00073B100963B46002280212046FFF74DFF17
:10440000D8B9002DE4D015F8012B23681A85E5E70B
:1044100000963B46002240212046FFF73EFF70B940
:104420002023A36700E0022002B0BDE8F081012054
:10443000FAE70120F8E70220F6E70320F4E703207B
:10444000F2E730B583B004460023C0F88030FDF7B2
:1044500043FC05462268126812F0080F0DD123684C
:104460001B6813F0040F16D12023A367E367002015
:10447000206684F8740003B030BD6FF07E43009373
:10448000034600224FF400112046FFF706FF0028E4
:10449000E5D00320EFE76FF07E4300932B46002228
:1044A0004FF480012046FFF7F8FE0028DCD00320FF
:1044B000E1E768B310B50446836F03B32423A36711
:1044C0002268136823F0010313602046FFF730FDD4
:1044D000012813D0636ABBB92268536823F4904360
:1044E00053602268936823F02A039360226813685C
:1044F00043F0010313602046FFF7A3FF10BD80F8CF
:10450000743001F085FDD9E72046FFF761FEE3E74F
:10451000012070474165A0F85820A0F85A200023D8
:1045200043668368B3F5805F06D0A3B9036973B9A6
:10453000FF23A0F85C3014E0036923B940F2FF13B5
:10454000A0F85C300DE0FF23A0F85C3009E07F2389
:10455000A0F85C3005E0B3F1805F29D00023A0F81B
:104560005C300023C0F880302223C367026802F168
:10457000080353E8003F43F00103083242E80031EA
:104580000029F3D18368B3F5805F1BD0154B4366D8
:10459000002380F874300369D3B1026852E8003F09
:1045A00043F4907342E800310029F6D100207047AF
:1045B00003691BB97F23A0F85C30D2E73F23A0F842
:1045C0005C30CEE70369002BE0D1074B4366DFE7A1
:1045D000026852E8003F43F0200342E8003100291E
:1045E000F6D1E3E7D13D0008813E000838B5C36F3E
:1045F000202B1ED1F9B102B390F87430012B1ED0DC
:10460000012380F874300023036603680D4CA34235
:104610000CD05B6813F4000F08D0046854E8003F26
:1046200043F0806344E80035002DF6D1FFF772FFB8
:1046300000E0022038BD0120FCE70120FAE702205B
:10464000F8E700BF008000407047C36F202B20D1E7
:1046500010B50446F9B102B390F87430012B1ED0A6
:10466000012380F874300366FFF754FFB0B9236E5E
:10467000012B01D0012011E0236810221A62226868
:1046800052E8003F43F0100342E800310029F6D120
:1046900004E002207047012000E0012010BD02204C
:1046A000FCE70000034AD2F8883043F47003C2F8F4
:1046B0008830704700ED00E003460278302A0FD0C2
:1046C000302A14D0302A1DD000201A780133DAB1F4
:1046D0001A782E2AF9D15A78002AF6D00420704789
:1046E000417878290AD05829EAD10320EDE7597892
:1046F000622905D04229E5D10120E6E70320E4E75D
:104700000120E2E70220E0E7704703463038C0B2FC
:10471000092810D9A3F16102D2B2052A07D9A3F161
:104720004102D2B2052A05D8373BD8B27047573B71
:10473000D8B270470020704703460278272A03D07A
:1047400018785C2802D070470133F9E75878302890
:1047500038D0F8D37428F6D86228F4D3A0F16203D5
:10476000122BF0D801A252F823F000BFB94700087D
:1047700047470008474700084747000847470008E1
:1047800047470008474700084747000847470008D1
:10479000474700084747000847470008BD4700084B
:1047A000474700084747000847470008C94700082F
:1047B00047470008C1470008082070470A20704793
:1047C00009207047002070470D20BCE770B50646F1
:1047D0000378222B02D03546002409E00136FAE79F
:1047E000681EFFF7A9FF3055013501350134A4B229
:1047F0002B7843B15C2BF3D0222B01D03355F4E757
:1048000000233355F1E73355304670BD2DE9F843A9
:10481000064603782D2B17D04FF0010900203044B5
:10482000FFF74AFF8046022815D0032816D001283A
:104830000ED000230A27B9F1FF3F12D00022134403
:104840001E440024234610E04FF0FF390120E6E724
:1048500002231F46EFE701230827ECE70223102776
:10486000E9E70122EBE701360124307858B12E2820
:10487000F9D003FB07F5FFF748FF2B1804EB84047E
:1048800064000136F1E7B8F1040F13D194B107EEDB
:10489000903AF8EE677A07EE104AB8EE477AC7EE1C
:1048A000876A07EE909AF8EEE77A67EEA67A17EE37
:1048B000900A01E003FB09F0BDE8F88310B5044657
:1048C0000023826D013100F074FE20B101462046C4
:1048D00000F0EAFE10BD0020FCE710B58446084653
:1048E0001C4622B10B78242B2AD14B785BB302787B
:1048F000272A0ED02D2A14D0A2F13001C9B20929DD
:104900000FD9242A12D00AB3FFF760FF20600020DD
:1049100010BD4378002BEDD0FFF70EFF2060002084
:10492000F6E7FFF773FF20600020F1E74378002BE4
:10493000E9D001466046FFF7C1FF20600020E7E7AD
:104940004FF0FF30E4E74FF0FF30E1E74FF0FF308A
:10495000DEE72DE9F0438DB00646894615461F4631
:104960002022002104A802F0A5FB99F8028008F09B
:104970000F08A84501DA05F1FF38002400E00134F2
:104980006B1EA34211DD04F1010C04AB03EB8403A5
:10499000002257F82C103046FFF79FFF0028EED07A
:1049A0004FF0FF300DB0BDE8F083B8F1070F47D8E6
:1049B000DFE808F004080D131A222C38D9F8083063
:1049C0009847EFE7D9F8083004989847EAE7D9F80C
:1049D0000830059904989847E4E7D9F80830069A12
:1049E000059904989847DDE7D9F80840079B069A8F
:1049F00005990498A047D5E7D9F80840089B00938B
:104A0000079B069A05990498A047CBE7D9F8084078
:104A1000099B0193089B0093079B069A05990498AC
:104A2000A047BFE7D9F808400A9B0293099B01936E
:104A3000089B0093079B069A05990498A047B1E745
:104A40004FF0FF30AEE7000008B50A4601460248C5
:104A500001F0D9FC002008BD2000002008B5044862
:104A6000044B83664FF40072034900F03DFF08BD1C
:104A700078050020494A0008780300200023042B11
:104A80000ADC064A52F8232012B101331BB2F6E7C2
:104A9000024A42F823007047704700BFF00500202B
:104AA00000B583B08DF80710836E01210DF107006A
:104AB000984703B05DF804FB70B50546866EDEB11D
:104AC00008460A46002413783BB10D2B05D00A2B6B
:104AD00003D001320134A4B2F5E7242C09D92421F2
:104AE000B047AB6E032106489847242C06D92420F2
:104AF00070BD2146B047F8E70020F9E72720F7E727
:104B0000B4A900080246002002E01354013080B22C
:104B10000B5C002BF9D113547047844600231846D0
:104B20001CF803207AB110B4CC5C4CB1A24207D17E
:104B3000013080B201339BB21CF80320002AF3D16C
:104B40005DF8044B70477047437803F00F03012B67
:104B500005D9072B05D9082B05D8C0687047C06850
:104B60007047C0687047C068704730B5002306E0E2
:104B70001A1D00EB82020021516001331BB2072B8A
:104B8000F6DD0021C1860B4601250DE002699E4637
:104B9000D41812F803C0BCF1220F15D0BDB9247887
:104BA0005C2C23D001339BB282899A4225D90029FB
:104BB000ECD10269D418D25C202A01D0002AE5D1B8
:104BC000002222700125EDE781F00101E6E7C58EA4
:104BD000072D09D805F1010CA0F836C0043500EB0B
:104BE00085056C600025DAE70025D8E77244527825
:104BF000002AD7D001339BB2D4E730BD08B5C389B2
:104C00008289934200D308BD0269591CC181D15CDD
:104C1000FFF746FFF7E7C38903B9704710B50446AD
:104C20000821FFF73DFFE389013BE38110BD10B58B
:104C300004460023A0F85430B0F850305BB1B0F80F
:104C4000523053B3013B0E3304EB830321695868A0
:104C5000FBF7F6FA00B3B4F852300E3304EB8303DB
:104C600021695868FFF74EFF20B1B4F85230013384
:104C7000A4F85230B4F8503001339BB2A4F850304D
:104C8000052B02D90523A4F85030B4F85230042B78
:104C900002D90023A4F8523010BD0423D3E770B525
:104CA000054600240AE000211170221D05EB820256
:104CB0005168013151600CE00134A4B2EB8EA34283
:104CC00016D92346221D05EB82025268117822294B
:104CD000E9D0043305EB83035E683046FBF7A8FA9E
:104CE00083B2013BF25C222AE6D10022F254E3E7D0
:104CF00070BD0000002301E001331BB2042B0ADC6D
:104D0000064A52F823000028F6D090F8602012F0EE
:104D1000020FF1D000E00020704700BFF005002036
:104D200010B5846E6CB18C460B46002101E0013158
:104D300089B213F8012B002AF9D16046A04780B24E
:104D400010BD0020FCE7000010B5044690F860306C
:104D500013F0010F19D091B9236859682046FFF765
:104D6000DFFF0C492046FFF7DBFFA16859B1204661
:104D7000FFF7D6FF08492046FFF7D2FF10BD0749CD
:104D8000FFF7CEFFE8E70649F1E70649FFF7C8FF5E
:104D9000F4E700BFBCA90008C0A90008A8A8000843
:104DA000B8A90008C4A9000810B5044603689968AA
:104DB0000069FBF745FA68B994F8603043F00103E5
:104DC00084F8603006492046FFF7AAFF0023A3813C
:104DD000E38110BD03492046FFF7A2FFF6E700BFBD
:104DE000DCA9000838AB000808B5FFF783FF10B155
:104DF0000149FFF795FF08BD4CAB0008C8B10EB4E0
:104E000010B5CDB0044650AB00934F9A4FF4967155
:104E100001A802F02FF9B0F5967F01DD4FF49670EE
:104E2000A36E81B201A898474DB0BDE8104003B011
:104E3000704770470B784BB14A7802F00F02082A8E
:104E400004D0026882B11278134210D090F860301A
:104E500013F0010F0ED14B7813F0100F01D000208A
:104E600070474FF0FF3070474FF0FF3070474FF002
:104E7000FF3070470020704700230B72082304E0C6
:104E80003032013BDBB2CA54000928B100F00F02F6
:104E9000092AF5D95732F4E7C3F1080040B2704748
:104EA000002304E00E4A3021D1540133DBB2082B39
:104EB000F8D9437803F00F03012B05D9072B05D947
:104EC000082B05D8406870474068704740687047B5
:104ED00010B5034C21464068FFF7CEFF204610BDB9
:104EE000E405002010B4041E04DB22460023CB722C
:104EF0000B2011E06242F9E7114B83FB023CD31710
:104F0000C3EBAC039C4603EB8303A2EB43030138E2
:104F1000C0B230330B546246002AEDD1002C0ADBBC
:104F20001CB90138C0B230230B54C0F10B0040B2A1
:104F30005DF8044B70470138C0B22D230B54EFE7E6
:104F40006766666670B584B004460E46194B01ADBF
:104F500093E8070085E8070017492046FFF7E0FEC1
:104F600029463046FFF7BEFFC0F10B012944204619
:104F7000FFF7D6FE11492046FFF7D2FE002308E0D6
:104F800003F110026A444FF0300C02F80CCC0133EC
:104F90001BB20A2BF4DD01A93046FFF76DFF01A912
:104FA0002046FFF7BDFE06492046FFF7B9FE04B0D4
:104FB00070BD00BF6CAB000858AB000864AB0008C4
:104FC000A8A8000870B505460E460846FFF768FF1A
:104FD00001462846FFF7A4FEC0F1160424B2002CB7
:104FE00017DD20212846FFF75BFD013C24B2002C91
:104FF000F7D1737803F00F03012B0CD9072B14D9C9
:10500000082B17D9092B1AD81F492846FFF788FE05
:1050100005E00424E5E71D492846FFF781FE1C4909
:105020002846FFF77DFE072414E01A492846FFF7BB
:1050300077FEF4E718492846FFF772FEEFE71749B5
:105040002846FFF76DFEEAE72D212846FFF728FDE9
:10505000013C64B2002C06DB3378234113F0010FCE
:10506000F2D07821F1E70A492846FFF759FE304689
:10507000FFF76AFD01462846FFF71EFD084928464E
:10508000FFF74EFE70BD00BF90AB000878AB000884
:10509000A0AB000880AB000888AB000898AB000804
:1050A000A8A80008F8B50646876D0F49FFF738FE37
:1050B000002401E0013424B2B6F85C309C4211DADD
:1050C00007EB04156B7803F00F03012BF2D8294688
:1050D0003046FFF7AFFE0028ECD129463046FFF7F7
:1050E00071FFE7E7F8BD00BFA4AB000808B5FFF704
:1050F00001FE08B1FFF7D6FF08BD0000F8B506466F
:10510000876D1049FFF70CFE002401E0013424B242
:10511000B6F85C309C4214DA07EB04156B7803F0A8
:105120000F030E3303F00F03052BEFD8294630464B
:10513000FFF780FE0028E9D129463046FFF742FFFD
:10514000E4E7F8BDB8AB000808B5FFF7D3FD08B138
:10515000FFF7D4FF08BD0000F8B50646876D0F497C
:10516000FFF7DEFD002401E0013424B2B6F85C3024
:105170009C4211DA07EB04156B7803F00F03082B40
:10518000F2D129463046FFF755FE0028ECD12946DA
:105190003046FFF717FFE7E7F8BD00BFC8AB0008D0
:1051A00008B5FFF7A7FD08B1FFF7D6FF08BD00005F
:1051B000F8B50646876D0F49FFF7B2FD002401E000
:1051C000013424B2B6F85C309C4211DA07EB0415C6
:1051D0006B7803F00F03092BF2D129463046FFF715
:1051E00029FE0028ECD129463046FFF7EBFEE7E721
:1051F000F8BD00BFD8AB000808B5FFF77BFD08B1CC
:10520000FFF7D6FF08BD08B5FFF74CFF08BD00004B
:1052100038B5054604E005492846FFF781FD2146DB
:105220004B1EDCB20029F6D138BD00BFE8AB000848
:1052300038B505468489C389E41A24B205E02021E3
:105240002846FFF72DFC013C24B2002CF7DC297B1B
:105250002846FFF7DDFF38BD10B50446002919DDEB
:10526000B0F95420531EA0F85430B0F85230B0F8C2
:1052700050108B4238BF0B4659428A4201DCA4F8D9
:1052800054102046FFF7D4FFB4F9543083B9A381FA
:10529000E38110BD0029FCDAB0F9543001331BB2B0
:1052A000A0F85430002BECDD0023A0F85430F0E7D8
:1052B000B4F8522005321A440C4981FB0231D3174D
:1052C000C3EB610303EB8303D31A0E3304EB8303B5
:1052D00059682069FFF716FCA0810028D9D0E08129
:1052E00021692046FFF71CFDD3E700BF67666666AD
:1052F00008B50121FFF7B0FF08BD08B54FF0FF3139
:10530000FFF7AAFF08BD00002DE9F84F0546B0F8E9
:1053100034A0838943B102694FF0000802F803808A
:10532000876D4446C14624E0FFF76DFF0121284602
:10533000FFF70AFD5EE007EB081841462846FFF735
:1053400041FE4046FFF7ACFD80463046FFF7A8FD22
:1053500001464046FFF7E1FB504528BF50461FFA83
:1053600080FA1FFA84F809F101091FFA89F901345A
:1053700024B2B5F85C309C421EDA07EB04163146C5
:105380002846FFF757FD0028F1D1D5F810B0304678
:10539000FFF786FD01465846FFF7BFFBAB899842F1
:1053A000E5D1B9F1000FDCD0B9F1010FC3D11A4931
:1053B0002846FFF7B5FCBEE7B9F1000F1AD0B9F1E6
:1053C000010F19D02C6907EB08173846FFF768FD65
:1053D00001462046FFF796FBA881B9F1010F0FD8CF
:1053E0002A69AB890021D154AB89EB812969284610
:1053F000FFF796FCBDE8F88F2846FFF719FFE1E7B5
:1054000039462846FFF7DEFD01212846FFF79CFCC0
:10541000A5F80CA0E4E700BFA8A8000870B50446F2
:105420008389828E013A934207DAC289934210D06F
:1054300093424ED99B1A1BB223E02649FFF770FC1A
:1054400001212046FFF780FC21692046FFF768FC18
:105450003FE00269581CA081D1542269A389002031
:10546000D054E3890133E3812046FFF719FB30E094
:105470002069E2891A44851815F8015C8554013BBE
:105480001BB2002BF4DC2269E389581CE081D15463
:105490002269A38901339BB2A3810021D154E689FB
:1054A000013E36B206E02369995D2046FFF7F8FA1F
:1054B000013636B2A589AE42F5DBE389ED1A2DB28D
:1054C00005E008212046FFF7EBFA013D2DB2002D43
:1054D000F7DC70BDECAB000838B50446B1F1FF3F16
:1054E00014BF00230123C2890AB9012955D0A0891C
:1054F000824203D0824205D01BB219E0B1F1FF3FD6
:10550000F8D14AE00129F7D1013AE281431E9BB26A
:10551000A38122690021D15401212046FFF778FEA2
:105520003BE020691A44551E825C425501331BB290
:10553000A089E289851AAB42F3DB0138A081B1F181
:10554000FF3F06D12269A3890021D154B4F90E503E
:105550000DE0013AE28108212046FFF7A1FAF1E7C8
:105560002369595D2046FFF79BFA01352DB2A389C7
:105570009D42F5DB20212046FFF792FAA589E389B9
:10558000ED1AADB201352DB205E008212046FFF736
:1055900087FA013D2DB2002DF7DC38BD08B5012199
:1055A000FFF79AFF08BD08B54FF0FF31FFF794FFF2
:1055B00008BD2DE9F04780468A4617469946B0F85F
:1055C0005C60836DD31AC3F30F13F61AB6B20024CE
:1055D00006E04A46504601F05BFD00B30134A4B238
:1055E000B4421BD207EB041595F801C00CF00F0C68
:1055F000BCF1090FF2D029464046FFF71BFC0028FA
:10560000ECD12846FFF74CFC0146B9F1000FE0D180
:105610005046FAF715FE0028E0D100E000252846A4
:10562000BDE8F08770B504460023826DFFF7C1FF27
:10563000E0B1054610492046FFF772FB2846FFF708
:105640002FFC01462046FFF76BFB0C4E31462046EF
:10565000FFF766FB2846FFF777FA01462046FFF77B
:105660005FFB31462046FFF75BFB70BD04492046D7
:10567000FFF756FBF9E700BF10AC0008A8A8000828
:1056800024AC000838B504460D46FFF733FB18B1CB
:10569000012C02D0012C03DC38BDFFF7B4FDFBE781
:1056A0006968FFF7BFFFF7E708B54B7803F00F0312
:1056B000023B052B16D8DFE803F003060A0D0D0F99
:1056C0008B68186808BD8B68B3F90000FAE78B682F
:1056D0001878F7E78868F5E78A68536823B1106897
:1056E0009847EFE70020EDE70020EBE770B584B0C6
:1056F00004460D46284B93E8070004AB03E9070076
:1057000029462046FFF7D0FF064669682046FFF786
:1057100007FB22492046FFF703FB6B7803F00F03DA
:10572000052B10D001A93046FFF7DCFBC0F10B01BF
:1057300001AB19442046FFF7F3FA19492046FFF759
:10574000EFFA002316E0174D29462046FFF7E8FA46
:1057500031462046FFF7E4FA29462046FFF7E0FAF3
:1057600012E003F110026A444FF0300C02F80CCC46
:1057700001331BB20A2BF4DD01A93046FFF77CFB95
:1057800001A92046FFF7CCFA07492046FFF7C8FADF
:10579000304604B070BD00BF6CAB000838AC0008E8
:1057A00064AB00083CAC0008A8A8000870B505462A
:1057B0000C464B7813F0400F0AD14B7803F00F03DF
:1057C000023B052B07D8DFE803F00B0E1114191D5F
:1057D0001249FFF7A5FA21462846FFF787FF70BD5B
:1057E000A3681A60F7E7A3681A80F4E7A3681A7041
:1057F000F1E71146A068FFF785F9ECE70849FFF7E4
:105800008FFAE8E7A3689E68002EE4D0186810B10C
:105810001146B047DFE71046B047DCE740AC000870
:105820005CAC000870B504460D46FFF763FA20B380
:1058300006460023826D2146FFF7BBFE014660B19C
:10584000437803F00F030E3303F00F03052B0AD840
:105850002A463046FFF7AAFF70BD09493046FFF7D8
:105860005FFA0020F8E721463046FFF759FA05496C
:105870003046FFF755FA0020EEE70020ECE700BFC6
:1058800070AC000880AC000810B504460160886860
:1058900050B1037853B1E38E012B18D9A169FAF7FF
:1058A000CFFCB0B1002202E0012200E0012294F816
:1058B000603062F3000384F8603009492046FFF746
:1058C0002FFA94F8603013F0010F04D110BD0022BC
:1058D000EDE70122EBE703492046FFF721FAF5E760
:1058E0004CAB0008DCA9000810B5044600238381F6
:1058F000C381036090F8600040F0010084F860000C
:1059000021611948A0FB020C4FEA9C0CA4F834C09A
:10591000A4F85430A4F85030A4F8523009E003FB46
:105920000CC0084403F10E0204EB82025060013304
:105930001BB2042BF3DD0D4AA2650D4B9B1A1B090C
:10594000A4F85C302046FFF799F80023A26D0949BE
:105950002046FFF72EFE01462046FFF795FF012166
:105960002046FFF7F1F910BDABAAAAAA38B100088A
:10597000B8B2000890AC000870B504460D4690F827
:10598000603043F0020380F860304B7813F00F036F
:1059900014D0012B23D04A7802F00F020E3202F00D
:1059A0000F02052A2AD9082B2CD0002694F8603043
:1059B0006FF3410384F86030304670BDFFF76FF934
:1059C000AB6804F11401E08E984706466B7813F03B
:1059D000200FEBD101462046FFF7B4FAE6E700F1CD
:1059E0001403C28EFEF7B5FF06466B7813F0200F46
:1059F000DCD101462046FFF7A5FAD7E7FFF776FE90
:105A00000026D3E7FFF740FF0026CFE708B590F860
:105A100060206FF3820280F86020FFF7FFFC08BD72
:105A200083895BB310B5044602690021D15490F814
:105A3000603013F0010F1ED0FFF7F9F82046FFF792
:105A400094F80023E381A381E38EB3B10C4920468F
:105A5000FFF766F90023A26D61692046FFF7A9FDF3
:105A6000014618B12046FFF787FF06E005492046AA
:105A7000FFF756F901E0FFF797F910BD704700BF37
:105A8000A8A8000824AC000810B50446FFF7C8FF1A
:105A900001212046FFF758F910BD0000002964D00D
:105AA0002DE9F04706468A46836B13F47F4F08D1F1
:105AB00013F47F090AD1B3F1807F0ED24FF018089A
:105AC00008E06FF0FF094FF0000803E0DFF89C905A
:105AD0004FF00808B76D00240DE04FF07F494FF0FC
