:020000040800F2
:100000000000012041BF0008A1110008A71100084D
:10001000AD110008B3110008B9110008000000007C
:10002000000000000000000000000000BF110008F8
:10003000CD11000800000000DB110008E9110008E4
:1000400091BF000891BF000891BF000891BF000850
:1000500091BF000891BF000891BF000891BF000840
:1000600091BF000891BF000891BF000891BF000830
:1000700091BF000891BF000891BF000891BF000820
:1000800091BF000891BF000891BF000891BF000810
:1000900091BF000891BF000891BF00085D120008E1
:1000A00091BF000891BF000891BF000891BF0008F0
:1000B00091BF0008000000000000000091BF000890
:1000C00091BF000891BF000891BF000891BF0008D0
:1000D000F91100080D12000821120008351200085D
:1000E00091BF000891BF0008000000000000000060
:1000F0000000000000000000000000000000000000
:100100000000000091BF0008000000004912000834
:10011000000000000000000091BF000891BF00082F
:1001200091BF000891BF000891BF000891BF00086F
:1001300091BF000800000000000000000000000067
:1001400091BF000891BF000891BF000800000000A7
:1001500091BF000891BF000891BF000891BF00083F
:1001600091BF000891BF000891BF00080000000087
:1001700091BF000891BF00080000000000000000CF
:1001800091BF000891BF000891BF00080000000067
:1001900010B5054C237833B9044B13B10448AFF3C1
:1001A00000800123237010BD5007002000000000D4
:1001B000B8FE000808B5034B1BB103490348AFF371
:1001C000008008BD0000000054070020B8FE0008B1
:1001D00010F8012B11F8013B012A28BF9A42F7D0F1
:1001E000D01A7047034613F8012B002AFBD1181AC6
:1001F000013870470000000000000000000000000F
:1002000001F0FF01102A2BDB10F0070F08D010F8C7
:10021000013B013A8B422DD010F0070F42B3F6D1CB
:10022000F0B441EA012141EA014122F007047FF0E4
:1002300000070023F0E80256083C85EA010586EA3B
:10024000010685FA47F5A3FA87F586FA47F6A5FA77
:1002500087F68EB9EED1F0BC01F0FF0102F0070283
:1002600032B110F8013B013A83EA010313B1F8D12E
:100270000020704701387047002D06BF354603380F
:10028000073815F0010F07D1013015F4807F02BF48
:10029000013015F4C03F0130F0BC0138704700BF99
:1002A00081F0004102E000BF83F0004330B54FEA27
:1002B00041044FEA430594EA050F08BF90EA020F94
:1002C0001FBF54EA000C55EA020C7FEA645C7FEA27
:1002D000655C00F0E2804FEA5454D4EB5555B8BF4A
:1002E0006D420CDD2C4480EA020281EA030382EABB
:1002F000000083EA010180EA020281EA0303362D4D
:1003000088BF30BD11F0004F4FEA01314FF4801C1F
:100310004CEA113102D0404261EB410113F0004F31
:100320004FEA03334CEA133302D0524263EB4303E8
:1003300094EA050F00F0A780A4F10104D5F1200E86
:100340000DDB02FA0EFC22FA05F2801841F10001E1
:1003500003FA0EF2801843FA05F359410EE0A5F1B5
:1003600020050EF1200E012A03FA0EFC28BF4CF0E6
:10037000020C43FA05F3C01851EBE37101F000459C
:1003800007D54FF0000EDCF1000C7EEB00006EEBA9
:100390000101B1F5801F1BD3B1F5001F0CD3490833
:1003A0005FEA30004FEA3C0C04F101044FEA44528A
:1003B00012F5800F80F09A80BCF1004F08BF5FEA11
:1003C000500C50F1000041EB045141EA050130BDF1
:1003D0005FEA4C0C404141EB0101013C28BFB1F503
:1003E000801FE9D291F0000F04BF01460020B1FA4E
:1003F00081F308BF2033A3F10B03B3F120020CDA21
:100400000C3208DD02F1140CC2F10C0201FA0CF0FE
:1004100021FA02F10CE002F11402D8BFC2F1200C63
:1004200001FA02F120FA0CFCDCBF41EA0C01904019
:10043000E41AA2BF01EB0451294330BD6FEA040462
:100440001F3C1CDA0C340EDC04F11404C4F120024D
:1004500020FA04F001FA02F340EA030021FA04F35F
:1004600045EA030130BDC4F10C04C4F1200220FAB6
:1004700002F001FA04F340EA0300294630BD21FAF4
:1004800004F0294630BD94F0000F83F4801306BFBA
:1004900081F480110134013D4EE77FEA645C18BFAE
:1004A0007FEA655C29D094EA050F08BF90EA020F45
:1004B00005D054EA000C04BF1946104630BD91EA3D
:1004C000030F1EBF0021002030BD5FEA545C05D140
:1004D0004000494128BF41F0004130BD14F580047F
:1004E0003CBF01F5801130BD01F0004545F0FE41F3
:1004F00041F470014FF0000030BD7FEA645C1ABF28
:10050000194610467FEA655C1CBF0B46024650EA5E
:10051000013406BF52EA033591EA030F41F400218A
:1005200030BD00BF90F0000F04BF0021704730B510
:100530004FF4806404F132044FF000054FF00001E5
:1005400050E700BF90F0000F04BF0021704730B5A6
:100550004FF4806404F1320410F0004548BF40427B
:100560004FF000013EE700BF42004FEAE2014FEAD0
:1005700031014FEA02701FBF12F07F4393F07F4FAB
:1005800081F06051704732F07F4208BF704793F0AE
:100590007F4F04BF41F40021704730B54FF46074C1
:1005A00001F0004521F000411CE700BF50EA0102C4
:1005B00008BF704730B54FF000050AE050EA01026D
:1005C00008BF704730B511F0004502D5404261EBDD
:1005D00041014FF4806404F132045FEA915C3FF41E
:1005E000D8AE4FF003025FEADC0C18BF03325FEABB
:1005F000DC0C18BF033202EBDC02C2F1200300FA6C
:1006000003FC20FA02F001FA03FE40EA0E0021FA90
:1006100002F11444BDE600BF70B54FF0FF0C4CF47E
:10062000E06C1CEA11541DBF1CEA135594EA0C0F30
:1006300095EA0C0F00F0DEF82C4481EA030621EA6B
:100640004C5123EA4C5350EA013518BF52EA0335A6
:1006500041F4801143F4801338D0A0FB02CE4FF058
:100660000005E1FB02E506F00042E0FB03E54FF088
:100670000006E1FB03569CF0000F18BF4EF0010E80
:10068000A4F1FF04B6F5007F64F5407404D25FEA7C
:100690004E0E6D4146EB060642EAC62141EA55512F
:1006A0004FEAC52040EA5E504FEACE2EB4F1FD0C71
:1006B00088BFBCF5E06F1ED8BEF1004F08BF5FEAEF
:1006C000500E50F1000041EB045170BD06F00046A1
:1006D00046EA010140EA020081EA0301B4EB5C044E
:1006E000C2BFD4EB0C0541EA045170BD41F4801146
:1006F0004FF0000E013C00F3AB8014F1360FDEBF6B
:10070000002001F0004170BDC4F10004203C35DA46
:100710000C341BDC04F11404C4F1200500FA05F3C9
:1007200020FA04F001FA05F240EA020001F000426A
:1007300021F0004110EBD37021FA04F642EB0601E0
:100740005EEA430E08BF20EAD37070BDC4F10C040A
:10075000C4F1200500FA04F320FA05F001FA04F2CE
:1007600040EA020001F0004110EBD37041F10001BA
:100770005EEA430E08BF20EAD37070BDC4F12005C5
:1007800000FA05F24EEA020E20FA04F301FA05F22D
:1007900043EA020321FA04F001F0004121FA04F2D5
:1007A00020EA020000EBD3705EEA430E08BF20EAA5
:1007B000D37070BD94F0000F0FD101F000464000DF
:1007C00041EB010111F4801F08BF013CF7D041EA61
:1007D000060195F0000F18BF704703F00046520065
:1007E00043EB030313F4801F08BF013DF7D043EA36
:1007F0000603704794EA0C0F0CEA135518BF95EAEC
:100800000C0F0CD050EA410618BF52EA4306D1D172
:1008100081EA030101F000414FF0000070BD50EA91
:10082000410606BF1046194652EA430619D094EA1B
:100830000C0F02D150EA013613D195EA0C0F05D105
:1008400052EA03361CBF104619460AD181EA030159
:1008500001F0004141F0FE4141F470014FF0000011
:1008600070BD41F0FE4141F4780170BD70B54FF0AC
:10087000FF0C4CF4E06C1CEA11541DBF1CEA13552C
:1008800094EA0C0F95EA0C0F00F0A7F8A4EB05040E
:1008900081EA030E52EA03354FEA013100F0888005
:1008A0004FEA03334FF0805545EA131343EA1263CE
:1008B0004FEA022245EA111545EA10654FEA002683
:1008C0000EF000419D4208BF964244F1FD0404F53C
:1008D000407402D25B084FEA3202B61A65EB030598
:1008E0005B084FEA32024FF480104FF4002CB6EB55
:1008F000020E75EB030E22BFB61A754640EA0C00D5
:100900005B084FEA3202B6EB020E75EB030E22BF14
:10091000B61A754640EA5C005B084FEA3202B6EB55
:10092000020E75EB030E22BFB61A754640EA9C0014
:100930005B084FEA3202B6EB020E75EB030E22BFE4
:10094000B61A754640EADC0055EA060E18D04FEAA2
:10095000051545EA16754FEA06164FEAC30343EA42
:1009600052734FEAC2025FEA1C1CC0D111F4801F0F
:100970000BD141EA00014FF000004FF0004CB6E708
:1009800011F4801F04BF01430020B4F1FD0C88BFA7
:10099000BCF5E06F3FF6AFAEB5EB030C04BFB6EBB2
:1009A000020C5FEA500C50F1000041EB045170BDA5
:1009B0000EF0004E4EEA113114EB5C04C2BFD4EBD2
:1009C0000C0541EA045170BD41F480114FF0000E56
:1009D000013C90E645EA060E8DE60CEA135594EAD2
:1009E0000C0F08BF95EA0C0F3FF43BAF94EA0C0FD5
:1009F0000AD150EA01347FF434AF95EA0C0F7FF44A
:100A000025AF104619462CE795EA0C0F06D152EA9D
:100A100003353FF4FDAE1046194622E750EA410681
:100A200018BF52EA43067FF4C5AE50EA41047FF492
:100A30000DAF52EA43057FF4EBAE12E74FF0FF3CF7
:100A400006E000BF4FF0010C02E000BF4FF0010CC8
:100A50004DF804CD4FEA410C7FEA6C5C4FEA430C41
:100A600018BF7FEA6C5C1BD001B050EA410C0CBF90
:100A700052EA430C91EA030F02BF90EA020F0020F2
:100A8000704710F1000F91EA030F58BF994208BF59
:100A900090422CBFD8176FEAE37040F00100704716
:100AA0004FEA410C7FEA6C5C02D150EA013C07D16D
:100AB0004FEA430C7FEA6C5CD6D152EA033CD3D0B8
:100AC0005DF8040B704700BF8446104662468C46B2
:100AD0001946634600E000BF01B5FFF7B7FF0028E5
:100AE00048BF10F1000F01BD4DF808EDFFF7F4FF0E
:100AF0000CBF012000205DF808FB00BF4DF808ED99
:100B0000FFF7EAFF34BF012000205DF808FB00BFBB
:100B10004DF808EDFFF7E0FF94BF012000205DF8DD
:100B200008FB00BF4DF808EDFFF7CEFF94BF012092
:100B300000205DF808FB00BF4DF808EDFFF7C4FF8B
:100B400034BF012000205DF808FB00BF4FEA410CD4
:100B50007FEA6C5C02D150EA013C0AD14FEA430CB7
:100B60007FEA6C5C02D152EA033C02D14FF00000F4
:100B700070474FF0010070474FEA410212F5001232
:100B800015D211D56FF47873B3EB625212D94FEAD4
:100B9000C12343F0004343EA505311F0004F23FABE
:100BA00002F018BF404270474FF00000704750EA13
:100BB000013005D111F0004008BF6FF000407047D0
:100BC0004FF00000704700BF4A0011D212F500122A
:100BD00011D20DD56FF47873B3EB62520ED44FEA95
:100BE000C12343F0004343EA505323FA02F0704715
:100BF0004FF00000704750EA013002D14FF0FF3053
:100C000070474FF0000070474FEA4102B2F1E043F5
:100C100024BFB3F5001CDCF1FE5C0DD901F0004CE3
:100C20004FEAC0024CEA5070B2F1004F40EB830033
:100C300008BF20F00100704711F0804F21D113F15F
:100C40003872BCBF01F00040704741F480114FEA98
:100C50005252C2F11802C2F1200C10FA0CF320FA21
:100C600002F018BF40F001004FEAC1234FEAD3233E
:100C700003FA0CFC40EA0C0023FA02F34FEA4303A8
:100C8000CCE77FEA625307D150EA01331EBF4FF031
:100C9000FE4040F44000704701F0004040F0FE404C
:100CA00040F40000704700BF53B94AB9002908BF9B
:100CB00000281CBF4FF0FF314FF0FF3000F074B937
:100CC000ADF1080C6DE904CE00F006F8DDF804E0A3
:100CD000DDE9022304B070472DE9F047089D044682
:100CE0008E46002B4DD18A42944669D9B2FA82F2DF
:100CF00052B101FA02F3C2F1200120FA01F10CFA1B
:100D000002FC41EA030E94404FEA1C48210CBEFB52
:100D1000F8F61FFA8CF708FB16E341EA034306FBDB
:100D200007F199420AD91CEB030306F1FF3080F06A
:100D30001F81994240F21C81023E63445B1AA4B2B7
:100D4000B3FBF8F008FB103344EA034400FB07F759
:100D5000A7420AD91CEB040400F1FF3380F00A819A
:100D6000A74240F207816444023840EA0640E41B8F
:100D700000261DB1D4400023C5E900433146BDE83B
:100D8000F0878B4209D9002D00F0EF800026C5E9DD
:100D9000000130463146BDE8F087B3FA83F6002EF5
:100DA0004AD18B4202D3824200F2F980841A61EB6D
:100DB000030301209E46002DE0D0C5E9004EDDE78B
:100DC00002B9FFDEB2FA82F2002A40F09280A1EB73
:100DD0000C014FEA1C471FFA8CFE0126200CB1FBC8
:100DE000F7F307FB131140EA01410EFB03F08842C1
:100DF00008D91CEB010103F1FF3802D2884200F24E
:100E0000CB804346091AA4B2B1FBF7F007FB1011DF
:100E100044EA01440EFB00FEA64508D91CEB04047D
:100E200000F1FF3102D2A64500F2BB800846A4EBD8
:100E30000E0440EA03409CE7C6F12007B34022FAC3
:100E400007FC4CEA030C20FA07F401FA06F31C43F2
:100E5000F9404FEA1C4900FA06F3B1FBF9F8200CFF
:100E60001FFA8CFE09FB181140EA014108FB0EF045
:100E7000884202FA06F20BD91CEB010108F1FF3A95
:100E800080F08880884240F28580A8F102086144A1
:100E9000091AA4B2B1FBF9F009FB101144EA0141AF
:100EA00000FB0EFE8E4508D91CEB010100F1FF345A
:100EB0006CD28E456AD90238614440EA0840A0FBF2
:100EC0000294A1EB0E01A142C846A64656D353D0C8
:100ED0005DB1B3EB080261EB0E0101FA07F722FAEC
:100EE00006F3F1401F43C5E9007100263146BDE815
:100EF000F087C2F12003D8400CFA02FC21FA03F378
:100F0000914001434FEA1C471FFA8CFEB3FBF7F0F8
:100F100007FB10360B0C43EA064300FB0EF69E421D
:100F200004FA02F408D91CEB030300F1FF382FD2B6
:100F30009E422DD9023863449B1B89B2B3FBF7F65E
:100F400007FB163341EA034106FB0EF38B4208D937
:100F50001CEB010106F1FF3816D28B4214D9023E78
:100F60006144C91A46EA004638E72E46284605E796
:100F70000646E3E61846F8E64B45A9D2B9EB020867
:100F800064EB0C0E0138A3E74646EAE7204694E7F7
:100F90004046D1E7D0467BE7023B614432E730462A
:100FA00009E76444023842E7704700BF2DE9F04882
:100FB00086B006AF01F056FC08F082FE00F09CF807
:100FC00008F014F93F4809F01FFA3F4809F01CFAED
:100FD00008F0C2F908F04AFB08F086FB08F036FC7E
:100FE00008F06AFC08F09EFC06F0FAF908F0B6FF7B
:100FF000364809F091FB0346354A1360354809F03D
:1010000047FD354BD3E902BC3349097C3248407C6B
:10101000314CA47C304DED7C2F4E367D2E4B5B7DCC
:101020000593049603950294019000915A466346F5
:1010300029480AF0D4FE4FF4FA72642126480AF0D7
:1010400019FF254BD3E948BC2349097C2248407C41
:10105000214CA47C204DED7C1F4E367D1E4B5B7DCC
:101060000593049603950294019000915A466346B5
:101070001A480AF0B4FE4FF4FA72642117480AF0D5
:10108000F9FE08F0B1FA08F097FA154809F0F8FAF5
:1010900009F006F96421134809F0EEFBC822124951
:1010A00000200AF0F9FEC822104901200AF0F4FEDF
:1010B00064230F4A0F4900200AF09CFA642001F0D3
:1010C00071FCFBE7A8000020B0000020D0FE000863
:1010D000C4000020DCFE000850030020680400204B
:1010E000ECFE000800FF000808FF000818FF0008D9
:1010F00028FF00082CFF000880B596B000AF07F16C
:1011000014034422002118460AF086FF3B460022C1
:101110001A605A609A60DA601A614FF4007002F047
:10112000EBFF0346002B01D000F035F801237B6173
:101130004FF48033BB610223FB6303233B64012331
:101140007B641423BB640723FB6402233B650223F7
:101150007B6507F11403184601F03EFC0346002BA3
:1011600001D000F018F80F233B6003237B600023BD
:10117000BB600023FB6000233B613B460421184613
:1011800002F03EF80346002B01D000F004F800BF47
:101190005837BD4680BD80B400AF72B600BFFEE7D1
:1011A00080B400AFFEE780B400AFFEE780B400AFCC
:1011B000FEE780B400AFFEE780B400AFFEE780B486
:1011C00000AF00BFBD465DF8047B704780B400AF40
:1011D00000BFBD465DF8047B704780B400AF00BF20
:1011E000BD465DF8047B704780B500AF08F07EFD1A
:1011F00001F08CFB00BF80BD80B500AF024803F05A
:1012000037FE00BF80BD00BF2809002080B500AFB9
:10121000024804F0BDFA00BF80BD00BF840B00206F
:1012200080B500AF024804F0B3FA00BF80BD00BF34
:10123000080C002080B500AF024804F0A9FA00BFF6
:1012400080BD00BF8C0C002080B500AF024803F0C9
:101250000FFE00BF80BD00BF8C09002080B500AF2D
:10126000154B5B6903F04003002B0ED040214FF07B
:10127000904002F069FE0346012B02D10F480AF0AC
:1012800098FC0D4B40225A6114E00B4B5B6903F450
:101290000073002B0ED04FF40071094802F054FE89
:1012A0000346012B02D107480AF083FC024B4FF49E
:1012B00000725A6100BF80BD00040140500300204D
:1012C000000400486804002080B582B000AF0F4BD6
:1012D0001B6E0E4A43F0010313660C4B1B6E03F0AA
:1012E00001037B607B68094B9B6D084A43F0805388
:1012F0009365064B9B6D03F080533B603B68052074
:1013000003F020F800BF0837BD4680BD0010024042
:1013100080B483B000AF786039607B689B6823F449
:101320007C123B681A437B689A6000BF0C37BD464D
:101330005DF8047B704780B483B000AF786039609B
:101340007B689B6823F0E0723B681A437B689A6075
:1013500000BF0C37BD465DF8047B704780B483B096
:1013600000AF78607B689B6803F0E07318460C3729
:10137000BD465DF8047B704780B487B000AFF8606D
:10138000B9607A603B60FB6860331A46BB689B00BB
:1013900013447B617B691A68084B13407A6802F03A
:1013A000F8413A680A43134343F000427B691A60EC
:1013B00000BF1C37BD465DF8047B704700F0FF039B
:1013C00080B485B000AF786039607B6860331A46BE
:1013D0003B689B001344FB60FB681B6803F0F84309
:1013E00018461437BD465DF8047B704780B487B05B
:1013F00000AFF860B9607A60FB6860331A46BB687A
:101400009B0013447B617B691B6823F000427B686F
:101410001A437B691A6000BF1C37BD465DF8047B28
:10142000704780B483B000AF78607B68DB6803F4FA
:101430004063002B01D1012300E0002318460C3744
:10144000BD465DF8047B704780B487B000AFF8609C
:10145000B9607A60FB6830331A46BB681B0A9B0090
:1014600003F00C0313447B617B691A68BB6803F0CB
:101470001F031F2101FA03F3DB431A407B689B0E15
:1014800003F01F01BB6803F01F0301FA03F31A43C3
:101490007B691A6000BF1C37BD465DF8047B70474E
:1014A00080B487B000AFF860B9607A60FB6814332D
:1014B0001A46BB685B0E9B0003F0040313447B6178
:1014C0007B691A68BB681B0D03F01F03072101FA33
:1014D00003F3DB431A40BB681B0D03F01F0379685D
:1014E00001FA03F31A437B691A6000BF1C37BD463B
:1014F0005DF8047B7047000080B485B000AFF860F1
:10150000B9607A60FB68D3F8B020BB68C3F31203FC
:10151000DB431A407B6803F018030849D940BB68D5
:101520000B40C3F312031A43FB68C3F8B02000BF9B
:101530001437BD465DF8047B704700BFFFFF07000E
:1015400080B483B000AF78607B689B6823F0204351
:1015500023F03F037A68936000BF0C37BD465DF807
:10156000047B704780B483B000AF78607B689B6871
:1015700003F00053B3F1005F01D1012300E0002329
:1015800018460C37BD465DF8047B704780B483B0C5
:1015900000AF78607B689B6823F0104323F03F0323
:1015A00043F080527B689A6000BF0C37BD465DF8FF
:1015B000047B704780B483B000AF78607B689B6821
:1015C00003F08053B3F1805F01D1012300E00023D9
:1015D00018460C37BD465DF8047B704780B483B075
:1015E00000AF78607B689B6823F0004323F03F03E3
:1015F00043F001027B689A6000BF0C37BD465DF87E
:10160000047B704780B483B000AF78607B689B68D0
:1016100023F0004323F03F0343F002027B689A600B
:1016200000BF0C37BD465DF8047B704780B483B0C3
:1016300000AF78607B689B6803F00103012B01D148
:10164000012300E0002318460C37BD465DF8047BFB
:10165000704780B483B000AF78607B689B6803F00C
:101660000203022B01D1012300E0002318460C37AE
:10167000BD465DF8047B704780B483B000AF7860EE
:101680007B689B6823F0004323F03F0343F0040290
:101690007B689A6000BF0C37BD465DF8047B7047DD
:1016A00080B483B000AF78607B689B6823F0004310
:1016B00023F03F0343F010027B689A6000BF0C37B1
:1016C000BD465DF8047B704780B483B000AF78609E
:1016D0007B689B6803F00403042B01D1012300E025
:1016E000002318460C37BD465DF8047B704780B474
:1016F00083B000AF78607B689B6823F0004323F0E1
:101700003F0343F020027B689A6000BF0C37BD4660
:101710005DF8047B704780B483B000AF78607B686D
:101720009B6803F00803082B01D1012300E000238C
:1017300018460C37BD465DF8047B704780B588B00D
:1017400000AF78600023FB770023BB607B68002B31
:1017500001D101232CE17B681B69002B7B685B6D49
:10176000002B09D1786807F05FFE7B6800229A653C
:101770007B68002283F850207B681B681846FFF7BF
:10178000F1FE0346002B04D07B681B681846FFF768
:10179000D7FE7B681B681846FFF70CFF0346002B3B
:1017A00015D17B681B681846FFF7F0FE824B1B685B
:1017B0009B09824AA2FB03239B0901335B00BB60A8
:1017C00002E0BB68013BBB60BB68002BF9D17B68C2
:1017D0001B681846FFF7EEFE0346002B0DD17B6811
:1017E0005B6D43F010027B685A657B689B6D43F02C
:1017F00001027B689A650123FB777B681B681846AA
:10180000FFF762FF78617B685B6D03F01003002BCC
:1018100040F0C5807B69002B40F0C1807B685B6D28
:1018200023F4817343F002027B685A657B681B686E
:101830001846FFF7FBFE0346002B0BD16048FFF76D
:10184000F5FE0346002B05D17B685B6819465D48B1
:10185000FFF75EFD7B685B7E5A037B685B6B1A4318
:101860007B68DB681A437B689B681A437B6893F844
:1018700020301B041343BB617B6893F82030012B9D
:1018800006D17B685B6A013B5B04BA691343BB61A9
:101890007B689B6A002B09D07B689B6A03F470729B
:1018A0007B68DB6A1343BA691343BB617B681B68BF
:1018B000DA68454B13407A681268B9690B43D36004
:1018C0007B681B681846FFF7FFFE38617B681B6862
:1018D0001846FFF720FFF8603B69002B3DD1FB68FD
:1018E000002B3AD17B681B7E9A037B6893F83030DB
:1018F0005B001343BB617B681B68DB6823F4804398
:1019000023F002037A681268B9690B43D3607B68DD
:1019100093F83830012B18D17B681B681B6923F4BE
:10192000FF6323F004037A68D16B7A68126C114369
:101930007A68526C11437A68926C0A431A437B6846
:101940001B6842F001021A6107E07B681B681A6994
:101950007B681B6822F001021A617B681B69012BFE
:101960000CD17B681B681B6B23F00F017B68DB6964
:101970005A1E7B681B680A431A6307E07B681B6872
:101980001A6B7B681B6822F00F021A637B685B6D21
:1019900023F0030343F001027B685A6507E07B688C
:1019A0005B6D43F010027B685A650123FB77FB7F78
:1019B00018462037BD4680BD08000020632D3E0537
:1019C000000004500003045007C0F0FF80B584B04D
:1019D00000AF78607B681B681846FFF775FE03460A
:1019E000002B4FD17B6893F85030012B01D102239B
:1019F0004BE07B68012283F85020786800F0C0FD3E
:101A00000346FB73FB7B002B37D17B685B6D23F4B4
:101A1000706323F0010343F480727B685A657B682E
:101A20005B6D03F48053B3F5805F06D17B689B6DDB
:101A300023F006027B689A6502E07B6800229A65C3
:101A40007B681B681C221A607B68002283F8502088
:101A50007B681B68DB6803F00073002B07D07B6892
:101A60005B6D23F4405343F480527B685A657B6876
:101A70001B681846FFF700FE06E07B68002283F82B
:101A8000502001E00223FB73FB7B18461037BD4654
:101A900080BD80B584B000AF78607B6893F850302B
:101AA000012B01D1022323E07B68012283F850201F
:101AB0000321786800F0A8FC0346FB73FB7B002B36
:101AC00011D1786800F0E2FD0346FB73FB7B002B2D
:101AD00009D17B685B6D23F4885323F0010343F045
:101AE00001027B685A657B68002283F85020FB7BEB
:101AF00018461037BD4680BD80B586B000AF78600F
:101B000039607B685B69082B02D108237B6110E098
:101B10007B681B68DB6803F00103002B07D07B6840
:101B20005B6D43F020027B685A6501236FE004235C
:101B30007B6100F0FFFE386121E03B68B3F1FF3FBD
:101B40001DD000F0F7FE02463B69D31A3A689A426C
:101B500002D33B68002B12D17B681B681A687B6933
:101B60001340002B0BD17B685B6D43F004027B6854
:101B70005A657B68002283F85020032347E07B6886
:101B80001B681A687B691340002BD6D07B685B6D9D
:101B900043F400727B685A657B681B681846FFF740
:101BA00040FC0346002B1CD07B685B7E002B18D1C9
:101BB0007B681B681B6803F00803082B11D17B6846
:101BC0005B6D23F480727B685A657B685B6D03F400
:101BD0008053002B05D17B685B6D43F001027B686D
:101BE0005A657B681B68DB68FB607B69082B04D146
:101BF0007B681B6808221A6008E0FB6803F48043D6
:101C0000002B03D17B681B680C221A600023184646
:101C10001837BD4680BD80B483B000AF78607B6864
:101C20001B681B6C18460C37BD465DF8047B70477B
:101C300080B5B6B000AF78603960002387F8D73040
:101C40000023FB607B6893F85030012B01D1022305
:101C5000B9E37B68012283F850207B681B68184633
:101C6000FFF732FD0346002B40F09E833B685B6824
:101C7000052B24D83B685B68023B032B1BD801A2D1
:101C800052F823F0951C00089D1C0008A51C0008B4
:101C9000AD1C00083B680C225A6011E03B68122220
:101CA0005A600DE03B6818225A6009E03B684FF427
:101CB00080725A6004E03B6806225A6000E000BF70
:101CC0007B6818683B6859683B681B681A46FFF7D1
:101CD000BBFB7B681B681846FFF7F6FCC7F8D00013
:101CE0007B681B681846FFF716FDC7F8CC00D7F8CD
:101CF000D030002B40F0A681D7F8CC30002B40F03C
:101D0000A1817B6818683B6819683B689B681A4624
:101D1000FFF7C6FB3B685A697B681B68DB68DB081A
:101D200003F003035B0002FA03F3C7F8C8303B6813
:101D30001B69042B0AD07B6818683B6819693B68EB
:101D40001A68D7F8C830FFF717FB7BE17B681B6880
:101D500000211846FFF734FB0346C3F31203002BA0
:101D60000AD17B681B6800211846FFF729FB034650
:101D70009B0E03F01F021EE07B681B6800211846C3
:101D8000FFF71EFB0346C7F8BC30D7F8BC3093FA08
:101D9000A3F3C7F8B830D7F8B830C7F8C030D7F8D1
:101DA000C030002B01D1202304E0D7F8C030B3FAB3
:101DB00083F3DBB21A463B681B68C3F31203002BA4
:101DC00005D13B681B689B0E03F01F0318E03B68BE
:101DD0001B68C7F8B030D7F8B03093FAA3F3C7F850
:101DE000AC30D7F8AC30C7F8B430D7F8B430002BEB
:101DF00001D1202304E0D7F8B430B3FA83F3DBB287
:101E00009A4206D17B681B68002200211846FFF722
:101E1000EDFA7B681B6801211846FFF7D1FA0346EB
:101E2000C3F31203002B0AD17B681B6801211846FB
:101E3000FFF7C6FA03469B0E03F01F021EE07B6805
:101E40001B6801211846FFF7BBFA0346C7F8A43008
:101E5000D7F8A43093FAA3F3C7F8A030D7F8A0308E
:101E6000C7F8A830D7F8A830002B01D1202304E010
:101E7000D7F8A830B3FA83F3DBB21A463B681B6885
:101E8000C3F31203002B05D13B681B689B0E03F0C4
:101E90001F0318E03B681B68C7F89830D7F89830E4
:101EA00093FAA3F3C7F89430D7F89430C7F89C306E
:101EB000D7F89C30002B01D1202304E0D7F89C30C8
:101EC000B3FA83F3DBB29A4206D17B681B68002227
:101ED00001211846FFF78AFA7B681B680221184621
:101EE000FFF76EFA0346C3F31203002B0AD17B6897
:101EF0001B6802211846FFF763FA03469B0E03F0A6
:101F00001F021EE07B681B6802211846FFF758FA83
:101F10000346C7F88C30D7F88C3093FAA3F3C7F890
:101F20008830D7F88830C7F89030D7F89030002B39
:101F300001D1202304E0D7F89030B3FA83F3DBB269
:101F40001A463B681B68C3F31203002B05D13B689C
:101F50001B689B0E03F01F0316E03B681B68C7F865
:101F60008030D7F8803093FAA3F3FB67FB6FC7F894
:101F70008430D7F88430002B01D1202304E0D7F837
:101F80008430B3FA83F3DBB29A4206D17B681B68D4
:101F9000002202211846FFF729FA7B681B680321FB
:101FA0001846FFF70DFA0346C3F31203002B0AD1BC
:101FB0007B681B6803211846FFF702FA03469B0E55
:101FC00003F01F0217E07B681B6803211846FFF728
:101FD000F7F903467B677B6F93FAA3F33B673B6F8D
:101FE000BB67BB6F002B01D1202303E0BB6FB3FAAB
:101FF00083F3DBB21A463B681B68C3F31203002B62
:1020000005D13B681B689B0E03F01F0311E03B6882
:102010001B68BB66BB6E93FAA3F37B667B6EFB66A5
:10202000FB6E002B01D1202303E0FB6EB3FA83F398
:10203000DBB29A4206D17B681B6800220321184656
:10204000FFF7D4F97B681B681846FFF7EFFA0346E1
:10205000002B40F03F817B6818683B6819683B683B
:10206000DB681A46FFF748FA3B68DB688E4A934202
:1020700040F030817B6818683B681B68C3F312032B
:10208000002B0BD13B681B689B0E013303F01F0331
:10209000092B94BF01230023DBB219E03B681B68C6
:1020A000FB65FB6D93FAA3F3BB65BB6D3B663B6EB3
:1020B000002B01D1202303E03B6EB3FA83F3DBB2A4
:1020C000013303F01F03092B94BF01230023DBB26C
:1020D000002B79D03B681B68C3F31203002B07D198
:1020E0003B681B689B0E01339B0603F0F84215E02A
:1020F0003B681B683B653B6D93FAA3F3FB64FB6C89
:102100007B657B6D002B01D1202303E07B6DB3FA4F
:1021100083F3DBB201339B0603F0F8423B681B6894
:10212000C3F31203002B09D13B681B689B0E0133DC
:1021300003F01F03012101FA03F317E03B681B685A
:102140007B647B6C93FAA3F33B643B6CBB64BB6C1A
:10215000002B01D1202303E0BB6CB3FA83F3DBB285
:10216000013303F01F03012101FA03F342EA0301E3
:102170003B681B68C3F31203002B0AD13B681B6842
:102180009B0E013303F01F0213465B0013441B0533
:1021900018E03B681B68BB63BB6B93FAA3F37B63DC
:1021A0007B6BFB63FB6B002B01D1202303E0FB6BFC
:1021B000B3FA83F3DBB2013303F01F0213465B0073
:1021C00013441B050B4380E03B681B68C3F31203F9
:1021D000002B07D13B681B689B0E01339B0603F065
:1021E000F84215E03B681B68FB62FB6A93FAA3F3B5
:1021F000BB62BB6A3B633B6B002B01D1202303E036
:102200003B6BB3FA83F3DBB201339B0603F0F84276
:102210003B681B68C3F31203002B09D13B681B68A2
:102220009B0E013303F01F03012101FA03F317E0B2
:102230003B681B683B623B6A93FAA3F3FB61FB6953
:102240007B627B6A002B01D1202303E07B6AB3FA17
:1022500083F3DBB2013303F01F03012101FA03F31F
:1022600042EA03013B681B68C3F31203002B0DD144
:102270003B681B689B0E013303F01F0213465B0093
:1022800013441E3B1B0543F000731DE03B681B68B5
:102290007B617B6993FAA3F33B613B69BB61BB69DB
:1022A000002B03D1202305E000007F40BB69B3FA77
:1022B00083F3DBB2013303F01F0213465B001344C8
:1022C0001E3B1B0543F000730B433A6892681946A6
:1022D000FFF7E6F83B681A683D4B1340002B6CD0C3
:1022E0003C48FFF73BF8C7F8C4003B681B683A4A14
:1022F000934227D1D7F8C43003F40003002B21D137
:102300007B681B68354A934257D1D7F8C43043F4F1
:10231000000319462F48FFF70EF8314B1B689B0945
:10232000304AA2FB03239B095A1C13465B0013444B
:102330009B00FB6002E0FB68013BFB60FB68002B3D
:10234000F9D13AE03B681B68274A934213D1D7F88A
:10235000C43003F08073002B0DD17B681B681F4ACB
:1023600093422AD1D7F8C43043F0807319461948F4
:10237000FEF7E1FF21E03B681B681C4A93421CD139
:10238000D7F8C43003F48003002B16D17B681B6898
:10239000124A934211D1D7F8C43043F4800319464E
:1023A0000C48FEF7C8FF08E07B685B6D43F0200235
:1023B0007B685A65012387F8D7307B68002283F851
:1023C000502097F8D7301846D837BD4680BD00BF9B
:1023D0000000088000030450000052C700000450B1
:1023E00008000020632D3E05000084CB0100008022
:1023F00080B483B000AF78607B685B6D18460C37A3
:10240000BD465DF8047B704780B588B000AF78604A
:1024100039600023FB613B68BB617B681B68184621
:10242000FFF752F938617B681B681846FFF773F9AC
:10243000F8603B69002B03D1FB68002B00F098800B
:102440007B681B68DB6803F00073002B2AD07B6875
:102450005B7E012B26D17B681B7E012B22D10123C1
:10246000BB6114E0FB69454A93420DD97B685B6D03
:1024700043F010027B685A657B689B6D43F0010254
:102480007B689A65012374E0FB690133FB617B681B
:102490001B681B6803F04003402BE3D17B681B687B
:1024A00040221A60BB69022B14D07B681B68184657
:1024B000FFF70AF90346002B0CD07B681B6818460F
:1024C000FFF7C7F80346002B04D17B681B6818464A
:1024D000FFF7E6F8BB69012B14D07B681B68184630
:1024E000FFF719F90346002B0CD07B681B681846D0
:1024F000FFF7AFF80346002B04D17B681B68184632
:10250000FFF7F5F8BB69022B05D0BB69032B05D19A
:102510000C237B6105E008237B6102E004237B61DF
:1025200000BF00F007FAB8601BE000F003FA0246B3
:10253000BB68D31A052B14D97B681B689A687B6922
:102540001340002B0DD07B685B6D43F010027B685D
:102550005A657B689B6D43F001027B689A65012395
:1025600007E07B681B689A687B691340002BDCD10D
:10257000002318462037BD4680BD00BFFFFF3FA3A4
:1025800080B584B000AF78600023BB607B681B68B7
:102590001846FFF74BF80346002B69D17B681B6890
:1025A0009A68364B1340002B0DD07B685B6D43F06F
:1025B00010027B685A657B689B6D43F001027B6863
:1025C0009A65012355E07B681B681846FFF706F8FB
:1025D0002B48FEF7C3FE034603F40003002B13D081
:1025E000284B1B689B09284AA2FB03239B095A1C02
:1025F00013465B0013449B00BB6002E0BB68013BD9
:10260000BB60BB68002BF9D100F094F9F86028E0BA
:102610007B681B681846FFF709F80346002B04D1B6
:102620007B681B681846FEF7D9FF00F083F9024665
:10263000FB68D31A022B14D97B681B681B6803F054
:102640000103012B0DD07B685B6D43F010027B68AA
:102650005A657B689B6D43F001027B689A65012394
:1026600007E07B681B681B6803F00103012BCFD1D7
:10267000002318461037BD4680BD00BF3F000080D4
:102680000003045008000020632D3E0580B584B08F
:1026900000AF78607B681B681846FEF7DAFFF860C9
:1026A0007B681B681846FEF7C1FF0346002B47D026
:1026B000FB68002B44D17B681B689B6803F00D030B
:1026C000012B0CD17B681B681846FEF79BFF7B68CB
:1026D0001B6803221A6000F02DF9B86029E07B68BE
:1026E0005B6D43F010027B685A657B689B6D43F01D
:1026F00001027B689A65012323E000F01BF9024682
:10270000BB68D31A022B14D97B681B689B6803F043
:102710000103002B0DD07B685B6D43F010027B68DA
:102720005A657B689B6D43F001027B689A650123C3
:1027300007E07B681B689B6803F00103002BDCD17A
:10274000002318461037BD4680BD80B483B000AF6B
:10275000786039607B689B6823F0404323F03F0337
:102760003A6802F08042134343F000427B689A606B
:1027700000BF0C37BD465DF8047B704780B483B062
:1027800000AF78607B689B6803F00043B3F1004FB3
:1027900001D1012300E0002318460C37BD465DF847
:1027A000047B704780B584B000AF78603960002347
:1027B000BB607B6893F85030012B01D102234DE0C0
:1027C0007B68012283F850207868FFF75FFF03469B
:1027D000FB73FB7B002B36D17B685B6D23F4885346
:1027E00023F0020343F002027B685A657B681B6892
:1027F00039681846FFF7A9FF14E0BB680133BB60D6
:10280000BB68B3F5912F0DD37B685B6D23F012038A
:1028100043F010027B685A657B68002283F85020E1
:1028200001231BE07B681B681846FFF7A7FF0346E0
:10283000002BE2D17B685B6D23F0030343F00102C0
:102840007B685A6505E07B685B6D43F010027B682E
:102850005A657B68002283F85020FB7B18461037AE
:10286000BD4680BD80B582B000AF0023FB71032060
:1028700001F068FD032000F00DF80346002B02D0A4
:102880000123FB7101E0FEF71FFDFB7918460837B5
:10289000BD4680BD80B584B000AF78600023FB7377
:1028A000174B1B78002B23D0164B1A68144B1B7840
:1028B00019464FF47A73B3FBF1F3B2FBF3F3184606
:1028C00001F075FD0346002B0FD17B680F2B09D853
:1028D000002279684FF0FF3001F03FFD0A4A7B6823
:1028E000136007E00123FB7304E00123FB7301E0A5
:1028F0000123FB73FB7B18461037BD4680BD00BF2C
:1029000004000020080000200000002080B400AF78
:10291000064B1B781A46064B1B681344044A136087
:1029200000BFBD465DF8047B704700BF0400002077
:102930006C07002080B400AF034B1B681846BD46EF
:102940005DF8047B704700BF6C07002080B485B041
:1029500000AF786012497A6813469B0013445B000D
:102960004B600F4B00229A600D4B01221A600C4BFA
:102970001B68FB60FB6803F00103002B04D0FB68BD
:1029800003F48033002BF2D0054B00221A60044B75
:1029900000229A6000BF1437BD465DF8047B704783
:1029A00010E000E080B584B000AF78600023FB60E9
:1029B0000023FB6006E04FF47A70FFF7C7FFFB6867
:1029C0000133FB60FA687B689A42F4D300BF00BF12
:1029D0001037BD4680BD000080B588B000AF78607C
:1029E0007B68002B02D1012300F002BC964B9B6850
:1029F00003F00C03BB61944BDB6803F003037B61C2
:102A00007B681B6803F01003002B00F0E480BB69B7
:102A1000002B07D0BB690C2B40F08B807B69012B0E
:102A200040F08780884B1B6803F00203002B05D021
:102A30007B689B69002B01D10123D9E37B681A6A6B
:102A4000814B1B6803F00803002B04D07E4B1B68EE
:102A500003F0F00305E07C4BD3F894301B0903F03E
:102A6000F003934223D27B681B6A184600F088FD6E
:102A70000346002B01D00123BAE3734B1B68724A53
:102A800043F008031360704B1B6823F0F0027B686F
:102A90001B6A6D4913430B606B4B5B6823F47F42E9
:102AA0007B68DB691B02684913434B6025E0664B7A
:102AB0001B68654A43F008031360634B1B6823F0EF
:102AC000F0027B681B6A604913430B605E4B5B68D6
:102AD00023F47F427B68DB691B025B4913434B6035
:102AE000BB69002B09D17B681B6A184600F048FDC2
:102AF0000346002B01D001237AE300F07DFC02465F
:102B0000514B9B681B0903F00F035049CB5C03F04A
:102B10001F0322FA03F34E4A13604E4B1B681846FC
:102B2000FFF7B8FE0346FB73FB7B002B52D0FB7B09
:102B30005EE37B689B69002B32D0434B1B68424AA3
:102B400043F001031360FFF7F5FE386108E0FFF77B
:102B5000F1FE02463B69D31A022B01D9032347E356
:102B6000394B1B6803F00203002BF0D0364B1B6877
:102B7000354A43F008031360334B1B6823F0F0021F
:102B80007B681B6A304913430B602F4B5B6823F44F
:102B90007F427B68DB691B022B4913434B601AE0C1
:102BA000294B1B68284A23F001031360FFF7C2FE7C
:102BB000386108E0FFF7BEFE02463B69D31A022BDC
:102BC00001D9032314E3204B1B6803F00203002BFD
:102BD000F0D100E000BF7B681B6803F00103002B0D
:102BE00073D0BB69082B05D0BB690C2B0ED17B6958
:102BF000032B0BD1144B1B6803F40033002B63D061
:102C00007B685B68002B5FD10123F1E27B685B6826
:102C1000B3F5803F06D10C4B1B680B4A43F480335D
:102C2000136025E07B685B68B3F5A02F14D1064BD9
:102C30001B68054A43F480231360034B1B68024A58
:102C400043F48033136013E000100240F8040108DD
:102C50000800002000000020A04B1B689F4A23F4BE
:102C6000803313609D4B1B689C4A23F480231360C0
:102C70007B685B68002B13D0FFF75CFE386108E0CF
:102C8000FFF758FE02463B69D31A642B01D9032390
:102C9000AEE2924B1B6803F40033002BF0D014E03B
:102CA000FFF748FE386108E0FFF744FE02463B6943
:102CB000D31A642B01D903239AE2884B1B6803F4CF
:102CC0000033002BF0D100E000BF7B681B6803F0ED
:102CD0000203002B60D0BB69042B05D0BB690C2B11
:102CE00019D17B69022B16D17C4B1B6803F48063DE
:102CF000002B05D07B68DB68002B01D1012377E234
:102D0000764B5B6823F0F8527B681B691B0673499E
:102D100013434B6040E07B68DB68002B23D06F4B94
:102D20001B686E4A43F480731360FFF703FE38613B
:102D300008E0FFF7FFFD02463B69D31A022B01D9D9
:102D4000032355E2654B1B6803F48063002BF0D02E
:102D5000624B5B6823F0F8527B681B691B065F4976
:102D600013434B6018E05D4B1B685C4A23F480738F
:102D70001360FFF7DFFD386108E0FFF7DBFD024677
:102D80003B69D31A022B01D9032331E2534B1B6851
:102D900003F48063002BF0D17B681B6803F0080309
:102DA000002B3CD07B685B69002B1CD04B4BD3F8CD
:102DB00094304A4A43F00103C2F89430FFF7BAFD59
:102DC000386108E0FFF7B6FD02463B69D31A022BD3
:102DD00001D903230CE2414BD3F8943003F00203F2
:102DE000002BEFD01BE03D4BD3F894303B4A23F04F
:102DF0000103C2F89430FFF79DFD386108E0FFF74A
:102E000099FD02463B69D31A022B01D90323EFE156
:102E1000324BD3F8943003F00203002BEFD17B68E0
:102E20001B6803F00403002B00F0A6800023FB774F
:102E30002A4B9B6D03F08053002B0DD1274B9B6DCC
:102E4000264A43F080539365244B9B6D03F08053D7
:102E5000BB60BB680123FB77214B1B6803F48073C5
:102E6000002B18D11E4B1B681D4A43F4807313605E
:102E7000FFF760FD386108E0FFF75CFD02463B6943
:102E8000D31A022B01D90323B2E1154B1B6803F4BB
:102E90008073002BF0D07B689B68012B08D10F4B0F
:102EA000D3F890300D4A43F00103C2F8903029E086
:102EB0007B689B68052B15D1084BD3F89030074AE7
:102EC00043F00403C2F89030044BD3F89030034A27
:102ED00043F00103C2F8903014E000BF001002403C
:102EE000007000409A4BD3F89030994A23F00103C8
:102EF000C2F89030964BD3F89030954A23F00403F3
:102F0000C2F890307B689B68002B16D0FFF712FD4B
:102F100038610AE0FFF70EFD02463B69D31A41F221
:102F20008832934201D9032362E1894BD3F8903070
:102F300003F00203002BEDD015E0FFF7FBFC386136
:102F40000AE0FFF7F7FC02463B69D31A41F28832E8
:102F5000934201D903234BE17D4BD3F8903003F02A
:102F60000203002BEDD1FB7F012B05D1784B9B6D2C
:102F7000774A23F0805393657B681B6803F0200336
:102F8000002B3CD07B685B6A002B1CD0704BD3F8C5
:102F900098306F4A43F00103C2F89830FFF7CAFC3B
:102FA000386108E0FFF7C6FC02463B69D31A022BE2
:102FB00001D903231CE1664BD3F8983003F00203D8
:102FC000002BEFD01BE0624BD3F89830604A23F01F
:102FD0000103C2F89830FFF7ADFC386108E0FFF755
:102FE000A9FC02463B69D31A022B01D90323FFE057
:102FF000574BD3F8983003F00203002BEFD17B68D6
:103000009B6A002B00F0F3807B689B6A022B40F0E8
:10301000C9804F4BDB687B617B6903F003027B68EF
:10302000DB6A9A422CD17B6903F070027B681B6BD0
:10303000013B1B019A4223D17B6903F4FE427B686A
:103040005B6B1B029A421BD17B6903F078427B6861
:103050009B6BDB069A4213D17B6903F4C0027B6849
:10306000DB6B5B08013B5B059A4209D17B6903F08E
:10307000C0627B681B6C5B08013B5B069A426BD0AD
:10308000BB690C2B62D0324B1B6803F08063002BB2
:1030900001D00123ACE02E4B1B682D4A23F0807336
:1030A0001360FFF747FC386108E0FFF743FC024676
:1030B0003B69D31A022B01D9032399E0244B1B68E7
:1030C00003F00073002BF0D1214BDA68214B134041
:1030D0007A68D16A7A68126B013A120111437A68F0
:1030E000526B120211437A68D26B5208013A5205B0
:1030F00011437A68126C5208013A520611437A68F9
:10310000926BD2060A4312491343CB60104B1B68E3
:103110000F4A43F0807313600D4BDB680C4A43F099
:103120008073D360FFF706FC386108E0FFF702FC0C
:1031300002463B69D31A022B01D9032358E0044B02
:103140001B6803F00073002BF0D050E001234FE028
:10315000001002408C809D01274B1B6803F0007318
:10316000002B44D1244B1B68234A43F08073136027
:10317000214BDB68204A43F08073D360FFF7DAFB12
:10318000386108E0FFF7D6FB02463B69D31A022BF1
:1031900001D903232CE0184B1B6803F00073002BAC
:1031A000F0D024E0BB690C2B1FD0134B1B68124AD4
:1031B00023F080731360FFF7BDFB386108E0FFF771
:1031C000B9FB02463B69D31A022B01D903230FE056
:1031D000094B1B6803F00073002BF0D1064BDA6833
:1031E0000549064B1340CB6001E0012300E00023BA
:1031F00018462037BD4680BD00100240FCFFEEFEA1
:1032000080B584B000AF786039607B68002B01D155
:103210000123E5E0744B1B6803F007033A689A4208
:1032200010D9714B1B6823F007026F493B681343A9
:103230000B606D4B1B6803F007033A689A4201D09C
:103240000123CDE07B681B6803F00203002B10D044
:103250007B689A68654B9B6803F0F0039A4208D933
:10326000624B9B6823F0F0027B689B685F491343C5
:103270008B607B681B6803F00103002B4CD07B68DC
:103280005B68032B07D1594B1B6803F00073002BBD
:1032900021D10123A4E07B685B68022B07D1534B4B
:1032A0001B6803F40033002B15D1012398E07B68E1
:1032B0005B68002B07D14D4B1B6803F00203002B0A
:1032C00009D101238CE0494B1B6803F48063002B78
:1032D00001D1012384E0454B9B6823F003027B6806
:1032E0005B68424913438B60FFF724FBF8600AE0F8
:1032F000FFF720FB0246FB68D31A41F28832934263
:1033000001D903236CE0394B9B6803F00C027B6806
:103310005B689B009A42EBD17B681B6803F0020359
:10332000002B10D07B689A68304B9B6803F0F00349
:103330009A4208D22D4B9B6823F0F0027B689B6871
:103340002A4913438B60284B1B6803F007033A6834
:103350009A4210D2244B1B6823F0070222493B6893
:1033600013430B60204B1B6803F007033A689A4233
:1033700001D0012334E07B681B6803F00403002BB9
:1033800008D01A4B9B6823F4E0627B68DB6817491E
:1033900013438B607B681B6803F00803002B09D084
:1033A000124B9B6823F460527B681B69DB000F495A
:1033B00013438B6000F020F802460C4B9B681B09FE
:1033C00003F00F030A49CB5C03F01F0322FA03F357
:1033D000084A13600020FFF75DFA0346FB72FB7A90
:1033E00018461037BD4680BD002002400010024044
:1033F000F80401080800002080B489B000AF002361
:10340000FB610023BB613E4B9B6803F00C033B61F7
:103410003B4BDB6803F00303FB603B69002B05D0EB
:103420003B690C2B21D1FB68012B1ED1344B1B684F
:1034300003F00803002B07D1314BD3F894301B0A5B
:1034400003F00F03FB6105E02D4B1B681B0903F024
:103450000F03FB612B4AFB6952F82330FB613B6988
:10346000002B0DD1FB69BB610AE03B69042B02D143
:10347000254BBB6104E03B69082B01D1234BBB61A9
:103480003B690C2B34D11E4BDB6803F00303BB609C
:10349000BB68022B03D0BB68032B03D005E01A4B9B
:1034A0007B6105E0194B7B6102E0FB697B6100BF3A
:1034B000134BDB681B0903F0070301337B60104BE0
:1034C000DB681B0A03F07F037A6903FB02F27B6867
:1034D000B2FBF3F37B610A4BDB685B0E03F0030383
:1034E00001335B003B607A693B68B2FBF3F3BB617D
:1034F000BB6918462437BD465DF8047B704700BFA2
:1035000000100240100501080024F40000127A00A7
:1035100080B400AF034B1B681846BD465DF8047BC2
:10352000704700BF0800002080B500AFFFF7F0FF34
:103530000246064B9B681B0A03F007030449CB5C59
:1035400003F01F0322FA03F3184680BD0010024067
:103550000805010880B500AFFFF7DAFF0246064B09
:103560009B68DB0A03F007030449CB5C03F01F03ED
:1035700022FA03F3184680BD001002400805010836
:1035800080B586B000AF786000233B612A4B9B6D0D
:1035900003F08053002B03D000F0A0FD786114E00D
:1035A000254B9B6D244A43F080539365224B9B6DC2
:1035B00003F08053FB60FB6800F090FD78611E4BC8
:1035C0009B6D1D4A23F0805393657B69B3F5007FA3
:1035D0000BD17B68802B19D97B68A02B02D90223E1
:1035E0003B6113E001233B6110E07B68802B02D933
:1035F00003233B610AE07B68802B02D102233B61FD
:1036000004E07B68702B01D101233B610B4B1B68ED
:1036100023F0070209493B6913430B60074B1B6802
:1036200003F007033A699A4201D0012300E0002326
:1036300018461837BD4680BD0010024000200240E9
:1036400080B586B000AF78600023FB740023BB74A4
:103650007B681B6803F40063002B31D07B685B6CD4
:10366000B3F5400F1AD0B3F5400F14D8002B09D092
:10367000B3F5000F0FD15D4BDB685C4A43F4803338
:10368000D3600CE07B6804330021184600F0F0F9A9
:103690000346FB7403E00123FB7400E000BFFB7CE6
:1036A000002B0BD1514BD3F8883023F440027B68B8
:1036B0005B6C4E491343C1F8883001E0FB7CBB745E
:1036C0007B681B6803F40033002B00F09E8000230E
:1036D0007B74464B9B6D03F08053002B01D101237B
:1036E00000E00023002B0DD0404B9B6D3F4A43F080
:1036F000805393653D4B9B6D03F08053BB60BB686B
:1037000001237B743A4B1B68394A43F4807313607E
:10371000FFF710F9F86009E0FFF70CF90246FB68C3
:10372000D31A022B02D90323FB7405E0304B1B682C
:1037300003F48073002BEFD0FB7C002B5AD12B4B72
:10374000D3F8903003F440737B617B69002B1ED06B
:103750007B689B6D7A699A4219D0244BD3F89030DC
:1037600023F440737B61214BD3F890301F4A43F41C
:103770008033C2F890301D4BD3F890301B4A23F4AD
:103780008033C2F89030194A7B69C2F890307B6967
:1037900003F00103002B16D0FFF7CCF8F8600BE024
:1037A000FFF7C8F80246FB68D31A41F28832934209
:1037B00002D90323FB7406E00C4BD3F8903003F0DE
:1037C0000203002BECD0FB7C002B0BD1074BD3F872
:1037D000903023F440727B689B6D04491343C1F819
:1037E000903009E0FB7CBB7406E000BF0010024093
:1037F00000700040FB7CBB747B7C012B05D19B4B94
:103800009B6D9A4A23F0805393657B681B6803F095
:103810000103002B0AD0954BD3F8883023F0030224
:103820007B681B6A91491343C1F888307B681B6829
:1038300003F00203002B0AD08C4BD3F8883023F01E
:103840000C027B685B6A89491343C1F888307B6846
:103850001B6803F00403002B0AD0844BD3F8883094
:1038600023F030027B689B6A80491343C1F888309B
:103870007B681B6803F02003002B0AD07B4BD3F836
:10388000883023F440627B68DB6A78491343C1F8CF
:1038900088307B681B6803F40073002B0AD0734BDD
:1038A000D3F8883023F440227B68DB6B6F491343E5
:1038B000C1F888307B681B6803F48063002B0AD052
:1038C0006A4BD3F8883023F440127B681B6C67493D
:1038D0001343C1F888307B681B6803F04003002B5A
:1038E0000AD0624BD3F8883023F440527B681B6BBC
:1038F0005E491343C1F888307B681B6803F080037E
:10390000002B0AD0594BD3F8883023F440427B680F
:103910005B6B56491343C1F888307B681B6803F41E
:103920008073002B0AD0514BD3F8883023F44032F7
:103930007B689B6B4D491343C1F888307B681B68DB
:1039400003F40023002B28D0484BD3F8883023F011
:1039500040627B689B6C45491343C1F888307B68A3
:103960009B6CB3F1006F06D1404BDB683F4A43F4D8
:103970008013D36011E07B689B6CB3F1806F0CD136
:103980007B6804330121184600F072F80346FB748B
:10399000FB7C002B01D0FB7CBB747B681B6803F4B1
:1039A0008023002B28D0314BD3F8883023F040629D
:1039B0007B68DB6C2D491343C1F888307B68DB6C76
:1039C000B3F1006F06D1294BDB68284A43F480131A
:1039D000D36011E07B68DB6CB3F1806F0CD17B6846
:1039E00004330121184600F043F80346FB74FB7CC6
:1039F000002B01D0FB7CBB747B681B6803F4804305
:103A0000002B1CD0194BD3F8883023F040527B6830
:103A10001B6D16491343C1F888307B681B6DB3F1E9
:103A2000805F0CD17B6804330221184600F020F837
:103A30000346FB74FB7C002B01D0FB7CBB747B68D2
:103A40001B6803F40043002B0AD0084BD3F88830DE
:103A500023F080427B685B6D04491343C1F88830D2
:103A6000BB7C18461837BD4680BD00BF0010024021
:103A700080B584B000AF786039600023FB73744B6D
:103A8000DB6803F00303002B18D0714BDB6803F0F5
:103A900003027B681B689A420DD17B681B68002B70
:103AA00009D06B4BDB681B0903F007035A1C7B68CA
:103AB0005B689A4247D00123FB7344E07B681B6834
:103AC000032B18D0032B25D8012B02D0022B09D0B1
:103AD00020E05F4B1B6803F00203002B1DD1012384
:103AE000FB731AE05A4B1B6803F48063002B16D15A
:103AF0000123FB7313E0564B1B6803F40033002BC8
:103B00000FD1534B1B6803F48023002B09D10123F1
:103B1000FB7306E00123FB7304E000BF02E000BF7B
:103B200000E000BFFB7B002B0DD1494BDB6823F08D
:103B300073027B6819687B685B68013B1B010B4360
:103B400043491343CB60FB7B002B7CD1404B1B686C
:103B50003F4A23F080631360FEF7ECFEB86009E093
:103B6000FEF7E8FE0246BB68D31A022B02D90323F4
:103B7000FB7305E0364B1B6803F00063002BEFD1AD
:103B8000FB7B002B5FD13B68002B10D1304B1B69B6
:103B900023F0784323F4FE437A68926811027A682E
:103BA000D268D2060A432A4913430B6127E03B68D7
:103BB000012B12D1264B1B6923F4C00323F4FE43CF
:103BC0007A68926811027A6812695208013A5205BD
:103BD0000A431F4913430B6111E01D4B1B6923F07E
:103BE000C06323F4FE437A68926811027A685269CE
:103BF0005208013A52060A43154913430B61144B0C
:103C00001B68134A43F080631360FEF793FEB860AD
:103C100009E0FEF78FFE0246BB68D31A022B02D9D9
:103C20000323FB7305E00A4B1B6803F00063002BC2
:103C3000EFD0FB7B002B06D1054B1A697B689B6993
:103C4000034913430B61FB7B18461037BD4680BD0B
:103C50000010024080B487B000AF78603960002364
:103C60007B6154E13B681A6801217B6901FA03F327
:103C70001340FB60FB68002B00F046813B685B68EB
:103C800003F00303012B05D03B685B6803F00303DB
:103C9000022B30D17B689B683B617B695B00032210
:103CA00002FA03F3DB433A6913403B613B68DA688D
:103CB0007B695B0002FA03F33A6913433B617B685B
:103CC0003A699A607B685B683B6101227B6902FA12
:103CD00003F3DB433A6913403B613B685B681B09B4
:103CE00003F001027B6902FA03F33A6913433B6173
:103CF0007B683A695A603B685B6803F00303032BF7
:103D000017D07B68DB683B617B695B00032202FAAA
:103D100003F3DB433A6913403B613B689A687B6974
:103D20005B0002FA03F33A6913433B617B683A692B
:103D3000DA603B685B6803F00303022B23D17B69E5
:103D4000DA087B68083253F822303B617B6903F064
:103D500007039B000F2202FA03F3DB433A69134087
:103D60003B613B681A697B6903F007039B0002FA19
:103D700003F33A6913433B617B69DA087B680832D5
:103D8000396943F822107B681B683B617B695B00E3
:103D9000032202FA03F3DB433A6913403B613B68B9
:103DA0005B6803F003027B695B0002FA03F33A6984
:103DB00013433B617B683A691A603B685B6803F4B4
:103DC0004033002B00F0A080584B1B6E574A43F045
:103DD00001031366554B1B6E03F00103BB60BB6808
:103DE000534A7B699B08023352F823303B617B695D
:103DF00003F003039B000F2202FA03F3DB433A694B
:103E000013403B617B68B3F1904F19D07B68494AFE
:103E1000934213D07B68484A93420DD07B68474A4F
:103E2000934207D07B68464A934201D1042308E0BD
:103E3000072306E0032304E0022302E0012300E05D
:103E400000237A6902F00302920093403A69134317
:103E50003B6137497B699B0802333A6941F823206B
:103E6000384B9B683B61FB68DB433A6913403B611D
:103E70003B685B6803F48013002B03D03A69FB684E
:103E800013433B612F4A3B6993602E4BDB683B61D8
:103E9000FB68DB433A6913403B613B685B6803F4B2
:103EA0000013002B03D03A69FB6813433B61254A9A
:103EB0003B69D360234B5B683B61FB68DB433A693A
:103EC00013403B613B685B6803F40033002B03D075
:103ED0003A69FB6813433B611A4A3B695360194BCB
:103EE0001B683B61FB68DB433A6913403B613B68FD
:103EF0005B6803F48033002B03D03A69FB681343FB
:103F00003B61104A3B6913607B6901337B613B680D
:103F10001A687B6922FA03F3002B7FF4A3AE00BF7B
:103F200000BF1C37BD465DF8047B7047001002409F
:103F3000000001400004004800080048000C004850
:103F4000001000480004014080B485B000AF7860E4
:103F50000B467B807B681A697B881340002B02D05C
:103F60000123FB7301E00023FB73FB7B184614372E
:103F7000BD465DF8047B704780B483B000AF7860C5
:103F80000B467B8013467B707B78002B03D07A88AE
:103F90007B689A6102E07A887B689A6200BF0C377E
:103FA000BD465DF8047B704780B485B000AF786093
:103FB0000B467B807B685B69FB607A88FB681340FB
:103FC0001A04FB68D9437B880B401A437B689A61CB
:103FD00000BF1437BD465DF8047B704780B485B0E0
:103FE00000AF78600023FB737B6893F82530DBB269
:103FF000022B08D07B680422DA637B68002283F8F6
:104000002420012322E07B681B681A687B681B68F8
:1040100022F00E021A607B681B681A687B681B68B6
:1040200022F001021A607B685B6C03F01C027B6863
:104030001B6C012101FA02F25A607B68012283F8AD
:1040400025207B68002283F82420FB7B1846143748
:10405000BD465DF8047B704780B584B000AF7860E2
:104060000023FB737B6893F82530DBB2022B05D06D
:104070007B680422DA630123FB7329E07B681B68F9
:104080001A687B681B6822F00E021A607B681B6846
:104090001A687B681B6822F001021A607B685B6CFF
:1040A00003F01C027B681B6C012101FA02F25A60CA
:1040B0007B68012283F825207B68002283F8242076
:1040C0007B689B6B002B03D07B689B6B7868984761
:1040D000FB7B18461037BD4680BD000080B400AFA2
:1040E000044B1B6803F4C0631846BD465DF8047BAF
:1040F000704700BF0070004080B485B000AF7860AA
:104100007B68B3F5007F30D1234B1B6803F4C06399
:10411000B3F5007F38D0204B1B6823F4C0631E4AE0
:1041200043F4007313601D4B1B68322202FB03F340
:104130001B4AA2FB03239B0C0133FB6002E0FB68DC
:10414000013BFB60144B5B6903F48063B3F5806F44
:1041500002D1FB68002BF2D10F4B5B6903F4806343
:10416000B3F5806F10D103230FE00B4B1B6803F4F2
:10417000C063B3F5806F07D0074B1B6823F4C0639F
:10418000054A43F480631360002318461437BD4684
:104190005DF8047B704700BF0070004008000020FD
:1041A00083DE1B4380B485B000AF78607B6803F08A
:1041B0000703FB600C4BDB68BB60BA684FF6FF037C
:1041C0001340BB60FB681A02BB68134343F0BF6334
:1041D00043F40033BB60044ABB68D36000BF1437AC
:1041E000BD465DF8047B704700ED00E080B400AF91
:1041F000044BDB681B0A03F007031846BD465DF855
:10420000047B704700ED00E080B483B000AF03464C
:10421000FB7197F90730002B0BDBFB7903F01F02D2
:10422000074997F907305B09012000FA02F241F8CB
:10423000232000BF0C37BD465DF8047B704700BFEC
:1042400000E100E080B483B000AF03463960FB7149
:1042500097F90730002B0ADB3B68DAB20C4997F973
:1042600007301201D2B20B4483F800230AE03B6806
:10427000DAB20849FB7903F00F03043B1201D2B212
:104280000B441A7600BF0C37BD465DF8047B7047BF
:1042900000E100E000ED00E080B489B000AFF8601C
:1042A000B9607A60FB6803F00703FB61FB69C3F147
:1042B0000703042B28BF0423BB61FB690433062BCF
:1042C00002D9FB69033B00E000237B614FF0FF3222
:1042D000BB6902FA03F3DA43BB681A407B699A4070
:1042E0004FF0FF317B6901FA03F3D9437B680B4040
:1042F000134318462437BD465DF8047B7047000021
:1043000080B582B000AF78607B68013BB3F1807FFD
:1043100001D301230FE00A4A7B68013B53600F2160
:104320004FF0FF30FFF78EFF054B00229A60044BE1
:1043300007221A60002318460837BD4680BD00BF1B
:1043400010E000E080B582B000AF78607868FFF7D9
:1043500029FF00BF0837BD4680BD80B586B000AFDD
:104360000346B9607A60FB7300237B61FFF73EFF71
:1043700078617A68B9687869FFF78EFF024697F925
:104380000F3011461846FFF75DFF00BF1837BD46D6
:1043900080BD80B582B000AF0346FB7197F907304E
:1043A0001846FFF731FF00BF0837BD4680BD80B516
:1043B00082B000AF78607868FFF7A2FF0346184626
:1043C0000837BD4680BD80B584B000AF78607B689B
:1043D000002B01D1012395E07B685B6A002B08D19B
:1043E0007B685B68B3F5827F09D07B680022DA6165
:1043F00005E07B6800221A617B6800225A617B68B5
:1044000000229A627B6893F85D30DBB2002B06D104
:104410007B68002283F85C20786805F0A3F97B684C
:10442000022283F85D207B681B681A687B681B6822
:1044300022F040021A607B68DB68B3F5E06F02D9B6
:104440000023FB6002E04FF48053FB607B68DB6875
:10445000B3F5706F07D07B68DB68B3F5E06F02D00F
:104460007B6800229A627B685B6803F482727B68D7
:104470009B6803F404431A437B681B6903F002033F
:104480001A437B685B6903F001031A437B689B69ED
:1044900003F400731A437B68DB6903F038031A43A3
:1044A0007B681B6A03F0800342EA03017B689B6A16
:1044B00003F400527B681B680A431A607B689B699F
:1044C0001B0C03F004027B685B6A03F010031A43C1
:1044D0007B685B6B03F008031A437B68DB6803F4BB
:1044E000706342EA0301FB6803F480527B681B6837
:1044F0000A435A607B6800221A667B68012283F8AF
:104500005D20002318461037BD4680BD80B588B0B9
:1045100000AFF860B9603B601346FB800023FB7777
:10452000FB6893F85C30012B01D1022358E1FB6852
:10453000012283F85C20FEF7FDF9B861FB88FB825D
:10454000FB6893F85D30DBB2012B02D00223FB77CE
:104550003DE1BB68002B02D0FB88002B02D1012378
:10456000FB7734E1FB68032283F85D20FB680022BF
:104570001A66FB68BA689A63FB68FA889A87FB68D0
:10458000FA88DA87FB6800221A64FB680022A3F825
:104590004420FB680022A3F84620FB6800221A652D
:1045A000FB680022DA64FB689B68B3F5004F0FD10B
:1045B000FB681B681A68FB681B6822F040021A60DF
:1045C000FB681B681A68FB681B6842F480421A602B
:1045D000FB681B681B6803F04003402B07D0FB6897
:1045E0001B681A68FB681B6842F040021A60FB688F
:1045F000DB68B3F5E06F4BD9FB685B68002B02D03A
:10460000FB8A012B3ED1FB689B6B1A88FB681B68F9
:10461000DA60FB689B6B9A1CFB689A63FB68DB8F14
:104620009BB2013B9AB2FB68DA872BE0FB681B6800
:104630009B6803F00203022B12D1FB689B6B1A8864
:10464000FB681B68DA60FB689B6B9A1CFB689A63CB
:10465000FB68DB8F9BB2013B9AB2FB68DA8711E003
:10466000FEF768F90246BB69D31A3A689A4203D842
:104670003B68B3F1FF3F02D13B68002B02D103231B
:10468000FB77A4E0FB68DB8F9BB2002BCED17CE0F4
:10469000FB685B68002B02D0FB8A012B70D1FB68A2
:1046A000DB8F9BB2012B12D9FB689B6B1A88FB68CE
:1046B0001B68DA60FB689B6B9A1CFB689A63FB685B
:1046C000DB8F9BB2023B9AB2FB68DA8758E0FB684B
:1046D0009A6BFB681B680C3312781A70FB689B6B33
:1046E0005A1CFB689A63FB68DB8F9BB2013B9AB252
:1046F000FB68DA8744E0FB681B689B6803F00203F1
:10470000022B2BD1FB68DB8F9BB2012B12D9FB68EC
:104710009B6B1A88FB681B68DA60FB689B6B9A1CB2
:10472000FB689A63FB68DB8F9BB2023B9AB2FB6823
:10473000DA8725E0FB689A6BFB681B680C331278FC
:104740001A70FB689B6B5A1CFB689A63FB68DB8FD3
:104750009BB2013B9AB2FB68DA8711E0FEF7EAF8F8
:104760000246BB69D31A3A689A4203D83B68B3F150
:10477000FF3F02D13B68002B02D10323FB7726E0E9
:10478000FB68DB8F9BB2002BB5D1BA693968F8683A
:1047900000F012FE0346002B02D0FB6820221A66AE
:1047A000FB689B68002B0AD100233B61FB681B68F8
:1047B000DB683B61FB681B689B683B613B69FB688E
:1047C0001B6E002B02D00123FB7700E000BFFB68CB
:1047D000012283F85D20FB68002283F85C20FB7FC8
:1047E00018462037BD4680BD80B588B002AFF8605E
:1047F000B9603B601346FB800023FB75FB685B6878
:10480000B3F5827F12D1FB689B68002B0ED1FB6849
:10481000042283F85D20FA883B6800931346BA6847
:10482000B968F86800F010F9034609E1FB6893F8ED
:104830005C30012B01D1022302E1FB68012283F8E5
:104840005C20FEF777F83861FB6893F85D30DBB2E7
:10485000012B02D00223FB75E9E0BB68002B02D0DC
:10486000FB88002B02D10123FB75E0E0FB680422EA
:1048700083F85D20FB6800221A66FB68BA681A6438
:10488000FB68FA88A3F84420FB68FA88A3F846205E
:10489000FB6800229A63FB6800229A87FB6800226B
:1048A000DA87FB680022DA64FB6800221A65FB687D
:1048B000DB68B3F5E06F08D9FB681B685A68FB68D2
:1048C0001B6822F480525A6007E0FB681B685A6834
:1048D000FB681B6842F480525A60FB689B68B3F522
:1048E000004F0FD1FB681B681A68FB681B6822F039
:1048F00040021A60FB681B681A68FB681B6822F498
:1049000080421A60FB681B681B6803F04003402B61
:1049100007D0FB681B681A68FB681B6842F04002FE
:104920001A60FB68DB68B3F5E06F67D830E0FB68BE
:104930001B689B6803F00103012B17D1FB681B6800
:1049400003F10C02FB681B6C1278D2B21A70FB6880
:104950001B6C5A1CFB681A64FB68B3F846309BB2A8
:10496000013B9AB2FB68A3F8462011E0FDF7E2FF95
:1049700002463B69D31A3A689A4203D83B68B3F1BE
:10498000FF3F02D13B68002B02D10323FB754EE0B1
:10499000FB68B3F846309BB2002BC8D134E0FB680B
:1049A0001B689B6803F00103012B15D1FB681B6892
:1049B000DA68FB681B6C92B21A80FB681B6C9A1C4D
:1049C000FB681A64FB68B3F846309BB2013B9AB2AD
:1049D000FB68A3F8462011E0FDF7ACFF02463B69F7
:1049E000D31A3A689A4203D83B68B3F1FF3F02D129
:1049F0003B68002B02D10323FB7518E0FB68B3F87A
:104A000046309BB2002BCAD13A693968F86800F089
:104A10007BFC0346002B02D0FB6820221A66FB6851
:104A20001B6E002B02D00123FB7500E000BFFB686A
:104A3000012283F85D20FB68002283F85C20FB7D67
:104A400018461837BD4680BD80B58AB000AFF86003
:104A5000B9607A607B8001237B62002387F8233072
:104A6000FB6893F85C30012B01D10223FBE1FB686A
:104A7000012283F85C20FDF75DFFF861FB6893F885
:104A80005D30FB76FB685B687B617B887B827B8823
:104A90003B82FB7E012B0ED07B69B3F5827F06D172
:104AA000FB689B68002B02D1FB7E042B03D0022302
:104AB00087F82330CDE1BB68002B05D07B68002B45
:104AC00002D07B88002B03D1012387F82330C0E17B
:104AD000FB6893F85D30DBB2042B03D0FB68052242
:104AE00083F85D20FB6800221A66FB687A681A6406
:104AF000FB687A88A3F84620FB687A88A3F84420EC
:104B0000FB68BA689A63FB687A88DA87FB687A88F8
:104B10009A87FB680022DA64FB6800221A65FB684A
:104B2000DB68B3F5E06F02D83B8A012B08D9FB683C
:104B30001B685A68FB681B6822F480525A6007E0C1
:104B4000FB681B685A68FB681B6842F480525A6015
:104B5000FB681B681B6803F04003402B07D0FB6811
:104B60001B681A68FB681B6842F040021A60FB6809
:104B7000DB68B3F5E06F7CD9FB685B68002B02D083
:104B80007B8A012B69D1FB689B6B1A88FB681B68C9
:104B9000DA60FB689B6B9A1CFB689A63FB68DB8F8F
:104BA0009BB2013B9AB2FB68DA8756E0FB681B6850
:104BB0009B6803F00203022B1BD1FB68DB8F9BB2C7
:104BC000002B16D07B6A012B13D1FB689B6B1A88D4
:104BD000FB681B68DA60FB689B6B9A1CFB689A6336
:104BE000FB68DB8F9BB2013B9AB2FB68DA8700233C
:104BF0007B62FB681B689B6803F00103012B1CD1DF
:104C0000FB68B3F846309BB2002B16D0FB681B68DC
:104C1000DA68FB681B6C92B21A80FB681B6C9A1CEA
:104C2000FB681A64FB68B3F846309BB2013B9AB24A
:104C3000FB68A3F8462001237B62FDF77BFE02465A
:104C4000FB69D31A3A6B9A4207D83B6BB3F1FF3F2B
:104C500003D0032387F82330FBE0FB68DB8F9BB294
:104C6000002BA3D1FB68B3F846309BB2002B9DD13B
:104C7000DFE0FB685B68002B03D07B8A012B40F0F0
:104C8000CB80FB68DB8F9BB2012B12D9FB689B6B3F
:104C90001A88FB681B68DA60FB689B6B9A1CFB68D0
:104CA0009A63FB68DB8F9BB2023B9AB2FB68DA87A0
:104CB000B2E0FB689A6BFB681B680C3312781A70C1
:104CC000FB689B6B5A1CFB689A63FB68DB8F9BB28B
:104CD000013B9AB2FB68DA879EE0FB681B689B6821
:104CE00003F00203022B34D1FB68DB8F9BB2002B55
:104CF0002FD07B6A012B2CD1FB68DB8F9BB2012B61
:104D000012D9FB689B6B1A88FB681B68DA60FB682A
:104D10009B6B9A1CFB689A63FB68DB8F9BB2023B20
:104D20009AB2FB68DA8712E0FB689A6BFB681B6833
:104D30000C3312781A70FB689B6B5A1CFB689A63E1
:104D4000FB68DB8F9BB2013B9AB2FB68DA870023DA
:104D50007B62FB681B689B6803F00103012B48D151
:104D6000FB68B3F846309BB2002B42D0FB68B3F827
:104D700046309BB2012B23D9FB681B68DA68FB68BD
:104D80001B6C92B21A80FB681B6C9A1CFB681A643D
:104D9000FB68B3F846309BB2023B9AB2FB68A3F8BB
:104DA0004620FB68B3F846309BB2012B1FD8FB6846
:104DB0001B685A68FB681B6842F480525A6016E010
:104DC000FB681B6803F10C02FB681B6C1278D2B203
:104DD0001A70FB681B6C5A1CFB681A64FB68B3F8FA
:104DE00046309BB2013B9AB2FB68A3F846200123F0
:104DF0007B62FDF79FFD0246FB69D31A3A6B9A422C
:104E000003D83B6BB3F1FF3F02D13B6B002B03D1C7
:104E1000032387F823301CE0FB68DB8F9BB2002B59
:104E20007FF45BAFFB68B3F846309BB2002B7FF496
:104E300054AFFA69396BF86800F0BEFA0346002BEC
:104E400006D0012387F82330FB6820221A6600E091
:104E500000BFFB68012283F85D20FB68002283F815
:104E60005C2097F8233018462837BD4680BD0000E7
:104E700080B588B000AF78607B681B685B68FB61B9
:104E80007B681B689B68BB61BB699B0903F00103DE
:104E9000002B0FD1BB6903F00103002B0AD0FB6983
:104EA0009B0903F00103002B04D07B68DB6C78685E
:104EB0009847D7E0BB695B0803F00103002B0AD0D9
:104EC000FB69DB0903F00103002B04D07B681B6D39
:104ED00078689847C6E0BB695B0903F00103002BC3
:104EE0000CD1BB699B0903F00103002B06D1BB6900
:104EF0001B0A03F00103002B00F0B480FB695B097F
:104F000003F00103002B00F0AD80BB699B0903F0A7
:104F10000103002B23D07B6893F85D30DBB2032BB9
:104F200011D07B681B6E43F004027B681A66002375
:104F30007B617B681B68DB687B617B681B689B68A7
:104F40007B617B690BE000233B617B681B68DB684E
:104F50003B617B681B689B683B613B6982E0BB6986
:104F60005B0903F00103002B14D07B681B6E43F038
:104F700001027B681A660023FB607B681B689B68E4
:104F8000FB607B681B681A687B681B6822F0400224
:104F90001A60FB68BB691B0A03F00103002B0CD0ED
:104FA0007B681B6E43F008027B681A660023BB60B7
:104FB0007B681B689B68BB60BB687B681B6E002BB3
:104FC0004FD07B681B685A687B681B6822F0E00240
:104FD0005A607B68012283F85D20FB6903F00203BD
:104FE000002B04D1FB6903F00103002B34D07B6854
:104FF0001B685A687B681B6822F003025A607B6852
:105000009B6D002B11D07B689B6D184A9A637B685F
:105010009B6D1846FFF720F80346002B05D07B68F0
:105020001B6E43F040027B681A667B685B6D002B49
:1050300016D07B685B6D0D4A9A637B685B6D184682
:10504000FFF70AF80346002B0AD07B681B6E43F07B
:1050500040027B681A6603E0786800F009F800E017
:1050600000BF00BF2037BD4680BD00BFA150000873
:1050700080B483B000AF786000BF0C37BD465DF8E8
:10508000047B704780B483B000AF78607B6893F88E
:105090005D30DBB218460C37BD465DF8047B7047C7
:1050A00080B584B000AF78607B689B6AFB60FB686A
:1050B0000022A3F84620FB680022DA87F868FFF791
:1050C000D7FF00BF1037BD4680BD000080B588B057
:1050D00000AFF860B9603B601346FB71FDF72AFC36
:1050E0000246BB6A9B1A3A681344FB61FDF722FC37
:1050F000B861394B1B685B011B0DFA6902FB03F3B6
:105100007B6154E03B68B3F1FF3F50D0FDF712FCE8
:105110000246BB69D31AFA699A4202D9FB69002B8D
:105120003DD1FB681B685A68FB681B6822F0E002EF
:105130005A60FB685B68B3F5827F11D1FB689B689E
:10514000B3F5004F04D0FB689B68B3F5806F07D1BF
:10515000FB681B681A68FB681B6822F040021A6033
:10516000FB689B6AB3F5005F0FD1FB681B681A6888
:10517000FB681B6822F400521A60FB681B681A68FF
:10518000FB681B6842F400521A60FB68012283F836
:105190005D20FB68002283F85C20032317E07B6915
:1051A000002B01D10023FB617B69013B7B61FB6824
:1051B0001B689A68BB681340BA689A420CBF012307
:1051C0000023DBB21A46FB799A429BD10023184692
:1051D0002037BD4680BD00BF0800002080B58AB0E2
:1051E00000AFF860B9607A603B600023FB75FDF7A3
:1051F000A1FB02463B6B9B1A3A6813447B62FDF7A6
:1052000099FB3862FB681B680C33FB613D4B1A68E5
:1052100013469B001344DA00D31A1B0D7A6A02FB73
:1052200003F3BB6160E0BB68B3F5C06F07D17B6877
:10523000002B04D1FB691B78DBB2FB75FB7D3B685F
:10524000B3F1FF3F50D0FDF775FB02463B6AD31A1E
:105250007A6A9A4202D97B6A002B3DD1FB681B68AF
:105260005A68FB681B6822F0E0025A60FB685B68C2
:10527000B3F5827F11D1FB689B68B3F5004F04D072
:10528000FB689B68B3F5806F07D1FB681B681A68E1
:10529000FB681B6822F040021A60FB689B6AB3F54A
:1052A000005F0FD1FB681B681A68FB681B6822F45B
:1052B00000521A60FB681B681A68FB681B6842F49E
:1052C00000521A60FB68012283F85D20FB6800220F
:1052D00083F85C20032310E0BB69002B01D100237D
:1052E0007B62BB69013BBB61FB681B689A68BB685A
:1052F00013407A689A4296D1002318462837BD4653
:1053000080BD00BF0800002080B586B002AFF86005
:10531000B9607A60FB685B68B3F5827F11D1FB6886
:105320009B68B3F5004F04D0FB689B68B3F5806FB2
:1053300007D1FB681B681A68FB681B6822F04002F3
:105340001A607B680093BB6800228021F868FFF731
:10535000BDFE0346002B07D0FB681B6E43F0200206
:10536000FB681A66032323E0FB685B68B3F5827F62
:105370001DD1FB689B68B3F5004F04D0FB689B68A8
:10538000B3F5806F13D17B680093BB6800224FF4A4
:10539000C061F868FFF722FF0346002B07D0FB68C7
:1053A0001B6E43F02002FB681A66032300E0002313
:1053B00018461037BD4680BD80B586B002AFF86094
:1053C000B9607A607B680093BB6800224FF4C051DB
:1053D000F868FFF703FF0346002B07D0FB681B6E3E
:1053E00043F02002FB681A66032327E07B680093E2
:1053F000BB6800228021F868FFF768FE0346002B97
:1054000007D0FB681B6E43F02002FB681A6603237B
:1054100014E07B680093BB6800224FF4C061F86819
:10542000FFF7DCFE0346002B07D0FB681B6E43F042
:105430002002FB681A66032300E000231846103799
:10544000BD4680BD80B582B000AF78607B68002B20
:1054500001D1012340E07B689B6F002B06D17B6864
:10546000002283F87420786804F092FA7B68242282
:105470009A677B681B681A687B681B6822F00102C8
:105480001A60786800F066FC0346012B01D1012305
:1054900022E07B685B6A002B02D0786800F0B4FEE3
:1054A0007B681B685A687B681B6822F490425A60CC
:1054B0007B681B689A687B681B6822F02A029A60E6
:1054C0007B681B681A687B681B6842F001021A60DF
:1054D000786800F03BFF034618460837BD4680BD9C
:1054E00080B58AB002AFF860B9603B601346FB80BC
:1054F000FB689B6F202B40F08280BB68002B02D0A2
:10550000FB88002B01D101237AE0FB6893F874300B
:10551000012B01D1022373E0FB68012283F8742080
:10552000FB680022C3F88020FB6821229A67FDF700
:1055300001FA7861FB68FA88A3F85020FB68FA88C2
:10554000A3F85220FB689B68B3F5805F08D1FB6825
:105550001B69002B04D10023FB61BB68BB6103E026
:10556000BB68FB610023BB61FB68002283F87420E9
:105570002DE03B6800937B6900228021F86800F0F1
:105580002EFF0346002B01D0032339E0FB69002BDB
:105590000BD1BB691A88FB681B68C2F3080292B280
:1055A0001A85BB690233BB6108E0FB691A78FB68A6
:1055B0001B6892B21A85FB690133FB61FB68B3F883
:1055C00052309BB2013B9AB2FB68A3F85220FB68B1
:1055D000B3F852309BB2002BCBD13B6800937B6970
:1055E00000224021F86800F0FAFE0346002B01D0AB
:1055F000032305E0FB6820229A67002300E00223D2
:1056000018462037BD4680BD80B48BB000AFF8602F
:10561000B9601346FB80FB689B6F202B56D1BB689B
:10562000002B02D0FB88002B01D101234FE0FB6847
:1056300093F87430012B01D1022348E0FB6801226A
:1056400083F87420FB68BA68DA64FB68FA88A3F808
:105650005020FB68FA88A3F85220FB6800229A6663
:10566000FB680022C3F88020FB6821229A67FB6850
:105670009B68B3F5805F07D1FB681B69002B03D1E2
:10568000FB68164A9A6602E0FB68154A9A66FB6850
:10569000002283F87420FB681B687B617B6953E8F8
:1056A000003F3B613B6943F080037B62FB681B6802
:1056B0001A467B6A3B62FA61F9693A6A41E800235B
:1056C000BB61BB69002BE6D1002300E00223184632
:1056D0002C37BD465DF8047B704700BFA768000803
:1056E000EF67000880B58AB000AFF860B960134674
:1056F000FB80FB68DB6F202B42D1BB68002B02D004
:10570000FB88002B01D101233BE0FB6893F8743048
:10571000012B01D1022334E0FB68012283F87420BD
:10572000FB6800221A66FB681B68184A93421FD068
:10573000FB681B685B6803F40003002B18D0FB6850
:105740001B687B617B6953E8003F3B613B6943F029
:1057500080637B62FB681B681A467B6A3B62FA6166
:10576000F9693A6A41E80023BB61BB69002BE6D1C5
:10577000FB881A46B968F86800F0F6FE034600E0B8
:10578000022318462837BD4680BD00BF0080004078
:1057900080B5BAB000AF78607B681B68DB69C7F87A
:1057A000E4307B681B681B68C7F8E0307B681B68C7
:1057B0009B68C7F8DC30D7F8E42040F60F031340AD
:1057C000C7F8D830D7F8D830002B15D1D7F8E43047
:1057D00003F02003002B0FD0D7F8E03003F02003B4
:1057E000002B09D07B685B6E002B00F0A6827B68E3
:1057F0005B6E78689847A0E2D7F8D830002B00F0AD
:105800001781D7F8DC3003F00103002B06D1D7F85D
:10581000E020854B1340002B00F00A81D7F8E430DC
:1058200003F00103002B11D0D7F8E03003F48073AC
:10583000002B0BD07B681B6801221A627B68D3F8AF
:10584000803043F001027B68C3F88020D7F8E43051
:1058500003F00203002B11D0D7F8DC3003F0010372
:10586000002B0BD07B681B6802221A627B68D3F87E
:10587000803043F004027B68C3F88020D7F8E4301E
:1058800003F00403002B11D0D7F8DC3003F0010340
:10589000002B0BD07B681B6804221A627B68D3F84C
:1058A000803043F002027B68C3F88020D7F8E430F0
:1058B00003F00803002B17D0D7F8E03003F02003E3
:1058C000002B05D1D7F8DC3003F00103002B0BD0FF
:1058D0007B681B6808221A627B68D3F8803043F02B
:1058E00008027B68C3F88020D7F8E43003F4006333
:1058F000002B12D0D7F8E03003F08063002B0CD0DF
:105900007B681B684FF400621A627B68D3F88030B2
:1059100043F020027B68C3F880207B68D3F8803096
:10592000002B00F00C82D7F8E43003F02003002BAA
:105930000DD0D7F8E03003F02003002B07D07B68B0
:105940005B6E002B03D07B685B6E786898477B6842
:10595000D3F88030C7F8D4307B681B689B6803F0AD
:105960004003402B05D0D7F8D43003F02803002B98
:105970004FD0786800F0C2FE7B681B689B6803F01C
:105980004003402B41D17B681B680833C7F89C302B
:10599000D7F89C3053E8003FC7F89830D7F89830D4
:1059A00023F04003C7F8D0307B681B680833D7F872
:1059B000D020C7F8A820C7F8A430D7F8A410D7F88B
:1059C000A82041E80023C7F8A030D7F8A030002B6A
:1059D000D9D17B681B6F002B13D07B681B6F134AD8
:1059E0009A637B681B6F1846FEF736FB0346002B55
:1059F00017D07B681B6F9B6B7A68126F10469847B5
:105A00000FE0786804F02EF90BE0786804F02AF9CA
:105A100007E0786804F026F97B680022C3F880204C
:105A20008DE100BF8BE100BF20010004C3670008C7
:105A30007B681B6E012B40F04681D7F8E43003F001
:105A40001003002B00F03F81D7F8E03003F0100383
:105A5000002B00F038817B681B6810221A627B687B
:105A60001B689B6803F04003402B40F0B4807B68C8
:105A70001B6F1B685B68A7F8BE30B7F8BE30002B01
:105A800000F05F817B68B3F85830B7F8BE209A42C7
:105A900080F057817B68B7F8BE20A3F85A207B6856
:105AA0001B6F1B681B6803F02003002B40F08580F0
:105AB0007B681B68C7F88830D7F8883053E8003F08
:105AC000C7F88430D7F8843023F48073C7F8B8302F
:105AD0007B681B681A46D7F8B830C7F89430C7F807
