:020000040800F2
:1000000000000120A97A0008D1130008D3130008CA
:10001000D5130008D7130008D9130008000000000A
:10002000000000000000000000000000DB130008DA
:10003000DD13000800000000DF130008E1130008D2
:10004000F97A0008F97A0008F97A0008F97A0008C4
:10005000F97A0008F97A0008F97A0008F97A0008B4
:10006000F97A0008F97A0008F97A0008F97A0008A4
:10007000F97A0008F97A0008F97A0008F97A000894
:10008000F97A0008F97A0008F97A0008F97A000884
:10009000F97A0008F97A0008F97A0008391400089A
:1000A000F97A0008F97A0008F97A0008F97A000864
:1000B000F97A00080000000000000000F97A00084A
:1000C000F97A0008F97A0008F97A0008F97A000844
:1000D000E9130008F91300080914000819140008AE
:1000E000F97A0008F97A000800000000000000001A
:1000F0000000000000000000000000000000000000
:1001000000000000F97A000800000000291400082F
:100110000000000000000000F97A0008F97A0008E9
:10012000F97A0008F97A0008F97A0008F97A0008E3
:10013000F97A000800000000000000000000000044
:10014000F97A0008F97A0008F97A0008000000003E
:10015000F97A0008F97A0008F97A0008F97A0008B3
:10016000F97A0008F97A0008F97A0008000000001E
:10017000F97A0008F97A0008000000000000000089
:10018000F97A0008F97A0008F97A000800000000FE
:1001900010B5054C237833B9044B13B10448AFF3C1
:1001A00000800123237010BDF8060020000000002D
:1001B00020BA000808B5034B1BB103490348AFF34D
:1001C000008008BD00000000FC06002020BA0008E6
:1001D00010F8012B11F8013B012A28BF9A42F7D0F1
:1001E000D01A7047034613F8012B002AFBD1181AC6
:1001F000013870470000000000000000000000000F
:1002000001F0FF01102A2BDB10F0070F08D010F8C7
:10021000013B013A8B422DD010F0070F42B3F6D1CB
:10022000F0B441EA012141EA014122F007047FF0E4
:1002300000070023F0E80256083C85EA010586EA3B
:10024000010685FA47F5A3FA87F586FA47F6A5FA77
:1002500087F68EB9EED1F0BC01F0FF0102F0070283
:1002600032B110F8013B013A83EA010313B1F8D12E
:100270000020704701387047002D06BF354603380F
:10028000073815F0010F07D1013015F4807F02BF48
:10029000013015F4C03F0130F0BC0138704700BF99
:1002A00081F0004102E000BF83F0004330B54FEA27
:1002B00041044FEA430594EA050F08BF90EA020F94
:1002C0001FBF54EA000C55EA020C7FEA645C7FEA27
:1002D000655C00F0E2804FEA5454D4EB5555B8BF4A
:1002E0006D420CDD2C4480EA020281EA030382EABB
:1002F000000083EA010180EA020281EA0303362D4D
:1003000088BF30BD11F0004F4FEA01314FF4801C1F
:100310004CEA113102D0404261EB410113F0004F31
:100320004FEA03334CEA133302D0524263EB4303E8
:1003300094EA050F00F0A780A4F10104D5F1200E86
:100340000DDB02FA0EFC22FA05F2801841F10001E1
:1003500003FA0EF2801843FA05F359410EE0A5F1B5
:1003600020050EF1200E012A03FA0EFC28BF4CF0E6
:10037000020C43FA05F3C01851EBE37101F000459C
:1003800007D54FF0000EDCF1000C7EEB00006EEBA9
:100390000101B1F5801F1BD3B1F5001F0CD3490833
:1003A0005FEA30004FEA3C0C04F101044FEA44528A
:1003B00012F5800F80F09A80BCF1004F08BF5FEA11
:1003C000500C50F1000041EB045141EA050130BDF1
:1003D0005FEA4C0C404141EB0101013C28BFB1F503
:1003E000801FE9D291F0000F04BF01460020B1FA4E
:1003F00081F308BF2033A3F10B03B3F120020CDA21
:100400000C3208DD02F1140CC2F10C0201FA0CF0FE
:1004100021FA02F10CE002F11402D8BFC2F1200C63
:1004200001FA02F120FA0CFCDCBF41EA0C01904019
:10043000E41AA2BF01EB0451294330BD6FEA040462
:100440001F3C1CDA0C340EDC04F11404C4F120024D
:1004500020FA04F001FA02F340EA030021FA04F35F
:1004600045EA030130BDC4F10C04C4F1200220FAB6
:1004700002F001FA04F340EA0300294630BD21FAF4
:1004800004F0294630BD94F0000F83F4801306BFBA
:1004900081F480110134013D4EE77FEA645C18BFAE
:1004A0007FEA655C29D094EA050F08BF90EA020F45
:1004B00005D054EA000C04BF1946104630BD91EA3D
:1004C000030F1EBF0021002030BD5FEA545C05D140
:1004D0004000494128BF41F0004130BD14F580047F
:1004E0003CBF01F5801130BD01F0004545F0FE41F3
:1004F00041F470014FF0000030BD7FEA645C1ABF28
:10050000194610467FEA655C1CBF0B46024650EA5E
:10051000013406BF52EA033591EA030F41F400218A
:1005200030BD00BF90F0000F04BF0021704730B510
:100530004FF4806404F132044FF000054FF00001E5
:1005400050E700BF90F0000F04BF0021704730B5A6
:100550004FF4806404F1320410F0004548BF40427B
:100560004FF000013EE700BF42004FEAE2014FEAD0
:1005700031014FEA02701FBF12F07F4393F07F4FAB
:1005800081F06051704732F07F4208BF704793F0AE
:100590007F4F04BF41F40021704730B54FF46074C1
:1005A00001F0004521F000411CE700BF50EA0102C4
:1005B00008BF704730B54FF000050AE050EA01026D
:1005C00008BF704730B511F0004502D5404261EBDD
:1005D00041014FF4806404F132045FEA915C3FF41E
:1005E000D8AE4FF003025FEADC0C18BF03325FEABB
:1005F000DC0C18BF033202EBDC02C2F1200300FA6C
:1006000003FC20FA02F001FA03FE40EA0E0021FA90
:1006100002F11444BDE600BF70B54FF0FF0C4CF47E
:10062000E06C1CEA11541DBF1CEA135594EA0C0F30
:1006300095EA0C0F00F0DEF82C4481EA030621EA6B
:100640004C5123EA4C5350EA013518BF52EA0335A6
:1006500041F4801143F4801338D0A0FB02CE4FF058
:100660000005E1FB02E506F00042E0FB03E54FF088
:100670000006E1FB03569CF0000F18BF4EF0010E80
:10068000A4F1FF04B6F5007F64F5407404D25FEA7C
:100690004E0E6D4146EB060642EAC62141EA55512F
:1006A0004FEAC52040EA5E504FEACE2EB4F1FD0C71
:1006B00088BFBCF5E06F1ED8BEF1004F08BF5FEAEF
:1006C000500E50F1000041EB045170BD06F00046A1
:1006D00046EA010140EA020081EA0301B4EB5C044E
:1006E000C2BFD4EB0C0541EA045170BD41F4801146
:1006F0004FF0000E013C00F3AB8014F1360FDEBF6B
:10070000002001F0004170BDC4F10004203C35DA46
:100710000C341BDC04F11404C4F1200500FA05F3C9
:1007200020FA04F001FA05F240EA020001F000426A
:1007300021F0004110EBD37021FA04F642EB0601E0
:100740005EEA430E08BF20EAD37070BDC4F10C040A
:10075000C4F1200500FA04F320FA05F001FA04F2CE
:1007600040EA020001F0004110EBD37041F10001BA
:100770005EEA430E08BF20EAD37070BDC4F12005C5
:1007800000FA05F24EEA020E20FA04F301FA05F22D
:1007900043EA020321FA04F001F0004121FA04F2D5
:1007A00020EA020000EBD3705EEA430E08BF20EAA5
:1007B000D37070BD94F0000F0FD101F000464000DF
:1007C00041EB010111F4801F08BF013CF7D041EA61
:1007D000060195F0000F18BF704703F00046520065
:1007E00043EB030313F4801F08BF013DF7D043EA36
:1007F0000603704794EA0C0F0CEA135518BF95EAEC
:100800000C0F0CD050EA410618BF52EA4306D1D172
:1008100081EA030101F000414FF0000070BD50EA91
:10082000410606BF1046194652EA430619D094EA1B
:100830000C0F02D150EA013613D195EA0C0F05D105
:1008400052EA03361CBF104619460AD181EA030159
:1008500001F0004141F0FE4141F470014FF0000011
:1008600070BD41F0FE4141F4780170BD70B54FF0AC
:10087000FF0C4CF4E06C1CEA11541DBF1CEA13552C
:1008800094EA0C0F95EA0C0F00F0A7F8A4EB05040E
:1008900081EA030E52EA03354FEA013100F0888005
:1008A0004FEA03334FF0805545EA131343EA1263CE
:1008B0004FEA022245EA111545EA10654FEA002683
:1008C0000EF000419D4208BF964244F1FD0404F53C
:1008D000407402D25B084FEA3202B61A65EB030598
:1008E0005B084FEA32024FF480104FF4002CB6EB55
:1008F000020E75EB030E22BFB61A754640EA0C00D5
:100900005B084FEA3202B6EB020E75EB030E22BF14
:10091000B61A754640EA5C005B084FEA3202B6EB55
:10092000020E75EB030E22BFB61A754640EA9C0014
:100930005B084FEA3202B6EB020E75EB030E22BFE4
:10094000B61A754640EADC0055EA060E18D04FEAA2
:10095000051545EA16754FEA06164FEAC30343EA42
:1009600052734FEAC2025FEA1C1CC0D111F4801F0F
:100970000BD141EA00014FF000004FF0004CB6E708
:1009800011F4801F04BF01430020B4F1FD0C88BFA7
:10099000BCF5E06F3FF6AFAEB5EB030C04BFB6EBB2
:1009A000020C5FEA500C50F1000041EB045170BDA5
:1009B0000EF0004E4EEA113114EB5C04C2BFD4EBD2
:1009C0000C0541EA045170BD41F480114FF0000E56
:1009D000013C90E645EA060E8DE60CEA135594EAD2
:1009E0000C0F08BF95EA0C0F3FF43BAF94EA0C0FD5
:1009F0000AD150EA01347FF434AF95EA0C0F7FF44A
:100A000025AF104619462CE795EA0C0F06D152EA9D
:100A100003353FF4FDAE1046194622E750EA410681
:100A200018BF52EA43067FF4C5AE50EA41047FF492
:100A30000DAF52EA43057FF4EBAE12E74FF0FF3CF7
:100A400006E000BF4FF0010C02E000BF4FF0010CC8
:100A50004DF804CD4FEA410C7FEA6C5C4FEA430C41
:100A600018BF7FEA6C5C1BD001B050EA410C0CBF90
:100A700052EA430C91EA030F02BF90EA020F0020F2
:100A8000704710F1000F91EA030F58BF994208BF59
:100A900090422CBFD8176FEAE37040F00100704716
:100AA0004FEA410C7FEA6C5C02D150EA013C07D16D
:100AB0004FEA430C7FEA6C5CD6D152EA033CD3D0B8
:100AC0005DF8040B704700BF8446104662468C46B2
:100AD0001946634600E000BF01B5FFF7B7FF0028E5
:100AE00048BF10F1000F01BD4DF808EDFFF7F4FF0E
:100AF0000CBF012000205DF808FB00BF4DF808ED99
:100B0000FFF7EAFF34BF012000205DF808FB00BFBB
:100B10004DF808EDFFF7E0FF94BF012000205DF8DD
:100B200008FB00BF4DF808EDFFF7CEFF94BF012092
:100B300000205DF808FB00BF4DF808EDFFF7C4FF8B
:100B400034BF012000205DF808FB00BF4FEA410CD4
:100B50007FEA6C5C02D150EA013C0AD14FEA430CB7
:100B60007FEA6C5C02D152EA033C02D14FF00000F4
:100B700070474FF0010070474FEA410212F5001232
:100B800015D211D56FF47873B3EB625212D94FEAD4
:100B9000C12343F0004343EA505311F0004F23FABE
:100BA00002F018BF404270474FF00000704750EA13
:100BB000013005D111F0004008BF6FF000407047D0
:100BC0004FF00000704700BF4A0011D212F500122A
:100BD00011D20DD56FF47873B3EB62520ED44FEA95
:100BE000C12343F0004343EA505323FA02F0704715
:100BF0004FF00000704750EA013002D14FF0FF3053
:100C000070474FF0000070474FEA4102B2F1E043F5
:100C100024BFB3F5001CDCF1FE5C0DD901F0004CE3
:100C20004FEAC0024CEA5070B2F1004F40EB830033
:100C300008BF20F00100704711F0804F21D113F15F
:100C40003872BCBF01F00040704741F480114FEA98
:100C50005252C2F11802C2F1200C10FA0CF320FA21
:100C600002F018BF40F001004FEAC1234FEAD3233E
:100C700003FA0CFC40EA0C0023FA02F34FEA4303A8
:100C8000CCE77FEA625307D150EA01331EBF4FF031
:100C9000FE4040F44000704701F0004040F0FE404C
:100CA00040F40000704700BF53B94AB9002908BF9B
:100CB00000281CBF4FF0FF314FF0FF3000F074B937
:100CC000ADF1080C6DE904CE00F006F8DDF804E0A3
:100CD000DDE9022304B070472DE9F047089D044682
:100CE0008E46002B4DD18A42944669D9B2FA82F2DF
:100CF00052B101FA02F3C2F1200120FA01F10CFA1B
:100D000002FC41EA030E94404FEA1C48210CBEFB52
:100D1000F8F61FFA8CF708FB16E341EA034306FBDB
:100D200007F199420AD91CEB030306F1FF3080F06A
:100D30001F81994240F21C81023E63445B1AA4B2B7
:100D4000B3FBF8F008FB103344EA034400FB07F759
:100D5000A7420AD91CEB040400F1FF3380F00A819A
:100D6000A74240F207816444023840EA0640E41B8F
:100D700000261DB1D4400023C5E900433146BDE83B
:100D8000F0878B4209D9002D00F0EF800026C5E9DD
:100D9000000130463146BDE8F087B3FA83F6002EF5
:100DA0004AD18B4202D3824200F2F980841A61EB6D
:100DB000030301209E46002DE0D0C5E9004EDDE78B
:100DC00002B9FFDEB2FA82F2002A40F09280A1EB73
:100DD0000C014FEA1C471FFA8CFE0126200CB1FBC8
:100DE000F7F307FB131140EA01410EFB03F08842C1
:100DF00008D91CEB010103F1FF3802D2884200F24E
:100E0000CB804346091AA4B2B1FBF7F007FB1011DF
:100E100044EA01440EFB00FEA64508D91CEB04047D
:100E200000F1FF3102D2A64500F2BB800846A4EBD8
:100E30000E0440EA03409CE7C6F12007B34022FAC3
:100E400007FC4CEA030C20FA07F401FA06F31C43F2
:100E5000F9404FEA1C4900FA06F3B1FBF9F8200CFF
:100E60001FFA8CFE09FB181140EA014108FB0EF045
:100E7000884202FA06F20BD91CEB010108F1FF3A95
:100E800080F08880884240F28580A8F102086144A1
:100E9000091AA4B2B1FBF9F009FB101144EA0141AF
:100EA00000FB0EFE8E4508D91CEB010100F1FF345A
:100EB0006CD28E456AD90238614440EA0840A0FBF2
:100EC0000294A1EB0E01A142C846A64656D353D0C8
:100ED0005DB1B3EB080261EB0E0101FA07F722FAEC
:100EE00006F3F1401F43C5E9007100263146BDE815
:100EF000F087C2F12003D8400CFA02FC21FA03F378
:100F0000914001434FEA1C471FFA8CFEB3FBF7F0F8
:100F100007FB10360B0C43EA064300FB0EF69E421D
:100F200004FA02F408D91CEB030300F1FF382FD2B6
:100F30009E422DD9023863449B1B89B2B3FBF7F65E
:100F400007FB163341EA034106FB0EF38B4208D937
:100F50001CEB010106F1FF3816D28B4214D9023E78
:100F60006144C91A46EA004638E72E46284605E796
:100F70000646E3E61846F8E64B45A9D2B9EB020867
:100F800064EB0C0E0138A3E74646EAE7204694E7F7
:100F90004046D1E7D0467BE7023B614432E730462A
:100FA00009E76444023842E7704700BF0EB430B529
:100FB00082B00446059D2349FFF70AF958B122493A
:100FC0002046FFF705F908B9204C05E020492148E3
:100FD00004F0A6F924E0204C20492846FFF7F8F851
:100FE000D8B11F492846FFF7F3F8F0B11D4928464C
:100FF000FFF7EEF8E8B11C492846FFF7E9F8E0B939
:1010000006AA019207AB019308AB01939DF81C203F
:101010000699204605F07EFD02E0204605F066FDBB
:1010200002B0BDE8304003B07047204605F065FDD2
:10103000F6E7204605F068FDF2E70C49054804F0A4
:101040006FF9EDE73CBA000840BA000860000020E4
:1010500044BA0008180700205800002058BA0008B9
:101060005CBA000860BA000868BA000870BA0008E4
:1010700010B50446FFF7B6F882B22146014805F0E4
:101080005CFD10BD680000202DE9F04389B000230D
:10109000ADF81C30264A1288ADF818208DF81A30A9
:1010A00007A805F0ABFC06A805F0CEFC9DF81A00D9
:1010B0000A38FFF747FA41EC110B9FED1B0B09F0C3
:1010C0007BFC51EC100B00221A4BFFF7A5FAFFF73F
:1010D0007BFD044607EE900AB8EE677A9DF81C5037
:1010E0009DF81D609DF818709DF819809DF81A9064
:1010F000DFED117A67EE277A17EE900AFFF734FAE0
:10110000CDE904010394CDF80890CDF80480009750
:1011100033462A4609490A4804F002F909B0BDE8F5
:10112000F08300BFAFF3008000000000000000402B
:1011300038BA0008000020400000803A84BA000855
:10114000180700200FB400B5CDB011494E98FFF735
:101150003FF820B14DB05DF804EB04B070474FABE1
:10116000009350AB00934F9A01A90A4B186805F001
:101170003FFD83B233B94FF49672002101A806F007
:10118000FFFCE7E71A4601A9034804F0C9F8F2E7B3
:10119000F4BA000800000020180700202DE9F041F3
:1011A00084B005460E46174610EE108A32210A20FA
:1011B00005F09CF804464046FFF7D6F9CDE9020158
:1011C000019700962B4622460349044804F0A8F8EC
:1011D00004B0BDE8F08100BFFCBA00081807002089
:1011E00008B500EE103AC9B2FFF7D8FF08BD0000FD
:1011F00008B53221052005F079F807EE900AF8EEDF
:10120000677A9FED117A67EE877A17EE900AFFF7FB
:10121000ABF90BA3D3E90023FFF7FEF902460B4617
:10122000FFF744F8FFF7F0FCFFF79EF902460B4684
:101230000649074804F074F808BD00BFAFF300800A
:101240006666666666660A400000803944BB000830
:101250001807002008B5FFF7CBFF08BD72B6FEE700
:1012600000B597B04422002105A806F089FC0023B0
:10127000009301930293039304934FF4007001F0E1
:101280007BFF18BB012205924FF4803306930223A3
:101290000F9303211091119214221292072213929C
:1012A0001493159305A800F0B3FF88B90F2300939A
:1012B00003230193002302930393049304216846BC
:1012C00001F0DCFA30B917B05DF804FBFFF7C6FF98
:1012D000FFF7C4FFFFF7C2FF00B587B000F0B0FE14
:1012E00005F0A2FAFFF7BCFF04F0D6FE324C204610
:1012F00005F0CEFB04F10806304605F0C9FB04F00A
:101300005DFF05F039F805F05DF805F0DDF805F052
:10131000FFF805F021F903F033FE05F069FB2748DB
:1013200005F046FC264B1860264805F001FD264DC9
:1013300023462A464FF0FF314FF47A7005F080FAC9
:1013400033462A460A214FF47A7005F079FA1F4C89
:10135000637D0593237D0493E37C0393A37C029335
:10136000637C0193237C0093D4E90223204606F09A
:1013700032FB4FF4FA726421204606F05DFB04F55F
:101380008C75637D0593237D0493E37C0393A37C99
:101390000293637C0193237C0093D4E9482328467D
:1013A00006F019FB4FF4FA726421284606F044FB5C
:1013B000642000F067FEFBE75800002054BB0008E3
:1013C0000000002060BB0008096B0008F802002044
:1013D000FEE7FEE7FEE7FEE7FEE77047704770476F
:1013E00008B500F03DFE08BD08B5024802F084FCD7
:1013F00008BD00BFD008002008B5024802F0F4FD87
:1014000008BD00BF9809002008B5024802F0ECFDB5
:1014100008BD00BF1C0A002008B5024802F0E4FD28
:1014200008BD00BFA00A002008B5024802F064FC15
:1014300008BD00BF3409002008B5154B5B6913F0E7
:10144000400F05D1124B5B6913F4007F0FD108BD2B
:1014500040214FF0904001F025FE012803D00C4BB5
:1014600040225A61F3E70B4806F0FEF9F7E74FF424
:101470000071094801F016FE012804D0044B4FF416
:1014800000725A61E3E7054806F0EEF9F6E700BF9F
:1014900000040140F802002000040048100400206D
:1014A00000B583B00C4B1A6E42F001021A661A6E38
:1014B00002F001020092009A9A6D42F080529A6501
:1014C0009B6D03F080530193019B052001F09CFE6E
:1014D00003B05DF804FB00BF0010024030B583B0DC
:1014E00000230193002800F0DA800446436D13B313
:1014F00023689A6812F0005F05D09A6822F02042B3
:1015000022F03F029A602268936813F0805F1FD137
:10151000936823F0104323F03F0343F0805393601C
:10152000604B1B689B09604AA2FB03239B090133A4
:101530005B00019309E004F087FE0023A36584F8B3
:101540005030D5E7019B013B0193019B002BF9D162
:101550002268936813F0805F78D1636D43F01003C5
:101560006365A36D43F00103A3650120936813F045
:10157000040300D00123616D11F0100F40F088804A
:10158000002B40F08580636D23F4817343F00203E8
:101590006365936813F0010F0BD1444B9B6813F004
:1015A000010F06D1636842498A6822F47C12134312
:1015B0008B60627E636B43EA4233E2681343A26846
:1015C000134394F8202043EA0243012A40D0A26A40
:1015D00022B102F47072E16A0A4313432168CD68B4
:1015E000344A2A401343CB6021688B6813F004030C
:1015F00000D001238A6812F0080200D00122B3B99A
:10160000AAB9227E94F830305B0043EA8232CB687C
:1016100023F4804323F002031343CB6094F8383063
:10162000012B1AD02268136923F001031361236987
:10163000012B24D02268136B23F00F031363636D17
:1016400023F0030343F00103636526E000208DE7E8
:10165000626A013A43EA4243B9E721680B6923F41D
:10166000FF6323F00403E26B256C2A43656C2A4375
:10167000A56C2A43134343F001030B61D7E72168AC
:101680000B6B23F00F03E269013A13430B63D6E7B8
:10169000636D43F010036365012003B030BD01208A
:1016A000FBE700BF0C000020632D3E050000045046
:1016B0000003045007C0F0FFF8B504460E46456924
:1016C000082D05D00368DB6813F0010F1ED1042537
:1016D00000F0D2FC074623681A682A421CD1B6F1F2
:1016E000FF3FF8D000F0C8FCC31BB34201D8002E66
:1016F000F1D123681B682B42EDD1636D43F00403E5
:101700006365002384F85030032004E0436D43F008
:10171000200343650120F8BD626D42F400726265EA
:10172000DA6812F4406F11D1627E7AB91A6812F049
:10173000080F0BD0626D22F480726265626D12F444
:10174000805F03D1626D42F001026265DA68082DA4
:1017500006D012F4804F07D10C221A600020DAE77D
:1017600008221A600020D6E70020D4E70368186C2E
:1017700070470000F0B583B00022019290F850202D
:10178000012A00F03D820346012280F850200268C1
:10179000926812F0040F09D0426D42F020024265B7
:1017A0000120002283F8502003B0F0BD4A68052ACA
:1017B00008D8023A032A68D8DFE802F0025D6063C5
:1017C0000C224A601D684C683035220A920002F0F3
:1017D0000C02A85804F01F0E1F2404FA0EF420EA8D
:1017E00004000C68C4F3846C0CFA0EFC40EA0C0094
:1017F000A8501C68A26812F0040200D00122A06860
:1018000010F0080000D001200AB9002840D0186864
:10181000826812F0010F17D10A68CD68D0F8B04085
:10182000C2F3120C24EA0C0405F0180CAD4D25FA95
:101830000CF52A40C2F312022243C0F8B020C86857
:10184000A94A904200F0B9800A68A8490A4200F00B
:10185000D381A749896801F0E074A648824200F06C
:101860007D81A548824200F0A081A448824200F018
:10187000B081002095E712224A60A3E718224A604F
:10188000A0E74FF480724A609CE706224A6099E71D
:101890000E688D681434720E920002F00402A05893
:1018A000C6F3045C072606FA0CF620EA060005FAE1
:1018B0000CF52843A0504C691868C268C2F3C102F5
:1018C000520004FA02F20D69042D0ED00E68603049
:1018D00050F825708A4C3C4006F0F84632431443D9
:1018E00044F0004440F8254091E7026E046EC4F3D2
:1018F00084640A68C2F3120585BBC2F38462944211
:1019000034D01C68626E606EC0F384600A68C2F3F3
:10191000120585BBC2F38462904234D01C68A26E6B
:10192000A06EC0F384600A68C2F3120585BBC2F3DF
:101930008462904234D01C68E26EE06EC0F3846032
:101940000A68C2F3120585BBC2F3846290427FF439
:101950005EAFE26E22F00042E26658E792FAA2F22F
:1019600012B1B2FA82F2CAE72022C8E7026E22F070
:1019700000420266C5E792FAA2F212B1B2FA82F20E
:10198000CAE72022C8E7626E22F000426266C5E71D
:1019900092FAA2F212B1B2FA82F2CAE72022C8E7A2
:1019A000A26E22F00042A266C5E792FAA2F212B13C
:1019B000B2FA82F2CAE72022C8E71C680A68C2F3BA
:1019C0001205002D39D1900E013000F01F000928BA
:1019D0008CBF00200120002867D0002D3CD1900E44
:1019E0000130800600F0F840002D41D1960E0136FE
:1019F00006F01F0C012606FA0CF63043002D46D1E6
:101A0000920E013202F01F0202EB42021205024363
:101A1000886804F11406550EAD0005F004057459EC
:101A2000C2F304524FF0070C0CFA02FC24EA0C0C2F
:101A300090404CEA0000705106E792FAA2F048B1DB
:101A4000B0FA80F0013000F01F0009288CBF0020A0
:101A50000120C0E72020F5E792FAA2F030B1B0FAF9
:101A600080F00130800600F0F840BDE72020F8E764
:101A700092FAA2F64EB1B6FA86F6013606F01F06C5
:101A80004FF0010C0CFA06F6B7E72026F5E792FABC
:101A9000A2F242B1B2FA82F2013202F01F0202EB6C
:101AA00042021205B3E72022F6E75DBB900E01303B
:101AB000800600F0F8408DBB960E013606F01F0C34
:101AC000012606FA0CF63043BDBB920E013202F03D
:101AD0001F0202EB42021E3A120542F0007202435C
:101AE00096E700BFFFFF070000007F40000008806E
:101AF00000030450000052C7000084CB01000080A6
:101B000000F0FF0392FAA2F030B1B0FA80F0013099
:101B1000800600F0F840CEE72020F8E792FAA2F61F
:101B20004EB1B6FA86F6013606F01F064FF0010CEC
:101B30000CFA06F6C7E72026F5E792FAA2F25AB1A8
:101B4000B2FA82F2013202F01F0202EB42021E3AA6
:101B5000120542F00072C2E72022F3E711F4000FF1
:101B60007FF47FAE1968274A914201D0002018E621
:101B700044F400022448816821F0E0710A43826045
:101B8000224A126892092249A1FB021292090132EB
:101B900002EB42029200019202E0019A013A0192A4
:101BA000019A002AF9D10020FBE511F0807F7FF433
:101BB0005CAE1968134A914201D00020F1E544F06F
:101BC00080721148816821F0E0710A438260002030
:101BD000E7E511F4800F11D119680A4A914201D04A
:101BE0000020DEE544F480020748816821F0E071BE
:101BF0000A4382600020D4E50020D2E50020D0E531
:101C00000220D1E500000450000304500C00002025
:101C1000632D3E05406D704770B5044603689A68B1
:101C200012F0040200D00122986810F0080000D0E1
:101C300001200AB900286BD0DA6812F0007F04D0C6
:101C4000208B40F2011290424ED0022910D023681E
:101C50009A6812F0040F0BD09A6812F0020F07D1A5
:101C60009A6822F0004222F03F0242F010029A608D
:101C7000012910D023689A6812F0080F0BD09A68D7
:101C800012F0020F07D19A6822F0004222F03F02C0
:101C900042F020029A60022934D0032934D10C2565
:101CA00000F0EAF9064623689B682B422ED000F02C
:101CB000E3F9801B0528F6D923689B682B42F2D0F4
:101CC000636D43F010036365A36D43F00103A365E7
:101CD00001201CE0636D43F010036365A36D43F0C6
:101CE0000103A365012012E00022196811F0400FE2
:101CF00004D108498A42EDD80132F6E740221A6041
:101D00000121A4E70825CBE70425C9E7002070BD21
:101D10000020FCE7FFFF3FA330B583B00023019311
:101D200003689A6812F0010F58D1044699682D4A49
:101D3000114219D19A6822F0004222F03F0242F08B
:101D400001029A60284B9B6813F4000F1CD0274BAC
:101D50001B689B09264AA2FB03239B09013303EB63
:101D600043039B0001930CE0436D43F01003436574
:101D7000836D43F001038365012030E0019B013B4B
:101D80000193019B002BF9D100F076F905462368F9
:101D90001A6812F0010F1FD19A6812F0010F07D1D3
:101DA0009A6822F0004222F03F0242F001029A605B
:101DB00000F062F9431B022BE9D923681B6813F07A
:101DC000010FE4D1636D43F010036365A36D43F02D
:101DD0000103A365012002E0002000E0002003B021
:101DE00030BD00BF3F000080000304500C00002005
:101DF000632D3E0503689B6813F0040F3CD110B5BA
:101E0000044690F85030012B38D0012380F8503030
:101E1000FFF782FF60BB636D23F4706323F001035F
:101E200043F480736365636D13F4805F1DD0A36D0D
:101E300023F00603A36523681C221A60002384F89C
:101E400050302268D36813F0007F05D0636D23F40F
:101E5000405343F480536365936823F0004323F0B9
:101E60003F0343F00403936010BD0023A365E2E742
:101E7000002384F85030F7E7022070470220F3E790
:101E800038B504460268936813F0020300D00123BA
:101E9000916811F0010F39D0002B39D1936803F00C
:101EA0000D03012B09D0636D43F010036365A36D2F
:101EB00043F00103A365012029E0936823F0004368
:101EC00023F03F0343F002039360236803221A6068
:101ED00000F0D2F8054623689B6813F0010F13D079
:101EE00000F0CAF8401B0228F5D923689B6813F05C
:101EF000010FF0D0636D43F010036365A36D43F0F1
:101F00000103A365012002E0002000E0002038BDAD
:101F10000020FCE790F85030012B1AD010B5044691
:101F2000012380F850300321FFF776FE18B100231B
:101F300084F8503010BD2046FFF7A2FF0028F6D1EC
:101F4000636D23F4885323F0010343F001036365B9
:101F5000EDE70220704730B583B00023019390F87D
:101F60005030012B41D004460D46012380F85030FB
:101F7000FFF786FF80BB636D23F4885323F00203D1
:101F800043F0020363652268936823F0404323F023
:101F90003F0305F080452B4343F0004393602368E3
:101FA0009B68002B06DB636D23F0030343F0010302
:101FB000636515E0019B01330193019BB3F5912FFC
:101FC000EDD3636D23F0120343F010036365002328
:101FD00084F85030012006E0636D43F01003636520
:101FE000002384F8503003B030BD0220FBE700002E
:101FF000104B1B780BB90120704710B504464FF405
:102000007A70B0FBF3F30C4A1068B0FBF3F001F008
:1020100053F968B90F2C01D901200AE000222146AA
:102020004FF0FF3001F002F9044B1C60002000E08B
:10203000012010BD040000200C000020080000203A
:1020400010B5032001F0E0F80320FFF7D1FF10B135
:102050000124204610BD0446FFF722FAF9E70000EC
:10206000034B1B78034A11680B441360704700BF91
:102070000400002014070020014B1868704700BFBF
:1020800014070020704700EB800040004FF0E02371
:10209000586100229A6101221A614FF0E0231B6906
:1020A00003F00113012BF8D04FF0E02300221A6156
:1020B0009A61704738B50546002404E04FF47A7001
:1020C000FFF7E1FF0134AC42F8D338BD30B583B03F
:1020D0000446204B9B6D13F0805F0BD001F044F859
:1020E000B0F5007F17D0802C1FD82DD0702C2DD0AC
:1020F00000211BE0174DAB6D43F08053AB65AB6D1A
:1021000003F080530193019B01F02EF8AB6D23F097
:102110008053AB65E4E7802C03D9A02C03D90221BE
:1021200004E0002102E0012100E003210A4A1368D3
:1021300023F007030B431360136803F007038B427C
:1021400006D1002003B030BD0221EFE70121EDE709
:102150000120F7E70010024000200240284A93685F
:10216000D26802F0030213F00C030AD00C2B06D045
:10217000042B1FD0082B20D00020024610E0012A9B
:10218000F6D11F4A126812F0080F0CD11C4AD2F87F
:102190009420C2F303221B4951F8222043B10020AE
:1021A0000C2B0DD07047164A1268C2F30312F2E7E7
:1021B0001046F5E714480022F2E714480022EFE742
:1021C0000F4BDB6803F00303022B16D0032B00D167
:1021D0000E4A0B49C868C0F30210431CC868C0F31C
:1021E000062002FB00F0B0FBF3F0CB68C3F34163C1
:1021F00001335B00B0FBF3F0D4E7034AE9E700BF2B
:10220000001002402CBC00080024F40000127A00E8
:10221000002800F01C83F0B583B00446964B9D68FF
:1022200005F00C05DE6806F00306036813F0100FD6
:102230005AD0E5B10C2D18D0A369002B00F0BB805B
:102240008D4A136843F001031360FFF715FF07463B
:10225000894B1B6813F0020F40F09A80FFF70CFFC8
:10226000C01B0228F4D90320FCE2012EE4D1824BEA
:102270001B6813F0020F03D0A369002B00F0E98262
:10228000206A7D4B1B6813F0080F5BD07A4B1B68EC
:1022900003F0F00398425CD8774B1A6842F00802CA
:1022A0001A601A6822F0F002216A0A431A605A681A
:1022B00022F47F42E16942EA01225A60002D60D097
:1022C000FFF74CFF6C4B9B68C3F303136B4AD35C63
:1022D00003F01F03D8406A4B18606A4B1868FFF779
:1022E00087FE002840F0BE82236813F0010F00F043
:1022F0008180082D75D00C2D71D06368B3F5803FB7
:1023000000F09780B3F5A02F00F099805A4B1A681F
:1023100022F480321A601A6822F480221A606368FC
:10232000002B00F09980FFF7A7FE0746524B1B6871
:1023300013F4003F5ED1FFF79FFEC01B6428F5D960
:1023400003208FE24C4BD3F894301B0903F0F003C9
:10235000A0E7FFF7BBFE002840F07D82464B1A68DD
:1023600042F008021A601A6822F0F002216A0A4359
:102370001A605A6822F47F42E16942EA01225A60F7
:102380009EE7206AFFF7A2FE002899D0012069E2AB
:10239000394B1A6842F008021A601A6822F0F002FB
:1023A000216A0A431A605A6822F47F42E16942EACC
:1023B00001225A6098E7304A136823F00103136042
:1023C000FFF75AFE07462C4B1B6813F0020F8BD009
:1023D000FFF752FEC01B0228F5D9032042E2032E6C
:1023E0008BD1254B1B6813F4003F03D06368002B8F
:1023F00000F03382236813F0020F58D0042D45D02B
:102400000C2D41D0E368002B77D01B4A136843F4AE
:1024100080731360FFF730FE0646174B1B6813F4FA
:10242000806F61D1FFF728FE801B0228F5D90320B9
:1024300018E2114A136843F4803313606FE703F125
:102440008043A3F53C331A6842F480221A601A686C
:1024500042F480321A6062E7FFF70EFE0746064B31
:102460001B6813F4003FC5D0FFF706FEC01B6428AD
:10247000F5D90320F6E100BF0010024014BC0008AB
:102480000C00002008000020022EBBD1A44B1B68CA
:1024900013F4806F03D0E368002B00F0E081A04AC2
:1024A000536823F0F853216943EA016353602368BA
:1024B00013F0080F4CD063699BB3994AD2F894305B
:1024C00043F00103C2F89430FFF7D6FD0646944B63
:1024D000D3F8943013F0020F3AD1FFF7CDFD801BF3
:1024E0000228F4D90320BDE18D4A536823F0F85344
:1024F000216943EA01635360D9E7894A136823F4E9
:1025000080731360FFF7B8FD0646854B1B6813F414
:10251000806FCCD0FFF7B0FD801B0228F5D90320D7
:10252000A0E17F4AD2F8943023F00103C2F894303E
:10253000FFF7A2FD06467A4BD3F8943013F0020F52
:1025400006D0FFF799FD801B0228F4D9032089E10A
:10255000236813F0040F7AD0714B9B6D13F0805FEA
:1025600036D16F4B9A6D42F080529A659B6D03F0A5
:1025700080530193019B01266A4B1B6813F4807FF3
:1025800028D0A368012B39D0052B3FD0644BD3F85A
:10259000902022F00102C3F89020D3F8902022F07E
:1025A0000402C3F89020A368002B3DD0FFF764FD20
:1025B00007465B4BD3F8903013F0020F46D1FFF77C
:1025C0005BFDC01B41F288339842F2D9032049E1F8
:1025D0000026D1E7534A136843F480731360FFF772
:1025E0004BFD07464F4B1B6813F4807FC9D1FFF7A3
:1025F00043FDC01B0228F5D9032033E1484AD2F835
:10260000903043F00103C2F89030CCE7444BD3F84C
:10261000902042F00402C3F89020D3F8902042F0BA
:102620000102C3F89020BEE7FFF726FD07463C4BAA
:10263000D3F8903013F0020F08D0FFF71DFDC01B38
:1026400041F288339842F2D903200BE1E6B92368BE
:1026500013F0200F35D0636AE3B1314AD2F89830D5
:1026600043F00103C2F89830FFF706FD06462C4BF5
:10267000D3F8983013F0020F23D1FFF7FDFC801B35
:102680000228F4D90320EDE0254A936D23F080530E
:102690009365DCE7224AD2F8983023F00103C2F8B0
:1026A0009830FFF7E9FC06461D4BD3F8983013F03D
:1026B000020F06D0FFF7E0FC801B0228F4D90320AC
:1026C000D0E0A36A002B00F0CC80022B17D00C2D99
:1026D00000F0CC80124A136823F080731360FFF778
:1026E000CBFC04460E4B1B6813F0007F00F0A88063
:1026F000FFF7C2FC001B0228F4D90320B2E0084B0C
:10270000DB6803F00301E26A91420DD00C2D00F06A
:10271000AB80034B1B6813F0806F2FD00120A1E02A
:10272000001002400070004003F07002216B01397C
:10273000B2EB011FEAD103F4FE42616BB2EB012F51
:10274000E4D103F07842A16BB2EBC16FDED103F4A8
:10275000C001E26B5208013AB1EB425FD6D103F0FF
:10276000C063226C5208013AB3EB426FCED1404BAA
:102770001B6813F0007F49D0002073E03C4A1368C7
:1027800023F080731360FFF777FC0546384B1B6816
:1027900013F0007F06D0FFF76FFC401B0228F5D92D
:1027A00003205FE0324AD36832491940E36A206B64
:1027B000013843EA0013606B43EA0023E06B4008F2
:1027C000013843EA4053206C4008013843EA406333
:1027D000A06B43EAC0630B43D360136843F080737C
:1027E0001360D36843F08073D360FFF745FC044661
:1027F0001F4B1B6813F0007F06D1FFF73DFC001B49
:102800000228F5D903202DE000202BE0184B1A6890
:1028100042F080721A60DA6842F08072DA60FFF784
:102820002BFC0446124B1B6813F0007F06D1FFF708
:1028300023FC031B022BF5D9032013E0002011E039
:102840000B4AD1680C4B0B40D36000200AE00120FA
:102850007047012006E0012004E0012002E0012091
:1028600000E0002003B0F0BD0120FBE70120F9E704
:10287000001002408C809D01FCFFEEFE002800F05D
:10288000AE8070B50D460446594B1B6803F0070334
:102890008B420BD2564A136823F007030B43136095
:1028A000136803F007038B4240F09B80236813F00A
:1028B000020F0CD0A2684F4B9B6803F0F0039A42C2
:1028C00005D94C498B6823F0F0031A438A602368CA
:1028D00013F0010F39D06368032B09D0022B26D0E7
:1028E00063BB444A126812F0020F06D1012075E062
:1028F000404A126812F0007F75D03E498A6822F083
:10290000030213438B60FFF7B7FB0646394B9B6806
:1029100003F00C036268B3EB820F16D0FFF7ACFB39
:10292000801B41F288339842F0D9032056E0314AA7
:10293000126812F4003FE0D101204FE02D4A1268E6
:1029400012F4806FD9D1012048E0236813F0020F00
:102950000CD0A268274B9B6803F0F0039A4205D283
:1029600024498B6823F0F0031A438A60204B1B68CC
:1029700003F00703AB420AD91D4A136823F007038B
:102980002B431360136803F00703AB422DD1236878
:1029900013F0040F06D0174A936823F4E063E1684C
:1029A0000B439360236813F0080F07D0114A936814
:1029B00023F46053216943EAC1039360FFF7CEFB20
:1029C0000C4B9B68C3F303130B4AD35C03F01F0348
:1029D000D8400A4B18600020FFF70AFB70BD0120A9
:1029E00070470120FAE70120F8E70120F6E700BF71
:1029F000002002400010024014BC00080C0000201F
:102A0000014B1868704700BF0C00002008B5FFF7A5
:102A1000F7FF054B9B68C3F30223044AD35C03F022
:102A20001F03D84008BD00BF0010024024BC0008AE
:102A300008B5FFF7E5FF054B9B68C3F3C223044AC3
:102A4000D35C03F01F03D84008BD00BF0010024054
:102A500024BC0008F8B504460F46584BDB6813F059
:102A6000030F18D0554BDB6803F003030268934251
:102A700002D001252846F8BD002A00F09D804F4B6A
:102A8000DB68C3F3021301334268934201D001258E
:102A9000F0E7002509E00368022B56D0032B5BD03A
:102AA000012B41D00125002DE4D1444A136823F0C5
:102AB00080631360FFF7E0FA0646404B1B6813F093
:102AC000006F05D0FFF7D8FA831B022BF5D9032539
:102AD000002DCFD1002F4DD138490B6923F0784319
:102AE00023F4FE43A068E268D20642EA00221343C0
:102AF0000B61324A136843F080631360FFF7BCFA3E
:102B000006462E4B1B6813F0006F05D1FFF7B4FA91
:102B1000831B022BF5D90325002DABD1274A13695E
:102B2000A1690B431361A5E7244A126812F0020F52
:102B30001ED02248C26822F073026168013943EA5C
:102B400001131343C3600025ADE71C4A126812F459
:102B5000806FEED10125A6E7184A126812F4003FF3
:102B6000E7D1164A126812F4802FE2D101259AE7C4
:102B7000012598E7012F0FD01048026922F0C062AA
:102B800022F4FE42A16863695B08013B5B0643EAED
:102B9000012313430361ACE70848026922F4C00231
:102BA00022F4FE42A16823695B08013B5B0543EA0E
:102BB0000123134303619CE701255BE700100240FA
:102BC0002DE9F04182B00446036813F4006F25D06C
:102BD000436CB3F5000F06D0B3F5400F12D04BB1E4
:102BE000012637461CE0B34AD36843F48033D360F0
:102BF000002708E000210430FFF72CFF074610B142
:102C000006460DE00027AB4AD2F8883023F4400393
:102C1000616C0B43C2F88830002601E0002637467D
:102C2000236813F4003F6BD0A24B9B6D13F0805FC1
:102C30004CD1A04B9A6D42F080529A659B6D03F087
:102C400080530193019B4FF001089B4A136843F4A2
:102C500080731360FFF710FA0546974B1B6813F457
:102C6000807F05D1FFF708FA401B0228F5D903271A
:102C7000002F40D18F4BD3F8903013F4407315D010
:102C8000A26D9A4212D08B4AD2F8903023F440734E
:102C9000D2F8901041F48031C2F89010D2F8901020
:102CA00021F48031C2F89010C2F8903013F0010F77
:102CB0000FD1002F40F0E3807E4AD2F8903023F409
:102CC0004073A16D0B43C2F8903015E04FF000083F
:102CD000BBE7FFF7D1F90546764BD3F8903013F0F8
:102CE000020FE6D1FFF7C8F9401B41F28833984242
:102CF000F2D90327DDE73E46B8F1000F40F0C1806E
:102D0000236813F0010F08D06A4AD2F8883023F004
:102D10000303216A0B43C2F88830236813F0020FC3
:102D200008D0644AD2F8883023F00C03616A0B4360
:102D3000C2F88830236813F0040F08D05D4AD2F837
:102D4000883023F03003A16A0B43C2F8883023682F
:102D500013F0200F08D0574AD2F8883023F440638C
:102D6000E16A0B43C2F88830236813F4007F08D06F
:102D7000504AD2F8883023F44023E16B0B43C2F869
:102D80008830236813F4806F08D04A4AD2F888301C
:102D900023F44013216C0B43C2F88830236813F0EE
:102DA000400F08D0434AD2F8883023F44053216BB7
:102DB0000B43C2F88830236813F0800F08D03D4AD7
:102DC000D2F8883023F44043616B0B43C2F888305B
:102DD000236813F4807F08D0364AD2F8883023F471
:102DE0004033A16B0B43C2F88830236813F4002FE3
:102DF0000FD0304AD2F8883023F04063A16C0B43E7
:102E0000C2F88830A36CB3F1006F40D0B3F1806F8B
:102E100042D0236813F4802F0FD0264AD2F888308E
:102E200023F04063E16C0B43C2F88830E36CB3F1EC
:102E3000006F39D0B3F1806F40D0236813F4804F16
:102E40000CD01C4AD2F8883023F04053216D0B433C
:102E5000C2F88830236DB3F1805F37D0236813F454
:102E6000004F08D0134AD2F8883023F08043616DB8
:102E70000B43C2F88830304602B0BDE8F0813E46D0
:102E80003AE70C4A936D23F08053936538E7D36893
:102E900043F48013D360BCE70121201DFFF7DAFD66
:102EA0000028B6D00646B4E7D36843F48013D36055
:102EB000C3E700BF00100240007000400121201D48
:102EC000FFF7C8FD0028B8D00646B6E70221201D4E
:102ED000FFF7C0FD0028C1D00646BFE7F0B583B0BC
:102EE000002362E085685E000324B44025EA0405FF
:102EF000CC68B4402C438460446824EA0C0C4C68D1
:102F0000C4F300149C4044EA0C0444605EE0DD0815
:102F1000083550F8256003F007044FEA840C0F24AD
:102F200004FA0CF426EA040E0C6904FA0CF444EAE0
:102F30000E0440F8254060E0042400E0002404FA78
:102F40000EF42C430CF1020C524D45F82C40524C1F
:102F5000A568D44325EA02064F6817F4801F01D004
:102F600042EA05064C4DAE60ED6804EA05064F687E
:102F700017F4001F01D042EA0506474DEE606D6868
:102F800004EA05064F6817F4003F01D042EA05063F
:102F9000414D6E602D682C404E6816F4803F01D084
:102FA00042EA05043C4A146001330A6832FA03F429
:102FB0006ED04FF0010C0CFA03FC1CEA0202F3D0B5
:102FC0004C6804F00304013C012C8BD94C6804F0DC
:102FD0000304032C0CD0C4685D004FF0030C0CFA02
:102FE00005FC24EA0C0C8C68AC4044EA0C04C46078
:102FF0004C6804F00304022C89D004684FEA430EA5
:103000004FF0030C0CFA0EFC24EA0C0C4C6804F094
:10301000030404FA0EF444EA0C0404604C6814F44B
:10302000403FC1D01D4C256E45F001052566246E3C
:1030300004F001040194019C4FEA930C0CF1020589
:10304000144C54F8255003F003044FEA840E0F2467
:1030500004FA0EF425EA0405B0F1904F3FF46EAF88
:103060000F4CA0420ED004F58064A0420CD004F5B1
:103070008064A0420AD004F58064A0423FF45CAFB3
:1030800007245CE701245AE7022458E7032456E7A3
:1030900003B0F0BD000001400004014000100240F8
:1030A000000400480369194201D001207047002044
:1030B00070470AB18161704781627047436901EAD4
:1030C000030221EA030141EA02418161704790F85D
:1030D0002530DBB2022B06D00423C363002380F823
:1030E0002430012070470268136823F00E03136038
:1030F0000268136823F001031360436C03F01C03A0
:10310000016C012202FA03F34B6080F825200023B2
:1031100080F824301846704708B590F82530DBB2A7
:10312000022B03D00423C363012008BD0268136887
:1031300023F00E0313600268136823F00103136089
:10314000436C03F01C03016C012202FA03F34B6091
:1031500080F82520002380F82430836B13B1984732
:103160000020E2E70020E0E7024B186800F4C060AE
:10317000704700BF00700040B0F5007F0FD01F4BBC
:103180001B6803F4C063B3F5806F34D01B4A136827
:1031900023F4C06343F48063136000207047174B2F
:1031A0001B6803F4C063B3F5007F20D0134A136893
:1031B00023F4C06343F400731360114B1B68322285
:1031C00002FB03F30F4AA2FB03239B0C013300E035
:1031D000013B0A4A526912F4806F01D0002BF7D1EB
:1031E000064B5B6913F4806F03D100207047002009
:1031F0007047032070470020704700BF00700040F8
:103200000C00002083DE1B43074AD36823F4E063ED
:103210001B041B0C000200F4E060034343F0BF6397
:1032200043F40033D360704700ED00E000B5194B64
:10323000DB68C3F30223C3F1070CBCF1040F28BF02
:103240004FF0040C03F1040EBEF1060F18D9033B36
:103250004FF0FF3E0EFA0CFC21EA0C0199400EFAE9
:1032600003F322EA0303194300280BDB0901C9B267
:1032700000F1604000F5614080F800135DF804FB48
:103280000023E5E700F00F000901C9B2024B195411
:10329000F4E700BF00ED00E014ED00E0002807DBDC
:1032A00000F01F02400901239340024A42F82030F7
:1032B000704700BF00E100E00138B0F1807F0BD221
:1032C0004FF0E0235861054AF02182F823100020D6
:1032D000986107221A6170470120704700ED00E0F5
:1032E0002DE9F04782B00546884617461E46FEF790
:1032F000C3FE0A9B1B1A03EB0609FEF7BDFE8246BE
:103300002B4B1B68C3F3CB3309FB03F301932B68EF
:103310009C6838EA04030CBF4FF0010C4FF0000C1E
:10332000BC4540D0B6F1FF3FF1D0FEF7A5FEA0EBC3
:103330000A0048450AD2B9F1000F07D0019A02B13C
:103340004A46019B013B01939146E0E72A68536896
:1033500023F0E00353606B68B3F5827F0BD0AB6A58
:10336000B3F5005F14D0012385F85D30002385F8A4
:103370005C30032018E0AB68B3F5004F02D0B3F522
:10338000806FECD12A68136823F040031360E6E7EE
:103390002A68136823F4005313602A68136843F4FF
:1033A00000531360DFE7002002B0BDE8F08700BFE4
:1033B0000C0000202DE9F04782B006460C46154669
:1033C0001F4600238DF80330FEF756FE0A9B1B1A9A
:1033D00003EB0708FEF750FE8146D6F800A0314BFC
:1033E0001B6803EB8303C3EBC3031B0D08FB03F351
:1033F000019302E0B7F1FF3F12D133689B6803EA03
:10340000040CAC454AD0B4F5C06FF3D1002DF1D116
:103410009AF80C30DBB28DF803309DF80330E9E701
:10342000FEF72AFEA0EB090040450AD2B8F1000FD2
:1034300007D0019A02B14246019B013B019390469D
:10344000DBE73268536823F0E00353607368B3F539
:10345000827F0BD0B36AB3F5005F14D0012386F8E6
:103460005D30002386F85C30032018E0B368B3F5C4
:10347000004F02D0B3F5806FECD13268136823F0AF
:1034800040031360E6E73268136823F400531360C7
:103490003268136843F400531360DFE7002002B082
:1034A000BDE8F0870C00002070B582B004460D46E0
:1034B000164600920B4600224FF4C051FFF77AFFE8
:1034C000B0B900962B46002280212046FFF708FF66
:1034D000A8B900962B4600224FF4C0612046FFF7A2
:1034E00069FF50B1236E43F020032366032004E0FC
:1034F000236E43F020032366032002B070BD236EC9
:1035000043F0200323660320F7E770B582B004463A
:103510000D4616464368B3F5827F0DD000962B46C4
:10352000002280212046FFF7DBFE90B96368B3F5E7
:10353000827F14D002B070BD8368B3F5004F02D013
:10354000B3F5806FEAD12268136823F0400313605B
:10355000E4E7236E43F0200323660320EAE7A36831
:10356000B3F5004F02D0B3F5806FE3D100962B4640
:1035700000224FF4C0612046FFF71CFF0028D9D07D
:10358000236E43F0200323660320D3E700286AD08C
:1035900010B50446436A33B94368B3F5827F05D05A
:1035A0000023C36102E00023036143610023A3629F
:1035B00094F85D30002B4DD0022384F85D302268F2
:1035C000136823F040031360E368B3F5E06F47D955
:1035D0000022B3F5706F04D0B3F5E06F01D0002383
:1035E000A362636803F48273A16801F404410B438E
:1035F000216901F002010B43616901F001010B43F4
:10360000A16901F400710B43E16901F038010B433A
:10361000216A01F080010B43A16A01F40051206886
:103620000B430360638B03F00403616A01F0100134
:103630000B43616B01F008010B43E16801F4706119
:103640000B43216813434B6000202066012384F85C
:103650005D3010BD84F85C30204602F0D9FEABE747
:103660004FF48052B5E7012070472DE9F04383B055
:103670001D4690F85C30012B00F0F6800446884629
:103680009146012380F85C30FEF7F6FC074694F87B
:103690005D60F6B2012E40F0D480B8F1000F00F06A
:1036A000D180B9F1000F00F0CD80032384F85D30A4
:1036B00000232366C4F83880A4F83C90A4F83E9018
:1036C0002364A4F84430A4F846302365E364A36877
:1036D000B3F5004F1ED023681A6812F0400F03D1D3
:1036E0001A6842F040021A60E368B3F5E06F42D90D
:1036F000636813B1B9F1010F23D1A26B236812885B
:10370000DA60A36B0233A363E38F9BB2013B9BB2EE
:10371000E38716E02268136823F0400313602268F1
:10372000136843F480431360D5E7FEF7A5FCC01B84
:10373000A84203D3B5F1FF3F40F08E80002D00F08A
:103740008D80E38F9BB2002B66D023689A6812F0BD
:10375000020FEAD0A26B1288DA60A36B0233A36374
:10376000B4F83EC01FFA8CFC0CF1FF3C1FFA8CFC35
:10377000A4F83EC0E5E7636813B1B9F1010F33D196
:10378000E38F9BB2012B0CD9A26B23681288DA60FD
:10379000A36B0233A363E38F9BB2023B9BB2E3872D
:1037A00022E0A26B236812781A73A36B0133A36320
:1037B000E38F9BB2013B9BB2E38715E0A36B1B78C1
:1037C0001373A36B0133A363E38F9BB2013B9BB2E3
:1037D000E38709E0FEF750FCC01BA84202D3B5F115
:1037E000FF3F3DD1002D3DD0E38F9BB2A3B12268B6
:1037F000936813F0020FEDD0E38F9BB2012BDDD95C
:10380000A36B1B88D360A36B0233A363E38F9BB2CC
:10381000023B9BB2E387E7E73A4629462046FFF79B
:1038200043FE08B120232366A36833B901932368BC
:10383000DA6801929B680193019B236E13B90026FD
:1038400000E00226012384F85D30002384F85C3018
:10385000304603B0BDE8F0830326F3E70326F1E723
:103860000326EFE70326EDE70226F1E72DE9F8430B
:103870001F46089D90F85C30012B00F064810446DF
:1038800088469146012380F85C30FEF7F5FB06463A
:1038900094F85D30DBB26268012B0AD0B2F5827F0A
:1038A00040F03881A268002A40F03D81042B40F0AE
:1038B0003C81B8F1000F00F03A81B9F1000F00F03F
:1038C0003881002F00F0378194F85D30DBB2042B93
:1038D00002D0052384F85D3000232366C4F84090AD
:1038E000A4F84670A4F84470C4F83880E787A78726
:1038F000E3642365E368B3F5E06F01D8012F23D9B2
:103900002268536823F48053536023681A6812F0C6
:10391000400F03D11A6842F040021A60E368B3F521
:10392000E06F58D963680BB1012F0BD1A26B2368EC
:103930001288DA60A36B0233A363E38F9BB2013B6F
:103940009BB2E387012731E02268536843F4805338
:103950005360DAE7A26B1288DA60A36B0233A363C9
:10396000E38F9BB2013B9BB2E387002723689A68F1
:1039700012F0010F11D0B4F8462092B26AB1DA68A1
:10398000236C1A80236C02332364B4F846309BB254
:10399000013B9BB2A4F846300127FEF76DFB831B69
:1039A000AB4203D3B5F1FF3F40F0C780E38F9BB23A
:1039B0002BB9B4F846309BB2002B00F0A1802368ED
:1039C0009A6812F0020FD1D0E28F92B2002ACDD0C5
:1039D000002FCBD0BEE763680BB1012F0FD1E38F6F
:1039E0009BB2012B0DD9A26B23681288DA60A36BFE
:1039F0000233A363E38F9BB2023B9BB2E3870127B1
:103A000049E0A26B236812781A73A36B0133A36396
:103A1000E38F9BB2013B9BB2E387F0E7E28F92B268
:103A2000012A0CD9A26B1288DA60A36B0233A3635C
:103A3000E38F9BB2023B9BB2E38700273DE0A26B82
:103A400012781A73A36B0133A363E38F9BB2013B1C
:103A50009BB2E387002730E02268536843F4805329
:103A6000536001270DE0226C1B7B1370236C013324
:103A70002364B4F846309BB2013B9BB2A4F84630B5
:103A80000127FEF7F9FA801BA84202D3B5F1FF3FE8
:103A900055D1002D55D0E38F9BB223B9B4F84630F1
:103AA0009BB2002B2CD023689A6812F0020F04D02E
:103AB000E28F92B20AB1002FB0D123689A6812F057
:103AC000010FDED0B4F8462092B2002AD9D0B4F863
:103AD000462092B2012AC6D9DA68236C1A80236C78
:103AE00002332364B4F846309BB2023B9BB2A4F885
:103AF0004630B4F846309BB2012BADD90127C0E760
:103B0000324629462046FFF7CFFC20B1202323660A
:103B1000012000E00220012384F85D30002384F8B6
:103B20005C30BDE8F8830220F5E70220F3E70120CE
:103B3000F1E70120EFE70120EDE70320EBE70320A9
:103B4000E9E70320E7E70220EBE72DE9F04383B044
:103B50000446884691461D464068B0F5827F43D0B2
:103B600094F85C30012B00F0C380012384F85C30B2
:103B7000FEF782FA074694F85D60F6B2012E40F037
:103B8000A480B8F1000F00F0A180B9F1000F00F09F
:103B90009D80042384F85D3000232366C4F84080B0
:103BA000A4F84490A4F84690A363A387E387E36452
:103BB0002365E368B3F5E06F24D92268536823F4E2
:103BC00080535360A368B3F5004F21D023681A686F
:103BD00012F0400F03D11A6842F040021A60E36805
:103BE000B3F5E06F29D94AE0A368002BB8D10423CC
:103BF00084F85D30009513460A462046FFF736FEEE
:103C0000064669E02268536843F480535360D9E75D
:103C10002268136823F0400313602268136823F4BA
:103C200080431360D2E7FEF727FAC01BA84202D3F5
:103C3000B5F1FF3F54D1002D54D0B4F846309BB2BB
:103C4000002B36D023689A6812F0010FEBD0226C5B
:103C50001B7B1370236C01332364B4F846309BB292
:103C6000013B9BB2A4F84630E7E7FEF705FAC01B1C
:103C7000A84202D3B5F1FF3F36D1002D36D0B4F8BB
:103C800046309BB2ABB123689A6812F0010FECD0BA
:103C9000DA68236C1A80236C02332364B4F846C0BC
:103CA0001FFA8CFC0CF1FF3C1FFA8CFCA4F846C0F8
:103CB000E5E73A4629462046FFF727FC08B12023CE
:103CC0002366236E13B9002600E00226012384F840
:103CD0005D30002384F85C30304603B0BDE8F083EB
:103CE0000326F3E70326F1E70326EFE70326EDE7D4
:103CF0000226F1E77047000030B585B0044602683F
:103D000051689368C3F3801013F0400F05D113F08E
:103D1000010F02D011F0400F69D113F0020F02D051
:103D200011F0800F67D1C3F3401513F0200F03D1BA
:103D300010B913F4807F61D011F0200F5ED078B1FC
:103D400094F85D00C0B203285AD0206E40F0040001
:103D5000206600200090D068009090680090009845
:103D600065B1206E40F0010020660020029090684E
:103D70000290106820F040001060029A13F4807FD7
:103D800009D0236E43F008032366002303932368BE
:103D90009B680393039B236E002B2FD022685368EC
:103DA00023F0E0035360012384F85D3011F0030F2A
:103DB0002ED02268536823F003035360A36D4BB1E8
:103DC000154A9A63A06DFFF7A7F918B1236E43F067
:103DD00040032366636D8BB10F4A9A63606DFFF7F2
:103DE0009BF958B1236E43F04003236606E0E36C71
:103DF0002046984702E0236D2046984705B030BD25
:103E000000230193D368019393680193019BF5E725
:103E10002046FFF76FFFF1E71D3E000808B5806AF6
:103E20000023A0F84630C387FFF764FF08BD90F871
:103E30005D007047026852E8003F23F4907342E847
:103E400000310029F6D1026802F1080353E8003F6F
:103E500023F00103083242E800310029F3D1036E58
:103E6000012B05D02023C3670023036643667047F8
:103E7000026852E8003F23F0100342E800310029B5
:103E8000F6D1EFE7836F212B00D07047B0F85230A6
:103E90009BB293B9026852E8003F23F0800342E8E6
:103EA00000310029F6D1026852E8003F43F0400398
:103EB00042E800310029F6D17047C26C03681278DD
:103EC0001A85C36C0133C364B0F852309BB2013B16
:103ED0009BB2A0F85230D8E7836F212B00D07047F7
:103EE000B0F852309BB293B9026852E8003F23F019
:103EF000800342E800310029F6D1026852E8003F11
:103F000043F0400342E800310029F6D17047C36C0A
:103F10001B880268C3F308031385C36C0233C364B0
:103F2000B0F852309BB2013B9BB2A0F85230D6E7BA
:103F3000836F202B2FD100292FD0002A2FD090F86B
:103F40007430012B2DD0012380F87430C164A0F8A7
:103F50005020A0F8522000238366C0F8803021232F
:103F600083678368B3F5805F0FD00F4B83660023B0
:103F700080F87430026852E8003F43F0800342E862
:103F800000310029F6D1002070470369002BECD1E5
:103F9000064B8366EBE70220704701207047012043
:103FA00070470220704700BF853E0008D93E0008D8
:103FB00008B5026852E8003F23F0400342E80031B0
:103FC0000029F6D1202383670023836602F0C2FB19
:103FD00008BD08B5806A0023A0F85A30A0F8523016
:103FE00002F000FC08BD000070B504460168CB6912
:103FF00008688D6840F60F021A4005D113F0200FB3
:1040000002D010F0200F20D12AB115F0010222D1E8
:10401000AC4E30421FD1226E012A00F0AB8013F467
:10402000801F03D015F4800F40F0398113F0800F0A
:1040300003D010F0800F40F0398113F0400F03D00F
:1040400010F0400F40F0398170BD636E002BFBD043
:1040500020469847F8E713F0010F09D010F4807F4D
:1040600006D001250D62D4F880102943C4F88010D1
:1040700013F0020F09D042B1216802250D62D4F875
:10408000801041F00401C4F8801013F0040F09D02F
:1040900042B1216804250D62D4F8801041F002017C
:1040A000C4F8801013F0080F0BD010F0200F00D1CF
:1040B0003AB1226808211162D4F880200A43C4F87A
:1040C000802013F4006F0CD010F0806F09D02268AC
:1040D0004FF400611162D4F8802042F02002C4F84D
:1040E0008020D4F88020002AAED013F0200F06D014
:1040F00010F0200F03D0636E0BB120469847D4F820
:10410000802023689B6813F0400F02D112F0280F23
:1041100029D02046FFF78EFE23689B6813F0400FDE
:104120001DD0226802F1080353E8003F23F040034A
:10413000083242E800310029F3D1236F5BB1624AB3
:104140009A63206FFEF7E8FF00283FF47DAF206FF1
:10415000836B984778E7204602F044FB74E72046DB
:1041600002F040FB70E7204602F03CFB0023C4F85D
:10417000803069E713F0100F3FF451AF10F0100FCB
:104180003FF44DAF10230B6223689B6813F0400F80
:104190004ED0226F13685B689BB2002B3FF454AF84
:1041A000B4F8581099427FF64FAFA4F85A3013680C
:1041B0001B6813F0200F30D1226852E8003F23F42F
:1041C000807342E800310029F6D1226802F1080329
:1041D00053E8003F23F00103083242E80031002990
:1041E000F3D1226802F1080353E8003F23F04003B3
:1041F000083242E800310029F3D12023E36700238D
:104200002366226852E8003F23F0100342E80031A1
:104210000029F6D1206FFEF75AFFB4F85810B4F811
:104220005A309BB2C91A89B2204602F0A5FA0BE7B0
:10423000B4F85810B4F85A309BB2C91A89B2B4F81D
:104240005A309BB2002B3FF4FFAE00293FF4FCAE86
:10425000226852E8003F23F4907342E800300028BF
:10426000F6D1226802F1080353E8003F23F001036E
:10427000083242E800300028F3D12023E36700230E
:1042800023666366226852E8003F23F0100342E889
:1042900000300028F6D1204602F06EFAD4E64FF442
:1042A00080130B62204600F04FFCCDE6A36E002B7E
:1042B0003FF4CAAE20469847C6E62046FFF778FE90
:1042C000C2E600BF20010004D33F000808B5B0F8E3
:1042D0005C30C26F222A06D00268138B9BB243F077
:1042E0000803138308BD0268918CDBB2426D0B405A
:1042F0001370436D01334365B0F85A309BB2013BF4
:104300009BB2A0F85A30B0F85A309BB2002BE9D1DA
:10431000026852E8003F23F4907342E8003100291C
:10432000F6D1026802F1080353E8003F23F00103CD
:10433000083242E800310029F3D12023C36700236B
:104340004366036E012B16D100230366026852E810
:10435000003F23F0100342E800310029F6D1036842
:10436000DA6912F0100F01D010221A62B0F858105A
:1043700002F002FAB6E702F0D3F9B3E708B5B0F8F5
:104380005C30C26F222A06D00268138B9BB243F0C6
:104390000803138308BD0268918C426D0B401380A3
:1043A000436D02334365B0F85A309BB2013B9BB278
:1043B000A0F85A30B0F85A309BB2002BEAD102680C
:1043C00052E8003F23F4907342E800310029F6D10F
:1043D000026802F1080353E8003F23F001030832AA
:1043E00042E800310029F3D12023C367002343664C
:1043F000036E012B16D100230366026852E8003FCA
:1044000023F0100342E800310029F6D10368DA698D
:1044100012F0100F01D010221A62B0F8581002F0FA
:10442000ABF9B7E702F07CF9B4E7000010B5044639
:10443000016883680269134342691343C2691343E5
:104440000868954A024013430B602268536823F4BE
:104450004053E1680B435360A16922688F4B9A4235
:1044600001D0236A1943936823F430630B439360AC
:1044700023688B4A93421FD08A4A934230D08A4A9B
:10448000934246D0854A934255D0102283498B42AD
:104490007AD0E069B0F5004F00F0A680082A00F25B
:1044A0000F81DFE812F0CE00E500CC000D01E8003E
:1044B0000D010D010D01EB0002F55842D2F88820E4
:1044C00002F00302032A09D8DFE802F002044A06D8
:1044D0000122DBE70422D9E70822D7E71022D5E73B
:1044E00002F5E632D2F8882002F00C020C2A0ED82F
:1044F000DFE802F0070D0D0D090D0D0D380D0D0D46
:104500000B000022C2E70422C0E70822BEE7102207
:10451000BCE702F5E432D2F8882002F03002202A0B
:1045200022D004D812B3102A22D10422AEE7302AB6
:1045300020D10822AAE702F5C832D2F8882002F476
:104540004062B2F5006F17D005D8BAB1B2F5806FEE
:1045500016D104229AE7B2F5406F13D1082295E7ED
:10456000022293E7022291E702228FE700228DE7E1
:1045700010228BE7102289E7022287E7002285E7D5
:10458000102283E7102281E7082A7AD8DFE802F0B8
:1045900008792A792779797905004FF4004003E0FA
:1045A000FEF734FA00286ED0626802EB42038342C1
:1045B0006BD8B0EB023F6AD8010E00025308C01856
:1045C0004FF0000341F10001FCF76EFBA0F54072D3
:1045D000364B9A425DD82368D860002044E0FDF74E
:1045E000BDFDDFE73248DFE7082A63D8DFE802F0E5
:1045F00007210562246262620B002D4803E0FEF78A
:1046000005FA002858D06268530803EB4000B0FB5D
:10461000F2F0A0F110024FF6EF739A424ED883B237
:1046200023F00F03C0F3420018432368D860002032
:104630001AE0FEF7FDF9E4E7FDF790FDE1E71C481D
:1046400003E0FEF7E3F900283CD0636800EB530079
:10465000B0FBF3F0A0F110024FF6EF739A4233D89B
:10466000236880B2D860002000236366A36610BD73
:10467000FEF7DEF9E7E7FDF771FDE4E74FF40040F0
:10468000E3E70120F0E70020EEE70120ECE701205E
:10469000EAE70120E8E700BFF369FFEF0080004090
:1046A000003801400044004000480040FFFC0F007B
:1046B0000024F4000120D7E70020D5E70120D3E74C
:1046C0000120D1E70020CFE70120CDE7436A13F0B6
:1046D000010F06D00268536823F40033816A0B434C
:1046E0005360436A13F0020F06D00268536823F444
:1046F0008033C16A0B435360436A13F0040F06D042
:104700000268536823F48023016B0B435360436AB0
:1047100013F0080F06D00268536823F40043416B7E
:104720000B435360436A13F0100F06D0026893687E
:1047300023F48053816B0B439360436A13F0200F83
:1047400006D00268936823F40053C16B0B43936057
:10475000436A13F0400F0AD00268536823F48013B1
:10476000016C0B435360036CB3F5801F0BD0436A9D
:1047700013F0800F06D00268536823F40023816C85
:104780000B43536070470268536823F4C003416CC5
:104790000B435360EBE72DE9F84305460F461646F9
:1047A0009946DDF820802C68E46937EA04030CBFE1
:1047B0004FF0010C4FF0000CB44553D1B8F1FF3F5E
:1047C000F1D0FDF759FCA0EB090040452DD8B8F118
:1047D000000F2AD02B681A6812F0040FE3D0DA69B0
:1047E00012F4006FDFD04FF400621A622A6852E8B8
:1047F000003F23F4D07342E800310029F6D12A6843
:1048000002F1080353E8003F23F00103083242E8B5
:1048100000310029F3D12023AB67EB67C5F8803066
:10482000002385F8743003201DE02A6852E8003F19
:1048300023F4D07342E800310029F6D12A6802F14E
:10484000080353E8003F23F00103083242E8003137
:104850000029F3D12023AB67EB67002385F8743080
:10486000032000E00020BDE8F8832DE9F04182B08C
:104870001E46836F202B56D104460D4690460029D4
:1048800055D0002A55D090F87430012B53D0012315
:1048900080F874300023C0F8803021238367FDF74F
:1048A000EBFB0746A4F85080A4F85280A368B3F548
:1048B000805F05D04FF00008002384F8743014E0C6
:1048C000236913B14FF00008F6E7A8460025F3E787
:1048D00038F8023B2268C3F308031385B4F852206A
:1048E00092B2013A92B2A4F85220B4F852309BB27C
:1048F00073B100963B46002280212046FFF74BFF14
:10490000D8B9002DE4D0236815F8012B1A85E5E706
:1049100000963B46002240212046FFF73CFF70B93D
:104920002023A36700E0022002B0BDE8F08101204F
:10493000FAE70120F8E70220F6E70320F4E7032076
:10494000F2E730B583B004460023C0F88030FDF7AD
:1049500093FB05462268126812F0080F0DD12368F8
:104960001B6813F0040F16D12023A367E367002010
:10497000206684F8740003B030BD6FF07E4300936E
:10498000034600224FF400112046FFF704FF0028E1
:10499000E5D00320EFE76FF07E4300932B46002223
:1049A0004FF480012046FFF7F6FE0028DCD00320FC
:1049B000E1E768B310B50446836F03B32423A3670C
:1049C0002268136823F0010313602046FFF72EFDD1
:1049D000012813D0636ABBB92268536823F490435B
:1049E00053602268936823F02A0393602268136857
:1049F00043F0010313602046FFF7A3FF10BD80F8CA
:104A0000743001F0CDFDD9E72046FFF75FFEE3E704
:104A1000012070474165A0F85820A0F85A200023D3
:104A200043668368B3F5805F06D0A3B9036973B9A1
:104A3000FF23A0F85C3014E0036923B940F2FF13B0
:104A4000A0F85C300DE0FF23A0F85C3009E07F2384
:104A5000A0F85C3005E0B3F1805F29D00023A0F816
:104A60005C300023C0F880302223C367026802F163
:104A7000080353E8003F43F00103083242E80031E5
:104A80000029F3D18368B3F5805F1BD0154B4366D3
:104A9000002380F874300369D3B1026852E8003F04
:104AA00043F4907342E800310029F6D100207047AA
:104AB00003691BB97F23A0F85C30D2E73F23A0F83D
:104AC0005C30CEE70369002BE0D1074B4366DFE79C
:104AD000026852E8003F43F0200342E80031002919
:104AE000F6D1E3E7CD4200087D43000838B5C36F37
:104AF000202B1ED1F9B102B390F87430012B1ED0D7
:104B0000012380F874300023036603680D4CA34230
:104B10000CD05B6813F4000F08D0046854E8003F21
:104B200043F0806344E80035002DF6D1FFF772FFB3
:104B300000E0022038BD0120FCE70120FAE7022056
:104B4000F8E700BF008000407047C36F202B20D1E2
:104B500010B50446F9B102B390F87430012B1ED0A1
:104B6000012380F874300366FFF754FFB0B9236E59
:104B7000012B01D0012011E0236810221A62226863
:104B800052E8003F43F0100342E800310029F6D11B
:104B900004E002207047012000E0012010BD022047
:104BA000FCE70000034AD2F8883043F47003C2F8EF
:104BB0008830704700ED00E002460378302B05D0C6
:104BC000302B0AD0302B13D0002014E04178782904
:104BD0000AD05829F4D103200DE05178622905D07C
:104BE0004229EFD1012006E0032004E0012002E089
:104BF000022000E01A46134613F8011B39B152781F
:104C00002E2AF7D15A78002AF4D004207047704732
:104C100003463038C0B2092810D9A3F16102D2B2DC
:104C2000052A07D9A3F14102D2B2052A05D8373B9C
:104C3000D8B27047573BD8B2704700207047000089
:104C400003460278272A03D018785C2802D07047E0
:104C50000133F9E75878302838D0F8D37428F6D8DB
:104C60006228F4D3A0F16203122BF0D801A252F80B
:104C700023F000BFC14C00084F4C00084F4C000807
:104C80004F4C00084F4C00084F4C00084F4C000898
:104C90004F4C00084F4C00084F4C00084F4C000888
:104CA0004F4C0008C54C00084F4C00084F4C000802
:104CB0004F4C0008D14C00084F4C0008C94C00086C
:104CC000082070470A20704709207047002070476D
:104CD0000D20BCE770B506460378222B02D035467E
:104CE000002409E00136FAE7681EFFF7A9FF3055F6
:104CF000013501350134A4B22B7843B15C2BF3D0DC
:104D0000222B01D03355F4E700233355F1E7335517
:104D1000304670BD2DE9F843064603782D2B17D099
:104D20004FF0010900203044FFF746FF804602287B
:104D300015D0032816D001280ED000230A27B9F178
:104D4000FF3F12D0002213441E440024234610E0EB
:104D50004FF0FF390120E6E702231F46EFE701236A
:104D60000827ECE702231027E9E70122EBE70136E9
:104D70000124307858B12E28F9D003FB07F5FFF74E
:104D800047FF2B1804EB840464000136F1E7B8F107
:104D9000040F13D194B107EE903AF8EE677A07EE5C
:104DA000104AB8EE477AC7EE876A07EE909AF8EE97
:104DB000E77A67EEA67A17EE900A01E003FB09F0A6
:104DC000BDE8F88310B504460023826D013100F080
:104DD00082FE20B10146204600F0F8FE10BD002002
:104DE000FCE710B5844608461C4622B10B78242BFC
:104DF0002AD14B785BB30278272A0ED02D2A14D003
:104E0000A2F13001C9B209290FD9242A12D00AB35C
:104E1000FFF760FF2060002010BD4378002BEDD02D
:104E2000FFF70EFF20600020F6E7FFF773FF20601A
:104E30000020F1E74378002BE9D001466046FFF7F8
:104E4000C1FF20600020E7E74FF0FF30E4E74FF0BC
:104E5000FF30E1E74FF0FF30DEE72DE9F0438DB0A2
:104E60000646894615461F462022002104A802F066
:104E700087FE99F8028008F00F08A84501DA05F1CD
:104E8000FF38002400E001346B1EA34211DD04F161
:104E9000010C04AB03EB8403002257F82C103046BE
:104EA000FFF79FFF0028EED04FF0FF300DB0BDE8B8
:104EB000F083B8F1070F47D8DFE808F004080D13B6
:104EC0001A222C38D9F808309847EFE7D9F808307B
:104ED00004989847EAE7D9F8083005990498984764
:104EE000E4E7D9F80830069A059904989847DDE771
:104EF000D9F80840079B069A05990498A047D5E77A
:104F0000D9F80840089B0093079B069A05990498D6
:104F1000A047CBE7D9F80840099B0193089B009371
:104F2000079B069A05990498A047BFE7D9F808405F
:104F30000A9B0293099B0193089B0093079B069A87
:104F400005990498A047B1E74FF0FF30AEE70000A5
:104F500038B5844600200BE00CF101054FF6FF73D5
:104F6000012261460548FFF780FC00B22146AC46AD
:104F70004B1E9CB20029EFD138BD00BFA00A002013
:104F800008B50448044B8366C822044900F03EFF7C
:104F900008BD00BF18070020514F000884070020FB
:104FA0000023042B0BDC1946054A52F8232012B1CA
:104FB00001331BB2F5E7024B43F8210070477047FD
:104FC0005808002000B583B08DF80710836E0121CA
:104FD0000DF10700984703B05DF804FB70B5054676
:104FE000866EDEB108460A46002413783BB10D2BCD
:104FF00005D00A2B03D001320134A4B2F5E7242CEA
:1050000009D92421B047AB6E032106489847242CC8
:1050100006D9242070BD2146B047F8E70020F9E703
:105020002720F7E75CBC00080246002002E013548A
:10503000013080B20B5C002BF9D1135470478446C9
:10504000002318461CF803207AB110B4CC5C4CB194
:10505000A24207D1013080B201339BB21CF8032079
:10506000002AF3D15DF8044B70477047437803F092
:105070000F03012B05D9072B05D9082B05D8C068CC
:105080007047C0687047C0687047C068704730B5E7
:10509000002306E01A1D00EB82020021516001335B
:1050A0001BB2072BF6DD0021C1860B4601250DE062
:1050B00002699E46D41812F803C0BCF1220F15D025
:1050C000BDB924785C2C23D001339BB282899A42EB
:1050D00025D90029ECD10269D418D25C202A01D04C
:1050E000002AE5D1002222700125EDE781F00101BF
:1050F000E6E7C58E072D09D805F1010CA0F836C0EA
:10510000043500EB85056C600025DAE70025D8E75B
:1051100072445278002AD7D001339BB2D4E730BD15
:1051200008B5C3898289934200D308BD0269591C1E
:10513000C181D15CFFF746FFF7E7C38903B9704728
:1051400010B504460821FFF73DFFE389013BE381E9
:1051500010BD10B504460023A0F85430B0F850300C
:105160005BB1B0F8523053B3013B0E3304EB830311
:1051700021695868FBF72CF800B3B4F852300E33AD
:1051800004EB830321695868FFF74EFF20B1B4F8A0
:1051900052300133A4F85230B4F8503001339BB28E
:1051A000A4F85030052B02D90523A4F85030B4F8E8
:1051B0005230042B02D90023A4F8523010BD04232E
:1051C000D3E770B5054600240AE000211170221DC6
:1051D00005EB82025168013151600CE00134A4B248
:1051E000EB8EA34216D92346221D05EB820252689C
:1051F00011782229E9D0043305EB83035E68304639
:10520000FAF7F0FF83B2013BF25C222AE6D10022DA
:10521000F254E3E770BD0000002301E001331BB24C
:10522000042B0ADC064A52F823000028F6D090F836
:10523000602012F0020FF1D000E00020704700BFA4
:105240005808002010B5846E6CB18C460B460021C6
:1052500001E0013189B213F8012B002AF9D160462F
:10526000A04780B210BD0020FCE7000010B5044646
:1052700090F8603013F0010F19D091B92368596884
:105280002046FFF7DFFF0C492046FFF7DBFFA16850
:1052900059B12046FFF7D6FF08492046FFF7D2FF55
:1052A00010BD0749FFF7CEFFE8E70649F1E70649D9
:1052B000FFF7C8FFF4E700BF64BC000868BC000843
:1052C00040BB000860BC00086CBC000810B5044678
:1052D000036899680069FAF77BFF68B994F8603051
:1052E00043F0010384F8603006492046FFF7AAFF27
:1052F0000023A381E38110BD03492046FFF7A2FFED
:10530000F6E700BF84BC0008E0BD000808B5FFF761
:1053100083FF10B10149FFF795FF08BDF4BD0008F8
:10532000C8B10EB410B5CDB0044650AB00934F9A3F
:105330004FF4967101A803F0DBF9B0F5967F01DD1B
:105340004FF49670A36E81B201A898474DB0BDE8A6
:10535000104003B0704770470B784BB14A7802F0A9
:105360000F02082A04D0026882B11278134210D0CA
:1053700090F8603013F0010F0ED14B7813F0100F3E
:1053800001D0002070474FF0FF3070474FF0FF30E2
:1053900070474FF0FF3070470020704700230B72BA
:1053A000082304E03032013BDBB2CA54000928B1C3
:1053B00000F00F02092AF5D95732F4E7C3F10800CB
:1053C00040B27047002304E00E4A3021D15401332B
:1053D000DBB2082BF8D9437803F00F03012B05D972
:1053E000072B05D9082B05D84068704740687047DF
:1053F0004068704710B5034C21464068FFF7CEFF68
:10540000204610BD4C08002010B4041E04DB2246C8
:105410000023CB720B2011E06242F9E7114B83FBB2
:10542000023CD317C3EBAC039C4603EB8303A2EB14
:1054300043030138C0B230330B546246002AEDD129
:10544000002C0ADB1CB90138C0B230230B54C0F168
:105450000B0040B25DF8044B70470138C0B22D23F9
:105460000B54EFE76766666670B584B004460E4677
:10547000194B01AD93E8070085E80700174920465E
:10548000FFF7E0FE29463046FFF7BEFFC0F10B01F3
:1054900029442046FFF7D6FE11492046FFF7D2FEE9
:1054A000002308E003F110026A444FF0300C02F8C8
:1054B0000CCC01331BB20A2BF4DD01A93046FFF7F7
:1054C0006DFF01A92046FFF7BDFE06492046FFF704
:1054D000B9FE04B070BD00BF14BE000800BE0008D5
:1054E0000CBE000840BB000870B505460E460846D5
:1054F000FFF768FF01462846FFF7A4FEC0F1160437
:1055000024B2002C17DD20212846FFF75BFD013C6B
:1055100024B2002CF7D1737803F00F03012B0CD9C0
:10552000072B14D9082B17D9092B1AD81F4928463D
:10553000FFF788FE05E00424E5E71D492846FFF74C
:1055400081FE1C492846FFF77DFE072414E01A4916
:105550002846FFF777FEF4E718492846FFF772FE62
:10556000EFE717492846FFF76DFEEAE72D212846A9
:10557000FFF728FD013C64B2002C06DB33782341A1
:1055800013F0010FF2D07821F1E70A492846FFF71E
:1055900059FE3046FFF76AFD01462846FFF71EFD1B
:1055A00008492846FFF74EFE70BD00BF38BE000810
:1055B00020BE000848BE000828BE000830BE000813
:1055C00040BE000840BB0008F8B50646876D0F498D
:1055D000FFF738FE002401E0013424B2B6F85C3055
:1055E0009C4211DA07EB04156B7803F00F03012BD3
:1055F000F2D829463046FFF7AFFE0028ECD1294605
:105600003046FFF771FFE7E7F8BD00BF4CBE00086A
:1056100008B5FFF701FE08B1FFF7D6FF08BD00008F
:10562000F8B50646876D1049FFF70CFE002401E02F
:10563000013424B2B6F85C309C4214DA07EB04154E
:105640006B7803F00F030E3303F00F03052BEFD835
:1056500029463046FFF780FE0028E9D1294630462A
:10566000FFF742FFE4E7F8BD60BE000808B5FFF7AA
:10567000D3FD08B1FFF7D4FF08BD0000F8B506461A
:10568000876D0F49FFF7DEFD002401E0013424B2ED
:10569000B6F85C309C4211DA07EB04156B7803F026
:1056A0000F03082BF2D129463046FFF755FE00289C
:1056B000ECD129463046FFF717FFE7E7F8BD00BFFA
:1056C00070BE000808B5FFF7A7FD08B1FFF7D6FFC9
:1056D00008BD0000F8B50646876D0F49FFF7B2FD1B
:1056E000002401E0013424B2B6F85C309C4211DAA7
:1056F00007EB04156B7803F00F03092BF2D1294651
:105700003046FFF729FE0028ECD129463046FFF746
:10571000EBFEE7E7F8BD00BF80BE000808B5FFF765
:105720007BFD08B1FFF7D6FF08BD08B5FFF74CFFBA
:1057300008BD000038B5054604E005492846FFF7D6
:1057400081FD21464B1EDCB20029F6D138BD00BFD9
:1057500090BE000838B505468489C389E41A24B28E
:1057600005E020212846FFF72DFC013C24B2002C47
:10577000F7DC297B2846FFF7DDFF38BD10B504466E
:10578000002919DDB0F95420531EA0F85430B0F8A8
:105790005230B0F850108B4238BF0B4659428A4203
:1057A00001DCA4F854102046FFF7D4FFB4F95430BC
:1057B00083B9A381E38110BD0029FCDAB0F954302C
:1057C00001331BB2A0F85430002BECDD0023A0F80D
:1057D0005430F0E7B4F8522005321A440C4981FBEA
:1057E0000231D317C3EB610303EB8303D31A0E33E8
:1057F00004EB830359682069FFF716FCA081002899
:10580000D9D0E08121692046FFF71CFDD3E700BF16
:105810006766666608B50121FFF7B0FF08BD08B5E9
:105820004FF0FF31FFF7AAFF08BD00002DE9F84F48
:105830000546B0F834A0838943B102694FF00008EF
:1058400002F80380876D4446C14624E0FFF76DFFF0
:1058500001212846FFF70AFD5EE007EB08184146E4
:105860002846FFF741FE4046FFF7ACFD8046304634
:10587000FFF7A8FD01464046FFF7E1FB824528BF40
:1058800082461FFA8AFA1FFA84F809F101091FFA01
:1058900089F9013424B2B5F85C309C421EDA07EB7A
:1058A000041631462846FFF757FD0028F1D1D5F8F8
:1058B00010B03046FFF786FD01465846FFF7BFFBA4
:1058C000AB899842E5D1B9F1000FDCD0B9F1010FF5
:1058D000C3D11A492846FFF7B5FCBEE7B9F1000F5E
:1058E0001AD0B9F1010F19D02C6907EB0817384607
:1058F000FFF768FD01462046FFF796FBA881B9F146
:10590000010F0FD82A69AB890021D154AB89EB81F3
:1059100029692846FFF796FCBDE8F88F2846FFF76F
:1059200019FFE1E739462846FFF7DEFD0121284649
:10593000FFF79CFCA5F80CA0E4E700BF40BB000803
:1059400070B504468389828E013A934207DAC28990
:10595000934210D093424ED99B1A1BB223E02649A2
:10596000FFF770FC01212046FFF780FC21692046EB
:10597000FFF768FC3FE00269581CA081D1542269FE
:10598000A3890020D054E3890133E3812046FFF747
:1059900019FB30E02069E2891A44851815F8015C8A
:1059A0008554013B1BB2002BF4DC2269E389581CAF
:1059B000E081D1542269A38901339BB2A3810021E4
:1059C000D154E689013E36B206E02369995D20464E
:1059D000FFF7F8FA013636B2A589AE42F5DBE38966
:1059E000ED1A2DB205E008212046FFF7EBFA013D44
:1059F0002DB2002DF7DC70BD94BE000838B504460A
:105A0000B1F1FF3F14BF00230123C2890AB9012964
:105A100055D0A089824203D0824205D01BB219E042
:105A2000B1F1FF3FF8D14AE00129F7D1013AE28113
:105A3000431E9BB2A38122690021D154012120463B
:105A4000FFF778FE3BE020691A44551E825C425500
:105A500001331BB2A089E289851AAB42F3DB01381E
:105A6000A081B1F1FF3F06D12269A3890021D15461
:105A7000B4F90E500DE0013AE28108212046FFF70B
:105A8000A1FAF1E72369595D2046FFF79BFA01353A
:105A90002DB2A3899D42F5DB20212046FFF792FA23
:105AA000A589E389ED1AADB201352DB205E00821D3
:105AB0002046FFF787FA013D2DB2002DF7DC38BDF7
:105AC00008B50121FFF79AFF08BD08B54FF0FF3177
:105AD000FFF794FF08BD2DE9F04780468A46174638
