:020000040800F2
:1000000000000120712A0008F1080008F308000828
:10001000F5080008F7080008F908000800000000CB
:10002000000000000000000000000000FB080008C5
:10003000FD08000800000000FF0800080109000892
:10004000C12A0008C12A0008C12A0008C12A0008E4
:10005000C12A0008C12A0008C12A0008C12A0008D4
:10006000C12A0008C12A0008C12A0008C12A0008C4
:10007000C12A0008C12A0008C12A0008C12A0008B4
:10008000C12A0008C12A0008C12A0008C12A0008A4
:10009000C12A0008C12A0008C12A0008C12A000894
:1000A000C12A0008C12A0008C12A0008C12A000884
:1000B000C12A00080000000000000000C12A00085A
:1000C000C12A0008C12A0008C12A0008C12A000864
:1000D000C12A0008C12A0008C12A0008C12A000854
:1000E000C12A0008C12A000800000000000000002A
:1000F0000000000000000000000000000000000000
:1001000000000000C12A000800000000C12A000809
:100110000000000000000000C12A0008C12A0008F9
:10012000C12A0008C12A0008C12A0008C12A000803
:10013000C12A0008000000000000000000000000CC
:10014000C12A0008C12A0008C12A000800000000D6
:10015000C12A0008C12A0008C12A0008C12A0008D3
:10016000C12A0008C12A0008C12A000800000000B6
:10017000C12A0008C12A0008000000000000000099
:10018000C12A0008C12A0008C12A00080000000096
:1001900010B5054C237833B9044B13B10448AFF3C1
:1001A00000800123237010BD7000002000000000BB
:1001B000B43A000808B5034B1BB103490348AFF339
:1001C000008008BD0000000074000020B43A000860
:1001D00001F0FF01102A2BDB10F0070F08D010F8F8
:1001E000013B013A8B422DD010F0070F42B3F6D1FC
:1001F000F0B441EA012141EA014122F007047FF015
:1002000000070023F0E80256083C85EA010586EA6B
:10021000010685FA47F5A3FA87F586FA47F6A5FAA7
:1002200087F68EB9EED1F0BC01F0FF0102F00702B3
:1002300032B110F8013B013A83EA010313B1F8D15E
:100240000020704701387047002D06BF354603383F
:10025000073815F0010F07D1013015F4807F02BF78
:10026000013015F4C03F0130F0BC0138704700BFC9
:1002700053B94AB9002908BF00281CBF4FF0FF310D
:100280004FF0FF3000F074B9ADF1080C6DE904CE09
:1002900000F006F8DDF804E0DDE9022304B0704761
:1002A0002DE9F047089D04468E46002B4DD18A4229
:1002B000944669D9B2FA82F252B101FA02F3C2F15C
:1002C000200120FA01F10CFA02FC41EA030E9440ED
:1002D0004FEA1C48210CBEFBF8F61FFA8CF708FB0E
:1002E00016E341EA034306FB07F199420AD91CEBE6
:1002F000030306F1FF3080F01F81994240F21C8118
:10030000023E63445B1AA4B2B3FBF8F008FB10335F
:1003100044EA034400FB07F7A7420AD91CEB040494
:1003200000F1FF3380F00A81A74240F20781644464
:10033000023840EA0640E41B00261DB1D4400023E9
:10034000C5E900433146BDE8F0878B4209D9002D4D
:1003500000F0EF800026C5E9000130463146BDE8D7
:10036000F087B3FA83F6002E4AD18B4202D3824241
:1003700000F2F980841A61EB030301209E46002DF0
:10038000E0D0C5E9004EDDE702B9FFDEB2FA82F245
:10039000002A40F09280A1EB0C014FEA1C471FFAA3
:1003A0008CFE0126200CB1FBF7F307FB131140EA8A
:1003B00001410EFB03F0884208D91CEB010103F157
:1003C000FF3802D2884200F2CB804346091AA4B219
:1003D000B1FBF7F007FB101144EA01440EFB00FEED
:1003E000A64508D91CEB040400F1FF3102D2A64552
:1003F00000F2BB800846A4EB0E0440EA03409CE7F1
:10040000C6F12007B34022FA07FC4CEA030C20FA9D
:1004100007F401FA06F31C43F9404FEA1C4900FABD
:1004200006F3B1FBF9F8200C1FFA8CFE09FB18113A
:1004300040EA014108FB0EF0884202FA06F20BD9AD
:100440001CEB010108F1FF3A80F08880884240F2FD
:100450008580A8F102086144091AA4B2B1FBF9F041
:1004600009FB101144EA014100FB0EFE8E4508D93C
:100470001CEB010100F1FF346CD28E456AD90238C1
:10048000614440EA0840A0FB0294A1EB0E01A142A6
:10049000C846A64656D353D05DB1B3EB080261EB14
:1004A0000E0101FA07F722FA06F3F1401F43C5E9EE
:1004B000007100263146BDE8F087C2F12003D84024
:1004C0000CFA02FC21FA03F3914001434FEA1C4766
:1004D0001FFA8CFEB3FBF7F007FB10360B0C43EA58
:1004E000064300FB0EF69E4204FA02F408D91CEB08
:1004F000030300F1FF382FD29E422DD90238634406
:100500009B1B89B2B3FBF7F607FB163341EA0341A5
:1005100006FB0EF38B4208D91CEB010106F1FF38F4
:1005200016D28B4214D9023E6144C91A46EA0046EB
:1005300038E72E46284605E70646E3E61846F8E67D
:100540004B45A9D2B9EB020864EB0C0E0138A3E7C6
:100550004646EAE7204694E74046D1E7D0467BE7A7
:10056000023B614432E7304609E76444023842E71F
:10057000704700BF72B6FEE700B597B04422002175
:1005800005A802F0C3FA002300930193029303939A
:1005900004934FF4007001F033FF20BB0122059259
:1005A0004FF48033069302230F930321109111928D
:1005B000282212920722139214930423159305A85C
:1005C00000F0C4FF88B90F23009303230193002395
:1005D0000293039304930421684601F0EDFA30B9C5
:1005E00017B05DF804FBFFF7C5FFFFF7C3FFFFF788
:1005F000C1FF000000B585B000F0D0FEFFF7BCFFE2
:1006000000F02AF800F062F800F010F900F0E8F8C5
:100610000AE09DF806209DF8073043EA02229DF883
:1006200005100C4802F07AFA9F230093FF230193F0
:1006300000230293ADF80C304FF47A7000F0D0FE36
:1006400004220DEB0201684600F09AF810F0FF0F4B
:10065000EAD1DEE7D03A000810B588B00024039450
:100660000494059406940794174BDA6C42F08002C8
:10067000DA64DA6C02F080020092009ADA6C42F0DE
:100680000102DA64DA6C02F001020192019ADA6C7A
:1006900042F00202DA64DB6C03F002030293029B75
:1006A000224610214FF0904001F09CFE102303934E
:1006B000012304930594069403A94FF0904001F0A0
:1006C000ADFD08B010BD00BF0010024008B51048D5
:1006D000104B03604FF482734360002383604FF438
:1006E0004072C260036143614FF400728261C36172
:1006F0000362436283620722C26203630823436387
:1007000000F070FA00B908BDFFF734FFFBE700BF47
:100710008C0000200030014000B589B00023039315
:1007200004930593069307930268134B9A4202D0F1
:1007300009B05DF804FB03F560431A6E42F4805281
:100740001A661A6E02F480520192019ADA6C42F033
:100750000202DA64DB6C03F002030293029B38238B
:10076000039302230493032306930523079303A90A
:10077000024801F053FDDBE700300140000400486F
:1007800038B505460C46002210214FF0904001F08C
:1007900029FEFF23042229460E4800F092FA78B978
:1007A000FF23022221460B4800F0FBFC044660B9FF
:1007B000012210214FF0904001F014FE204638BD78
:1007C0000146054802F0AAF9EAE70146034802F0AB
:1007D000A5F9EDE78C000020E03A0008FC3A00089B
:1007E00010B582B049F66613ADF80430002210212E
:1007F0004FF0904001F0F6FDFF23022201A90948C5
:1008000000F05FFA044640B9012210214FF09040F9
:1008100001F0E8FD204602B010BD0146024802F09A
:100820007DF9F1E78C000020E03A000808B50B489C
:100830000B4B03604FF4E133436000238360C360DC
:1008400003610C2242618361C3610362436202F06F
:10085000D4F800B908BDFFF78DFEFBE7F0000020DB
:100860000048004010B59EB00446002119911A912D
:100870001B911C911D915C2202A802F047F922688D
:10088000184B9A4201D01EB010BD0423029302A857
:1008900001F036FB10BB144B9A6D42F480229A652E
:1008A0009A6D02F480220092009ADA6C42F0020201
:1008B000DA64DB6C03F002030193019B4FF44063A5
:1008C000199302231A9300231B9303231C930723DA
:1008D0001D9319A9054801F0A1FCD4E7FFF74AFED2
:1008E000D9E700BF00480040001002400004004863
:1008F000FEE7FEE7FEE7FEE7FEE77047704770475A
:1009000008B500F05BFD08BD82B00A4B1A6E42F0DC
:1009100001021A661A6E02F001020092009A9A6DA4
:1009200042F080529A659B6D03F080530193019BC6
:1009300002B07047001002402DE9F04782B0054632
:10094000884617461E4600F045FD0A9B1B1A03EB1E
:10095000060900F03FFD82462B4B1B68C3F3CB33E7
:1009600009FB03F301932B689C6838EA04030CBF6E
:100970004FF0010C4FF0000CBC4540D0B6F1FF3FEA
:10098000F1D000F027FDA0EB0A0048450AD2B9F1EA
:10099000000F07D0019A02B14A46019B013B019327
:1009A0009146E0E72A68536823F0E00353606B68E0
:1009B000B3F5827F0BD0AB6AB3F5005F14D001238F
:1009C00085F85D30002385F85C30032018E0AB68C3
:1009D000B3F5004F02D0B3F5806FECD12A681368ED
:1009E00023F040031360E6E72A68136823F40053FA
:1009F00013602A68136843F400531360DFE7002094
:100A000002B0BDE8F08700BF080000202DE9F047E4
:100A100082B006460C4615461F4600238DF803306B
:100A200000F0D8FC0A9B1B1A03EB070800F0D2FC6D
:100A30008146D6F800A0314B1B6803EB8303C3EB60
:100A4000C3031B0D08FB03F3019302E0B7F1FF3F63
:100A500012D133689B6803EA040CAC454AD0B4F564
:100A6000C06FF3D1002DF1D19AF80C30DBB28DF8C4
:100A700003309DF80330E9E700F0ACFCA0EB09007F
:100A800040450AD2B8F1000F07D0019A02B14246A0
:100A9000019B013B01939046DBE73268536823F0EA
:100AA000E00353607368B3F5827F0BD0B36AB3F58C
:100AB000005F14D0012386F85D30002386F85C3097
:100AC000032018E0B368B3F5004F02D0B3F5806F90
:100AD000ECD13268136823F040031360E6E7326814
:100AE000136823F4005313603268136843F400530F
:100AF0001360DFE7002002B0BDE8F08708000020A7
:100B000070B582B004460D46164600920B46002290
:100B10004FF4C051FFF77AFFB0B900962B46002280
:100B200080212046FFF708FFA8B900962B46002237
:100B30004FF4C0612046FFF769FF50B1236E43F0C8
:100B400020032366032004E0236E43F02003236682
:100B5000032002B070BD236E43F020032366032000
:100B6000F7E770B582B004460D4616464368B3F504
:100B7000827F0DD000962B46002280212046FFF771
:100B8000DBFE90B96368B3F5827F14D002B070BD0C
:100B90008368B3F5004F02D0B3F5806FEAD12268C5
:100BA000136823F040031360E4E7236E43F020034F
:100BB00023660320EAE7A368B3F5004F02D0B3F53C
:100BC000806FE3D100962B4600224FF4C06120468F
:100BD000FFF71CFF0028D9D0236E43F020032366C3
:100BE0000320D3E700286AD010B50446436A33B91E
:100BF0004368B3F5827F05D00023C36102E0002380
:100C0000036143610023A36294F85D30002B4DD053
:100C1000022384F85D302268136823F040031360D8
:100C2000E368B3F5E06F47D90022B3F5706F04D0E5
:100C3000B3F5E06F01D00023A362636803F482730D
:100C4000A16801F404410B43216901F002010B4347
:100C5000616901F001010B43A16901F400710B43CB
:100C6000E16901F038010B43216A01F080010B4377
:100C7000A16A01F4005120680B430360638B03F009
:100C80000403616A01F010010B43616B01F008017C
:100C90000B43E16801F470610B43216813434B601F
:100CA00000202066012384F85D3010BD84F85C309C
:100CB0002046FFF731FDABE74FF48052B5E7012046
:100CC00070472DE9F04383B01D4690F85C30012B4E
:100CD00000F0F680044688469146012380F85C3097
:100CE00000F078FB074694F85D60F6B2012E40F004
:100CF000D480B8F1000F00F0D180B9F1000F00F0FE
:100D0000CD80032384F85D3000232366C4F8388047
:100D1000A4F83C90A4F83E902364A4F84430A4F8CE
:100D200046302365E364A368B3F5004F1ED0236803
:100D30001A6812F0400F03D11A6842F040021A609C
:100D4000E368B3F5E06F42D9636813B1B9F1010FFD
:100D500023D1A26B23681288DA60A36B0233A363EA
:100D6000E38F9BB2013B9BB2E38716E022681368D6
:100D700023F0400313602268136843F48043136038
:100D8000D5E700F027FBC01BA84203D3B5F1FF3F16
:100D900040F08E80002D00F08D80E38F9BB2002B01
:100DA00066D023689A6812F0020FEAD0A26B12880C
:100DB000DA60A36B0233A363B4F83EC01FFA8CFC65
:100DC0000CF1FF3C1FFA8CFCA4F83EC0E5E7636819
:100DD00013B1B9F1010F33D1E38F9BB2012B0CD9C1
:100DE000A26B23681288DA60A36B0233A363E38FDC
:100DF0009BB2023B9BB2E38722E0A26B236812788E
:100E00001A73A36B0133A363E38F9BB2013B9BB2C5
:100E1000E38715E0A36B1B781373A36B0133A36304
:100E2000E38F9BB2013B9BB2E38709E000F0D2FA6B
:100E3000C01BA84202D3B5F1FF3F3DD1002D3DD0EC
:100E4000E38F9BB2A3B12268936813F0020FEDD039
:100E5000E38F9BB2012BDDD9A36B1B88D360A36BFF
:100E60000233A363E38F9BB2023B9BB2E387E7E7C6
:100E70003A4629462046FFF743FE08B12023236661
:100E8000A36833B901932368DA6801929B680193E0
:100E9000019B236E13B9002600E00226012384F88B
:100EA0005D30002384F85C30304603B0BDE8F08349
:100EB0000326F3E70326F1E70326EFE70326EDE732
:100EC0000226F1E72DE9F8431F46089D90F85C30B3
:100ED000012B00F06481044688469146012380F886
:100EE0005C3000F077FA064694F85D30DBB2626859
:100EF000012B0AD0B2F5827F40F03881A268002A27
:100F000040F03D81042B40F03C81B8F1000F00F02F
:100F10003A81B9F1000F00F03881002F00F03781DD
:100F200094F85D30DBB2042B02D0052384F85D30E9
:100F300000232366C4F84090A4F84670A4F84470D7
:100F4000C4F83880E787A787E3642365E368B3F5CF
:100F5000E06F01D8012F23D92268536823F480530E
:100F6000536023681A6812F0400F03D11A6842F0E8
:100F700040021A60E368B3F5E06F58D963680BB1BB
:100F8000012F0BD1A26B23681288DA60A36B0233A6
:100F9000A363E38F9BB2013B9BB2E387012731E060
:100FA0002268536843F480535360DAE7A26B1288D7
:100FB000DA60A36B0233A363E38F9BB2013B9BB266
:100FC000E387002723689A6812F0010F11D0B4F864
:100FD000462092B26AB1DA68236C1A80236C02331D
:100FE0002364B4F846309BB2013B9BB2A4F8463070
:100FF000012700F0EFF9831BAB4203D3B5F1FF3FAC
:1010000040F0C780E38F9BB22BB9B4F846309BB257
:10101000002B00F0A18023689A6812F0020FD1D053
:10102000E28F92B2002ACDD0002FCBD0BEE763680A
:101030000BB1012F0FD1E38F9BB2012B0DD9A26B06
:1010400023681288DA60A36B0233A363E38F9BB239
:10105000023B9BB2E387012749E0A26B2368127829
:101060001A73A36B0133A363E38F9BB2013B9BB263
:10107000E387F0E7E28F92B2012A0CD9A26B1288C3
:10108000DA60A36B0233A363E38F9BB2023B9BB294
:10109000E38700273DE0A26B12781A73A36B01333C
:1010A000A363E38F9BB2013B9BB2E387002730E051
:1010B0002268536843F48053536001270DE0226C8B
:1010C0001B7B1370236C01332364B4F846309BB24E
:1010D000013B9BB2A4F84630012700F07BF9801B4E
:1010E000A84202D3B5F1FF3F55D1002D55D0E38F73
:1010F0009BB223B9B4F846309BB2002B2CD02368A6
:101100009A6812F0020F04D0E28F92B20AB1002F57
:10111000B0D123689A6812F0010FDED0B4F84620EF
:1011200092B2002AD9D0B4F8462092B2012AC6D988
:10113000DA68236C1A80236C02332364B4F84630D7
:101140009BB2023B9BB2A4F84630B4F846309BB247
:10115000012BADD90127C0E7324629462046FFF7CB
:10116000CFFC20B120232366012000E002200123D0
:1011700084F85D30002384F85C30BDE8F8830220F9
:10118000F5E70220F3E70120F1E70120EFE7012076
:10119000EDE70320EBE70320E9E70320E7E7022080
:1011A000EBE72DE9F04383B00446884691461D469F
:1011B0004068B0F5827F43D094F85C30012B00F09A
:1011C000C380012384F85C3000F004F9074694F8EA
:1011D0005D60F6B2012E40F0A480B8F1000F00F07F
:1011E000A180B9F1000F00F09D80042384F85D30E8
:1011F00000232366C4F84080A4F84490A4F84690E5
:10120000A363A387E387E3642365E368B3F5E06F33
:1012100024D92268536823F480535360A368B3F53C
:10122000004F21D023681A6812F0400F03D11A68CA
:1012300042F040021A60E368B3F5E06F29D94AE052
:10124000A368002BB8D1042384F85D3000951346C1
:101250000A462046FFF736FE064669E022685368D4
:1012600043F480535360D9E72268136823F04003A6
:1012700013602268136823F480431360D2E700F000
:10128000A9F8C01BA84202D3B5F1FF3F54D1002DED
:1012900054D0B4F846309BB2002B36D023689A68FD
:1012A00012F0010FEBD0226C1B7B1370236C013307
:1012B0002364B4F846309BB2013B9BB2A4F846309D
:1012C000E7E700F087F8C01BA84202D3B5F1FF3F63
:1012D00036D1002D36D0B4F846309BB2ABB123687E
:1012E0009A6812F0010FECD0DA68236C1A80236C34
:1012F00002332364B4F846C01FFA8CFC0CF1FF3CA7
:101300001FFA8CFCA4F846C0E5E73A462946204679
:10131000FFF727FC08B120232366236E13B90026AC
:1013200000E00226012384F85D30002384F85C305D
:10133000304603B0BDE8F0830326F3E70326F1E768
:101340000326EFE70326EDE70226F1E7104B1B78B3
:101350000BB90120704710B504464FF47A70B0FB0A
:10136000F3F30C4A1068B0FBF3F001F0DBF868B956
:101370000F2C01D901200AE0002221464FF0FF3056
:1013800001F098F8044B1C60002000E0012010BD23
:1013900000000020080000200400002010B50320F9
:1013A00001F076F80F20FFF7D1FF10B1012420469D
:1013B00010BD0446FFF7A8FAF9E70000034B1B78BD
:1013C000034A11680B441360704700BF00000020FF
:1013D00074010020014B1868704700BF74010020A1
:1013E00038B50446FFF7F6FF0546B4F1FF3F02D0DB
:1013F000044B1B781C44FFF7EDFF401BA042FAD3BF
:1014000038BD00BF0000002030B583B00446204B3B
:101410009B6D13F0805F0BD000F0EAFFB0F5007F0A
:1014200017D0802C1FD82DD0702C2DD000211BE080
:10143000174DAB6D43F08053AB65AB6D03F080533C
:101440000193019B00F0D4FFAB6D23F08053AB659B
:10145000E4E7802C03D9A02C03D9022104E0002169
:1014600002E0012100E003210A4A136823F0070388
:101470000B431360136803F007038B4206D100206F
:1014800003B030BD0221EFE70121EDE70120F7E7CE
:101490000010024000200240284A9368D26802F0FF
:1014A000030213F00C030AD00C2B06D0042B1FD020
:1014B000082B20D00020024610E0012AF6D11F4A56
:1014C000126812F0080F0CD11C4AD2F89420C2F313
:1014D00003221B4951F8222043B100200C2B0DD0D0
:1014E0007047164A1268C2F30312F2E71046F5E796
:1014F00014480022F2E714480022EFE70F4BDB68A4
:1015000003F00303022B16D0032B00D10E4A0B4924
:10151000C868C0F30210431CC868C0F3062002FB71
:1015200000F0B0FBF3F0CB68C3F3416301335B0021
:10153000B0FBF3F0D4E7034AE9E700BF0010024034
:101540002C3B00080024F40000127A00002800F070
:101550001C83F0B583B00446964B9D6805F00C05DE
:10156000DE6806F00306036813F0100F5AD0E5B1E9
:101570000C2D18D0A369002B00F0BB808D4A136896
:1015800043F001031360FFF725FF0746894B1B68F3
:1015900013F0020F40F09A80FFF71CFFC01B0228D7
:1015A000F4D90320FCE2012EE4D1824B1B6813F036
:1015B000020F03D0A369002B00F0E982206A7D4B63
:1015C0001B6813F0080F5BD07A4B1B6803F0F00325
:1015D00098425CD8774B1A6842F008021A601A6881
:1015E00022F0F002216A0A431A605A6822F47F420C
:1015F000E16942EA01225A60002D60D0FFF74CFFFA
:101600006C4B9B68C3F303136B4AD35C03F01F035B
:10161000D8406A4B18606A4B1868FFF797FE00289D
:1016200040F0BE82236813F0010F00F08180082D86
:1016300075D00C2D71D06368B3F5803F00F09780B2
:10164000B3F5A02F00F099805A4B1A6822F480322B
:101650001A601A6822F480221A606368002B00F076
:101660009980FFF7B7FE0746524B1B6813F4003F03
:101670005ED1FFF7AFFEC01B6428F5D903208FE2CF
:101680004C4BD3F894301B0903F0F003A0E7FFF7AD
:10169000BBFE002840F07D82464B1A6842F00802EB
:1016A0001A601A6822F0F002216A0A431A605A6826
:1016B00022F47F42E16942EA01225A609EE7206AF1
:1016C000FFF7A2FE002899D0012069E2394B1A6881
:1016D00042F008021A601A6822F0F002216A0A43F6
:1016E0001A605A6822F47F42E16942EA01225A6094
:1016F00098E7304A136823F001031360FFF76AFE8E
:1017000007462C4B1B6813F0020F8BD0FFF762FECD
:10171000C01B0228F5D9032042E2032E8BD1254BB2
:101720001B6813F4003F03D06368002B00F0338282
:10173000236813F0020F58D0042D45D00C2D41D052
:10174000E368002B77D01B4A136843F4807313605F
:10175000FFF740FE0646174B1B6813F4806F61D1FC
:10176000FFF738FE801B0228F5D9032018E2114A42
:10177000136843F4803313606FE703F18043A3F5EC
:101780003C331A6842F480221A601A6842F48032AC
:101790001A6062E7FFF71EFE0746064B1B6813F44C
:1017A000003FC5D0FFF716FEC01B6428F5D9032003
:1017B000F6E100BF00100240143B000808000020C2
:1017C00004000020022EBBD1A44B1B6813F4806FD1
:1017D00003D0E368002B00F0E081A04A536823F0B7
:1017E000F853216943EA01635360236813F0080F3B
:1017F0004CD063699BB3994AD2F8943043F001030B
:10180000C2F89430FFF7E6FD0646944BD3F89430C7
:1018100013F0020F3AD1FFF7DDFD801B0228F4D947
:101820000320BDE18D4A536823F0F853216943EA50
:1018300001635360D9E7894A136823F48073136006
:10184000FFF7C8FD0646854B1B6813F4806FCCD0AC
:10185000FFF7C0FD801B0228F5D90320A0E17F4AD5
:10186000D2F8943023F00103C2F89430FFF7B2FDB0
:1018700006467A4BD3F8943013F0020F06D0FFF7E8
:10188000A9FD801B0228F4D9032089E1236813F005
:10189000040F7AD0714B9B6D13F0805F36D16F4B84
:1018A0009A6D42F080529A659B6D03F080530193CC
:1018B000019B01266A4B1B6813F4807F28D0A36824
:1018C000012B39D0052B3FD0644BD3F8902022F068
:1018D0000102C3F89020D3F8902022F00402C3F84C
:1018E0009020A368002B3DD0FFF774FD07465B4BAB
:1018F000D3F8903013F0020F46D1FFF76BFDC01BF9
:1019000041F288339842F2D9032049E10026D1E719
:10191000534A136843F480731360FFF75BFD074677
:101920004F4B1B6813F4807FC9D1FFF753FDC01BD9
:101930000228F5D9032033E1484AD2F8903043F029
:101940000103C2F89030CCE7444BD3F8902042F02A
:101950000402C3F89020D3F8902042F00102C3F8AB
:101960009020BEE7FFF736FD07463C4BD3F890309A
:1019700013F0020F08D0FFF72DFDC01B41F2883392
:101980009842F2D903200BE1E6B9236813F0200F47
:1019900035D0636AE3B1314AD2F8983043F001039D
:1019A000C2F89830FFF716FD06462C4BD3F8983056
:1019B00013F0020F23D1FFF70DFD801B0228F4D98D
:1019C0000320EDE0254A936D23F080539365DCE717
:1019D000224AD2F8983023F00103C2F89830FFF77A
:1019E000F9FC06461D4BD3F8983013F0020F06D0D1
:1019F000FFF7F0FC801B0228F4D90320D0E0A36A93
:101A0000002B00F0CC80022B17D00C2D00F0CC80E6
:101A1000124A136823F080731360FFF7DBFC04465F
:101A20000E4B1B6813F0007F00F0A880FFF7D2FC7C
:101A3000001B0228F4D90320B2E0084BDB6803F056
:101A40000301E26A91420DD00C2D00F0AB80034BF4
:101A50001B6813F0806F2FD00120A1E0001002401E
:101A60000070004003F07002216B0139B2EB011FDE
:101A7000EAD103F4FE42616BB2EB012FE4D103F033
:101A80007842A16BB2EBC16FDED103F4C001E26B0F
:101A90005208013AB1EB425FD6D103F0C063226C29
:101AA0005208013AB3EB426FCED1404B1B6813F0A2
:101AB000007F49D0002073E03C4A136823F0807314
:101AC0001360FFF787FC0546384B1B6813F0007F57
:101AD00006D0FFF77FFC401B0228F5D903205FE00A
:101AE000324AD36832491940E36A206B013843EA2D
:101AF0000013606B43EA0023E06B4008013843EABF
:101B00004053206C4008013843EA4063A06B43EA2D
:101B1000C0630B43D360136843F080731360D368D2
:101B200043F08073D360FFF755FC04461F4B1B68DE
:101B300013F0007F06D1FFF74DFC001B0228F5D9FA
:101B400003202DE000202BE0184B1A6842F0807231
:101B50001A60DA6842F08072DA60FFF73BFC0446F4
:101B6000124B1B6813F0007F06D1FFF733FC031BF9
:101B7000022BF5D9032013E0002011E00B4AD168B5
:101B80000C4B0B40D36000200AE00120704701207D
:101B900006E0012004E0012002E0012000E0002036
:101BA00003B0F0BD0120FBE70120F9E7001002407F
:101BB0008C809D01FCFFEEFE002800F0AF8070B528
:101BC0000D460446594B1B6803F007038B420BD2AA
:101BD000564A136823F007030B431360136803F09E
:101BE00007038B4240F09C80236813F0020F0CD057
:101BF000A2684F4B9B6803F0F0039A4205D94C4909
:101C00008B6823F0F0031A438A60236813F0010FF6
:101C100039D06368032B09D0022B26D063BB444A1A
:101C2000126812F0020F06D1012076E0404A1268D5
:101C300012F0007F76D03E498A6822F003021343F7
:101C40008B60FFF7C7FB0646394B9B6803F00C031C
:101C50006268B3EB820F16D0FFF7BCFB801B41F22A
:101C600088339842F0D9032057E0314A126812F4C1
:101C7000003FE0D1012050E02D4A126812F4806F3D
:101C8000D9D1012049E0236813F0020F0CD0A268DB
:101C9000274B9B6803F0F0039A4205D224498B68D6
:101CA00023F0F0031A438A60204B1B6803F00703FC
:101CB000AB420AD91D4A136823F007032B43136074
:101CC000136803F00703AB422ED1236813F0040F0F
:101CD00006D0174A936823F4E063E1680B439360EE
:101CE000236813F0080F07D0114A936823F4605358
:101CF000216943EAC1039360FFF7CEFB0C4B9B685D
:101D0000C3F303130B4AD35C03F01F03D8400A4B01
:101D100018600A4B1868FFF719FB70BD0120704767
:101D20000120FAE70120F8E70120F6E70020024051
:101D300000100240143B00080800002004000020AE
:101D4000014B1868704700BF0800002008B5FFF776
:101D5000F7FF054B9B68C3F30223044AD35C03F0EF
:101D60001F03D84008BD00BF00100240243B0008FC
:101D700008B5FFF7E5FF054B9B68C3F3C223044A90
:101D8000D35C03F01F03D84008BD00BF0010024021
:101D9000243B0008F8B504460F46584BDB6813F0A7
:101DA000030F18D0554BDB6803F00303026893421E
:101DB00002D001252846F8BD002A00F09D804F4B37
:101DC000DB68C3F3021301334268934201D001255B
:101DD000F0E7002509E00368022B56D0032B5BD007
:101DE000012B41D00125002DE4D1444A136823F092
:101DF00080631360FFF7EEFA0646404B1B6813F052
:101E0000006F05D0FFF7E6FA831B022BF5D90325F7
:101E1000002DCFD1002F4DD138490B6923F07843E5
:101E200023F4FE43A068E268D20642EA002213438C
:101E30000B61324A136843F080631360FFF7CAFAFC
:101E400006462E4B1B6813F0006F05D1FFF7C2FA50
:101E5000831B022BF5D90325002DABD1274A13692B
:101E6000A1690B431361A5E7244A126812F0020F1F
:101E70001ED02248C26822F073026168013943EA29
:101E800001131343C3600025ADE71C4A126812F426
:101E9000806FEED10125A6E7184A126812F4003FC0
:101EA000E7D1164A126812F4802FE2D101259AE791
:101EB000012598E7012F0FD01048026922F0C06277
:101EC00022F4FE42A16863695B08013B5B0643EABA
:101ED000012313430361ACE70848026922F4C002FE
:101EE00022F4FE42A16823695B08013B5B0543EADB
:101EF0000123134303619CE701255BE700100240C7
:101F00002DE9F04182B00446036813F4006F25D038
:101F1000436CB3F5000F06D0B3F5400F12D04BB1B0
:101F2000012637461CE0B34AD36843F48033D360BC
:101F3000002708E000210430FFF72CFF074610B10E
:101F400006460DE00027AB4AD2F8883023F4400360
:101F5000616C0B43C2F88830002601E0002637464A
:101F6000236813F4003F6BD0A24B9B6D13F0805F8E
:101F70004CD1A04B9A6D42F080529A659B6D03F054
:101F800080530193019B4FF001089B4A136843F46F
:101F900080731360FFF71EFA0546974B1B6813F416
:101FA000807F05D1FFF716FA401B0228F5D90327D9
:101FB000002F40D18F4BD3F8903013F4407315D0DD
:101FC000A26D9A4212D08B4AD2F8903023F440731B
:101FD000D2F8901041F48031C2F89010D2F89010ED
:101FE00021F48031C2F89010C2F8903013F0010F44
:101FF0000FD1002F40F0E3807E4AD2F8903023F4D6
:102000004073A16D0B43C2F8903015E04FF000080B
:10201000BBE7FFF7DFF90546764BD3F8903013F0B6
:10202000020FE6D1FFF7D6F9401B41F28833984200
:10203000F2D90327DDE73E46B8F1000F40F0C1803A
:10204000236813F0010F08D06A4AD2F8883023F0D1
:102050000303216A0B43C2F88830236813F0020F90
:1020600008D0644AD2F8883023F00C03616A0B432D
:10207000C2F88830236813F0040F08D05D4AD2F804
:10208000883023F03003A16A0B43C2F888302368FC
:1020900013F0200F08D0574AD2F8883023F4406359
:1020A000E16A0B43C2F88830236813F4007F08D03C
:1020B000504AD2F8883023F44023E16B0B43C2F836
:1020C0008830236813F4806F08D04A4AD2F88830E9
:1020D00023F44013216C0B43C2F88830236813F0BB
:1020E000400F08D0434AD2F8883023F44053216B84
:1020F0000B43C2F88830236813F0800F08D03D4AA4
:10210000D2F8883023F44043616B0B43C2F8883027
:10211000236813F4807F08D0364AD2F8883023F43D
:102120004033A16B0B43C2F88830236813F4002FAF
:102130000FD0304AD2F8883023F04063A16C0B43B3
:10214000C2F88830A36CB3F1006F40D0B3F1806F58
:1021500042D0236813F4802F0FD0264AD2F888305B
:1021600023F04063E16C0B43C2F88830E36CB3F1B9
:10217000006F39D0B3F1806F40D0236813F4804FE3
:102180000CD01C4AD2F8883023F04053216D0B4309
:10219000C2F88830236DB3F1805F37D0236813F421
:1021A000004F08D0134AD2F8883023F08043616D85
:1021B0000B43C2F88830304602B0BDE8F0813E469D
:1021C0003AE70C4A936D23F08053936538E7D36860
:1021D00043F48013D360BCE70121201DFFF7DAFD33
:1021E0000028B6D00646B4E7D36843F48013D36022
:1021F000C3E700BF00100240007000400121201D15
:10220000FFF7C8FD0028B8D00646B6E70221201D1A
:10221000FFF7C0FD0028C1D00646BFE7F0B583B088
:10222000002362E085685E000324B44025EA0405CB
:10223000CC68B4402C438460446824EA0C0C4C689D
:10224000C4F300149C4044EA0C0444605EE0DD08E2
:10225000083550F8256003F007044FEA840C0F247A
:1022600004FA0CF426EA040E0C6904FA0CF444EAAD
:102270000E0440F8254060E0042400E0002404FA45
:102280000EF42C430CF1020C524D45F82C40524CEC
:10229000A568D44325EA02064F6817F4801F01D0D1
:1022A00042EA05064C4DAE60ED6804EA05064F684B
:1022B00017F4001F01D042EA0506474DEE606D6835
:1022C00004EA05064F6817F4003F01D042EA05060C
:1022D000414D6E602D682C404E6816F4803F01D051
:1022E00042EA05043C4A146001330A6832FA03F4F6
:1022F0006ED04FF0010C0CFA03FC1CEA0202F3D082
:102300004C6804F00304013C012C8BD94C6804F0A8
:102310000304032C0CD0C4685D004FF0030C0CFACE
:1023200005FC24EA0C0C8C68AC4044EA0C04C46044
:102330004C6804F00304022C89D004684FEA430E71
:102340004FF0030C0CFA0EFC24EA0C0C4C6804F061
:10235000030404FA0EF444EA0C0404604C6814F418
:10236000403FC1D01D4C256E45F001052566246E09
:1023700004F001040194019C4FEA930C0CF1020556
:10238000144C54F8255003F003044FEA840E0F2434
:1023900004FA0EF425EA0405B0F1904F3FF46EAF55
:1023A0000F4CA0420ED004F58064A0420CD004F57E
:1023B0008064A0420AD004F58064A0423FF45CAF80
:1023C00007245CE701245AE7022458E7032456E770
:1023D00003B0F0BD000001400004014000100240C5
:1023E000000400480AB181617047816270470000B3
:1023F000024B186800F4C060704700BF00700040D6
:10240000B0F5007F0FD01F4B1B6803F4C063B3F51A
:10241000806F34D01B4A136823F4C06343F4806395
:10242000136000207047174B1B6803F4C063B3F5BB
:10243000007F20D0134A136823F4C06343F4007371
:102440001360114B1B68322202FB03F30F4AA2FBFD
:1024500003239B0C013300E0013B0A4A526912F44A
:10246000806F01D0002BF7D1064B5B6913F4806FAE
:1024700003D10020704700207047032070470020E0
:10248000704700BF007000400800002083DE1B433F
:10249000074AD36823F4E0631B041B0C000200F41A
:1024A000E060034343F0BF6343F40033D3607047FD
:1024B00000ED00E000B5194BDB68C3F30223C3F164
:1024C000070CBCF1040F28BF4FF0040C03F1040EFD
:1024D000BEF1060F18D9033B4FF0FF3E0EFA0CFC7D
:1024E00021EA0C0199400EFA03F322EA030319438F
:1024F00000280BDB0901C9B200F1604000F5614022
:1025000080F800135DF804FB0023E5E700F00F00FE
:102510000901C9B2024B1954F4E700BF00ED00E015
:1025200014ED00E00138B0F1807F0BD24FF0E023D2
:102530005861054AF02182F8231000209861072293
:102540001A6170470120704700ED00E010B50446A5
:10255000016883680269134342691343C2691343E4
:102560000868954A024013430B602268536823F4BD
:102570004053E1680B435360A16922688F4B9A4234
:1025800001D0236A1943936823F430630B439360AB
:1025900023688B4A93421FD08A4A934230D08A4A9A
:1025A000934246D0854A934255D0102283498B42AC
:1025B0007AD0E069B0F5004F00F0A680082A00F25A
:1025C0000F81DFE812F0CE00E500CC000D01E8003D
:1025D0000D010D010D01EB0002F55842D2F88820E3
:1025E00002F00302032A09D8DFE802F002044A06D7
:1025F0000122DBE70422D9E70822D7E71022D5E73A
:1026000002F5E632D2F8882002F00C020C2A0ED82D
:10261000DFE802F0070D0D0D090D0D0D380D0D0D44
:102620000B000022C2E70422C0E70822BEE7102206
:10263000BCE702F5E432D2F8882002F03002202A0A
:1026400022D004D812B3102A22D10422AEE7302AB5
:1026500020D10822AAE702F5C832D2F8882002F475
:102660004062B2F5006F17D005D8BAB1B2F5806FED
:1026700016D104229AE7B2F5406F13D1082295E7EC
:10268000022293E7022291E702228FE700228DE7E0
:1026900010228BE7102289E7022287E7002285E7D4
:1026A000102283E7102281E7082A7AD8DFE802F0B7
:1026B00008792A792779797905004FF4004003E0F9
:1026C000FFF744FB00286ED0626802EB42038342AE
:1026D0006BD8B0EB023F6AD8010E00025308C01855
:1026E0004FF0000341F10001FDF7C2FDA0F540727B
:1026F000364B9A425DD82368D860002044E0FEF74C
:10270000CBFEDFE73248DFE7082A63D8DFE802F0D4
:1027100007210562246262620B002D4803E0FFF787
:1027200015FB002858D06268530803EB4000B0FB4B
:10273000F2F0A0F110024FF6EF739A424ED883B236
:1027400023F00F03C0F3420018432368D860002031
:102750001AE0FFF70DFBE4E7FEF79EFEE1E71C48F9
:1027600003E0FFF7F3FA00283CD0636800EB530066
:10277000B0FBF3F0A0F110024FF6EF739A4233D89A
:10278000236880B2D860002000236366A36610BD72
:10279000FFF7EEFAE7E7FEF77FFEE4E74FF40040CD
:1027A000E3E70120F0E70020EEE70120ECE701205D
:1027B000EAE70120E8E700BFF369FFEF008000408F
:1027C000003801400044004000480040FFFC0F007A
:1027D0000024F4000120D7E70020D5E70120D3E74B
:1027E0000120D1E70020CFE70120CDE7436A13F0B5
:1027F000010F06D00268536823F40033816A0B434B
:102800005360436A13F0020F06D00268536823F442
:102810008033C16A0B435360436A13F0040F06D040
:102820000268536823F48023016B0B435360436AAF
:1028300013F0080F06D00268536823F40043416B7D
:102840000B435360436A13F0100F06D0026893687D
:1028500023F48053816B0B439360436A13F0200F82
:1028600006D00268936823F40053C16B0B43936056
:10287000436A13F0400F0AD00268536823F48013B0
:10288000016C0B435360036CB3F5801F0BD0436A9C
:1028900013F0800F06D00268536823F40023816C84
:1028A0000B43536070470268536823F4C003416CC4
:1028B0000B435360EBE72DE9F84305460F461646F8
:1028C0009946DDF820802C68E46937EA04030CBFE0
:1028D0004FF0010C4FF0000CB44553D1B8F1FF3F5D
:1028E000F1D0FEF777FDA0EB090040452DD8B8F1F7
:1028F000000F2AD02B681A6812F0040FE3D0DA69AF
:1029000012F4006FDFD04FF400621A622A6852E8B6
:10291000003F23F4D07342E800310029F6D12A6841
:1029200002F1080353E8003F23F00103083242E8B4
:1029300000310029F3D12023AB67EB67C5F8803065
:10294000002385F8743003201DE02A6852E8003F18
:1029500023F4D07342E800310029F6D12A6802F14D
:10296000080353E8003F23F00103083242E8003136
:102970000029F3D12023AB67EB67002385F874307F
:10298000032000E00020BDE8F88330B583B00446A2
:102990000023C0F88030FEF71DFD0546226812684E
:1029A00012F0080F0DD123681B6813F0040F16D125
:1029B0002023A367E3670020206684F8740003B037
:1029C00030BD6FF07E430093034600224FF40011A8
:1029D0002046FFF770FF0028E5D00320EFE76FF0F7
:1029E0007E4300932B4600224FF480012046FFF7E0
:1029F00062FF0028DCD00320E1E768B310B504468D
:102A0000836F03B32423A3672268136823F00103B1
:102A100013602046FFF79AFD012813D0636ABBB903
:102A20002268536823F4904353602268936823F02C
:102A30002A0393602268136843F001031360204661
:102A4000FFF7A3FF10BD80F87430FDF70BFFD9E747
:102A50002046FFF7CBFEE3E701207047034AD2F898
:102A6000883043F47003C2F88830704700ED00E00E
:102A7000DFF834D0FFF7F2FF0C480D490D4A002370
:102A800002E0D458C4500433C4188C42F9D30A4A23
:102A90000A4C002301E013600432A242FBD300F091
:102AA00011F8FDF7A7FDFEE700000120000000205F
:102AB00070000020103C0008700000208C010020F5
:102AC000FEE7000070B50D4D0D4C641BA4100026F0
:102AD000A64209D10B4D0C4C00F0ECFF641BA41076
:102AE0000026A64205D170BD55F8043B9847013633
:102AF000EEE755F8043B98470136F2E7003C000842
:102B0000003C0008003C0008043C00080244034666
:102B1000934200D1704703F8011BF9E70FB40A4B49
:102B200013B51C6824B1A36913B9204600F066F8F8
:102B300005AB049AA1680193204600F0BDF902B0EC
:102B4000BDE8104004B070470C000020002310B511
:102B50000446C0E90033C0E90433836081814366E1
:102B6000C2818361194608225C30FFF7CFFF054B15
:102B70006362054BA362054BE362054B246223634A
:102B800010BD00BF6134000883340008BB34000866
:102B9000DF340008014900F0AFB800BFB9370008C2
:102BA00070B568224D1E55430E4605F1740100F0C4
:102BB000E5F8044640B10021C0E900160C30A060E1
:102BC00005F16802FFF7A2FF204670BD014800F042
:102BD000B3B800BF79010020014800F0AEB800BFD3
:102BE00079010020014800F0A7B800BF7A01002059
:102BF000014800F0A2B800BF7A01002010B50446D9
:102C0000FFF7F0FFA3691BB1BDE81040FFF7F0BF6D
:102C1000C4E912332365134B134A1B68A262A34213
:102C200004BF0123A361204600F020F86060204625
:102C300000F01CF8A060204600F018F80022E060C8
:102C400004216068FFF782FFA06801220921FFF7D5
:102C50007DFFE06802221221FFF778FF0123A361C4
:102C6000D2E700BF5C3B0008952B0008F8B507468B
:102C7000FFF7ACFF1E4B1E68B36913B93046FFF770
:102C8000BDFF4836D6E90134013B03D533680BB3A9
:102C90003668F7E7B4F90C50D5B9164BE36004F188
:102CA0005800656600F047F8FFF796FFC4E9015544
:102CB000C4E904552560A5610822294604F15C0099
:102CC000FFF724FFC4E90D55C4E912552046F8BDAD
:102CD0006834D9E704213846FFF762FF04463060C4
:102CE0000028D5D1FFF778FF0C233B60EEE700BF4B
:102CF0005C3B00080100FFFF2DE9F84306468846CB
:102D000000F148040027D4E90195B9F1010905D57E
:102D10002468002CF7D13846BDE8F883AB89012B35
:102D200007D9B5F90E30013303D029463046C047E4
:102D300007436835E9E770477047704770B50E4E36
:102D40000C463168054611B900F07AFB3060214627
:102D5000284600F075FB431C0AD0C41C24F0030471
:102D6000A04207D0211A284600F06AFB013001D1A9
:102D70004FF0FF34204670BD800100202DE9F04166
:102D8000CD1C25F0030508350C2D38BF0C25002D72
:102D9000074601DBA94205D90C233B6000263046DB
:102DA000BDE8F0812E4E00F0BBFD33681C4634BBFD
:102DB00029463846FFF7C2FF431C04464DD134680C
:102DC0002646002E40D123683146384604EB0308DE
:102DD00000F036FB80453AD1216803356D1A25F0A5
:102DE000030508350C2D38BF0C2529463846FFF75A
:102DF000A5FF01302BD023682B4423600EE022680E
:102E0000521B1ED40B2A16D96119A342256018BF84
:102E10005960636808BF316062514B60384604F105
:102E20000B0600F083FD26F00706231DF21AB6D02C
:102E30009B1BA350B3E76268A3420CBF32605A6089
:102E4000ECE723466468B2E734467668B9E70C23BA
:102E50003B60384600F06AFDA1E72560DEE700BF71
:102E60007C0100209368013B002B10B4936008DACA
:102E70009469A34201DB0A2903D15DF8044B00F0F9
:102E800033BB1368581C1060197008465DF8044B7A
:102E90007047F8B506460F461446D518AC4201D126
:102EA000002007E014F8011B3A463046FFF7DAFF2E
:102EB000431CF3D1F8BD00002DE9F04F0D469DB045
:102EC00014469846064618B183690BB9FFF796FE7B
:102ED000894B9D421BD175686B6ED90705D4AB89B0
:102EE0009A0502D4A86DFFF727FFAB891B0701D510
:102EF0002B69EBB92946304600F05AFBC0B16B6E26
:102F0000DC070ED54FF0FF301DB0BDE8F08F7B4BD6
:102F10009D4201D1B568DFE7794B9D4208BFF56856
:102F2000DAE7AB899805EDD4A86DFFF706FFE9E76E
:102F30000023099320238DF82930CDF80C8030230D
:102F4000DFF8C0818DF82A304FF0010923469A46F8
:102F500013F8012B0AB1252AF9D1BAEB040B0BD0D7
:102F60005B46224629463046FFF793FF013000F0CA
:102F7000AA80099A5A4409929AF80030002B00F06E
:102F8000A28000234FF0FF32CDE905230AF1010AA8
:102F9000049307938DF853301A935446052214F87E
:102FA000011B5848FDF714F9049AD8B9D10644BF5B
:102FB00020238DF85330130744BF2B238DF8533053
:102FC0009AF800302A2B15D0079A544600204FF06B
:102FD0000A0C214611F8013B303B092B4ED9B0B108
:102FE000079214E0A0EB080309FA03F313430493D8
:102FF000A246D2E7039B191D1B680391002BBBBFA0
:103000005B4242F0020207930793B8BF0492237811
:103010002E2B0CD163782A2B35D1039B1A1D1B68EC
:103020000392002BB8BF4FF0FF3302340593DFF853
:10303000E4A0217803225046FDF7CAF840B14023AE
:10304000A0EB0A0003FA00F0049B0343013404934D
:1030500014F8011B2C488DF828100622FDF7B8F84B
:1030600000283FD0294B1BBB039B073323F00703EA
:1030700008330393099B3B44099367E70CFB023237
:103080000C460120A5E700230134059319464FF0B3
:103090000A0C204610F8012B303A092A03D9002BDC
:1030A000C5D00591C3E70CFB012104460123F0E7DD
:1030B00003AB00932A46164B04A93046AFF30080B9
:1030C0000746781CD6D16B6ED90705D4AB899A0513
:1030D00002D4A86DFFF731FEAB895B063FF512AF56
:1030E000099811E703AB00932A46094B04A930461F
:1030F00000F080F8E4E700BF803B0008A03B000838
:10310000603B0008C03B0008CA3B0008000000000C
:10311000932E0008C63B00082DE9F0471646994655
:103120008A680B69DDF820809342B8BF134633608C
:1031300091F8432007460C460AB1013333602368F7
:10314000990642BF336802333360256815F00605DF
:1031500006D104F1190AE36832689B1AAB4226DCF7
:1031600094F84320131E226818BF012392062BD423
:1031700004F1430249463846C04701301ED0236857
:10318000E568326803F00603042B08BFAD1AA36894
:1031900022690CBF25EAE57500259342C4BF9B1A3E
:1031A000ED1800261A34B5421AD1002008E0012398
:1031B000524649463846C047013003D14FF0FF30F0
:1031C000BDE8F0870135C6E7E1185A1C302081F8C8
:1031D0004300224494F8451082F843100233C7E7B5
:1031E0000123224649463846C0470130E6D0013621
:1031F000D9E700002DE9FF470F7E0C9D782F9146FF
:1032000080460C469A4601F1430207D8622F0AD83D
:10321000002F00F0D880582F00F0A38004F1420561
:1032200084F842703AE0A7F16303152BF6D801A1A8
:1032300051F823F08D320008A13200081D32000839
:103240001D3200081D3200081D320008A13200089E
:103250001D3200081D3200081D3200081D32000812
:10326000AD330008D13200088F3300081D3200084A
:103270001D320008CF3300081D320008D13200088B
:103280001D3200081D320008973300082B681A1DF4
:103290001B682A6004F1420584F842300123A3E050
:1032A00020682968060601F104030AD50E682B6020
:1032B000002E03DA2D23764284F843305E480A2339
:1032C00019E00E682B6010F0400F18BF36B2EFE720
:1032D0002B682068191D2960010601D51E6802E0CF
:1032E0004606FBD51E8854486F2F0CBF08230A23BF
:1032F000002184F843106568A560002DA2BF2168F5
:1033000021F0040121600EB9002D4DD01546B6FB09
:10331000F3F103FB1167C75D05F8017D3746BB423A
:103320000E46F4D9082B0BD12368DE0708D5236994
:1033300061689942DEBF302305F8013C05F1FF3595
:10334000521B2261CDF800A04B4603AA21464046FD
:10335000FFF7E2FE01304CD14FF0FF3004B0BDE882
:10336000F087354881F845702968236851F8046B67
:1033700029601D0614D5DF0744BF43F020032360F6
:103380001EB9236823F0200323601023B0E72368CD
:1033900043F0200323607823284884F84530E3E78E
:1033A000590648BFB6B2E6E71546BBE72B68266864
:1033B0006169181D286035061B6801D5196002E097
:1033C0007006FBD51980002323611546BAE72B68E8
:1033D0001A1D2A601D68626800212846FCF7F8FE65
:1033E00008B1401B606063682361002384F84330A8
:1033F000A8E723692A4649464046D0470130ABD06A
:1034000023689B0713D4E068039B9842B8BF184613
:10341000A4E70123324649464046D04701309BD0BD
:103420000135E36803995B1AAB42F2DCEBE7002558
:1034300004F11906F5E700BFD13B0008E23B0008A4
:1034400038B5064D0023044608462B6000F01CFBEF
:10345000431C02D12B6803B1236038BD84010020D6
:1034600010B50C46B1F90E1000F0B2FA0028ABBF4F
:10347000636DA3891B1823F48053ACBF6365A381DC
:1034800010BD2DE9F0411F468B89DB0505460C4632
:10349000164605D5B1F90E100223002200F0C8F936
:1034A000A389B4F90E1023F48053A38132463B461E
:1034B0002846BDE8F04100F069B810B50C46B1F9F6
:1034C0000E1000F0B5F9431CA38915BF606523F405
:1034D000805343F48053A38118BFA38110BDB1F979
:1034E0000E1000F0D3B80000F8B50E46144605469D
:1034F00018B183690BB9FFF781FB214B9C422BD19B
:103500006C68A369A360A3891A072FD523696BB3DD
:1035100023692068C01A6369F6B28342374604DC27
:103520002146284600F048F930BBA368013BA36060
:1035300023685A1C22601E7063690130834204D0E4
:10354000A389DB0706D50A2E04D12146284600F0C0
:1035500033F988B93846F8BD0A4B9C4201D1AC68B2
:10356000CFE7094B9C4208BFEC68CAE721462846D2
:1035700000F01EF80028CBD04FF0FF37EAE700BF7D
:10358000803B0008A03B0008603B000838B5074DB1
:1035900004460846114600222A601A4600F082FAC4
:1035A000431C02D12B6803B1236038BD8401002085
:1035B000324B70B51D6806460C4625B1AB6913B990
:1035C0002846FFF71BFB2E4B9C420FD16C68A3894A
:1035D000B4F90C2019072CD4DD0611D4092333606B
:1035E00042F04003A3814FF0FF303EE0254B9C4268
:1035F00001D1AC68EBE7244B9C4208BFEC68E6E7DE
:10360000580712D5616B41B104F14403994202D0CD
:10361000304600F091F900236363A38923F024036B
:10362000A3810023636023692360A38943F0080317
:10363000A38123694BB9A38903F42073B3F5007FF9
:1036400003D02146304600F02BF9A089B4F90C20B4
:1036500010F001030AD00023A36063695B42A361F9
:10366000236943B910F08000BAD170BD810758BFFB
:103670006369A360F4E70020F7E700BF0C000020B7
:10368000803B0008A03B0008603B000838B5064DB1
:103690000023044608462B6000F0CEF9431C02D1FB
:1036A0002B6803B1236038BD840100208A892DE98D
:1036B000F041054610070C4658D44B68002B05DC3A
:1036C0000B6C002B02DC0020BDE8F081E66A002EC6
:1036D000F9D0002312F480522F682B6032D0606D35
:1036E000A3895A0705D56368C01A636B0BB1236CB5
:1036F000C01A00230246E66A216A2846B047431CE6
:10370000A38906D129681D292CD82A4ACA40D60780
:1037100028D500226260D9042269226004D5421CA7
:1037200001D12B6803B96065616B2F600029CAD095
:1037300004F14403994202D0284600F0FDF800202D
:103740006063C1E7216A01232846B047411CC7D105
:103750002B68002BC4D01D2B01D0162B01D12F605C
:10376000B1E7A38943F04003A381ADE70F69002FC0
:10377000A9D093070E6808BF4B690F6018BF0023DC
:10378000A6EB07088B60B8F1000F9CDD216AA66AE2
:1037900043463A462846B047002806DCA38943F052
:1037A0004003A3814FF0FF308EE70744A8EB0008E9
:1037B000E9E700BF0100402038B50B6905460C461B
:1037C00013B90025284638BD18B183690BB9FFF736
:1037D00015FA144B9C421BD16C68B4F90C30002BC9
:1037E000EFD0626ED00704D4990502D4A06DFFF724
:1037F000A3FA28462146FFF759FF636EDA0705460C
:10380000E0D4A3899B05DDD4A06DFFF796FAD9E734
:10381000054B9C4201D1AC68DFE7044B9C4208BFDA
:10382000EC68DAE7803B0008A03B0008603B00083A
:1038300038B5074D04460846114600222A601A464C
:1038400000F012F9431C02D12B6803B1236038BD8C
:103850008401002070B50E46B1F90E10002996B013
:1038600014461D4608DAB6F90C3000222A601A0602
:1038700010D44FF480630EE06A4600F0BBF80028D5
:10388000F1DB019A02F47042A2F500535A425A4108
:103890002A60EEE740230020236016B070BD0000D0
:1038A0008B8973B59D0706460C4607D504F147037F
:1038B000236023610123636102B070BD01AB6A46DE
:1038C000FFF7C8FF009905463046FFF757FA48B999
:1038D000B4F90C309A05EFD423F0030343F002034C
:1038E000A381E3E70D4BB362A389206043F080031B
:1038F000A381009B6361019B20615BB1B4F90E1051
:10390000304600F089F828B1A38923F0030343F07F
:103910000103A381A0890543A581CDE7952B00086C
:103920000148FFF709BA00BF780100200148FFF7FE
:1039300004BA00BF7801002037B5002944D051F8FF
:10394000043C0190002BA1F10404B8BFE418FFF778
:10395000E7FF1E4A0198136833B96360146003B02F
:10396000BDE83040FFF7E2BFA34208D925686119DE
:103970008B4201BF19685B6849192160EDE71A465F
:103980005B680BB1A342FAD911685518A5420BD157
:10399000246821445418A3421160E0D11C685B687C
:1039A000536021441160DAE702D90C230360D6E7A3
:1039B000256861198B4204BF19685B68636004BFA6
:1039C000491921605460CAE703B030BD7C01002072
:1039D00038B5074D04460846114600222A601A46AB
:1039E00000F04AF8431C02D12B6803B1236038BDB4
:1039F0008401002038B5074D0023044608461146CF
:103A00002B6000F021F8431C02D12B6803B1236026
:103A100038BD00BF8401002038B5064D00230446A0
:103A200008462B6000F018F8431C02D12B6803B144
:103A3000236038BD84010020024B58221A604FF0E9
:103A4000FF30704784010020024B58221A604FF06B
:103A5000FF30704784010020024B58221A6000207A
:103A6000704700BF84010020024B58221A604FF0BB
:103A7000FF30704784010020024B58221A604FF03B
:103A8000FF30704784010020044A05491368002B69
:103A900008BF0B4618441060184670478801002084
:103AA00090010020024B58221A604FF0FF307047FF
:103AB00084010020F8B500BFF8BC08BC9E467047E2
:103AC000F8B500BFF8BC08BC9E4670470000000077
:103AD0004D49443A25642C49443A25640D0A0000B6
:103AE00048414C5F5350495F5472616E736D697405
:103AF000206572723A2530780000000048414C5F22
:103B00005350495F52656365697665206572723A04
:103B100025307800000000000000000001020304CE
:103B2000060708090000000001020304A086010046
:103B3000400D0300801A060000350C0040420F00C3
:103B400080841E0000093D0000127A000024F40069
:103B500000366E010048E801006CDC021000002015
:103B60000000000000000000000000000000000055
:103B70000000000000000000000000000000000045
:103B80000000000000000000000000000000000035
:103B90000000000000000000000000000000000025
:103BA0000000000000000000000000000000000015
:103BB0000000000000000000000000000000000005
:103BC000232D302B2000686C4C0065666745464706
:103BD0000030313233343536373839414243444589
:103BE00046003031323334353637383961626364F8
:083BF000656600000000000002
:083BF800A8C6FF7F01000000D8
:083C0000B501000800000000FE
:083C080091010008000000001A
:103C1000010000001000000000093D00100000201D
:103C200000000000803B0008A03B0008603B00084B
:103C30000000000000000000000000000000000084
:103C40000000000000000000000000000000000074
:103C50000000000000000000000000000000000064
:103C60000000000000000000000000000000000054
:103C70000000000000000000000000000000000044
:0400000508002A7154
:00000001FF
